{
	"contracts/AVSManager.sol": {
		"AVSManager": {
			"abi": [
				{
					"inputs": [],
					"stateMutability": "nonpayable",
					"type": "constructor"
				},
				{
					"inputs": [
						{
							"internalType": "address",
							"name": "owner",
							"type": "address"
						}
					],
					"name": "OwnableInvalidOwner",
					"type": "error"
				},
				{
					"inputs": [
						{
							"internalType": "address",
							"name": "account",
							"type": "address"
						}
					],
					"name": "OwnableUnauthorizedAccount",
					"type": "error"
				},
				{
					"anonymous": false,
					"inputs": [
						{
							"indexed": false,
							"internalType": "bytes",
							"name": "aggregateSignature",
							"type": "bytes"
						}
					],
					"name": "AggregateSignatureSubmitted",
					"type": "event"
				},
				{
					"anonymous": false,
					"inputs": [
						{
							"indexed": true,
							"internalType": "address",
							"name": "previousOwner",
							"type": "address"
						},
						{
							"indexed": true,
							"internalType": "address",
							"name": "newOwner",
							"type": "address"
						}
					],
					"name": "OwnershipTransferred",
					"type": "event"
				},
				{
					"inputs": [],
					"name": "latestAggregateSignature",
					"outputs": [
						{
							"internalType": "bytes",
							"name": "",
							"type": "bytes"
						}
					],
					"stateMutability": "view",
					"type": "function"
				},
				{
					"inputs": [],
					"name": "owner",
					"outputs": [
						{
							"internalType": "address",
							"name": "",
							"type": "address"
						}
					],
					"stateMutability": "view",
					"type": "function"
				},
				{
					"inputs": [],
					"name": "renounceOwnership",
					"outputs": [],
					"stateMutability": "nonpayable",
					"type": "function"
				},
				{
					"inputs": [
						{
							"internalType": "bytes",
							"name": "aggregateSig",
							"type": "bytes"
						}
					],
					"name": "submitAggregateSignature",
					"outputs": [],
					"stateMutability": "nonpayable",
					"type": "function"
				},
				{
					"inputs": [
						{
							"internalType": "address",
							"name": "newOwner",
							"type": "address"
						}
					],
					"name": "transferOwnership",
					"outputs": [],
					"stateMutability": "nonpayable",
					"type": "function"
				}
			],
			"devdoc": {
				"errors": {
					"OwnableInvalidOwner(address)": [
						{
							"details": "The owner is not a valid owner account. (eg. `address(0)`)"
						}
					],
					"OwnableUnauthorizedAccount(address)": [
						{
							"details": "The caller account is not authorized to perform an operation."
						}
					]
				},
				"kind": "dev",
				"methods": {
					"owner()": {
						"details": "Returns the address of the current owner."
					},
					"renounceOwnership()": {
						"details": "Leaves the contract without owner. It will not be possible to call `onlyOwner` functions. Can only be called by the current owner. NOTE: Renouncing ownership will leave the contract without an owner, thereby disabling any functionality that is only available to the owner."
					},
					"transferOwnership(address)": {
						"details": "Transfers ownership of the contract to a new account (`newOwner`). Can only be called by the current owner."
					}
				},
				"version": 1
			},
			"evm": {
				"assembly": "    /* \"contracts/AVSManager.sol\":119:842  contract AVSManager is Ownable {... */\n  mstore(0x40, 0x80)\n    /* \"contracts/AVSManager.sol\":156:192  constructor() Ownable(msg.sender) {} */\n  callvalue\n  dup1\n  iszero\n  tag_1\n  jumpi\n  0x00\n  dup1\n  revert\ntag_1:\n  pop\n    /* \"contracts/AVSManager.sol\":178:188  msg.sender */\n  caller\n    /* \"@openzeppelin/contracts/access/Ownable.sol\":1297:1298  0 */\n  0x00\n    /* \"@openzeppelin/contracts/access/Ownable.sol\":1273:1299  initialOwner == address(0) */\n  0xffffffffffffffffffffffffffffffffffffffff\n  and\n    /* \"@openzeppelin/contracts/access/Ownable.sol\":1273:1285  initialOwner */\n  dup2\n    /* \"@openzeppelin/contracts/access/Ownable.sol\":1273:1299  initialOwner == address(0) */\n  0xffffffffffffffffffffffffffffffffffffffff\n  and\n  sub\n    /* \"@openzeppelin/contracts/access/Ownable.sol\":1269:1364  if (initialOwner == address(0)) {... */\n  tag_5\n  jumpi\n    /* \"@openzeppelin/contracts/access/Ownable.sol\":1350:1351  0 */\n  0x00\n    /* \"@openzeppelin/contracts/access/Ownable.sol\":1322:1353  OwnableInvalidOwner(address(0)) */\n  mload(0x40)\n  0x1e4fbdf700000000000000000000000000000000000000000000000000000000\n  dup2\n  mstore\n  0x04\n  add\n  tag_6\n  swap2\n  swap1\n  tag_7\n  jump\t// in\ntag_6:\n  mload(0x40)\n  dup1\n  swap2\n  sub\n  swap1\n  revert\n    /* \"@openzeppelin/contracts/access/Ownable.sol\":1269:1364  if (initialOwner == address(0)) {... */\ntag_5:\n    /* \"@openzeppelin/contracts/access/Ownable.sol\":1373:1405  _transferOwnership(initialOwner) */\n  tag_8\n    /* \"@openzeppelin/contracts/access/Ownable.sol\":1392:1404  initialOwner */\n  dup2\n    /* \"@openzeppelin/contracts/access/Ownable.sol\":1373:1391  _transferOwnership */\n  shl(0x20, tag_9)\n    /* \"@openzeppelin/contracts/access/Ownable.sol\":1373:1405  _transferOwnership(initialOwner) */\n  0x20\n  shr\n  jump\t// in\ntag_8:\n    /* \"@openzeppelin/contracts/access/Ownable.sol\":1225:1412  constructor(address initialOwner) {... */\n  pop\n    /* \"contracts/AVSManager.sol\":119:842  contract AVSManager is Ownable {... */\n  jump(tag_11)\n    /* \"@openzeppelin/contracts/access/Ownable.sol\":2912:3099  function _transferOwnership(address newOwner) internal virtual {... */\ntag_9:\n    /* \"@openzeppelin/contracts/access/Ownable.sol\":2985:3001  address oldOwner */\n  0x00\n    /* \"@openzeppelin/contracts/access/Ownable.sol\":3004:3010  _owner */\n  dup1\n  0x00\n  swap1\n  sload\n  swap1\n  0x0100\n  exp\n  swap1\n  div\n  0xffffffffffffffffffffffffffffffffffffffff\n  and\n    /* \"@openzeppelin/contracts/access/Ownable.sol\":2985:3010  address oldOwner = _owner */\n  swap1\n  pop\n    /* \"@openzeppelin/contracts/access/Ownable.sol\":3029:3037  newOwner */\n  dup2\n    /* \"@openzeppelin/contracts/access/Ownable.sol\":3020:3026  _owner */\n  0x00\n  dup1\n    /* \"@openzeppelin/contracts/access/Ownable.sol\":3020:3037  _owner = newOwner */\n  0x0100\n  exp\n  dup2\n  sload\n  dup2\n  0xffffffffffffffffffffffffffffffffffffffff\n  mul\n  not\n  and\n  swap1\n  dup4\n  0xffffffffffffffffffffffffffffffffffffffff\n  and\n  mul\n  or\n  swap1\n  sstore\n  pop\n    /* \"@openzeppelin/contracts/access/Ownable.sol\":3083:3091  newOwner */\n  dup2\n    /* \"@openzeppelin/contracts/access/Ownable.sol\":3052:3092  OwnershipTransferred(oldOwner, newOwner) */\n  0xffffffffffffffffffffffffffffffffffffffff\n  and\n    /* \"@openzeppelin/contracts/access/Ownable.sol\":3073:3081  oldOwner */\n  dup2\n    /* \"@openzeppelin/contracts/access/Ownable.sol\":3052:3092  OwnershipTransferred(oldOwner, newOwner) */\n  0xffffffffffffffffffffffffffffffffffffffff\n  and\n  0x8be0079c531659141344cd1fd0a4f28419497f9722a3daafe3b4186f6b6457e0\n  mload(0x40)\n  mload(0x40)\n  dup1\n  swap2\n  sub\n  swap1\n  log3\n    /* \"@openzeppelin/contracts/access/Ownable.sol\":2975:3099  {... */\n  pop\n    /* \"@openzeppelin/contracts/access/Ownable.sol\":2912:3099  function _transferOwnership(address newOwner) internal virtual {... */\n  pop\n  jump\t// out\n    /* \"#utility.yul\":7:133   */\ntag_13:\n    /* \"#utility.yul\":44:51   */\n  0x00\n    /* \"#utility.yul\":84:126   */\n  0xffffffffffffffffffffffffffffffffffffffff\n    /* \"#utility.yul\":77:82   */\n  dup3\n    /* \"#utility.yul\":73:127   */\n  and\n    /* \"#utility.yul\":62:127   */\n  swap1\n  pop\n    /* \"#utility.yul\":7:133   */\n  swap2\n  swap1\n  pop\n  jump\t// out\n    /* \"#utility.yul\":139:235   */\ntag_14:\n    /* \"#utility.yul\":176:183   */\n  0x00\n    /* \"#utility.yul\":205:229   */\n  tag_19\n    /* \"#utility.yul\":223:228   */\n  dup3\n    /* \"#utility.yul\":205:229   */\n  tag_13\n  jump\t// in\ntag_19:\n    /* \"#utility.yul\":194:229   */\n  swap1\n  pop\n    /* \"#utility.yul\":139:235   */\n  swap2\n  swap1\n  pop\n  jump\t// out\n    /* \"#utility.yul\":241:359   */\ntag_15:\n    /* \"#utility.yul\":328:352   */\n  tag_21\n    /* \"#utility.yul\":346:351   */\n  dup2\n    /* \"#utility.yul\":328:352   */\n  tag_14\n  jump\t// in\ntag_21:\n    /* \"#utility.yul\":323:326   */\n  dup3\n    /* \"#utility.yul\":316:353   */\n  mstore\n    /* \"#utility.yul\":241:359   */\n  pop\n  pop\n  jump\t// out\n    /* \"#utility.yul\":365:587   */\ntag_7:\n    /* \"#utility.yul\":458:462   */\n  0x00\n    /* \"#utility.yul\":496:498   */\n  0x20\n    /* \"#utility.yul\":485:494   */\n  dup3\n    /* \"#utility.yul\":481:499   */\n  add\n    /* \"#utility.yul\":473:499   */\n  swap1\n  pop\n    /* \"#utility.yul\":509:580   */\n  tag_23\n    /* \"#utility.yul\":577:578   */\n  0x00\n    /* \"#utility.yul\":566:575   */\n  dup4\n    /* \"#utility.yul\":562:579   */\n  add\n    /* \"#utility.yul\":553:559   */\n  dup5\n    /* \"#utility.yul\":509:580   */\n  tag_15\n  jump\t// in\ntag_23:\n    /* \"#utility.yul\":365:587   */\n  swap3\n  swap2\n  pop\n  pop\n  jump\t// out\n    /* \"contracts/AVSManager.sol\":119:842  contract AVSManager is Ownable {... */\ntag_11:\n  dataSize(sub_0)\n  dup1\n  dataOffset(sub_0)\n  0x00\n  codecopy\n  0x00\n  return\nstop\n\nsub_0: assembly {\n        /* \"contracts/AVSManager.sol\":119:842  contract AVSManager is Ownable {... */\n      mstore(0x40, 0x80)\n      callvalue\n      dup1\n      iszero\n      tag_1\n      jumpi\n      0x00\n      dup1\n      revert\n    tag_1:\n      pop\n      jumpi(tag_2, lt(calldatasize, 0x04))\n      shr(0xe0, calldataload(0x00))\n      dup1\n      0x283cf971\n      eq\n      tag_3\n      jumpi\n      dup1\n      0x473391a3\n      eq\n      tag_4\n      jumpi\n      dup1\n      0x715018a6\n      eq\n      tag_5\n      jumpi\n      dup1\n      0x8da5cb5b\n      eq\n      tag_6\n      jumpi\n      dup1\n      0xf2fde38b\n      eq\n      tag_7\n      jumpi\n    tag_2:\n      0x00\n      dup1\n      revert\n        /* \"contracts/AVSManager.sol\":390:427  bytes public latestAggregateSignature */\n    tag_3:\n      tag_8\n      tag_9\n      jump\t// in\n    tag_8:\n      mload(0x40)\n      tag_10\n      swap2\n      swap1\n      tag_11\n      jump\t// in\n    tag_10:\n      mload(0x40)\n      dup1\n      swap2\n      sub\n      swap1\n      return\n        /* \"contracts/AVSManager.sol\":485:775  function submitAggregateSignature(bytes calldata aggregateSig) external onlyOwner {... */\n    tag_4:\n      tag_12\n      0x04\n      dup1\n      calldatasize\n      sub\n      dup2\n      add\n      swap1\n      tag_13\n      swap2\n      swap1\n      tag_14\n      jump\t// in\n    tag_13:\n      tag_15\n      jump\t// in\n    tag_12:\n      stop\n        /* \"@openzeppelin/contracts/access/Ownable.sol\":2293:2394  function renounceOwnership() public virtual onlyOwner {... */\n    tag_5:\n      tag_16\n      tag_17\n      jump\t// in\n    tag_16:\n      stop\n        /* \"@openzeppelin/contracts/access/Ownable.sol\":1638:1723  function owner() public view virtual returns (address) {... */\n    tag_6:\n      tag_18\n      tag_19\n      jump\t// in\n    tag_18:\n      mload(0x40)\n      tag_20\n      swap2\n      swap1\n      tag_21\n      jump\t// in\n    tag_20:\n      mload(0x40)\n      dup1\n      swap2\n      sub\n      swap1\n      return\n        /* \"@openzeppelin/contracts/access/Ownable.sol\":2543:2758  function transferOwnership(address newOwner) public virtual onlyOwner {... */\n    tag_7:\n      tag_22\n      0x04\n      dup1\n      calldatasize\n      sub\n      dup2\n      add\n      swap1\n      tag_23\n      swap2\n      swap1\n      tag_24\n      jump\t// in\n    tag_23:\n      tag_25\n      jump\t// in\n    tag_22:\n      stop\n        /* \"contracts/AVSManager.sol\":390:427  bytes public latestAggregateSignature */\n    tag_9:\n      0x01\n      dup1\n      sload\n      tag_26\n      swap1\n      tag_27\n      jump\t// in\n    tag_26:\n      dup1\n      0x1f\n      add\n      0x20\n      dup1\n      swap2\n      div\n      mul\n      0x20\n      add\n      mload(0x40)\n      swap1\n      dup2\n      add\n      0x40\n      mstore\n      dup1\n      swap3\n      swap2\n      swap1\n      dup2\n      dup2\n      mstore\n      0x20\n      add\n      dup3\n      dup1\n      sload\n      tag_28\n      swap1\n      tag_27\n      jump\t// in\n    tag_28:\n      dup1\n      iszero\n      tag_29\n      jumpi\n      dup1\n      0x1f\n      lt\n      tag_30\n      jumpi\n      0x0100\n      dup1\n      dup4\n      sload\n      div\n      mul\n      dup4\n      mstore\n      swap2\n      0x20\n      add\n      swap2\n      jump(tag_29)\n    tag_30:\n      dup3\n      add\n      swap2\n      swap1\n      0x00\n      mstore\n      keccak256(0x00, 0x20)\n      swap1\n    tag_31:\n      dup2\n      sload\n      dup2\n      mstore\n      swap1\n      0x01\n      add\n      swap1\n      0x20\n      add\n      dup1\n      dup4\n      gt\n      tag_31\n      jumpi\n      dup3\n      swap1\n      sub\n      0x1f\n      and\n      dup3\n      add\n      swap2\n    tag_29:\n      pop\n      pop\n      pop\n      pop\n      pop\n      dup2\n      jump\t// out\n        /* \"contracts/AVSManager.sol\":485:775  function submitAggregateSignature(bytes calldata aggregateSig) external onlyOwner {... */\n    tag_15:\n        /* \"@openzeppelin/contracts/access/Ownable.sol\":1531:1544  _checkOwner() */\n      tag_33\n        /* \"@openzeppelin/contracts/access/Ownable.sol\":1531:1542  _checkOwner */\n      tag_34\n        /* \"@openzeppelin/contracts/access/Ownable.sol\":1531:1544  _checkOwner() */\n      jump\t// in\n    tag_33:\n        /* \"contracts/AVSManager.sol\":700:712  aggregateSig */\n      dup2\n      dup2\n        /* \"contracts/AVSManager.sol\":673:697  latestAggregateSignature */\n      0x01\n        /* \"contracts/AVSManager.sol\":673:712  latestAggregateSignature = aggregateSig */\n      swap2\n      dup3\n      tag_36\n      swap3\n      swap2\n      swap1\n      tag_37\n      jump\t// in\n    tag_36:\n      pop\n        /* \"contracts/AVSManager.sol\":727:768  AggregateSignatureSubmitted(aggregateSig) */\n      0x46ddc925aca7cbdb52231c306a30492088ae541846fa93e5b6ab153c4d8568d9\n        /* \"contracts/AVSManager.sol\":755:767  aggregateSig */\n      dup3\n      dup3\n        /* \"contracts/AVSManager.sol\":727:768  AggregateSignatureSubmitted(aggregateSig) */\n      mload(0x40)\n      tag_38\n      swap3\n      swap2\n      swap1\n      tag_39\n      jump\t// in\n    tag_38:\n      mload(0x40)\n      dup1\n      swap2\n      sub\n      swap1\n      log1\n        /* \"contracts/AVSManager.sol\":485:775  function submitAggregateSignature(bytes calldata aggregateSig) external onlyOwner {... */\n      pop\n      pop\n      jump\t// out\n        /* \"@openzeppelin/contracts/access/Ownable.sol\":2293:2394  function renounceOwnership() public virtual onlyOwner {... */\n    tag_17:\n        /* \"@openzeppelin/contracts/access/Ownable.sol\":1531:1544  _checkOwner() */\n      tag_41\n        /* \"@openzeppelin/contracts/access/Ownable.sol\":1531:1542  _checkOwner */\n      tag_34\n        /* \"@openzeppelin/contracts/access/Ownable.sol\":1531:1544  _checkOwner() */\n      jump\t// in\n    tag_41:\n        /* \"@openzeppelin/contracts/access/Ownable.sol\":2357:2387  _transferOwnership(address(0)) */\n      tag_43\n        /* \"@openzeppelin/contracts/access/Ownable.sol\":2384:2385  0 */\n      0x00\n        /* \"@openzeppelin/contracts/access/Ownable.sol\":2357:2375  _transferOwnership */\n      tag_44\n        /* \"@openzeppelin/contracts/access/Ownable.sol\":2357:2387  _transferOwnership(address(0)) */\n      jump\t// in\n    tag_43:\n        /* \"@openzeppelin/contracts/access/Ownable.sol\":2293:2394  function renounceOwnership() public virtual onlyOwner {... */\n      jump\t// out\n        /* \"@openzeppelin/contracts/access/Ownable.sol\":1638:1723  function owner() public view virtual returns (address) {... */\n    tag_19:\n        /* \"@openzeppelin/contracts/access/Ownable.sol\":1684:1691  address */\n      0x00\n        /* \"@openzeppelin/contracts/access/Ownable.sol\":1710:1716  _owner */\n      dup1\n      0x00\n      swap1\n      sload\n      swap1\n      0x0100\n      exp\n      swap1\n      div\n      0xffffffffffffffffffffffffffffffffffffffff\n      and\n        /* \"@openzeppelin/contracts/access/Ownable.sol\":1703:1716  return _owner */\n      swap1\n      pop\n        /* \"@openzeppelin/contracts/access/Ownable.sol\":1638:1723  function owner() public view virtual returns (address) {... */\n      swap1\n      jump\t// out\n        /* \"@openzeppelin/contracts/access/Ownable.sol\":2543:2758  function transferOwnership(address newOwner) public virtual onlyOwner {... */\n    tag_25:\n        /* \"@openzeppelin/contracts/access/Ownable.sol\":1531:1544  _checkOwner() */\n      tag_47\n        /* \"@openzeppelin/contracts/access/Ownable.sol\":1531:1542  _checkOwner */\n      tag_34\n        /* \"@openzeppelin/contracts/access/Ownable.sol\":1531:1544  _checkOwner() */\n      jump\t// in\n    tag_47:\n        /* \"@openzeppelin/contracts/access/Ownable.sol\":2647:2648  0 */\n      0x00\n        /* \"@openzeppelin/contracts/access/Ownable.sol\":2627:2649  newOwner == address(0) */\n      0xffffffffffffffffffffffffffffffffffffffff\n      and\n        /* \"@openzeppelin/contracts/access/Ownable.sol\":2627:2635  newOwner */\n      dup2\n        /* \"@openzeppelin/contracts/access/Ownable.sol\":2627:2649  newOwner == address(0) */\n      0xffffffffffffffffffffffffffffffffffffffff\n      and\n      sub\n        /* \"@openzeppelin/contracts/access/Ownable.sol\":2623:2714  if (newOwner == address(0)) {... */\n      tag_49\n      jumpi\n        /* \"@openzeppelin/contracts/access/Ownable.sol\":2700:2701  0 */\n      0x00\n        /* \"@openzeppelin/contracts/access/Ownable.sol\":2672:2703  OwnableInvalidOwner(address(0)) */\n      mload(0x40)\n      0x1e4fbdf700000000000000000000000000000000000000000000000000000000\n      dup2\n      mstore\n      0x04\n      add\n      tag_50\n      swap2\n      swap1\n      tag_21\n      jump\t// in\n    tag_50:\n      mload(0x40)\n      dup1\n      swap2\n      sub\n      swap1\n      revert\n        /* \"@openzeppelin/contracts/access/Ownable.sol\":2623:2714  if (newOwner == address(0)) {... */\n    tag_49:\n        /* \"@openzeppelin/contracts/access/Ownable.sol\":2723:2751  _transferOwnership(newOwner) */\n      tag_51\n        /* \"@openzeppelin/contracts/access/Ownable.sol\":2742:2750  newOwner */\n      dup2\n        /* \"@openzeppelin/contracts/access/Ownable.sol\":2723:2741  _transferOwnership */\n      tag_44\n        /* \"@openzeppelin/contracts/access/Ownable.sol\":2723:2751  _transferOwnership(newOwner) */\n      jump\t// in\n    tag_51:\n        /* \"@openzeppelin/contracts/access/Ownable.sol\":2543:2758  function transferOwnership(address newOwner) public virtual onlyOwner {... */\n      pop\n      jump\t// out\n        /* \"@openzeppelin/contracts/access/Ownable.sol\":1796:1958  function _checkOwner() internal view virtual {... */\n    tag_34:\n        /* \"@openzeppelin/contracts/access/Ownable.sol\":1866:1878  _msgSender() */\n      tag_53\n        /* \"@openzeppelin/contracts/access/Ownable.sol\":1866:1876  _msgSender */\n      tag_54\n        /* \"@openzeppelin/contracts/access/Ownable.sol\":1866:1878  _msgSender() */\n      jump\t// in\n    tag_53:\n        /* \"@openzeppelin/contracts/access/Ownable.sol\":1855:1878  owner() != _msgSender() */\n      0xffffffffffffffffffffffffffffffffffffffff\n      and\n        /* \"@openzeppelin/contracts/access/Ownable.sol\":1855:1862  owner() */\n      tag_55\n        /* \"@openzeppelin/contracts/access/Ownable.sol\":1855:1860  owner */\n      tag_19\n        /* \"@openzeppelin/contracts/access/Ownable.sol\":1855:1862  owner() */\n      jump\t// in\n    tag_55:\n        /* \"@openzeppelin/contracts/access/Ownable.sol\":1855:1878  owner() != _msgSender() */\n      0xffffffffffffffffffffffffffffffffffffffff\n      and\n      eq\n        /* \"@openzeppelin/contracts/access/Ownable.sol\":1851:1952  if (owner() != _msgSender()) {... */\n      tag_56\n      jumpi\n        /* \"@openzeppelin/contracts/access/Ownable.sol\":1928:1940  _msgSender() */\n      tag_57\n        /* \"@openzeppelin/contracts/access/Ownable.sol\":1928:1938  _msgSender */\n      tag_54\n        /* \"@openzeppelin/contracts/access/Ownable.sol\":1928:1940  _msgSender() */\n      jump\t// in\n    tag_57:\n        /* \"@openzeppelin/contracts/access/Ownable.sol\":1901:1941  OwnableUnauthorizedAccount(_msgSender()) */\n      mload(0x40)\n      0x118cdaa700000000000000000000000000000000000000000000000000000000\n      dup2\n      mstore\n      0x04\n      add\n      tag_58\n      swap2\n      swap1\n      tag_21\n      jump\t// in\n    tag_58:\n      mload(0x40)\n      dup1\n      swap2\n      sub\n      swap1\n      revert\n        /* \"@openzeppelin/contracts/access/Ownable.sol\":1851:1952  if (owner() != _msgSender()) {... */\n    tag_56:\n        /* \"@openzeppelin/contracts/access/Ownable.sol\":1796:1958  function _checkOwner() internal view virtual {... */\n      jump\t// out\n        /* \"@openzeppelin/contracts/access/Ownable.sol\":2912:3099  function _transferOwnership(address newOwner) internal virtual {... */\n    tag_44:\n        /* \"@openzeppelin/contracts/access/Ownable.sol\":2985:3001  address oldOwner */\n      0x00\n        /* \"@openzeppelin/contracts/access/Ownable.sol\":3004:3010  _owner */\n      dup1\n      0x00\n      swap1\n      sload\n      swap1\n      0x0100\n      exp\n      swap1\n      div\n      0xffffffffffffffffffffffffffffffffffffffff\n      and\n        /* \"@openzeppelin/contracts/access/Ownable.sol\":2985:3010  address oldOwner = _owner */\n      swap1\n      pop\n        /* \"@openzeppelin/contracts/access/Ownable.sol\":3029:3037  newOwner */\n      dup2\n        /* \"@openzeppelin/contracts/access/Ownable.sol\":3020:3026  _owner */\n      0x00\n      dup1\n        /* \"@openzeppelin/contracts/access/Ownable.sol\":3020:3037  _owner = newOwner */\n      0x0100\n      exp\n      dup2\n      sload\n      dup2\n      0xffffffffffffffffffffffffffffffffffffffff\n      mul\n      not\n      and\n      swap1\n      dup4\n      0xffffffffffffffffffffffffffffffffffffffff\n      and\n      mul\n      or\n      swap1\n      sstore\n      pop\n        /* \"@openzeppelin/contracts/access/Ownable.sol\":3083:3091  newOwner */\n      dup2\n        /* \"@openzeppelin/contracts/access/Ownable.sol\":3052:3092  OwnershipTransferred(oldOwner, newOwner) */\n      0xffffffffffffffffffffffffffffffffffffffff\n      and\n        /* \"@openzeppelin/contracts/access/Ownable.sol\":3073:3081  oldOwner */\n      dup2\n        /* \"@openzeppelin/contracts/access/Ownable.sol\":3052:3092  OwnershipTransferred(oldOwner, newOwner) */\n      0xffffffffffffffffffffffffffffffffffffffff\n      and\n      0x8be0079c531659141344cd1fd0a4f28419497f9722a3daafe3b4186f6b6457e0\n      mload(0x40)\n      mload(0x40)\n      dup1\n      swap2\n      sub\n      swap1\n      log3\n        /* \"@openzeppelin/contracts/access/Ownable.sol\":2975:3099  {... */\n      pop\n        /* \"@openzeppelin/contracts/access/Ownable.sol\":2912:3099  function _transferOwnership(address newOwner) internal virtual {... */\n      pop\n      jump\t// out\n        /* \"@openzeppelin/contracts/utils/Context.sol\":656:752  function _msgSender() internal view virtual returns (address) {... */\n    tag_54:\n        /* \"@openzeppelin/contracts/utils/Context.sol\":709:716  address */\n      0x00\n        /* \"@openzeppelin/contracts/utils/Context.sol\":735:745  msg.sender */\n      caller\n        /* \"@openzeppelin/contracts/utils/Context.sol\":728:745  return msg.sender */\n      swap1\n      pop\n        /* \"@openzeppelin/contracts/utils/Context.sol\":656:752  function _msgSender() internal view virtual returns (address) {... */\n      swap1\n      jump\t// out\n        /* \"#utility.yul\":7:105   */\n    tag_61:\n        /* \"#utility.yul\":58:64   */\n      0x00\n        /* \"#utility.yul\":92:97   */\n      dup2\n        /* \"#utility.yul\":86:98   */\n      mload\n        /* \"#utility.yul\":76:98   */\n      swap1\n      pop\n        /* \"#utility.yul\":7:105   */\n      swap2\n      swap1\n      pop\n      jump\t// out\n        /* \"#utility.yul\":111:279   */\n    tag_62:\n        /* \"#utility.yul\":194:205   */\n      0x00\n        /* \"#utility.yul\":228:234   */\n      dup3\n        /* \"#utility.yul\":223:226   */\n      dup3\n        /* \"#utility.yul\":216:235   */\n      mstore\n        /* \"#utility.yul\":268:272   */\n      0x20\n        /* \"#utility.yul\":263:266   */\n      dup3\n        /* \"#utility.yul\":259:273   */\n      add\n        /* \"#utility.yul\":244:273   */\n      swap1\n      pop\n        /* \"#utility.yul\":111:279   */\n      swap3\n      swap2\n      pop\n      pop\n      jump\t// out\n        /* \"#utility.yul\":285:424   */\n    tag_63:\n        /* \"#utility.yul\":374:380   */\n      dup3\n        /* \"#utility.yul\":369:372   */\n      dup2\n        /* \"#utility.yul\":364:367   */\n      dup4\n        /* \"#utility.yul\":358:381   */\n      mcopy\n        /* \"#utility.yul\":415:416   */\n      0x00\n        /* \"#utility.yul\":406:412   */\n      dup4\n        /* \"#utility.yul\":401:404   */\n      dup4\n        /* \"#utility.yul\":397:413   */\n      add\n        /* \"#utility.yul\":390:417   */\n      mstore\n        /* \"#utility.yul\":285:424   */\n      pop\n      pop\n      pop\n      jump\t// out\n        /* \"#utility.yul\":430:532   */\n    tag_64:\n        /* \"#utility.yul\":471:477   */\n      0x00\n        /* \"#utility.yul\":522:524   */\n      0x1f\n        /* \"#utility.yul\":518:525   */\n      not\n        /* \"#utility.yul\":513:515   */\n      0x1f\n        /* \"#utility.yul\":506:511   */\n      dup4\n        /* \"#utility.yul\":502:516   */\n      add\n        /* \"#utility.yul\":498:526   */\n      and\n        /* \"#utility.yul\":488:526   */\n      swap1\n      pop\n        /* \"#utility.yul\":430:532   */\n      swap2\n      swap1\n      pop\n      jump\t// out\n        /* \"#utility.yul\":538:911   */\n    tag_65:\n        /* \"#utility.yul\":624:627   */\n      0x00\n        /* \"#utility.yul\":652:690   */\n      tag_105\n        /* \"#utility.yul\":684:689   */\n      dup3\n        /* \"#utility.yul\":652:690   */\n      tag_61\n      jump\t// in\n    tag_105:\n        /* \"#utility.yul\":706:776   */\n      tag_106\n        /* \"#utility.yul\":769:775   */\n      dup2\n        /* \"#utility.yul\":764:767   */\n      dup6\n        /* \"#utility.yul\":706:776   */\n      tag_62\n      jump\t// in\n    tag_106:\n        /* \"#utility.yul\":699:776   */\n      swap4\n      pop\n        /* \"#utility.yul\":785:850   */\n      tag_107\n        /* \"#utility.yul\":843:849   */\n      dup2\n        /* \"#utility.yul\":838:841   */\n      dup6\n        /* \"#utility.yul\":831:835   */\n      0x20\n        /* \"#utility.yul\":824:829   */\n      dup7\n        /* \"#utility.yul\":820:836   */\n      add\n        /* \"#utility.yul\":785:850   */\n      tag_63\n      jump\t// in\n    tag_107:\n        /* \"#utility.yul\":875:904   */\n      tag_108\n        /* \"#utility.yul\":897:903   */\n      dup2\n        /* \"#utility.yul\":875:904   */\n      tag_64\n      jump\t// in\n    tag_108:\n        /* \"#utility.yul\":870:873   */\n      dup5\n        /* \"#utility.yul\":866:905   */\n      add\n        /* \"#utility.yul\":859:905   */\n      swap2\n      pop\n        /* \"#utility.yul\":628:911   */\n      pop\n        /* \"#utility.yul\":538:911   */\n      swap3\n      swap2\n      pop\n      pop\n      jump\t// out\n        /* \"#utility.yul\":917:1226   */\n    tag_11:\n        /* \"#utility.yul\":1028:1032   */\n      0x00\n        /* \"#utility.yul\":1066:1068   */\n      0x20\n        /* \"#utility.yul\":1055:1064   */\n      dup3\n        /* \"#utility.yul\":1051:1069   */\n      add\n        /* \"#utility.yul\":1043:1069   */\n      swap1\n      pop\n        /* \"#utility.yul\":1115:1124   */\n      dup2\n        /* \"#utility.yul\":1109:1113   */\n      dup2\n        /* \"#utility.yul\":1105:1125   */\n      sub\n        /* \"#utility.yul\":1101:1102   */\n      0x00\n        /* \"#utility.yul\":1090:1099   */\n      dup4\n        /* \"#utility.yul\":1086:1103   */\n      add\n        /* \"#utility.yul\":1079:1126   */\n      mstore\n        /* \"#utility.yul\":1143:1219   */\n      tag_110\n        /* \"#utility.yul\":1214:1218   */\n      dup2\n        /* \"#utility.yul\":1205:1211   */\n      dup5\n        /* \"#utility.yul\":1143:1219   */\n      tag_65\n      jump\t// in\n    tag_110:\n        /* \"#utility.yul\":1135:1219   */\n      swap1\n      pop\n        /* \"#utility.yul\":917:1226   */\n      swap3\n      swap2\n      pop\n      pop\n      jump\t// out\n        /* \"#utility.yul\":1313:1430   */\n    tag_67:\n        /* \"#utility.yul\":1422:1423   */\n      0x00\n        /* \"#utility.yul\":1419:1420   */\n      dup1\n        /* \"#utility.yul\":1412:1424   */\n      revert\n        /* \"#utility.yul\":1436:1553   */\n    tag_68:\n        /* \"#utility.yul\":1545:1546   */\n      0x00\n        /* \"#utility.yul\":1542:1543   */\n      dup1\n        /* \"#utility.yul\":1535:1547   */\n      revert\n        /* \"#utility.yul\":1559:1676   */\n    tag_69:\n        /* \"#utility.yul\":1668:1669   */\n      0x00\n        /* \"#utility.yul\":1665:1666   */\n      dup1\n        /* \"#utility.yul\":1658:1670   */\n      revert\n        /* \"#utility.yul\":1682:1799   */\n    tag_70:\n        /* \"#utility.yul\":1791:1792   */\n      0x00\n        /* \"#utility.yul\":1788:1789   */\n      dup1\n        /* \"#utility.yul\":1781:1793   */\n      revert\n        /* \"#utility.yul\":1805:1922   */\n    tag_71:\n        /* \"#utility.yul\":1914:1915   */\n      0x00\n        /* \"#utility.yul\":1911:1912   */\n      dup1\n        /* \"#utility.yul\":1904:1916   */\n      revert\n        /* \"#utility.yul\":1941:2493   */\n    tag_72:\n        /* \"#utility.yul\":1998:2006   */\n      0x00\n        /* \"#utility.yul\":2008:2014   */\n      dup1\n        /* \"#utility.yul\":2058:2061   */\n      dup4\n        /* \"#utility.yul\":2051:2055   */\n      0x1f\n        /* \"#utility.yul\":2043:2049   */\n      dup5\n        /* \"#utility.yul\":2039:2056   */\n      add\n        /* \"#utility.yul\":2035:2062   */\n      slt\n        /* \"#utility.yul\":2025:2147   */\n      tag_118\n      jumpi\n        /* \"#utility.yul\":2066:2145   */\n      tag_119\n      tag_69\n      jump\t// in\n    tag_119:\n        /* \"#utility.yul\":2025:2147   */\n    tag_118:\n        /* \"#utility.yul\":2179:2185   */\n      dup3\n        /* \"#utility.yul\":2166:2186   */\n      calldataload\n        /* \"#utility.yul\":2156:2186   */\n      swap1\n      pop\n        /* \"#utility.yul\":2209:2227   */\n      0xffffffffffffffff\n        /* \"#utility.yul\":2201:2207   */\n      dup2\n        /* \"#utility.yul\":2198:2228   */\n      gt\n        /* \"#utility.yul\":2195:2312   */\n      iszero\n      tag_120\n      jumpi\n        /* \"#utility.yul\":2231:2310   */\n      tag_121\n      tag_70\n      jump\t// in\n    tag_121:\n        /* \"#utility.yul\":2195:2312   */\n    tag_120:\n        /* \"#utility.yul\":2345:2349   */\n      0x20\n        /* \"#utility.yul\":2337:2343   */\n      dup4\n        /* \"#utility.yul\":2333:2350   */\n      add\n        /* \"#utility.yul\":2321:2350   */\n      swap2\n      pop\n        /* \"#utility.yul\":2399:2402   */\n      dup4\n        /* \"#utility.yul\":2391:2395   */\n      0x01\n        /* \"#utility.yul\":2383:2389   */\n      dup3\n        /* \"#utility.yul\":2379:2396   */\n      mul\n        /* \"#utility.yul\":2369:2377   */\n      dup4\n        /* \"#utility.yul\":2365:2397   */\n      add\n        /* \"#utility.yul\":2362:2403   */\n      gt\n        /* \"#utility.yul\":2359:2487   */\n      iszero\n      tag_122\n      jumpi\n        /* \"#utility.yul\":2406:2485   */\n      tag_123\n      tag_71\n      jump\t// in\n    tag_123:\n        /* \"#utility.yul\":2359:2487   */\n    tag_122:\n        /* \"#utility.yul\":1941:2493   */\n      swap3\n      pop\n      swap3\n      swap1\n      pop\n      jump\t// out\n        /* \"#utility.yul\":2499:3026   */\n    tag_14:\n        /* \"#utility.yul\":2569:2575   */\n      0x00\n        /* \"#utility.yul\":2577:2583   */\n      dup1\n        /* \"#utility.yul\":2626:2628   */\n      0x20\n        /* \"#utility.yul\":2614:2623   */\n      dup4\n        /* \"#utility.yul\":2605:2612   */\n      dup6\n        /* \"#utility.yul\":2601:2624   */\n      sub\n        /* \"#utility.yul\":2597:2629   */\n      slt\n        /* \"#utility.yul\":2594:2713   */\n      iszero\n      tag_125\n      jumpi\n        /* \"#utility.yul\":2632:2711   */\n      tag_126\n      tag_67\n      jump\t// in\n    tag_126:\n        /* \"#utility.yul\":2594:2713   */\n    tag_125:\n        /* \"#utility.yul\":2780:2781   */\n      0x00\n        /* \"#utility.yul\":2769:2778   */\n      dup4\n        /* \"#utility.yul\":2765:2782   */\n      add\n        /* \"#utility.yul\":2752:2783   */\n      calldataload\n        /* \"#utility.yul\":2810:2828   */\n      0xffffffffffffffff\n        /* \"#utility.yul\":2802:2808   */\n      dup2\n        /* \"#utility.yul\":2799:2829   */\n      gt\n        /* \"#utility.yul\":2796:2913   */\n      iszero\n      tag_127\n      jumpi\n        /* \"#utility.yul\":2832:2911   */\n      tag_128\n      tag_68\n      jump\t// in\n    tag_128:\n        /* \"#utility.yul\":2796:2913   */\n    tag_127:\n        /* \"#utility.yul\":2945:3009   */\n      tag_129\n        /* \"#utility.yul\":3001:3008   */\n      dup6\n        /* \"#utility.yul\":2992:2998   */\n      dup3\n        /* \"#utility.yul\":2981:2990   */\n      dup7\n        /* \"#utility.yul\":2977:2999   */\n      add\n        /* \"#utility.yul\":2945:3009   */\n      tag_72\n      jump\t// in\n    tag_129:\n        /* \"#utility.yul\":2927:3009   */\n      swap3\n      pop\n      swap3\n      pop\n        /* \"#utility.yul\":2723:3019   */\n      pop\n        /* \"#utility.yul\":2499:3026   */\n      swap3\n      pop\n      swap3\n      swap1\n      pop\n      jump\t// out\n        /* \"#utility.yul\":3032:3158   */\n    tag_73:\n        /* \"#utility.yul\":3069:3076   */\n      0x00\n        /* \"#utility.yul\":3109:3151   */\n      0xffffffffffffffffffffffffffffffffffffffff\n        /* \"#utility.yul\":3102:3107   */\n      dup3\n        /* \"#utility.yul\":3098:3152   */\n      and\n        /* \"#utility.yul\":3087:3152   */\n      swap1\n      pop\n        /* \"#utility.yul\":3032:3158   */\n      swap2\n      swap1\n      pop\n      jump\t// out\n        /* \"#utility.yul\":3164:3260   */\n    tag_74:\n        /* \"#utility.yul\":3201:3208   */\n      0x00\n        /* \"#utility.yul\":3230:3254   */\n      tag_132\n        /* \"#utility.yul\":3248:3253   */\n      dup3\n        /* \"#utility.yul\":3230:3254   */\n      tag_73\n      jump\t// in\n    tag_132:\n        /* \"#utility.yul\":3219:3254   */\n      swap1\n      pop\n        /* \"#utility.yul\":3164:3260   */\n      swap2\n      swap1\n      pop\n      jump\t// out\n        /* \"#utility.yul\":3266:3384   */\n    tag_75:\n        /* \"#utility.yul\":3353:3377   */\n      tag_134\n        /* \"#utility.yul\":3371:3376   */\n      dup2\n        /* \"#utility.yul\":3353:3377   */\n      tag_74\n      jump\t// in\n    tag_134:\n        /* \"#utility.yul\":3348:3351   */\n      dup3\n        /* \"#utility.yul\":3341:3378   */\n      mstore\n        /* \"#utility.yul\":3266:3384   */\n      pop\n      pop\n      jump\t// out\n        /* \"#utility.yul\":3390:3612   */\n    tag_21:\n        /* \"#utility.yul\":3483:3487   */\n      0x00\n        /* \"#utility.yul\":3521:3523   */\n      0x20\n        /* \"#utility.yul\":3510:3519   */\n      dup3\n        /* \"#utility.yul\":3506:3524   */\n      add\n        /* \"#utility.yul\":3498:3524   */\n      swap1\n      pop\n        /* \"#utility.yul\":3534:3605   */\n      tag_136\n        /* \"#utility.yul\":3602:3603   */\n      0x00\n        /* \"#utility.yul\":3591:3600   */\n      dup4\n        /* \"#utility.yul\":3587:3604   */\n      add\n        /* \"#utility.yul\":3578:3584   */\n      dup5\n        /* \"#utility.yul\":3534:3605   */\n      tag_75\n      jump\t// in\n    tag_136:\n        /* \"#utility.yul\":3390:3612   */\n      swap3\n      swap2\n      pop\n      pop\n      jump\t// out\n        /* \"#utility.yul\":3618:3740   */\n    tag_76:\n        /* \"#utility.yul\":3691:3715   */\n      tag_138\n        /* \"#utility.yul\":3709:3714   */\n      dup2\n        /* \"#utility.yul\":3691:3715   */\n      tag_74\n      jump\t// in\n    tag_138:\n        /* \"#utility.yul\":3684:3689   */\n      dup2\n        /* \"#utility.yul\":3681:3716   */\n      eq\n        /* \"#utility.yul\":3671:3734   */\n      tag_139\n      jumpi\n        /* \"#utility.yul\":3730:3731   */\n      0x00\n        /* \"#utility.yul\":3727:3728   */\n      dup1\n        /* \"#utility.yul\":3720:3732   */\n      revert\n        /* \"#utility.yul\":3671:3734   */\n    tag_139:\n        /* \"#utility.yul\":3618:3740   */\n      pop\n      jump\t// out\n        /* \"#utility.yul\":3746:3885   */\n    tag_77:\n        /* \"#utility.yul\":3792:3797   */\n      0x00\n        /* \"#utility.yul\":3830:3836   */\n      dup2\n        /* \"#utility.yul\":3817:3837   */\n      calldataload\n        /* \"#utility.yul\":3808:3837   */\n      swap1\n      pop\n        /* \"#utility.yul\":3846:3879   */\n      tag_141\n        /* \"#utility.yul\":3873:3878   */\n      dup2\n        /* \"#utility.yul\":3846:3879   */\n      tag_76\n      jump\t// in\n    tag_141:\n        /* \"#utility.yul\":3746:3885   */\n      swap3\n      swap2\n      pop\n      pop\n      jump\t// out\n        /* \"#utility.yul\":3891:4220   */\n    tag_24:\n        /* \"#utility.yul\":3950:3956   */\n      0x00\n        /* \"#utility.yul\":3999:4001   */\n      0x20\n        /* \"#utility.yul\":3987:3996   */\n      dup3\n        /* \"#utility.yul\":3978:3985   */\n      dup5\n        /* \"#utility.yul\":3974:3997   */\n      sub\n        /* \"#utility.yul\":3970:4002   */\n      slt\n        /* \"#utility.yul\":3967:4086   */\n      iszero\n      tag_143\n      jumpi\n        /* \"#utility.yul\":4005:4084   */\n      tag_144\n      tag_67\n      jump\t// in\n    tag_144:\n        /* \"#utility.yul\":3967:4086   */\n    tag_143:\n        /* \"#utility.yul\":4125:4126   */\n      0x00\n        /* \"#utility.yul\":4150:4203   */\n      tag_145\n        /* \"#utility.yul\":4195:4202   */\n      dup5\n        /* \"#utility.yul\":4186:4192   */\n      dup3\n        /* \"#utility.yul\":4175:4184   */\n      dup6\n        /* \"#utility.yul\":4171:4193   */\n      add\n        /* \"#utility.yul\":4150:4203   */\n      tag_77\n      jump\t// in\n    tag_145:\n        /* \"#utility.yul\":4140:4203   */\n      swap2\n      pop\n        /* \"#utility.yul\":4096:4213   */\n      pop\n        /* \"#utility.yul\":3891:4220   */\n      swap3\n      swap2\n      pop\n      pop\n      jump\t// out\n        /* \"#utility.yul\":4226:4406   */\n    tag_78:\n        /* \"#utility.yul\":4274:4351   */\n      0x4e487b7100000000000000000000000000000000000000000000000000000000\n        /* \"#utility.yul\":4271:4272   */\n      0x00\n        /* \"#utility.yul\":4264:4352   */\n      mstore\n        /* \"#utility.yul\":4371:4375   */\n      0x22\n        /* \"#utility.yul\":4368:4369   */\n      0x04\n        /* \"#utility.yul\":4361:4376   */\n      mstore\n        /* \"#utility.yul\":4395:4399   */\n      0x24\n        /* \"#utility.yul\":4392:4393   */\n      0x00\n        /* \"#utility.yul\":4385:4400   */\n      revert\n        /* \"#utility.yul\":4412:4732   */\n    tag_27:\n        /* \"#utility.yul\":4456:4462   */\n      0x00\n        /* \"#utility.yul\":4493:4494   */\n      0x02\n        /* \"#utility.yul\":4487:4491   */\n      dup3\n        /* \"#utility.yul\":4483:4495   */\n      div\n        /* \"#utility.yul\":4473:4495   */\n      swap1\n      pop\n        /* \"#utility.yul\":4540:4541   */\n      0x01\n        /* \"#utility.yul\":4534:4538   */\n      dup3\n        /* \"#utility.yul\":4530:4542   */\n      and\n        /* \"#utility.yul\":4561:4579   */\n      dup1\n        /* \"#utility.yul\":4551:4632   */\n      tag_148\n      jumpi\n        /* \"#utility.yul\":4617:4621   */\n      0x7f\n        /* \"#utility.yul\":4609:4615   */\n      dup3\n        /* \"#utility.yul\":4605:4622   */\n      and\n        /* \"#utility.yul\":4595:4622   */\n      swap2\n      pop\n        /* \"#utility.yul\":4551:4632   */\n    tag_148:\n        /* \"#utility.yul\":4679:4681   */\n      0x20\n        /* \"#utility.yul\":4671:4677   */\n      dup3\n        /* \"#utility.yul\":4668:4682   */\n      lt\n        /* \"#utility.yul\":4648:4666   */\n      dup2\n        /* \"#utility.yul\":4645:4683   */\n      sub\n        /* \"#utility.yul\":4642:4726   */\n      tag_149\n      jumpi\n        /* \"#utility.yul\":4698:4716   */\n      tag_150\n      tag_78\n      jump\t// in\n    tag_150:\n        /* \"#utility.yul\":4642:4726   */\n    tag_149:\n        /* \"#utility.yul\":4463:4732   */\n      pop\n        /* \"#utility.yul\":4412:4732   */\n      swap2\n      swap1\n      pop\n      jump\t// out\n        /* \"#utility.yul\":4738:4834   */\n    tag_79:\n        /* \"#utility.yul\":4796:4802   */\n      0x00\n        /* \"#utility.yul\":4824:4827   */\n      dup3\n        /* \"#utility.yul\":4814:4827   */\n      swap1\n      pop\n        /* \"#utility.yul\":4738:4834   */\n      swap3\n      swap2\n      pop\n      pop\n      jump\t// out\n        /* \"#utility.yul\":4840:5020   */\n    tag_80:\n        /* \"#utility.yul\":4888:4965   */\n      0x4e487b7100000000000000000000000000000000000000000000000000000000\n        /* \"#utility.yul\":4885:4886   */\n      0x00\n        /* \"#utility.yul\":4878:4966   */\n      mstore\n        /* \"#utility.yul\":4985:4989   */\n      0x41\n        /* \"#utility.yul\":4982:4983   */\n      0x04\n        /* \"#utility.yul\":4975:4990   */\n      mstore\n        /* \"#utility.yul\":5009:5013   */\n      0x24\n        /* \"#utility.yul\":5006:5007   */\n      0x00\n        /* \"#utility.yul\":4999:5014   */\n      revert\n        /* \"#utility.yul\":5026:5166   */\n    tag_81:\n        /* \"#utility.yul\":5074:5078   */\n      0x00\n        /* \"#utility.yul\":5097:5100   */\n      dup2\n        /* \"#utility.yul\":5089:5100   */\n      swap1\n      pop\n        /* \"#utility.yul\":5120:5123   */\n      dup2\n        /* \"#utility.yul\":5117:5118   */\n      0x00\n        /* \"#utility.yul\":5110:5124   */\n      mstore\n        /* \"#utility.yul\":5154:5158   */\n      0x20\n        /* \"#utility.yul\":5151:5152   */\n      0x00\n        /* \"#utility.yul\":5141:5159   */\n      keccak256\n        /* \"#utility.yul\":5133:5159   */\n      swap1\n      pop\n        /* \"#utility.yul\":5026:5166   */\n      swap2\n      swap1\n      pop\n      jump\t// out\n        /* \"#utility.yul\":5172:5265   */\n    tag_82:\n        /* \"#utility.yul\":5209:5215   */\n      0x00\n        /* \"#utility.yul\":5256:5258   */\n      0x20\n        /* \"#utility.yul\":5251:5253   */\n      0x1f\n        /* \"#utility.yul\":5244:5249   */\n      dup4\n        /* \"#utility.yul\":5240:5254   */\n      add\n        /* \"#utility.yul\":5236:5259   */\n      div\n        /* \"#utility.yul\":5226:5259   */\n      swap1\n      pop\n        /* \"#utility.yul\":5172:5265   */\n      swap2\n      swap1\n      pop\n      jump\t// out\n        /* \"#utility.yul\":5271:5378   */\n    tag_83:\n        /* \"#utility.yul\":5315:5323   */\n      0x00\n        /* \"#utility.yul\":5365:5370   */\n      dup3\n        /* \"#utility.yul\":5359:5363   */\n      dup3\n        /* \"#utility.yul\":5355:5371   */\n      shl\n        /* \"#utility.yul\":5334:5371   */\n      swap1\n      pop\n        /* \"#utility.yul\":5271:5378   */\n      swap3\n      swap2\n      pop\n      pop\n      jump\t// out\n        /* \"#utility.yul\":5384:5777   */\n    tag_84:\n        /* \"#utility.yul\":5453:5459   */\n      0x00\n        /* \"#utility.yul\":5503:5504   */\n      0x08\n        /* \"#utility.yul\":5491:5501   */\n      dup4\n        /* \"#utility.yul\":5487:5505   */\n      mul\n        /* \"#utility.yul\":5526:5623   */\n      tag_157\n        /* \"#utility.yul\":5556:5622   */\n      0xffffffffffffffffffffffffffffffffffffffffffffffffffffffffffffffff\n        /* \"#utility.yul\":5545:5554   */\n      dup3\n        /* \"#utility.yul\":5526:5623   */\n      tag_83\n      jump\t// in\n    tag_157:\n        /* \"#utility.yul\":5644:5683   */\n      tag_158\n        /* \"#utility.yul\":5674:5682   */\n      dup7\n        /* \"#utility.yul\":5663:5672   */\n      dup4\n        /* \"#utility.yul\":5644:5683   */\n      tag_83\n      jump\t// in\n    tag_158:\n        /* \"#utility.yul\":5632:5683   */\n      swap6\n      pop\n        /* \"#utility.yul\":5716:5720   */\n      dup1\n        /* \"#utility.yul\":5712:5721   */\n      not\n        /* \"#utility.yul\":5705:5710   */\n      dup5\n        /* \"#utility.yul\":5701:5722   */\n      and\n        /* \"#utility.yul\":5692:5722   */\n      swap4\n      pop\n        /* \"#utility.yul\":5765:5769   */\n      dup1\n        /* \"#utility.yul\":5755:5763   */\n      dup7\n        /* \"#utility.yul\":5751:5770   */\n      and\n        /* \"#utility.yul\":5744:5749   */\n      dup5\n        /* \"#utility.yul\":5741:5771   */\n      or\n        /* \"#utility.yul\":5731:5771   */\n      swap3\n      pop\n        /* \"#utility.yul\":5460:5777   */\n      pop\n      pop\n        /* \"#utility.yul\":5384:5777   */\n      swap4\n      swap3\n      pop\n      pop\n      pop\n      jump\t// out\n        /* \"#utility.yul\":5783:5860   */\n    tag_85:\n        /* \"#utility.yul\":5820:5827   */\n      0x00\n        /* \"#utility.yul\":5849:5854   */\n      dup2\n        /* \"#utility.yul\":5838:5854   */\n      swap1\n      pop\n        /* \"#utility.yul\":5783:5860   */\n      swap2\n      swap1\n      pop\n      jump\t// out\n        /* \"#utility.yul\":5866:5926   */\n    tag_86:\n        /* \"#utility.yul\":5894:5897   */\n      0x00\n        /* \"#utility.yul\":5915:5920   */\n      dup2\n        /* \"#utility.yul\":5908:5920   */\n      swap1\n      pop\n        /* \"#utility.yul\":5866:5926   */\n      swap2\n      swap1\n      pop\n      jump\t// out\n        /* \"#utility.yul\":5932:6074   */\n    tag_87:\n        /* \"#utility.yul\":5982:5991   */\n      0x00\n        /* \"#utility.yul\":6015:6068   */\n      tag_162\n        /* \"#utility.yul\":6033:6067   */\n      tag_163\n        /* \"#utility.yul\":6042:6066   */\n      tag_164\n        /* \"#utility.yul\":6060:6065   */\n      dup5\n        /* \"#utility.yul\":6042:6066   */\n      tag_85\n      jump\t// in\n    tag_164:\n        /* \"#utility.yul\":6033:6067   */\n      tag_86\n      jump\t// in\n    tag_163:\n        /* \"#utility.yul\":6015:6068   */\n      tag_85\n      jump\t// in\n    tag_162:\n        /* \"#utility.yul\":6002:6068   */\n      swap1\n      pop\n        /* \"#utility.yul\":5932:6074   */\n      swap2\n      swap1\n      pop\n      jump\t// out\n        /* \"#utility.yul\":6080:6155   */\n    tag_88:\n        /* \"#utility.yul\":6123:6126   */\n      0x00\n        /* \"#utility.yul\":6144:6149   */\n      dup2\n        /* \"#utility.yul\":6137:6149   */\n      swap1\n      pop\n        /* \"#utility.yul\":6080:6155   */\n      swap2\n      swap1\n      pop\n      jump\t// out\n        /* \"#utility.yul\":6161:6430   */\n    tag_89:\n        /* \"#utility.yul\":6271:6310   */\n      tag_167\n        /* \"#utility.yul\":6302:6309   */\n      dup4\n        /* \"#utility.yul\":6271:6310   */\n      tag_87\n      jump\t// in\n    tag_167:\n        /* \"#utility.yul\":6332:6423   */\n      tag_168\n        /* \"#utility.yul\":6381:6422   */\n      tag_169\n        /* \"#utility.yul\":6405:6421   */\n      dup3\n        /* \"#utility.yul\":6381:6422   */\n      tag_88\n      jump\t// in\n    tag_169:\n        /* \"#utility.yul\":6373:6379   */\n      dup5\n        /* \"#utility.yul\":6366:6370   */\n      dup5\n        /* \"#utility.yul\":6360:6371   */\n      sload\n        /* \"#utility.yul\":6332:6423   */\n      tag_84\n      jump\t// in\n    tag_168:\n        /* \"#utility.yul\":6326:6330   */\n      dup3\n        /* \"#utility.yul\":6319:6424   */\n      sstore\n        /* \"#utility.yul\":6237:6430   */\n      pop\n        /* \"#utility.yul\":6161:6430   */\n      pop\n      pop\n      pop\n      jump\t// out\n        /* \"#utility.yul\":6436:6509   */\n    tag_90:\n        /* \"#utility.yul\":6481:6484   */\n      0x00\n        /* \"#utility.yul\":6436:6509   */\n      swap1\n      jump\t// out\n        /* \"#utility.yul\":6515:6704   */\n    tag_91:\n        /* \"#utility.yul\":6592:6624   */\n      tag_172\n      tag_90\n      jump\t// in\n    tag_172:\n        /* \"#utility.yul\":6633:6698   */\n      tag_173\n        /* \"#utility.yul\":6691:6697   */\n      dup2\n        /* \"#utility.yul\":6683:6689   */\n      dup5\n        /* \"#utility.yul\":6677:6681   */\n      dup5\n        /* \"#utility.yul\":6633:6698   */\n      tag_89\n      jump\t// in\n    tag_173:\n        /* \"#utility.yul\":6568:6704   */\n      pop\n        /* \"#utility.yul\":6515:6704   */\n      pop\n      pop\n      jump\t// out\n        /* \"#utility.yul\":6710:6896   */\n    tag_92:\n        /* \"#utility.yul\":6770:6890   */\n    tag_175:\n        /* \"#utility.yul\":6787:6790   */\n      dup2\n        /* \"#utility.yul\":6780:6785   */\n      dup2\n        /* \"#utility.yul\":6777:6791   */\n      lt\n        /* \"#utility.yul\":6770:6890   */\n      iszero\n      tag_177\n      jumpi\n        /* \"#utility.yul\":6841:6880   */\n      tag_178\n        /* \"#utility.yul\":6878:6879   */\n      0x00\n        /* \"#utility.yul\":6871:6876   */\n      dup3\n        /* \"#utility.yul\":6841:6880   */\n      tag_91\n      jump\t// in\n    tag_178:\n        /* \"#utility.yul\":6814:6815   */\n      0x01\n        /* \"#utility.yul\":6807:6812   */\n      dup2\n        /* \"#utility.yul\":6803:6816   */\n      add\n        /* \"#utility.yul\":6794:6816   */\n      swap1\n      pop\n        /* \"#utility.yul\":6770:6890   */\n      jump(tag_175)\n    tag_177:\n        /* \"#utility.yul\":6710:6896   */\n      pop\n      pop\n      jump\t// out\n        /* \"#utility.yul\":6902:7443   */\n    tag_93:\n        /* \"#utility.yul\":7002:7004   */\n      0x1f\n        /* \"#utility.yul\":6997:7000   */\n      dup3\n        /* \"#utility.yul\":6994:7005   */\n      gt\n        /* \"#utility.yul\":6991:7436   */\n      iszero\n      tag_180\n      jumpi\n        /* \"#utility.yul\":7036:7073   */\n      tag_181\n        /* \"#utility.yul\":7067:7072   */\n      dup2\n        /* \"#utility.yul\":7036:7073   */\n      tag_81\n      jump\t// in\n    tag_181:\n        /* \"#utility.yul\":7119:7148   */\n      tag_182\n        /* \"#utility.yul\":7137:7147   */\n      dup5\n        /* \"#utility.yul\":7119:7148   */\n      tag_82\n      jump\t// in\n    tag_182:\n        /* \"#utility.yul\":7109:7117   */\n      dup2\n        /* \"#utility.yul\":7105:7149   */\n      add\n        /* \"#utility.yul\":7302:7304   */\n      0x20\n        /* \"#utility.yul\":7290:7300   */\n      dup6\n        /* \"#utility.yul\":7287:7305   */\n      lt\n        /* \"#utility.yul\":7284:7333   */\n      iszero\n      tag_183\n      jumpi\n        /* \"#utility.yul\":7323:7331   */\n      dup2\n        /* \"#utility.yul\":7308:7331   */\n      swap1\n      pop\n        /* \"#utility.yul\":7284:7333   */\n    tag_183:\n        /* \"#utility.yul\":7346:7426   */\n      tag_184\n        /* \"#utility.yul\":7402:7424   */\n      tag_185\n        /* \"#utility.yul\":7420:7423   */\n      dup6\n        /* \"#utility.yul\":7402:7424   */\n      tag_82\n      jump\t// in\n    tag_185:\n        /* \"#utility.yul\":7392:7400   */\n      dup4\n        /* \"#utility.yul\":7388:7425   */\n      add\n        /* \"#utility.yul\":7375:7386   */\n      dup3\n        /* \"#utility.yul\":7346:7426   */\n      tag_92\n      jump\t// in\n    tag_184:\n        /* \"#utility.yul\":7006:7436   */\n      pop\n      pop\n        /* \"#utility.yul\":6991:7436   */\n    tag_180:\n        /* \"#utility.yul\":6902:7443   */\n      pop\n      pop\n      pop\n      jump\t// out\n        /* \"#utility.yul\":7449:7566   */\n    tag_94:\n        /* \"#utility.yul\":7503:7511   */\n      0x00\n        /* \"#utility.yul\":7553:7558   */\n      dup3\n        /* \"#utility.yul\":7547:7551   */\n      dup3\n        /* \"#utility.yul\":7543:7559   */\n      shr\n        /* \"#utility.yul\":7522:7559   */\n      swap1\n      pop\n        /* \"#utility.yul\":7449:7566   */\n      swap3\n      swap2\n      pop\n      pop\n      jump\t// out\n        /* \"#utility.yul\":7572:7741   */\n    tag_95:\n        /* \"#utility.yul\":7616:7622   */\n      0x00\n        /* \"#utility.yul\":7649:7700   */\n      tag_188\n        /* \"#utility.yul\":7697:7698   */\n      0x00\n        /* \"#utility.yul\":7693:7699   */\n      not\n        /* \"#utility.yul\":7685:7690   */\n      dup5\n        /* \"#utility.yul\":7682:7683   */\n      0x08\n        /* \"#utility.yul\":7678:7691   */\n      mul\n        /* \"#utility.yul\":7649:7700   */\n      tag_94\n      jump\t// in\n    tag_188:\n        /* \"#utility.yul\":7645:7701   */\n      not\n        /* \"#utility.yul\":7730:7734   */\n      dup1\n        /* \"#utility.yul\":7724:7728   */\n      dup4\n        /* \"#utility.yul\":7720:7735   */\n      and\n        /* \"#utility.yul\":7710:7735   */\n      swap2\n      pop\n        /* \"#utility.yul\":7623:7741   */\n      pop\n        /* \"#utility.yul\":7572:7741   */\n      swap3\n      swap2\n      pop\n      pop\n      jump\t// out\n        /* \"#utility.yul\":7746:8041   */\n    tag_96:\n        /* \"#utility.yul\":7822:7826   */\n      0x00\n        /* \"#utility.yul\":7968:7997   */\n      tag_190\n        /* \"#utility.yul\":7993:7996   */\n      dup4\n        /* \"#utility.yul\":7987:7991   */\n      dup4\n        /* \"#utility.yul\":7968:7997   */\n      tag_95\n      jump\t// in\n    tag_190:\n        /* \"#utility.yul\":7960:7997   */\n      swap2\n      pop\n        /* \"#utility.yul\":8030:8033   */\n      dup3\n        /* \"#utility.yul\":8027:8028   */\n      0x02\n        /* \"#utility.yul\":8023:8034   */\n      mul\n        /* \"#utility.yul\":8017:8021   */\n      dup3\n        /* \"#utility.yul\":8014:8035   */\n      or\n        /* \"#utility.yul\":8006:8035   */\n      swap1\n      pop\n        /* \"#utility.yul\":7746:8041   */\n      swap3\n      swap2\n      pop\n      pop\n      jump\t// out\n        /* \"#utility.yul\":8046:9444   */\n    tag_37:\n        /* \"#utility.yul\":8168:8211   */\n      tag_192\n        /* \"#utility.yul\":8207:8210   */\n      dup4\n        /* \"#utility.yul\":8202:8205   */\n      dup4\n        /* \"#utility.yul\":8168:8211   */\n      tag_79\n      jump\t// in\n    tag_192:\n        /* \"#utility.yul\":8276:8294   */\n      0xffffffffffffffff\n        /* \"#utility.yul\":8268:8274   */\n      dup2\n        /* \"#utility.yul\":8265:8295   */\n      gt\n        /* \"#utility.yul\":8262:8318   */\n      iszero\n      tag_193\n      jumpi\n        /* \"#utility.yul\":8298:8316   */\n      tag_194\n      tag_80\n      jump\t// in\n    tag_194:\n        /* \"#utility.yul\":8262:8318   */\n    tag_193:\n        /* \"#utility.yul\":8342:8380   */\n      tag_195\n        /* \"#utility.yul\":8374:8378   */\n      dup3\n        /* \"#utility.yul\":8368:8379   */\n      sload\n        /* \"#utility.yul\":8342:8380   */\n      tag_27\n      jump\t// in\n    tag_195:\n        /* \"#utility.yul\":8427:8493   */\n      tag_196\n        /* \"#utility.yul\":8486:8492   */\n      dup3\n        /* \"#utility.yul\":8478:8484   */\n      dup3\n        /* \"#utility.yul\":8472:8476   */\n      dup6\n        /* \"#utility.yul\":8427:8493   */\n      tag_93\n      jump\t// in\n    tag_196:\n        /* \"#utility.yul\":8520:8521   */\n      0x00\n        /* \"#utility.yul\":8549:8551   */\n      0x1f\n        /* \"#utility.yul\":8541:8547   */\n      dup4\n        /* \"#utility.yul\":8538:8552   */\n      gt\n        /* \"#utility.yul\":8566:8567   */\n      0x01\n        /* \"#utility.yul\":8561:9192   */\n      dup2\n      eq\n      tag_198\n      jumpi\n        /* \"#utility.yul\":9236:9237   */\n      0x00\n        /* \"#utility.yul\":9253:9259   */\n      dup5\n        /* \"#utility.yul\":9250:9334   */\n      iszero\n      tag_199\n      jumpi\n        /* \"#utility.yul\":9309:9318   */\n      dup3\n        /* \"#utility.yul\":9304:9307   */\n      dup8\n        /* \"#utility.yul\":9300:9319   */\n      add\n        /* \"#utility.yul\":9287:9320   */\n      calldataload\n        /* \"#utility.yul\":9278:9320   */\n      swap1\n      pop\n        /* \"#utility.yul\":9250:9334   */\n    tag_199:\n        /* \"#utility.yul\":9360:9427   */\n      tag_200\n        /* \"#utility.yul\":9420:9426   */\n      dup6\n        /* \"#utility.yul\":9413:9418   */\n      dup3\n        /* \"#utility.yul\":9360:9427   */\n      tag_96\n      jump\t// in\n    tag_200:\n        /* \"#utility.yul\":9354:9358   */\n      dup7\n        /* \"#utility.yul\":9347:9428   */\n      sstore\n        /* \"#utility.yul\":9209:9438   */\n      pop\n        /* \"#utility.yul\":8531:9438   */\n      jump(tag_197)\n        /* \"#utility.yul\":8561:9192   */\n    tag_198:\n        /* \"#utility.yul\":8613:8617   */\n      0x1f\n        /* \"#utility.yul\":8609:8618   */\n      not\n        /* \"#utility.yul\":8601:8607   */\n      dup5\n        /* \"#utility.yul\":8597:8619   */\n      and\n        /* \"#utility.yul\":8647:8683   */\n      tag_201\n        /* \"#utility.yul\":8678:8682   */\n      dup7\n        /* \"#utility.yul\":8647:8683   */\n      tag_81\n      jump\t// in\n    tag_201:\n        /* \"#utility.yul\":8705:8706   */\n      0x00\n        /* \"#utility.yul\":8719:8934   */\n    tag_202:\n        /* \"#utility.yul\":8733:8740   */\n      dup3\n        /* \"#utility.yul\":8730:8731   */\n      dup2\n        /* \"#utility.yul\":8727:8741   */\n      lt\n        /* \"#utility.yul\":8719:8934   */\n      iszero\n      tag_204\n      jumpi\n        /* \"#utility.yul\":8819:8828   */\n      dup5\n        /* \"#utility.yul\":8814:8817   */\n      dup10\n        /* \"#utility.yul\":8810:8829   */\n      add\n        /* \"#utility.yul\":8797:8830   */\n      calldataload\n        /* \"#utility.yul\":8789:8795   */\n      dup3\n        /* \"#utility.yul\":8782:8831   */\n      sstore\n        /* \"#utility.yul\":8870:8871   */\n      0x01\n        /* \"#utility.yul\":8862:8868   */\n      dup3\n        /* \"#utility.yul\":8858:8872   */\n      add\n        /* \"#utility.yul\":8848:8872   */\n      swap2\n      pop\n        /* \"#utility.yul\":8917:8919   */\n      0x20\n        /* \"#utility.yul\":8906:8915   */\n      dup6\n        /* \"#utility.yul\":8902:8920   */\n      add\n        /* \"#utility.yul\":8889:8920   */\n      swap5\n      pop\n        /* \"#utility.yul\":8756:8760   */\n      0x20\n        /* \"#utility.yul\":8753:8754   */\n      dup2\n        /* \"#utility.yul\":8749:8761   */\n      add\n        /* \"#utility.yul\":8744:8761   */\n      swap1\n      pop\n        /* \"#utility.yul\":8719:8934   */\n      jump(tag_202)\n    tag_204:\n        /* \"#utility.yul\":8962:8968   */\n      dup7\n        /* \"#utility.yul\":8953:8960   */\n      dup4\n        /* \"#utility.yul\":8950:8969   */\n      lt\n        /* \"#utility.yul\":8947:9133   */\n      iszero\n      tag_205\n      jumpi\n        /* \"#utility.yul\":9027:9036   */\n      dup5\n        /* \"#utility.yul\":9022:9025   */\n      dup10\n        /* \"#utility.yul\":9018:9037   */\n      add\n        /* \"#utility.yul\":9005:9038   */\n      calldataload\n        /* \"#utility.yul\":9070:9118   */\n      tag_206\n        /* \"#utility.yul\":9112:9116   */\n      0x1f\n        /* \"#utility.yul\":9104:9110   */\n      dup10\n        /* \"#utility.yul\":9100:9117   */\n      and\n        /* \"#utility.yul\":9089:9098   */\n      dup3\n        /* \"#utility.yul\":9070:9118   */\n      tag_95\n      jump\t// in\n    tag_206:\n        /* \"#utility.yul\":9062:9068   */\n      dup4\n        /* \"#utility.yul\":9055:9119   */\n      sstore\n        /* \"#utility.yul\":8970:9133   */\n      pop\n        /* \"#utility.yul\":8947:9133   */\n    tag_205:\n        /* \"#utility.yul\":9179:9180   */\n      0x01\n        /* \"#utility.yul\":9175:9176   */\n      0x02\n        /* \"#utility.yul\":9167:9173   */\n      dup9\n        /* \"#utility.yul\":9163:9177   */\n      mul\n        /* \"#utility.yul\":9159:9181   */\n      add\n        /* \"#utility.yul\":9153:9157   */\n      dup9\n        /* \"#utility.yul\":9146:9182   */\n      sstore\n        /* \"#utility.yul\":8568:9192   */\n      pop\n      pop\n      pop\n        /* \"#utility.yul\":8531:9438   */\n    tag_197:\n      pop\n        /* \"#utility.yul\":8143:9444   */\n      pop\n      pop\n      pop\n        /* \"#utility.yul\":8046:9444   */\n      pop\n      pop\n      pop\n      jump\t// out\n        /* \"#utility.yul\":9450:9598   */\n    tag_97:\n        /* \"#utility.yul\":9548:9554   */\n      dup3\n        /* \"#utility.yul\":9543:9546   */\n      dup2\n        /* \"#utility.yul\":9538:9541   */\n      dup4\n        /* \"#utility.yul\":9525:9555   */\n      calldatacopy\n        /* \"#utility.yul\":9589:9590   */\n      0x00\n        /* \"#utility.yul\":9580:9586   */\n      dup4\n        /* \"#utility.yul\":9575:9578   */\n      dup4\n        /* \"#utility.yul\":9571:9587   */\n      add\n        /* \"#utility.yul\":9564:9591   */\n      mstore\n        /* \"#utility.yul\":9450:9598   */\n      pop\n      pop\n      pop\n      jump\t// out\n        /* \"#utility.yul\":9626:9940   */\n    tag_98:\n        /* \"#utility.yul\":9722:9725   */\n      0x00\n        /* \"#utility.yul\":9743:9813   */\n      tag_209\n        /* \"#utility.yul\":9806:9812   */\n      dup4\n        /* \"#utility.yul\":9801:9804   */\n      dup6\n        /* \"#utility.yul\":9743:9813   */\n      tag_62\n      jump\t// in\n    tag_209:\n        /* \"#utility.yul\":9736:9813   */\n      swap4\n      pop\n        /* \"#utility.yul\":9823:9879   */\n      tag_210\n        /* \"#utility.yul\":9872:9878   */\n      dup4\n        /* \"#utility.yul\":9867:9870   */\n      dup6\n        /* \"#utility.yul\":9860:9865   */\n      dup5\n        /* \"#utility.yul\":9823:9879   */\n      tag_97\n      jump\t// in\n    tag_210:\n        /* \"#utility.yul\":9904:9933   */\n      tag_211\n        /* \"#utility.yul\":9926:9932   */\n      dup4\n        /* \"#utility.yul\":9904:9933   */\n      tag_64\n      jump\t// in\n    tag_211:\n        /* \"#utility.yul\":9899:9902   */\n      dup5\n        /* \"#utility.yul\":9895:9934   */\n      add\n        /* \"#utility.yul\":9888:9934   */\n      swap1\n      pop\n        /* \"#utility.yul\":9626:9940   */\n      swap4\n      swap3\n      pop\n      pop\n      pop\n      jump\t// out\n        /* \"#utility.yul\":9946:10275   */\n    tag_39:\n        /* \"#utility.yul\":10067:10071   */\n      0x00\n        /* \"#utility.yul\":10105:10107   */\n      0x20\n        /* \"#utility.yul\":10094:10103   */\n      dup3\n        /* \"#utility.yul\":10090:10108   */\n      add\n        /* \"#utility.yul\":10082:10108   */\n      swap1\n      pop\n        /* \"#utility.yul\":10154:10163   */\n      dup2\n        /* \"#utility.yul\":10148:10152   */\n      dup2\n        /* \"#utility.yul\":10144:10164   */\n      sub\n        /* \"#utility.yul\":10140:10141   */\n      0x00\n        /* \"#utility.yul\":10129:10138   */\n      dup4\n        /* \"#utility.yul\":10125:10142   */\n      add\n        /* \"#utility.yul\":10118:10165   */\n      mstore\n        /* \"#utility.yul\":10182:10268   */\n      tag_213\n        /* \"#utility.yul\":10263:10267   */\n      dup2\n        /* \"#utility.yul\":10254:10260   */\n      dup5\n        /* \"#utility.yul\":10246:10252   */\n      dup7\n        /* \"#utility.yul\":10182:10268   */\n      tag_98\n      jump\t// in\n    tag_213:\n        /* \"#utility.yul\":10174:10268   */\n      swap1\n      pop\n        /* \"#utility.yul\":9946:10275   */\n      swap4\n      swap3\n      pop\n      pop\n      pop\n      jump\t// out\n\n    auxdata: 0xa2646970667358221220c99f9ecd97559a6e5ffb8a1454bd06ac16f06bbb34bd3f141cf9f6e8f52260a764736f6c634300081a0033\n}\n",
				"bytecode": {
					"linkReferences": {},
					"object": "608060405234801561000f575f80fd5b50335f73ffffffffffffffffffffffffffffffffffffffff168173ffffffffffffffffffffffffffffffffffffffff1603610081575f6040517f1e4fbdf70000000000000000000000000000000000000000000000000000000081526004016100789190610196565b60405180910390fd5b6100908161009660201b60201c565b506101af565b5f805f9054906101000a900473ffffffffffffffffffffffffffffffffffffffff169050815f806101000a81548173ffffffffffffffffffffffffffffffffffffffff021916908373ffffffffffffffffffffffffffffffffffffffff1602179055508173ffffffffffffffffffffffffffffffffffffffff168173ffffffffffffffffffffffffffffffffffffffff167f8be0079c531659141344cd1fd0a4f28419497f9722a3daafe3b4186f6b6457e060405160405180910390a35050565b5f73ffffffffffffffffffffffffffffffffffffffff82169050919050565b5f61018082610157565b9050919050565b61019081610176565b82525050565b5f6020820190506101a95f830184610187565b92915050565b610951806101bc5f395ff3fe608060405234801561000f575f80fd5b5060043610610055575f3560e01c8063283cf97114610059578063473391a314610077578063715018a6146100935780638da5cb5b1461009d578063f2fde38b146100bb575b5f80fd5b6100616100d7565b60405161006e9190610437565b60405180910390f35b610091600480360381019061008c91906104c0565b610163565b005b61009b6101ba565b005b6100a56101cd565b6040516100b2919061054a565b60405180910390f35b6100d560048036038101906100d0919061058d565b6101f4565b005b600180546100e4906105e5565b80601f0160208091040260200160405190810160405280929190818152602001828054610110906105e5565b801561015b5780601f106101325761010080835404028352916020019161015b565b820191905f5260205f20905b81548152906001019060200180831161013e57829003601f168201915b505050505081565b61016b610278565b81816001918261017c9291906107f2565b507f46ddc925aca7cbdb52231c306a30492088ae541846fa93e5b6ab153c4d8568d982826040516101ae9291906108f9565b60405180910390a15050565b6101c2610278565b6101cb5f6102ff565b565b5f805f9054906101000a900473ffffffffffffffffffffffffffffffffffffffff16905090565b6101fc610278565b5f73ffffffffffffffffffffffffffffffffffffffff168173ffffffffffffffffffffffffffffffffffffffff160361026c575f6040517f1e4fbdf7000000000000000000000000000000000000000000000000000000008152600401610263919061054a565b60405180910390fd5b610275816102ff565b50565b6102806103c0565b73ffffffffffffffffffffffffffffffffffffffff1661029e6101cd565b73ffffffffffffffffffffffffffffffffffffffff16146102fd576102c16103c0565b6040517f118cdaa70000000000000000000000000000000000000000000000000000000081526004016102f4919061054a565b60405180910390fd5b565b5f805f9054906101000a900473ffffffffffffffffffffffffffffffffffffffff169050815f806101000a81548173ffffffffffffffffffffffffffffffffffffffff021916908373ffffffffffffffffffffffffffffffffffffffff1602179055508173ffffffffffffffffffffffffffffffffffffffff168173ffffffffffffffffffffffffffffffffffffffff167f8be0079c531659141344cd1fd0a4f28419497f9722a3daafe3b4186f6b6457e060405160405180910390a35050565b5f33905090565b5f81519050919050565b5f82825260208201905092915050565b8281835e5f83830152505050565b5f601f19601f8301169050919050565b5f610409826103c7565b61041381856103d1565b93506104238185602086016103e1565b61042c816103ef565b840191505092915050565b5f6020820190508181035f83015261044f81846103ff565b905092915050565b5f80fd5b5f80fd5b5f80fd5b5f80fd5b5f80fd5b5f8083601f8401126104805761047f61045f565b5b8235905067ffffffffffffffff81111561049d5761049c610463565b5b6020830191508360018202830111156104b9576104b8610467565b5b9250929050565b5f80602083850312156104d6576104d5610457565b5b5f83013567ffffffffffffffff8111156104f3576104f261045b565b5b6104ff8582860161046b565b92509250509250929050565b5f73ffffffffffffffffffffffffffffffffffffffff82169050919050565b5f6105348261050b565b9050919050565b6105448161052a565b82525050565b5f60208201905061055d5f83018461053b565b92915050565b61056c8161052a565b8114610576575f80fd5b50565b5f8135905061058781610563565b92915050565b5f602082840312156105a2576105a1610457565b5b5f6105af84828501610579565b91505092915050565b7f4e487b71000000000000000000000000000000000000000000000000000000005f52602260045260245ffd5b5f60028204905060018216806105fc57607f821691505b60208210810361060f5761060e6105b8565b5b50919050565b5f82905092915050565b7f4e487b71000000000000000000000000000000000000000000000000000000005f52604160045260245ffd5b5f819050815f5260205f209050919050565b5f6020601f8301049050919050565b5f82821b905092915050565b5f600883026106a87fffffffffffffffffffffffffffffffffffffffffffffffffffffffffffffffff8261066d565b6106b2868361066d565b95508019841693508086168417925050509392505050565b5f819050919050565b5f819050919050565b5f6106f66106f16106ec846106ca565b6106d3565b6106ca565b9050919050565b5f819050919050565b61070f836106dc565b61072361071b826106fd565b848454610679565b825550505050565b5f90565b61073761072b565b610742818484610706565b505050565b5b818110156107655761075a5f8261072f565b600181019050610748565b5050565b601f8211156107aa5761077b8161064c565b6107848461065e565b81016020851015610793578190505b6107a761079f8561065e565b830182610747565b50505b505050565b5f82821c905092915050565b5f6107ca5f19846008026107af565b1980831691505092915050565b5f6107e283836107bb565b9150826002028217905092915050565b6107fc8383610615565b67ffffffffffffffff8111156108155761081461061f565b5b61081f82546105e5565b61082a828285610769565b5f601f831160018114610857575f8415610845578287013590505b61084f85826107d7565b8655506108b6565b601f1984166108658661064c565b5f5b8281101561088c57848901358255600182019150602085019450602081019050610867565b868310156108a957848901356108a5601f8916826107bb565b8355505b6001600288020188555050505b50505050505050565b828183375f83830152505050565b5f6108d883856103d1565b93506108e58385846108bf565b6108ee836103ef565b840190509392505050565b5f6020820190508181035f8301526109128184866108cd565b9050939250505056fea2646970667358221220c99f9ecd97559a6e5ffb8a1454bd06ac16f06bbb34bd3f141cf9f6e8f52260a764736f6c634300081a0033",
					"opcodes": "PUSH1 0x80 PUSH1 0x40 MSTORE CALLVALUE DUP1 ISZERO PUSH2 0xF JUMPI PUSH0 DUP1 REVERT JUMPDEST POP CALLER PUSH0 PUSH20 0xFFFFFFFFFFFFFFFFFFFFFFFFFFFFFFFFFFFFFFFF AND DUP2 PUSH20 0xFFFFFFFFFFFFFFFFFFFFFFFFFFFFFFFFFFFFFFFF AND SUB PUSH2 0x81 JUMPI PUSH0 PUSH1 0x40 MLOAD PUSH32 0x1E4FBDF700000000000000000000000000000000000000000000000000000000 DUP2 MSTORE PUSH1 0x4 ADD PUSH2 0x78 SWAP2 SWAP1 PUSH2 0x196 JUMP JUMPDEST PUSH1 0x40 MLOAD DUP1 SWAP2 SUB SWAP1 REVERT JUMPDEST PUSH2 0x90 DUP2 PUSH2 0x96 PUSH1 0x20 SHL PUSH1 0x20 SHR JUMP JUMPDEST POP PUSH2 0x1AF JUMP JUMPDEST PUSH0 DUP1 PUSH0 SWAP1 SLOAD SWAP1 PUSH2 0x100 EXP SWAP1 DIV PUSH20 0xFFFFFFFFFFFFFFFFFFFFFFFFFFFFFFFFFFFFFFFF AND SWAP1 POP DUP2 PUSH0 DUP1 PUSH2 0x100 EXP DUP2 SLOAD DUP2 PUSH20 0xFFFFFFFFFFFFFFFFFFFFFFFFFFFFFFFFFFFFFFFF MUL NOT AND SWAP1 DUP4 PUSH20 0xFFFFFFFFFFFFFFFFFFFFFFFFFFFFFFFFFFFFFFFF AND MUL OR SWAP1 SSTORE POP DUP2 PUSH20 0xFFFFFFFFFFFFFFFFFFFFFFFFFFFFFFFFFFFFFFFF AND DUP2 PUSH20 0xFFFFFFFFFFFFFFFFFFFFFFFFFFFFFFFFFFFFFFFF AND PUSH32 0x8BE0079C531659141344CD1FD0A4F28419497F9722A3DAAFE3B4186F6B6457E0 PUSH1 0x40 MLOAD PUSH1 0x40 MLOAD DUP1 SWAP2 SUB SWAP1 LOG3 POP POP JUMP JUMPDEST PUSH0 PUSH20 0xFFFFFFFFFFFFFFFFFFFFFFFFFFFFFFFFFFFFFFFF DUP3 AND SWAP1 POP SWAP2 SWAP1 POP JUMP JUMPDEST PUSH0 PUSH2 0x180 DUP3 PUSH2 0x157 JUMP JUMPDEST SWAP1 POP SWAP2 SWAP1 POP JUMP JUMPDEST PUSH2 0x190 DUP2 PUSH2 0x176 JUMP JUMPDEST DUP3 MSTORE POP POP JUMP JUMPDEST PUSH0 PUSH1 0x20 DUP3 ADD SWAP1 POP PUSH2 0x1A9 PUSH0 DUP4 ADD DUP5 PUSH2 0x187 JUMP JUMPDEST SWAP3 SWAP2 POP POP JUMP JUMPDEST PUSH2 0x951 DUP1 PUSH2 0x1BC PUSH0 CODECOPY PUSH0 RETURN INVALID PUSH1 0x80 PUSH1 0x40 MSTORE CALLVALUE DUP1 ISZERO PUSH2 0xF JUMPI PUSH0 DUP1 REVERT JUMPDEST POP PUSH1 0x4 CALLDATASIZE LT PUSH2 0x55 JUMPI PUSH0 CALLDATALOAD PUSH1 0xE0 SHR DUP1 PUSH4 0x283CF971 EQ PUSH2 0x59 JUMPI DUP1 PUSH4 0x473391A3 EQ PUSH2 0x77 JUMPI DUP1 PUSH4 0x715018A6 EQ PUSH2 0x93 JUMPI DUP1 PUSH4 0x8DA5CB5B EQ PUSH2 0x9D JUMPI DUP1 PUSH4 0xF2FDE38B EQ PUSH2 0xBB JUMPI JUMPDEST PUSH0 DUP1 REVERT JUMPDEST PUSH2 0x61 PUSH2 0xD7 JUMP JUMPDEST PUSH1 0x40 MLOAD PUSH2 0x6E SWAP2 SWAP1 PUSH2 0x437 JUMP JUMPDEST PUSH1 0x40 MLOAD DUP1 SWAP2 SUB SWAP1 RETURN JUMPDEST PUSH2 0x91 PUSH1 0x4 DUP1 CALLDATASIZE SUB DUP2 ADD SWAP1 PUSH2 0x8C SWAP2 SWAP1 PUSH2 0x4C0 JUMP JUMPDEST PUSH2 0x163 JUMP JUMPDEST STOP JUMPDEST PUSH2 0x9B PUSH2 0x1BA JUMP JUMPDEST STOP JUMPDEST PUSH2 0xA5 PUSH2 0x1CD JUMP JUMPDEST PUSH1 0x40 MLOAD PUSH2 0xB2 SWAP2 SWAP1 PUSH2 0x54A JUMP JUMPDEST PUSH1 0x40 MLOAD DUP1 SWAP2 SUB SWAP1 RETURN JUMPDEST PUSH2 0xD5 PUSH1 0x4 DUP1 CALLDATASIZE SUB DUP2 ADD SWAP1 PUSH2 0xD0 SWAP2 SWAP1 PUSH2 0x58D JUMP JUMPDEST PUSH2 0x1F4 JUMP JUMPDEST STOP JUMPDEST PUSH1 0x1 DUP1 SLOAD PUSH2 0xE4 SWAP1 PUSH2 0x5E5 JUMP JUMPDEST DUP1 PUSH1 0x1F ADD PUSH1 0x20 DUP1 SWAP2 DIV MUL PUSH1 0x20 ADD PUSH1 0x40 MLOAD SWAP1 DUP2 ADD PUSH1 0x40 MSTORE DUP1 SWAP3 SWAP2 SWAP1 DUP2 DUP2 MSTORE PUSH1 0x20 ADD DUP3 DUP1 SLOAD PUSH2 0x110 SWAP1 PUSH2 0x5E5 JUMP JUMPDEST DUP1 ISZERO PUSH2 0x15B JUMPI DUP1 PUSH1 0x1F LT PUSH2 0x132 JUMPI PUSH2 0x100 DUP1 DUP4 SLOAD DIV MUL DUP4 MSTORE SWAP2 PUSH1 0x20 ADD SWAP2 PUSH2 0x15B JUMP JUMPDEST DUP3 ADD SWAP2 SWAP1 PUSH0 MSTORE PUSH1 0x20 PUSH0 KECCAK256 SWAP1 JUMPDEST DUP2 SLOAD DUP2 MSTORE SWAP1 PUSH1 0x1 ADD SWAP1 PUSH1 0x20 ADD DUP1 DUP4 GT PUSH2 0x13E JUMPI DUP3 SWAP1 SUB PUSH1 0x1F AND DUP3 ADD SWAP2 JUMPDEST POP POP POP POP POP DUP2 JUMP JUMPDEST PUSH2 0x16B PUSH2 0x278 JUMP JUMPDEST DUP2 DUP2 PUSH1 0x1 SWAP2 DUP3 PUSH2 0x17C SWAP3 SWAP2 SWAP1 PUSH2 0x7F2 JUMP JUMPDEST POP PUSH32 0x46DDC925ACA7CBDB52231C306A30492088AE541846FA93E5B6AB153C4D8568D9 DUP3 DUP3 PUSH1 0x40 MLOAD PUSH2 0x1AE SWAP3 SWAP2 SWAP1 PUSH2 0x8F9 JUMP JUMPDEST PUSH1 0x40 MLOAD DUP1 SWAP2 SUB SWAP1 LOG1 POP POP JUMP JUMPDEST PUSH2 0x1C2 PUSH2 0x278 JUMP JUMPDEST PUSH2 0x1CB PUSH0 PUSH2 0x2FF JUMP JUMPDEST JUMP JUMPDEST PUSH0 DUP1 PUSH0 SWAP1 SLOAD SWAP1 PUSH2 0x100 EXP SWAP1 DIV PUSH20 0xFFFFFFFFFFFFFFFFFFFFFFFFFFFFFFFFFFFFFFFF AND SWAP1 POP SWAP1 JUMP JUMPDEST PUSH2 0x1FC PUSH2 0x278 JUMP JUMPDEST PUSH0 PUSH20 0xFFFFFFFFFFFFFFFFFFFFFFFFFFFFFFFFFFFFFFFF AND DUP2 PUSH20 0xFFFFFFFFFFFFFFFFFFFFFFFFFFFFFFFFFFFFFFFF AND SUB PUSH2 0x26C JUMPI PUSH0 PUSH1 0x40 MLOAD PUSH32 0x1E4FBDF700000000000000000000000000000000000000000000000000000000 DUP2 MSTORE PUSH1 0x4 ADD PUSH2 0x263 SWAP2 SWAP1 PUSH2 0x54A JUMP JUMPDEST PUSH1 0x40 MLOAD DUP1 SWAP2 SUB SWAP1 REVERT JUMPDEST PUSH2 0x275 DUP2 PUSH2 0x2FF JUMP JUMPDEST POP JUMP JUMPDEST PUSH2 0x280 PUSH2 0x3C0 JUMP JUMPDEST PUSH20 0xFFFFFFFFFFFFFFFFFFFFFFFFFFFFFFFFFFFFFFFF AND PUSH2 0x29E PUSH2 0x1CD JUMP JUMPDEST PUSH20 0xFFFFFFFFFFFFFFFFFFFFFFFFFFFFFFFFFFFFFFFF AND EQ PUSH2 0x2FD JUMPI PUSH2 0x2C1 PUSH2 0x3C0 JUMP JUMPDEST PUSH1 0x40 MLOAD PUSH32 0x118CDAA700000000000000000000000000000000000000000000000000000000 DUP2 MSTORE PUSH1 0x4 ADD PUSH2 0x2F4 SWAP2 SWAP1 PUSH2 0x54A JUMP JUMPDEST PUSH1 0x40 MLOAD DUP1 SWAP2 SUB SWAP1 REVERT JUMPDEST JUMP JUMPDEST PUSH0 DUP1 PUSH0 SWAP1 SLOAD SWAP1 PUSH2 0x100 EXP SWAP1 DIV PUSH20 0xFFFFFFFFFFFFFFFFFFFFFFFFFFFFFFFFFFFFFFFF AND SWAP1 POP DUP2 PUSH0 DUP1 PUSH2 0x100 EXP DUP2 SLOAD DUP2 PUSH20 0xFFFFFFFFFFFFFFFFFFFFFFFFFFFFFFFFFFFFFFFF MUL NOT AND SWAP1 DUP4 PUSH20 0xFFFFFFFFFFFFFFFFFFFFFFFFFFFFFFFFFFFFFFFF AND MUL OR SWAP1 SSTORE POP DUP2 PUSH20 0xFFFFFFFFFFFFFFFFFFFFFFFFFFFFFFFFFFFFFFFF AND DUP2 PUSH20 0xFFFFFFFFFFFFFFFFFFFFFFFFFFFFFFFFFFFFFFFF AND PUSH32 0x8BE0079C531659141344CD1FD0A4F28419497F9722A3DAAFE3B4186F6B6457E0 PUSH1 0x40 MLOAD PUSH1 0x40 MLOAD DUP1 SWAP2 SUB SWAP1 LOG3 POP POP JUMP JUMPDEST PUSH0 CALLER SWAP1 POP SWAP1 JUMP JUMPDEST PUSH0 DUP2 MLOAD SWAP1 POP SWAP2 SWAP1 POP JUMP JUMPDEST PUSH0 DUP3 DUP3 MSTORE PUSH1 0x20 DUP3 ADD SWAP1 POP SWAP3 SWAP2 POP POP JUMP JUMPDEST DUP3 DUP2 DUP4 MCOPY PUSH0 DUP4 DUP4 ADD MSTORE POP POP POP JUMP JUMPDEST PUSH0 PUSH1 0x1F NOT PUSH1 0x1F DUP4 ADD AND SWAP1 POP SWAP2 SWAP1 POP JUMP JUMPDEST PUSH0 PUSH2 0x409 DUP3 PUSH2 0x3C7 JUMP JUMPDEST PUSH2 0x413 DUP2 DUP6 PUSH2 0x3D1 JUMP JUMPDEST SWAP4 POP PUSH2 0x423 DUP2 DUP6 PUSH1 0x20 DUP7 ADD PUSH2 0x3E1 JUMP JUMPDEST PUSH2 0x42C DUP2 PUSH2 0x3EF JUMP JUMPDEST DUP5 ADD SWAP2 POP POP SWAP3 SWAP2 POP POP JUMP JUMPDEST PUSH0 PUSH1 0x20 DUP3 ADD SWAP1 POP DUP2 DUP2 SUB PUSH0 DUP4 ADD MSTORE PUSH2 0x44F DUP2 DUP5 PUSH2 0x3FF JUMP JUMPDEST SWAP1 POP SWAP3 SWAP2 POP POP JUMP JUMPDEST PUSH0 DUP1 REVERT JUMPDEST PUSH0 DUP1 REVERT JUMPDEST PUSH0 DUP1 REVERT JUMPDEST PUSH0 DUP1 REVERT JUMPDEST PUSH0 DUP1 REVERT JUMPDEST PUSH0 DUP1 DUP4 PUSH1 0x1F DUP5 ADD SLT PUSH2 0x480 JUMPI PUSH2 0x47F PUSH2 0x45F JUMP JUMPDEST JUMPDEST DUP3 CALLDATALOAD SWAP1 POP PUSH8 0xFFFFFFFFFFFFFFFF DUP2 GT ISZERO PUSH2 0x49D JUMPI PUSH2 0x49C PUSH2 0x463 JUMP JUMPDEST JUMPDEST PUSH1 0x20 DUP4 ADD SWAP2 POP DUP4 PUSH1 0x1 DUP3 MUL DUP4 ADD GT ISZERO PUSH2 0x4B9 JUMPI PUSH2 0x4B8 PUSH2 0x467 JUMP JUMPDEST JUMPDEST SWAP3 POP SWAP3 SWAP1 POP JUMP JUMPDEST PUSH0 DUP1 PUSH1 0x20 DUP4 DUP6 SUB SLT ISZERO PUSH2 0x4D6 JUMPI PUSH2 0x4D5 PUSH2 0x457 JUMP JUMPDEST JUMPDEST PUSH0 DUP4 ADD CALLDATALOAD PUSH8 0xFFFFFFFFFFFFFFFF DUP2 GT ISZERO PUSH2 0x4F3 JUMPI PUSH2 0x4F2 PUSH2 0x45B JUMP JUMPDEST JUMPDEST PUSH2 0x4FF DUP6 DUP3 DUP7 ADD PUSH2 0x46B JUMP JUMPDEST SWAP3 POP SWAP3 POP POP SWAP3 POP SWAP3 SWAP1 POP JUMP JUMPDEST PUSH0 PUSH20 0xFFFFFFFFFFFFFFFFFFFFFFFFFFFFFFFFFFFFFFFF DUP3 AND SWAP1 POP SWAP2 SWAP1 POP JUMP JUMPDEST PUSH0 PUSH2 0x534 DUP3 PUSH2 0x50B JUMP JUMPDEST SWAP1 POP SWAP2 SWAP1 POP JUMP JUMPDEST PUSH2 0x544 DUP2 PUSH2 0x52A JUMP JUMPDEST DUP3 MSTORE POP POP JUMP JUMPDEST PUSH0 PUSH1 0x20 DUP3 ADD SWAP1 POP PUSH2 0x55D PUSH0 DUP4 ADD DUP5 PUSH2 0x53B JUMP JUMPDEST SWAP3 SWAP2 POP POP JUMP JUMPDEST PUSH2 0x56C DUP2 PUSH2 0x52A JUMP JUMPDEST DUP2 EQ PUSH2 0x576 JUMPI PUSH0 DUP1 REVERT JUMPDEST POP JUMP JUMPDEST PUSH0 DUP2 CALLDATALOAD SWAP1 POP PUSH2 0x587 DUP2 PUSH2 0x563 JUMP JUMPDEST SWAP3 SWAP2 POP POP JUMP JUMPDEST PUSH0 PUSH1 0x20 DUP3 DUP5 SUB SLT ISZERO PUSH2 0x5A2 JUMPI PUSH2 0x5A1 PUSH2 0x457 JUMP JUMPDEST JUMPDEST PUSH0 PUSH2 0x5AF DUP5 DUP3 DUP6 ADD PUSH2 0x579 JUMP JUMPDEST SWAP2 POP POP SWAP3 SWAP2 POP POP JUMP JUMPDEST PUSH32 0x4E487B7100000000000000000000000000000000000000000000000000000000 PUSH0 MSTORE PUSH1 0x22 PUSH1 0x4 MSTORE PUSH1 0x24 PUSH0 REVERT JUMPDEST PUSH0 PUSH1 0x2 DUP3 DIV SWAP1 POP PUSH1 0x1 DUP3 AND DUP1 PUSH2 0x5FC JUMPI PUSH1 0x7F DUP3 AND SWAP2 POP JUMPDEST PUSH1 0x20 DUP3 LT DUP2 SUB PUSH2 0x60F JUMPI PUSH2 0x60E PUSH2 0x5B8 JUMP JUMPDEST JUMPDEST POP SWAP2 SWAP1 POP JUMP JUMPDEST PUSH0 DUP3 SWAP1 POP SWAP3 SWAP2 POP POP JUMP JUMPDEST PUSH32 0x4E487B7100000000000000000000000000000000000000000000000000000000 PUSH0 MSTORE PUSH1 0x41 PUSH1 0x4 MSTORE PUSH1 0x24 PUSH0 REVERT JUMPDEST PUSH0 DUP2 SWAP1 POP DUP2 PUSH0 MSTORE PUSH1 0x20 PUSH0 KECCAK256 SWAP1 POP SWAP2 SWAP1 POP JUMP JUMPDEST PUSH0 PUSH1 0x20 PUSH1 0x1F DUP4 ADD DIV SWAP1 POP SWAP2 SWAP1 POP JUMP JUMPDEST PUSH0 DUP3 DUP3 SHL SWAP1 POP SWAP3 SWAP2 POP POP JUMP JUMPDEST PUSH0 PUSH1 0x8 DUP4 MUL PUSH2 0x6A8 PUSH32 0xFFFFFFFFFFFFFFFFFFFFFFFFFFFFFFFFFFFFFFFFFFFFFFFFFFFFFFFFFFFFFFFF DUP3 PUSH2 0x66D JUMP JUMPDEST PUSH2 0x6B2 DUP7 DUP4 PUSH2 0x66D JUMP JUMPDEST SWAP6 POP DUP1 NOT DUP5 AND SWAP4 POP DUP1 DUP7 AND DUP5 OR SWAP3 POP POP POP SWAP4 SWAP3 POP POP POP JUMP JUMPDEST PUSH0 DUP2 SWAP1 POP SWAP2 SWAP1 POP JUMP JUMPDEST PUSH0 DUP2 SWAP1 POP SWAP2 SWAP1 POP JUMP JUMPDEST PUSH0 PUSH2 0x6F6 PUSH2 0x6F1 PUSH2 0x6EC DUP5 PUSH2 0x6CA JUMP JUMPDEST PUSH2 0x6D3 JUMP JUMPDEST PUSH2 0x6CA JUMP JUMPDEST SWAP1 POP SWAP2 SWAP1 POP JUMP JUMPDEST PUSH0 DUP2 SWAP1 POP SWAP2 SWAP1 POP JUMP JUMPDEST PUSH2 0x70F DUP4 PUSH2 0x6DC JUMP JUMPDEST PUSH2 0x723 PUSH2 0x71B DUP3 PUSH2 0x6FD JUMP JUMPDEST DUP5 DUP5 SLOAD PUSH2 0x679 JUMP JUMPDEST DUP3 SSTORE POP POP POP POP JUMP JUMPDEST PUSH0 SWAP1 JUMP JUMPDEST PUSH2 0x737 PUSH2 0x72B JUMP JUMPDEST PUSH2 0x742 DUP2 DUP5 DUP5 PUSH2 0x706 JUMP JUMPDEST POP POP POP JUMP JUMPDEST JUMPDEST DUP2 DUP2 LT ISZERO PUSH2 0x765 JUMPI PUSH2 0x75A PUSH0 DUP3 PUSH2 0x72F JUMP JUMPDEST PUSH1 0x1 DUP2 ADD SWAP1 POP PUSH2 0x748 JUMP JUMPDEST POP POP JUMP JUMPDEST PUSH1 0x1F DUP3 GT ISZERO PUSH2 0x7AA JUMPI PUSH2 0x77B DUP2 PUSH2 0x64C JUMP JUMPDEST PUSH2 0x784 DUP5 PUSH2 0x65E JUMP JUMPDEST DUP2 ADD PUSH1 0x20 DUP6 LT ISZERO PUSH2 0x793 JUMPI DUP2 SWAP1 POP JUMPDEST PUSH2 0x7A7 PUSH2 0x79F DUP6 PUSH2 0x65E JUMP JUMPDEST DUP4 ADD DUP3 PUSH2 0x747 JUMP JUMPDEST POP POP JUMPDEST POP POP POP JUMP JUMPDEST PUSH0 DUP3 DUP3 SHR SWAP1 POP SWAP3 SWAP2 POP POP JUMP JUMPDEST PUSH0 PUSH2 0x7CA PUSH0 NOT DUP5 PUSH1 0x8 MUL PUSH2 0x7AF JUMP JUMPDEST NOT DUP1 DUP4 AND SWAP2 POP POP SWAP3 SWAP2 POP POP JUMP JUMPDEST PUSH0 PUSH2 0x7E2 DUP4 DUP4 PUSH2 0x7BB JUMP JUMPDEST SWAP2 POP DUP3 PUSH1 0x2 MUL DUP3 OR SWAP1 POP SWAP3 SWAP2 POP POP JUMP JUMPDEST PUSH2 0x7FC DUP4 DUP4 PUSH2 0x615 JUMP JUMPDEST PUSH8 0xFFFFFFFFFFFFFFFF DUP2 GT ISZERO PUSH2 0x815 JUMPI PUSH2 0x814 PUSH2 0x61F JUMP JUMPDEST JUMPDEST PUSH2 0x81F DUP3 SLOAD PUSH2 0x5E5 JUMP JUMPDEST PUSH2 0x82A DUP3 DUP3 DUP6 PUSH2 0x769 JUMP JUMPDEST PUSH0 PUSH1 0x1F DUP4 GT PUSH1 0x1 DUP2 EQ PUSH2 0x857 JUMPI PUSH0 DUP5 ISZERO PUSH2 0x845 JUMPI DUP3 DUP8 ADD CALLDATALOAD SWAP1 POP JUMPDEST PUSH2 0x84F DUP6 DUP3 PUSH2 0x7D7 JUMP JUMPDEST DUP7 SSTORE POP PUSH2 0x8B6 JUMP JUMPDEST PUSH1 0x1F NOT DUP5 AND PUSH2 0x865 DUP7 PUSH2 0x64C JUMP JUMPDEST PUSH0 JUMPDEST DUP3 DUP2 LT ISZERO PUSH2 0x88C JUMPI DUP5 DUP10 ADD CALLDATALOAD DUP3 SSTORE PUSH1 0x1 DUP3 ADD SWAP2 POP PUSH1 0x20 DUP6 ADD SWAP5 POP PUSH1 0x20 DUP2 ADD SWAP1 POP PUSH2 0x867 JUMP JUMPDEST DUP7 DUP4 LT ISZERO PUSH2 0x8A9 JUMPI DUP5 DUP10 ADD CALLDATALOAD PUSH2 0x8A5 PUSH1 0x1F DUP10 AND DUP3 PUSH2 0x7BB JUMP JUMPDEST DUP4 SSTORE POP JUMPDEST PUSH1 0x1 PUSH1 0x2 DUP9 MUL ADD DUP9 SSTORE POP POP POP JUMPDEST POP POP POP POP POP POP POP JUMP JUMPDEST DUP3 DUP2 DUP4 CALLDATACOPY PUSH0 DUP4 DUP4 ADD MSTORE POP POP POP JUMP JUMPDEST PUSH0 PUSH2 0x8D8 DUP4 DUP6 PUSH2 0x3D1 JUMP JUMPDEST SWAP4 POP PUSH2 0x8E5 DUP4 DUP6 DUP5 PUSH2 0x8BF JUMP JUMPDEST PUSH2 0x8EE DUP4 PUSH2 0x3EF JUMP JUMPDEST DUP5 ADD SWAP1 POP SWAP4 SWAP3 POP POP POP JUMP JUMPDEST PUSH0 PUSH1 0x20 DUP3 ADD SWAP1 POP DUP2 DUP2 SUB PUSH0 DUP4 ADD MSTORE PUSH2 0x912 DUP2 DUP5 DUP7 PUSH2 0x8CD JUMP JUMPDEST SWAP1 POP SWAP4 SWAP3 POP POP POP JUMP INVALID LOG2 PUSH5 0x6970667358 0x22 SLT KECCAK256 0xC9 SWAP16 SWAP15 0xCD SWAP8 SSTORE SWAP11 PUSH15 0x5FFB8A1454BD06AC16F06BBB34BD3F EQ SHR 0xF9 0xF6 0xE8 CREATE2 0x22 PUSH1 0xA7 PUSH5 0x736F6C6343 STOP ADDMOD BYTE STOP CALLER "
				},
				"gasEstimates": {
					"creation": {
						"codeDepositCost": "477000",
						"executionCost": "infinite",
						"totalCost": "infinite"
					},
					"external": {
						"latestAggregateSignature()": "infinite",
						"owner()": "2559",
						"renounceOwnership()": "infinite",
						"submitAggregateSignature(bytes)": "infinite",
						"transferOwnership(address)": "infinite"
					}
				},
				"methodIdentifiers": {
					"latestAggregateSignature()": "283cf971",
					"owner()": "8da5cb5b",
					"renounceOwnership()": "715018a6",
					"submitAggregateSignature(bytes)": "473391a3",
					"transferOwnership(address)": "f2fde38b"
				}
			},
			"storageLayout": {
				"storage": [
					{
						"astId": 8,
						"contract": "contracts/AVSManager.sol:AVSManager",
						"label": "_owner",
						"offset": 0,
						"slot": "0",
						"type": "t_address"
					},
					{
						"astId": 196,
						"contract": "contracts/AVSManager.sol:AVSManager",
						"label": "latestAggregateSignature",
						"offset": 0,
						"slot": "1",
						"type": "t_bytes_storage"
					}
				],
				"types": {
					"t_address": {
						"encoding": "inplace",
						"label": "address",
						"numberOfBytes": "20"
					},
					"t_bytes_storage": {
						"encoding": "bytes",
						"label": "bytes",
						"numberOfBytes": "32"
					}
				}
			},
			"userdoc": {
				"kind": "user",
				"methods": {},
				"version": 1
			}
		}
	}
}