{
	"contracts/ProposalManager.sol": {
		"ProposalManager": {
			"abi": [
				{
					"inputs": [],
					"stateMutability": "nonpayable",
					"type": "constructor"
				},
				{
					"inputs": [
						{
							"internalType": "address",
							"name": "owner",
							"type": "address"
						}
					],
					"name": "OwnableInvalidOwner",
					"type": "error"
				},
				{
					"inputs": [
						{
							"internalType": "address",
							"name": "account",
							"type": "address"
						}
					],
					"name": "OwnableUnauthorizedAccount",
					"type": "error"
				},
				{
					"anonymous": false,
					"inputs": [
						{
							"indexed": true,
							"internalType": "address",
							"name": "previousOwner",
							"type": "address"
						},
						{
							"indexed": true,
							"internalType": "address",
							"name": "newOwner",
							"type": "address"
						}
					],
					"name": "OwnershipTransferred",
					"type": "event"
				},
				{
					"anonymous": false,
					"inputs": [
						{
							"indexed": false,
							"internalType": "uint256",
							"name": "id",
							"type": "uint256"
						},
						{
							"indexed": false,
							"internalType": "string",
							"name": "title",
							"type": "string"
						},
						{
							"indexed": false,
							"internalType": "uint256",
							"name": "fundsRequested",
							"type": "uint256"
						}
					],
					"name": "ProposalCreated",
					"type": "event"
				},
				{
					"anonymous": false,
					"inputs": [
						{
							"indexed": false,
							"internalType": "uint256",
							"name": "id",
							"type": "uint256"
						},
						{
							"indexed": false,
							"internalType": "string",
							"name": "status",
							"type": "string"
						}
					],
					"name": "ProposalUpdated",
					"type": "event"
				},
				{
					"inputs": [
						{
							"internalType": "string",
							"name": "title",
							"type": "string"
						},
						{
							"internalType": "uint256",
							"name": "fundsRequested",
							"type": "uint256"
						}
					],
					"name": "createProposal",
					"outputs": [],
					"stateMutability": "nonpayable",
					"type": "function"
				},
				{
					"inputs": [],
					"name": "owner",
					"outputs": [
						{
							"internalType": "address",
							"name": "",
							"type": "address"
						}
					],
					"stateMutability": "view",
					"type": "function"
				},
				{
					"inputs": [
						{
							"internalType": "uint256",
							"name": "",
							"type": "uint256"
						}
					],
					"name": "proposals",
					"outputs": [
						{
							"internalType": "uint256",
							"name": "id",
							"type": "uint256"
						},
						{
							"internalType": "string",
							"name": "title",
							"type": "string"
						},
						{
							"internalType": "uint256",
							"name": "fundsRequested",
							"type": "uint256"
						},
						{
							"internalType": "string",
							"name": "status",
							"type": "string"
						},
						{
							"internalType": "uint256",
							"name": "votesFor",
							"type": "uint256"
						},
						{
							"internalType": "uint256",
							"name": "votesAgainst",
							"type": "uint256"
						},
						{
							"internalType": "uint256",
							"name": "allocatedAmount",
							"type": "uint256"
						}
					],
					"stateMutability": "view",
					"type": "function"
				},
				{
					"inputs": [],
					"name": "renounceOwnership",
					"outputs": [],
					"stateMutability": "nonpayable",
					"type": "function"
				},
				{
					"inputs": [
						{
							"internalType": "address",
							"name": "newOwner",
							"type": "address"
						}
					],
					"name": "transferOwnership",
					"outputs": [],
					"stateMutability": "nonpayable",
					"type": "function"
				},
				{
					"inputs": [
						{
							"internalType": "uint256",
							"name": "proposalId",
							"type": "uint256"
						},
						{
							"internalType": "string",
							"name": "status",
							"type": "string"
						}
					],
					"name": "updateProposalStatus",
					"outputs": [],
					"stateMutability": "nonpayable",
					"type": "function"
				},
				{
					"inputs": [
						{
							"internalType": "uint256",
							"name": "",
							"type": "uint256"
						},
						{
							"internalType": "address",
							"name": "",
							"type": "address"
						}
					],
					"name": "votes",
					"outputs": [
						{
							"internalType": "bool",
							"name": "",
							"type": "bool"
						}
					],
					"stateMutability": "view",
					"type": "function"
				}
			],
			"devdoc": {
				"errors": {
					"OwnableInvalidOwner(address)": [
						{
							"details": "The owner is not a valid owner account. (eg. `address(0)`)"
						}
					],
					"OwnableUnauthorizedAccount(address)": [
						{
							"details": "The caller account is not authorized to perform an operation."
						}
					]
				},
				"kind": "dev",
				"methods": {
					"owner()": {
						"details": "Returns the address of the current owner."
					},
					"renounceOwnership()": {
						"details": "Leaves the contract without owner. It will not be possible to call `onlyOwner` functions. Can only be called by the current owner. NOTE: Renouncing ownership will leave the contract without an owner, thereby disabling any functionality that is only available to the owner."
					},
					"transferOwnership(address)": {
						"details": "Transfers ownership of the contract to a new account (`newOwner`). Can only be called by the current owner."
					}
				},
				"version": 1
			},
			"evm": {
				"assembly": "    /* \"contracts/ProposalManager.sol\":119:1430  contract ProposalManager is Ownable {... */\n  mstore(0x40, 0x80)\n    /* \"contracts/ProposalManager.sol\":161:197  constructor() Ownable(msg.sender) {} */\n  callvalue\n  dup1\n  iszero\n  tag_1\n  jumpi\n  0x00\n  dup1\n  revert\ntag_1:\n  pop\n    /* \"contracts/ProposalManager.sol\":183:193  msg.sender */\n  caller\n    /* \"@openzeppelin/contracts/access/Ownable.sol\":1297:1298  0 */\n  0x00\n    /* \"@openzeppelin/contracts/access/Ownable.sol\":1273:1299  initialOwner == address(0) */\n  0xffffffffffffffffffffffffffffffffffffffff\n  and\n    /* \"@openzeppelin/contracts/access/Ownable.sol\":1273:1285  initialOwner */\n  dup2\n    /* \"@openzeppelin/contracts/access/Ownable.sol\":1273:1299  initialOwner == address(0) */\n  0xffffffffffffffffffffffffffffffffffffffff\n  and\n  sub\n    /* \"@openzeppelin/contracts/access/Ownable.sol\":1269:1364  if (initialOwner == address(0)) {... */\n  tag_5\n  jumpi\n    /* \"@openzeppelin/contracts/access/Ownable.sol\":1350:1351  0 */\n  0x00\n    /* \"@openzeppelin/contracts/access/Ownable.sol\":1322:1353  OwnableInvalidOwner(address(0)) */\n  mload(0x40)\n  0x1e4fbdf700000000000000000000000000000000000000000000000000000000\n  dup2\n  mstore\n  0x04\n  add\n  tag_6\n  swap2\n  swap1\n  tag_7\n  jump\t// in\ntag_6:\n  mload(0x40)\n  dup1\n  swap2\n  sub\n  swap1\n  revert\n    /* \"@openzeppelin/contracts/access/Ownable.sol\":1269:1364  if (initialOwner == address(0)) {... */\ntag_5:\n    /* \"@openzeppelin/contracts/access/Ownable.sol\":1373:1405  _transferOwnership(initialOwner) */\n  tag_8\n    /* \"@openzeppelin/contracts/access/Ownable.sol\":1392:1404  initialOwner */\n  dup2\n    /* \"@openzeppelin/contracts/access/Ownable.sol\":1373:1391  _transferOwnership */\n  shl(0x20, tag_9)\n    /* \"@openzeppelin/contracts/access/Ownable.sol\":1373:1405  _transferOwnership(initialOwner) */\n  0x20\n  shr\n  jump\t// in\ntag_8:\n    /* \"@openzeppelin/contracts/access/Ownable.sol\":1225:1412  constructor(address initialOwner) {... */\n  pop\n    /* \"contracts/ProposalManager.sol\":119:1430  contract ProposalManager is Ownable {... */\n  jump(tag_11)\n    /* \"@openzeppelin/contracts/access/Ownable.sol\":2912:3099  function _transferOwnership(address newOwner) internal virtual {... */\ntag_9:\n    /* \"@openzeppelin/contracts/access/Ownable.sol\":2985:3001  address oldOwner */\n  0x00\n    /* \"@openzeppelin/contracts/access/Ownable.sol\":3004:3010  _owner */\n  dup1\n  0x00\n  swap1\n  sload\n  swap1\n  0x0100\n  exp\n  swap1\n  div\n  0xffffffffffffffffffffffffffffffffffffffff\n  and\n    /* \"@openzeppelin/contracts/access/Ownable.sol\":2985:3010  address oldOwner = _owner */\n  swap1\n  pop\n    /* \"@openzeppelin/contracts/access/Ownable.sol\":3029:3037  newOwner */\n  dup2\n    /* \"@openzeppelin/contracts/access/Ownable.sol\":3020:3026  _owner */\n  0x00\n  dup1\n    /* \"@openzeppelin/contracts/access/Ownable.sol\":3020:3037  _owner = newOwner */\n  0x0100\n  exp\n  dup2\n  sload\n  dup2\n  0xffffffffffffffffffffffffffffffffffffffff\n  mul\n  not\n  and\n  swap1\n  dup4\n  0xffffffffffffffffffffffffffffffffffffffff\n  and\n  mul\n  or\n  swap1\n  sstore\n  pop\n    /* \"@openzeppelin/contracts/access/Ownable.sol\":3083:3091  newOwner */\n  dup2\n    /* \"@openzeppelin/contracts/access/Ownable.sol\":3052:3092  OwnershipTransferred(oldOwner, newOwner) */\n  0xffffffffffffffffffffffffffffffffffffffff\n  and\n    /* \"@openzeppelin/contracts/access/Ownable.sol\":3073:3081  oldOwner */\n  dup2\n    /* \"@openzeppelin/contracts/access/Ownable.sol\":3052:3092  OwnershipTransferred(oldOwner, newOwner) */\n  0xffffffffffffffffffffffffffffffffffffffff\n  and\n  0x8be0079c531659141344cd1fd0a4f28419497f9722a3daafe3b4186f6b6457e0\n  mload(0x40)\n  mload(0x40)\n  dup1\n  swap2\n  sub\n  swap1\n  log3\n    /* \"@openzeppelin/contracts/access/Ownable.sol\":2975:3099  {... */\n  pop\n    /* \"@openzeppelin/contracts/access/Ownable.sol\":2912:3099  function _transferOwnership(address newOwner) internal virtual {... */\n  pop\n  jump\t// out\n    /* \"#utility.yul\":7:133   */\ntag_13:\n    /* \"#utility.yul\":44:51   */\n  0x00\n    /* \"#utility.yul\":84:126   */\n  0xffffffffffffffffffffffffffffffffffffffff\n    /* \"#utility.yul\":77:82   */\n  dup3\n    /* \"#utility.yul\":73:127   */\n  and\n    /* \"#utility.yul\":62:127   */\n  swap1\n  pop\n    /* \"#utility.yul\":7:133   */\n  swap2\n  swap1\n  pop\n  jump\t// out\n    /* \"#utility.yul\":139:235   */\ntag_14:\n    /* \"#utility.yul\":176:183   */\n  0x00\n    /* \"#utility.yul\":205:229   */\n  tag_19\n    /* \"#utility.yul\":223:228   */\n  dup3\n    /* \"#utility.yul\":205:229   */\n  tag_13\n  jump\t// in\ntag_19:\n    /* \"#utility.yul\":194:229   */\n  swap1\n  pop\n    /* \"#utility.yul\":139:235   */\n  swap2\n  swap1\n  pop\n  jump\t// out\n    /* \"#utility.yul\":241:359   */\ntag_15:\n    /* \"#utility.yul\":328:352   */\n  tag_21\n    /* \"#utility.yul\":346:351   */\n  dup2\n    /* \"#utility.yul\":328:352   */\n  tag_14\n  jump\t// in\ntag_21:\n    /* \"#utility.yul\":323:326   */\n  dup3\n    /* \"#utility.yul\":316:353   */\n  mstore\n    /* \"#utility.yul\":241:359   */\n  pop\n  pop\n  jump\t// out\n    /* \"#utility.yul\":365:587   */\ntag_7:\n    /* \"#utility.yul\":458:462   */\n  0x00\n    /* \"#utility.yul\":496:498   */\n  0x20\n    /* \"#utility.yul\":485:494   */\n  dup3\n    /* \"#utility.yul\":481:499   */\n  add\n    /* \"#utility.yul\":473:499   */\n  swap1\n  pop\n    /* \"#utility.yul\":509:580   */\n  tag_23\n    /* \"#utility.yul\":577:578   */\n  0x00\n    /* \"#utility.yul\":566:575   */\n  dup4\n    /* \"#utility.yul\":562:579   */\n  add\n    /* \"#utility.yul\":553:559   */\n  dup5\n    /* \"#utility.yul\":509:580   */\n  tag_15\n  jump\t// in\ntag_23:\n    /* \"#utility.yul\":365:587   */\n  swap3\n  swap2\n  pop\n  pop\n  jump\t// out\n    /* \"contracts/ProposalManager.sol\":119:1430  contract ProposalManager is Ownable {... */\ntag_11:\n  dataSize(sub_0)\n  dup1\n  dataOffset(sub_0)\n  0x00\n  codecopy\n  0x00\n  return\nstop\n\nsub_0: assembly {\n        /* \"contracts/ProposalManager.sol\":119:1430  contract ProposalManager is Ownable {... */\n      mstore(0x40, 0x80)\n      callvalue\n      dup1\n      iszero\n      tag_1\n      jumpi\n      0x00\n      dup1\n      revert\n    tag_1:\n      pop\n      jumpi(tag_2, lt(calldatasize, 0x04))\n      shr(0xe0, calldataload(0x00))\n      dup1\n      0x8da5cb5b\n      gt\n      tag_10\n      jumpi\n      dup1\n      0x8da5cb5b\n      eq\n      tag_6\n      jumpi\n      dup1\n      0xd23254b4\n      eq\n      tag_7\n      jumpi\n      dup1\n      0xd7c561fd\n      eq\n      tag_8\n      jumpi\n      dup1\n      0xf2fde38b\n      eq\n      tag_9\n      jumpi\n      jump(tag_2)\n    tag_10:\n      dup1\n      0x013cf08b\n      eq\n      tag_3\n      jumpi\n      dup1\n      0x35facf78\n      eq\n      tag_4\n      jumpi\n      dup1\n      0x715018a6\n      eq\n      tag_5\n      jumpi\n    tag_2:\n      0x00\n      dup1\n      revert\n        /* \"contracts/ProposalManager.sol\":454:481  Proposal[] public proposals */\n    tag_3:\n      tag_11\n      0x04\n      dup1\n      calldatasize\n      sub\n      dup2\n      add\n      swap1\n      tag_12\n      swap2\n      swap1\n      tag_13\n      jump\t// in\n    tag_12:\n      tag_14\n      jump\t// in\n    tag_11:\n      mload(0x40)\n      tag_15\n      swap8\n      swap7\n      swap6\n      swap5\n      swap4\n      swap3\n      swap2\n      swap1\n      tag_16\n      jump\t// in\n    tag_15:\n      mload(0x40)\n      dup1\n      swap2\n      sub\n      swap1\n      return\n        /* \"contracts/ProposalManager.sol\":739:1176  function createProposal(string memory title, uint256 fundsRequested) external onlyOwner {... */\n    tag_4:\n      tag_17\n      0x04\n      dup1\n      calldatasize\n      sub\n      dup2\n      add\n      swap1\n      tag_18\n      swap2\n      swap1\n      tag_19\n      jump\t// in\n    tag_18:\n      tag_20\n      jump\t// in\n    tag_17:\n      stop\n        /* \"@openzeppelin/contracts/access/Ownable.sol\":2293:2394  function renounceOwnership() public virtual onlyOwner {... */\n    tag_5:\n      tag_21\n      tag_22\n      jump\t// in\n    tag_21:\n      stop\n        /* \"@openzeppelin/contracts/access/Ownable.sol\":1638:1723  function owner() public view virtual returns (address) {... */\n    tag_6:\n      tag_23\n      tag_24\n      jump\t// in\n    tag_23:\n      mload(0x40)\n      tag_25\n      swap2\n      swap1\n      tag_26\n      jump\t// in\n    tag_25:\n      mload(0x40)\n      dup1\n      swap2\n      sub\n      swap1\n      return\n        /* \"contracts/ProposalManager.sol\":487:544  mapping(uint256 => mapping(address => bool)) public votes */\n    tag_7:\n      tag_27\n      0x04\n      dup1\n      calldatasize\n      sub\n      dup2\n      add\n      swap1\n      tag_28\n      swap2\n      swap1\n      tag_29\n      jump\t// in\n    tag_28:\n      tag_30\n      jump\t// in\n    tag_27:\n      mload(0x40)\n      tag_31\n      swap2\n      swap1\n      tag_32\n      jump\t// in\n    tag_31:\n      mload(0x40)\n      dup1\n      swap2\n      sub\n      swap1\n      return\n        /* \"contracts/ProposalManager.sol\":1233:1428  function updateProposalStatus(uint256 proposalId, string memory status) external onlyOwner {... */\n    tag_8:\n      tag_33\n      0x04\n      dup1\n      calldatasize\n      sub\n      dup2\n      add\n      swap1\n      tag_34\n      swap2\n      swap1\n      tag_35\n      jump\t// in\n    tag_34:\n      tag_36\n      jump\t// in\n    tag_33:\n      stop\n        /* \"@openzeppelin/contracts/access/Ownable.sol\":2543:2758  function transferOwnership(address newOwner) public virtual onlyOwner {... */\n    tag_9:\n      tag_37\n      0x04\n      dup1\n      calldatasize\n      sub\n      dup2\n      add\n      swap1\n      tag_38\n      swap2\n      swap1\n      tag_39\n      jump\t// in\n    tag_38:\n      tag_40\n      jump\t// in\n    tag_37:\n      stop\n        /* \"contracts/ProposalManager.sol\":454:481  Proposal[] public proposals */\n    tag_14:\n      0x01\n      dup2\n      dup2\n      sload\n      dup2\n      lt\n      tag_41\n      jumpi\n      0x00\n      dup1\n      revert\n    tag_41:\n      swap1\n      0x00\n      mstore\n      keccak256(0x00, 0x20)\n      swap1\n      0x07\n      mul\n      add\n      0x00\n      swap2\n      pop\n      swap1\n      pop\n      dup1\n      0x00\n      add\n      sload\n      swap1\n      dup1\n      0x01\n      add\n      dup1\n      sload\n      tag_43\n      swap1\n      tag_44\n      jump\t// in\n    tag_43:\n      dup1\n      0x1f\n      add\n      0x20\n      dup1\n      swap2\n      div\n      mul\n      0x20\n      add\n      mload(0x40)\n      swap1\n      dup2\n      add\n      0x40\n      mstore\n      dup1\n      swap3\n      swap2\n      swap1\n      dup2\n      dup2\n      mstore\n      0x20\n      add\n      dup3\n      dup1\n      sload\n      tag_45\n      swap1\n      tag_44\n      jump\t// in\n    tag_45:\n      dup1\n      iszero\n      tag_46\n      jumpi\n      dup1\n      0x1f\n      lt\n      tag_47\n      jumpi\n      0x0100\n      dup1\n      dup4\n      sload\n      div\n      mul\n      dup4\n      mstore\n      swap2\n      0x20\n      add\n      swap2\n      jump(tag_46)\n    tag_47:\n      dup3\n      add\n      swap2\n      swap1\n      0x00\n      mstore\n      keccak256(0x00, 0x20)\n      swap1\n    tag_48:\n      dup2\n      sload\n      dup2\n      mstore\n      swap1\n      0x01\n      add\n      swap1\n      0x20\n      add\n      dup1\n      dup4\n      gt\n      tag_48\n      jumpi\n      dup3\n      swap1\n      sub\n      0x1f\n      and\n      dup3\n      add\n      swap2\n    tag_46:\n      pop\n      pop\n      pop\n      pop\n      pop\n      swap1\n      dup1\n      0x02\n      add\n      sload\n      swap1\n      dup1\n      0x03\n      add\n      dup1\n      sload\n      tag_49\n      swap1\n      tag_44\n      jump\t// in\n    tag_49:\n      dup1\n      0x1f\n      add\n      0x20\n      dup1\n      swap2\n      div\n      mul\n      0x20\n      add\n      mload(0x40)\n      swap1\n      dup2\n      add\n      0x40\n      mstore\n      dup1\n      swap3\n      swap2\n      swap1\n      dup2\n      dup2\n      mstore\n      0x20\n      add\n      dup3\n      dup1\n      sload\n      tag_50\n      swap1\n      tag_44\n      jump\t// in\n    tag_50:\n      dup1\n      iszero\n      tag_51\n      jumpi\n      dup1\n      0x1f\n      lt\n      tag_52\n      jumpi\n      0x0100\n      dup1\n      dup4\n      sload\n      div\n      mul\n      dup4\n      mstore\n      swap2\n      0x20\n      add\n      swap2\n      jump(tag_51)\n    tag_52:\n      dup3\n      add\n      swap2\n      swap1\n      0x00\n      mstore\n      keccak256(0x00, 0x20)\n      swap1\n    tag_53:\n      dup2\n      sload\n      dup2\n      mstore\n      swap1\n      0x01\n      add\n      swap1\n      0x20\n      add\n      dup1\n      dup4\n      gt\n      tag_53\n      jumpi\n      dup3\n      swap1\n      sub\n      0x1f\n      and\n      dup3\n      add\n      swap2\n    tag_51:\n      pop\n      pop\n      pop\n      pop\n      pop\n      swap1\n      dup1\n      0x04\n      add\n      sload\n      swap1\n      dup1\n      0x05\n      add\n      sload\n      swap1\n      dup1\n      0x06\n      add\n      sload\n      swap1\n      pop\n      dup8\n      jump\t// out\n        /* \"contracts/ProposalManager.sol\":739:1176  function createProposal(string memory title, uint256 fundsRequested) external onlyOwner {... */\n    tag_20:\n        /* \"@openzeppelin/contracts/access/Ownable.sol\":1531:1544  _checkOwner() */\n      tag_55\n        /* \"@openzeppelin/contracts/access/Ownable.sol\":1531:1542  _checkOwner */\n      tag_56\n        /* \"@openzeppelin/contracts/access/Ownable.sol\":1531:1544  _checkOwner() */\n      jump\t// in\n    tag_55:\n        /* \"contracts/ProposalManager.sol\":837:846  proposals */\n      0x01\n        /* \"contracts/ProposalManager.sol\":852:1093  Proposal({... */\n      mload(0x40)\n      dup1\n      0xe0\n      add\n      0x40\n      mstore\n      dup1\n        /* \"contracts/ProposalManager.sol\":879:888  proposals */\n      0x01\n        /* \"contracts/ProposalManager.sol\":879:895  proposals.length */\n      dup1\n      sload\n      swap1\n      pop\n        /* \"contracts/ProposalManager.sol\":852:1093  Proposal({... */\n      dup2\n      mstore\n      0x20\n      add\n        /* \"contracts/ProposalManager.sol\":916:921  title */\n      dup5\n        /* \"contracts/ProposalManager.sol\":852:1093  Proposal({... */\n      dup2\n      mstore\n      0x20\n      add\n        /* \"contracts/ProposalManager.sol\":951:965  fundsRequested */\n      dup4\n        /* \"contracts/ProposalManager.sol\":852:1093  Proposal({... */\n      dup2\n      mstore\n      0x20\n      add\n      mload(0x40)\n      dup1\n      0x40\n      add\n      0x40\n      mstore\n      dup1\n      0x07\n      dup2\n      mstore\n      0x20\n      add\n      0x50656e64696e6700000000000000000000000000000000000000000000000000\n      dup2\n      mstore\n      pop\n      dup2\n      mstore\n      0x20\n      add\n        /* \"contracts/ProposalManager.sol\":1020:1021  0 */\n      0x00\n        /* \"contracts/ProposalManager.sol\":852:1093  Proposal({... */\n      dup2\n      mstore\n      0x20\n      add\n        /* \"contracts/ProposalManager.sol\":1049:1050  0 */\n      0x00\n        /* \"contracts/ProposalManager.sol\":852:1093  Proposal({... */\n      dup2\n      mstore\n      0x20\n      add\n        /* \"contracts/ProposalManager.sol\":1081:1082  0 */\n      0x00\n        /* \"contracts/ProposalManager.sol\":852:1093  Proposal({... */\n      dup2\n      mstore\n      pop\n        /* \"contracts/ProposalManager.sol\":837:1094  proposals.push(Proposal({... */\n      swap1\n      dup1\n      0x01\n      dup2\n      sload\n      add\n      dup1\n      dup3\n      sstore\n      dup1\n      swap2\n      pop\n      pop\n      0x01\n      swap1\n      sub\n      swap1\n      0x00\n      mstore\n      keccak256(0x00, 0x20)\n      swap1\n      0x07\n      mul\n      add\n      0x00\n      swap1\n      swap2\n      swap1\n      swap2\n      swap1\n      swap2\n      pop\n      0x00\n      dup3\n      add\n      mload\n      dup2\n      0x00\n      add\n      sstore\n      0x20\n      dup3\n      add\n      mload\n      dup2\n      0x01\n      add\n      swap1\n      dup2\n      tag_59\n      swap2\n      swap1\n      tag_60\n      jump\t// in\n    tag_59:\n      pop\n      0x40\n      dup3\n      add\n      mload\n      dup2\n      0x02\n      add\n      sstore\n      0x60\n      dup3\n      add\n      mload\n      dup2\n      0x03\n      add\n      swap1\n      dup2\n      tag_61\n      swap2\n      swap1\n      tag_60\n      jump\t// in\n    tag_61:\n      pop\n      0x80\n      dup3\n      add\n      mload\n      dup2\n      0x04\n      add\n      sstore\n      0xa0\n      dup3\n      add\n      mload\n      dup2\n      0x05\n      add\n      sstore\n      0xc0\n      dup3\n      add\n      mload\n      dup2\n      0x06\n      add\n      sstore\n      pop\n      pop\n        /* \"contracts/ProposalManager.sol\":1109:1169  ProposalCreated(proposals.length - 1, title, fundsRequested) */\n      0xf5dc0da9afa6d080780a49fd8c680f03d2ddf3c067cd6d0c85360c096644d2d3\n        /* \"contracts/ProposalManager.sol\":1144:1145  1 */\n      0x01\n        /* \"contracts/ProposalManager.sol\":1125:1134  proposals */\n      dup1\n        /* \"contracts/ProposalManager.sol\":1125:1141  proposals.length */\n      dup1\n      sload\n      swap1\n      pop\n        /* \"contracts/ProposalManager.sol\":1125:1145  proposals.length - 1 */\n      tag_62\n      swap2\n      swap1\n      tag_63\n      jump\t// in\n    tag_62:\n        /* \"contracts/ProposalManager.sol\":1147:1152  title */\n      dup4\n        /* \"contracts/ProposalManager.sol\":1154:1168  fundsRequested */\n      dup4\n        /* \"contracts/ProposalManager.sol\":1109:1169  ProposalCreated(proposals.length - 1, title, fundsRequested) */\n      mload(0x40)\n      tag_64\n      swap4\n      swap3\n      swap2\n      swap1\n      tag_65\n      jump\t// in\n    tag_64:\n      mload(0x40)\n      dup1\n      swap2\n      sub\n      swap1\n      log1\n        /* \"contracts/ProposalManager.sol\":739:1176  function createProposal(string memory title, uint256 fundsRequested) external onlyOwner {... */\n      pop\n      pop\n      jump\t// out\n        /* \"@openzeppelin/contracts/access/Ownable.sol\":2293:2394  function renounceOwnership() public virtual onlyOwner {... */\n    tag_22:\n        /* \"@openzeppelin/contracts/access/Ownable.sol\":1531:1544  _checkOwner() */\n      tag_67\n        /* \"@openzeppelin/contracts/access/Ownable.sol\":1531:1542  _checkOwner */\n      tag_56\n        /* \"@openzeppelin/contracts/access/Ownable.sol\":1531:1544  _checkOwner() */\n      jump\t// in\n    tag_67:\n        /* \"@openzeppelin/contracts/access/Ownable.sol\":2357:2387  _transferOwnership(address(0)) */\n      tag_69\n        /* \"@openzeppelin/contracts/access/Ownable.sol\":2384:2385  0 */\n      0x00\n        /* \"@openzeppelin/contracts/access/Ownable.sol\":2357:2375  _transferOwnership */\n      tag_70\n        /* \"@openzeppelin/contracts/access/Ownable.sol\":2357:2387  _transferOwnership(address(0)) */\n      jump\t// in\n    tag_69:\n        /* \"@openzeppelin/contracts/access/Ownable.sol\":2293:2394  function renounceOwnership() public virtual onlyOwner {... */\n      jump\t// out\n        /* \"@openzeppelin/contracts/access/Ownable.sol\":1638:1723  function owner() public view virtual returns (address) {... */\n    tag_24:\n        /* \"@openzeppelin/contracts/access/Ownable.sol\":1684:1691  address */\n      0x00\n        /* \"@openzeppelin/contracts/access/Ownable.sol\":1710:1716  _owner */\n      dup1\n      0x00\n      swap1\n      sload\n      swap1\n      0x0100\n      exp\n      swap1\n      div\n      0xffffffffffffffffffffffffffffffffffffffff\n      and\n        /* \"@openzeppelin/contracts/access/Ownable.sol\":1703:1716  return _owner */\n      swap1\n      pop\n        /* \"@openzeppelin/contracts/access/Ownable.sol\":1638:1723  function owner() public view virtual returns (address) {... */\n      swap1\n      jump\t// out\n        /* \"contracts/ProposalManager.sol\":487:544  mapping(uint256 => mapping(address => bool)) public votes */\n    tag_30:\n      mstore(0x20, 0x02)\n      dup2\n      0x00\n      mstore\n      mstore(0x20, keccak256(0x00, 0x40))\n      dup1\n      0x00\n      mstore\n      keccak256(0x00, 0x40)\n      0x00\n      swap2\n      pop\n      swap2\n      pop\n      swap1\n      sload\n      swap1\n      0x0100\n      exp\n      swap1\n      div\n      0xff\n      and\n      dup2\n      jump\t// out\n        /* \"contracts/ProposalManager.sol\":1233:1428  function updateProposalStatus(uint256 proposalId, string memory status) external onlyOwner {... */\n    tag_36:\n        /* \"@openzeppelin/contracts/access/Ownable.sol\":1531:1544  _checkOwner() */\n      tag_73\n        /* \"@openzeppelin/contracts/access/Ownable.sol\":1531:1542  _checkOwner */\n      tag_56\n        /* \"@openzeppelin/contracts/access/Ownable.sol\":1531:1544  _checkOwner() */\n      jump\t// in\n    tag_73:\n        /* \"contracts/ProposalManager.sol\":1365:1371  status */\n      dup1\n        /* \"contracts/ProposalManager.sol\":1334:1343  proposals */\n      0x01\n        /* \"contracts/ProposalManager.sol\":1344:1354  proposalId */\n      dup4\n        /* \"contracts/ProposalManager.sol\":1334:1355  proposals[proposalId] */\n      dup2\n      sload\n      dup2\n      lt\n      tag_75\n      jumpi\n      tag_76\n      tag_77\n      jump\t// in\n    tag_76:\n    tag_75:\n      swap1\n      0x00\n      mstore\n      keccak256(0x00, 0x20)\n      swap1\n      0x07\n      mul\n      add\n        /* \"contracts/ProposalManager.sol\":1334:1362  proposals[proposalId].status */\n      0x03\n      add\n        /* \"contracts/ProposalManager.sol\":1334:1371  proposals[proposalId].status = status */\n      swap1\n      dup2\n      tag_79\n      swap2\n      swap1\n      tag_60\n      jump\t// in\n    tag_79:\n      pop\n        /* \"contracts/ProposalManager.sol\":1386:1421  ProposalUpdated(proposalId, status) */\n      0x15fba378ec5233262589a0683add7b6d321b4818dd4b14c313e98b1632752907\n        /* \"contracts/ProposalManager.sol\":1402:1412  proposalId */\n      dup3\n        /* \"contracts/ProposalManager.sol\":1414:1420  status */\n      dup3\n        /* \"contracts/ProposalManager.sol\":1386:1421  ProposalUpdated(proposalId, status) */\n      mload(0x40)\n      tag_80\n      swap3\n      swap2\n      swap1\n      tag_81\n      jump\t// in\n    tag_80:\n      mload(0x40)\n      dup1\n      swap2\n      sub\n      swap1\n      log1\n        /* \"contracts/ProposalManager.sol\":1233:1428  function updateProposalStatus(uint256 proposalId, string memory status) external onlyOwner {... */\n      pop\n      pop\n      jump\t// out\n        /* \"@openzeppelin/contracts/access/Ownable.sol\":2543:2758  function transferOwnership(address newOwner) public virtual onlyOwner {... */\n    tag_40:\n        /* \"@openzeppelin/contracts/access/Ownable.sol\":1531:1544  _checkOwner() */\n      tag_83\n        /* \"@openzeppelin/contracts/access/Ownable.sol\":1531:1542  _checkOwner */\n      tag_56\n        /* \"@openzeppelin/contracts/access/Ownable.sol\":1531:1544  _checkOwner() */\n      jump\t// in\n    tag_83:\n        /* \"@openzeppelin/contracts/access/Ownable.sol\":2647:2648  0 */\n      0x00\n        /* \"@openzeppelin/contracts/access/Ownable.sol\":2627:2649  newOwner == address(0) */\n      0xffffffffffffffffffffffffffffffffffffffff\n      and\n        /* \"@openzeppelin/contracts/access/Ownable.sol\":2627:2635  newOwner */\n      dup2\n        /* \"@openzeppelin/contracts/access/Ownable.sol\":2627:2649  newOwner == address(0) */\n      0xffffffffffffffffffffffffffffffffffffffff\n      and\n      sub\n        /* \"@openzeppelin/contracts/access/Ownable.sol\":2623:2714  if (newOwner == address(0)) {... */\n      tag_85\n      jumpi\n        /* \"@openzeppelin/contracts/access/Ownable.sol\":2700:2701  0 */\n      0x00\n        /* \"@openzeppelin/contracts/access/Ownable.sol\":2672:2703  OwnableInvalidOwner(address(0)) */\n      mload(0x40)\n      0x1e4fbdf700000000000000000000000000000000000000000000000000000000\n      dup2\n      mstore\n      0x04\n      add\n      tag_86\n      swap2\n      swap1\n      tag_26\n      jump\t// in\n    tag_86:\n      mload(0x40)\n      dup1\n      swap2\n      sub\n      swap1\n      revert\n        /* \"@openzeppelin/contracts/access/Ownable.sol\":2623:2714  if (newOwner == address(0)) {... */\n    tag_85:\n        /* \"@openzeppelin/contracts/access/Ownable.sol\":2723:2751  _transferOwnership(newOwner) */\n      tag_87\n        /* \"@openzeppelin/contracts/access/Ownable.sol\":2742:2750  newOwner */\n      dup2\n        /* \"@openzeppelin/contracts/access/Ownable.sol\":2723:2741  _transferOwnership */\n      tag_70\n        /* \"@openzeppelin/contracts/access/Ownable.sol\":2723:2751  _transferOwnership(newOwner) */\n      jump\t// in\n    tag_87:\n        /* \"@openzeppelin/contracts/access/Ownable.sol\":2543:2758  function transferOwnership(address newOwner) public virtual onlyOwner {... */\n      pop\n      jump\t// out\n        /* \"@openzeppelin/contracts/access/Ownable.sol\":1796:1958  function _checkOwner() internal view virtual {... */\n    tag_56:\n        /* \"@openzeppelin/contracts/access/Ownable.sol\":1866:1878  _msgSender() */\n      tag_89\n        /* \"@openzeppelin/contracts/access/Ownable.sol\":1866:1876  _msgSender */\n      tag_90\n        /* \"@openzeppelin/contracts/access/Ownable.sol\":1866:1878  _msgSender() */\n      jump\t// in\n    tag_89:\n        /* \"@openzeppelin/contracts/access/Ownable.sol\":1855:1878  owner() != _msgSender() */\n      0xffffffffffffffffffffffffffffffffffffffff\n      and\n        /* \"@openzeppelin/contracts/access/Ownable.sol\":1855:1862  owner() */\n      tag_91\n        /* \"@openzeppelin/contracts/access/Ownable.sol\":1855:1860  owner */\n      tag_24\n        /* \"@openzeppelin/contracts/access/Ownable.sol\":1855:1862  owner() */\n      jump\t// in\n    tag_91:\n        /* \"@openzeppelin/contracts/access/Ownable.sol\":1855:1878  owner() != _msgSender() */\n      0xffffffffffffffffffffffffffffffffffffffff\n      and\n      eq\n        /* \"@openzeppelin/contracts/access/Ownable.sol\":1851:1952  if (owner() != _msgSender()) {... */\n      tag_92\n      jumpi\n        /* \"@openzeppelin/contracts/access/Ownable.sol\":1928:1940  _msgSender() */\n      tag_93\n        /* \"@openzeppelin/contracts/access/Ownable.sol\":1928:1938  _msgSender */\n      tag_90\n        /* \"@openzeppelin/contracts/access/Ownable.sol\":1928:1940  _msgSender() */\n      jump\t// in\n    tag_93:\n        /* \"@openzeppelin/contracts/access/Ownable.sol\":1901:1941  OwnableUnauthorizedAccount(_msgSender()) */\n      mload(0x40)\n      0x118cdaa700000000000000000000000000000000000000000000000000000000\n      dup2\n      mstore\n      0x04\n      add\n      tag_94\n      swap2\n      swap1\n      tag_26\n      jump\t// in\n    tag_94:\n      mload(0x40)\n      dup1\n      swap2\n      sub\n      swap1\n      revert\n        /* \"@openzeppelin/contracts/access/Ownable.sol\":1851:1952  if (owner() != _msgSender()) {... */\n    tag_92:\n        /* \"@openzeppelin/contracts/access/Ownable.sol\":1796:1958  function _checkOwner() internal view virtual {... */\n      jump\t// out\n        /* \"@openzeppelin/contracts/access/Ownable.sol\":2912:3099  function _transferOwnership(address newOwner) internal virtual {... */\n    tag_70:\n        /* \"@openzeppelin/contracts/access/Ownable.sol\":2985:3001  address oldOwner */\n      0x00\n        /* \"@openzeppelin/contracts/access/Ownable.sol\":3004:3010  _owner */\n      dup1\n      0x00\n      swap1\n      sload\n      swap1\n      0x0100\n      exp\n      swap1\n      div\n      0xffffffffffffffffffffffffffffffffffffffff\n      and\n        /* \"@openzeppelin/contracts/access/Ownable.sol\":2985:3010  address oldOwner = _owner */\n      swap1\n      pop\n        /* \"@openzeppelin/contracts/access/Ownable.sol\":3029:3037  newOwner */\n      dup2\n        /* \"@openzeppelin/contracts/access/Ownable.sol\":3020:3026  _owner */\n      0x00\n      dup1\n        /* \"@openzeppelin/contracts/access/Ownable.sol\":3020:3037  _owner = newOwner */\n      0x0100\n      exp\n      dup2\n      sload\n      dup2\n      0xffffffffffffffffffffffffffffffffffffffff\n      mul\n      not\n      and\n      swap1\n      dup4\n      0xffffffffffffffffffffffffffffffffffffffff\n      and\n      mul\n      or\n      swap1\n      sstore\n      pop\n        /* \"@openzeppelin/contracts/access/Ownable.sol\":3083:3091  newOwner */\n      dup2\n        /* \"@openzeppelin/contracts/access/Ownable.sol\":3052:3092  OwnershipTransferred(oldOwner, newOwner) */\n      0xffffffffffffffffffffffffffffffffffffffff\n      and\n        /* \"@openzeppelin/contracts/access/Ownable.sol\":3073:3081  oldOwner */\n      dup2\n        /* \"@openzeppelin/contracts/access/Ownable.sol\":3052:3092  OwnershipTransferred(oldOwner, newOwner) */\n      0xffffffffffffffffffffffffffffffffffffffff\n      and\n      0x8be0079c531659141344cd1fd0a4f28419497f9722a3daafe3b4186f6b6457e0\n      mload(0x40)\n      mload(0x40)\n      dup1\n      swap2\n      sub\n      swap1\n      log3\n        /* \"@openzeppelin/contracts/access/Ownable.sol\":2975:3099  {... */\n      pop\n        /* \"@openzeppelin/contracts/access/Ownable.sol\":2912:3099  function _transferOwnership(address newOwner) internal virtual {... */\n      pop\n      jump\t// out\n        /* \"@openzeppelin/contracts/utils/Context.sol\":656:752  function _msgSender() internal view virtual returns (address) {... */\n    tag_90:\n        /* \"@openzeppelin/contracts/utils/Context.sol\":709:716  address */\n      0x00\n        /* \"@openzeppelin/contracts/utils/Context.sol\":735:745  msg.sender */\n      caller\n        /* \"@openzeppelin/contracts/utils/Context.sol\":728:745  return msg.sender */\n      swap1\n      pop\n        /* \"@openzeppelin/contracts/utils/Context.sol\":656:752  function _msgSender() internal view virtual returns (address) {... */\n      swap1\n      jump\t// out\n        /* \"#utility.yul\":7:82   */\n    tag_97:\n        /* \"#utility.yul\":40:46   */\n      0x00\n        /* \"#utility.yul\":73:75   */\n      0x40\n        /* \"#utility.yul\":67:76   */\n      mload\n        /* \"#utility.yul\":57:76   */\n      swap1\n      pop\n        /* \"#utility.yul\":7:82   */\n      swap1\n      jump\t// out\n        /* \"#utility.yul\":88:205   */\n    tag_98:\n        /* \"#utility.yul\":197:198   */\n      0x00\n        /* \"#utility.yul\":194:195   */\n      dup1\n        /* \"#utility.yul\":187:199   */\n      revert\n        /* \"#utility.yul\":211:328   */\n    tag_99:\n        /* \"#utility.yul\":320:321   */\n      0x00\n        /* \"#utility.yul\":317:318   */\n      dup1\n        /* \"#utility.yul\":310:322   */\n      revert\n        /* \"#utility.yul\":334:411   */\n    tag_100:\n        /* \"#utility.yul\":371:378   */\n      0x00\n        /* \"#utility.yul\":400:405   */\n      dup2\n        /* \"#utility.yul\":389:405   */\n      swap1\n      pop\n        /* \"#utility.yul\":334:411   */\n      swap2\n      swap1\n      pop\n      jump\t// out\n        /* \"#utility.yul\":417:539   */\n    tag_101:\n        /* \"#utility.yul\":490:514   */\n      tag_148\n        /* \"#utility.yul\":508:513   */\n      dup2\n        /* \"#utility.yul\":490:514   */\n      tag_100\n      jump\t// in\n    tag_148:\n        /* \"#utility.yul\":483:488   */\n      dup2\n        /* \"#utility.yul\":480:515   */\n      eq\n        /* \"#utility.yul\":470:533   */\n      tag_149\n      jumpi\n        /* \"#utility.yul\":529:530   */\n      0x00\n        /* \"#utility.yul\":526:527   */\n      dup1\n        /* \"#utility.yul\":519:531   */\n      revert\n        /* \"#utility.yul\":470:533   */\n    tag_149:\n        /* \"#utility.yul\":417:539   */\n      pop\n      jump\t// out\n        /* \"#utility.yul\":545:684   */\n    tag_102:\n        /* \"#utility.yul\":591:596   */\n      0x00\n        /* \"#utility.yul\":629:635   */\n      dup2\n        /* \"#utility.yul\":616:636   */\n      calldataload\n        /* \"#utility.yul\":607:636   */\n      swap1\n      pop\n        /* \"#utility.yul\":645:678   */\n      tag_151\n        /* \"#utility.yul\":672:677   */\n      dup2\n        /* \"#utility.yul\":645:678   */\n      tag_101\n      jump\t// in\n    tag_151:\n        /* \"#utility.yul\":545:684   */\n      swap3\n      swap2\n      pop\n      pop\n      jump\t// out\n        /* \"#utility.yul\":690:1019   */\n    tag_13:\n        /* \"#utility.yul\":749:755   */\n      0x00\n        /* \"#utility.yul\":798:800   */\n      0x20\n        /* \"#utility.yul\":786:795   */\n      dup3\n        /* \"#utility.yul\":777:784   */\n      dup5\n        /* \"#utility.yul\":773:796   */\n      sub\n        /* \"#utility.yul\":769:801   */\n      slt\n        /* \"#utility.yul\":766:885   */\n      iszero\n      tag_153\n      jumpi\n        /* \"#utility.yul\":804:883   */\n      tag_154\n      tag_98\n      jump\t// in\n    tag_154:\n        /* \"#utility.yul\":766:885   */\n    tag_153:\n        /* \"#utility.yul\":924:925   */\n      0x00\n        /* \"#utility.yul\":949:1002   */\n      tag_155\n        /* \"#utility.yul\":994:1001   */\n      dup5\n        /* \"#utility.yul\":985:991   */\n      dup3\n        /* \"#utility.yul\":974:983   */\n      dup6\n        /* \"#utility.yul\":970:992   */\n      add\n        /* \"#utility.yul\":949:1002   */\n      tag_102\n      jump\t// in\n    tag_155:\n        /* \"#utility.yul\":939:1002   */\n      swap2\n      pop\n        /* \"#utility.yul\":895:1012   */\n      pop\n        /* \"#utility.yul\":690:1019   */\n      swap3\n      swap2\n      pop\n      pop\n      jump\t// out\n        /* \"#utility.yul\":1025:1143   */\n    tag_103:\n        /* \"#utility.yul\":1112:1136   */\n      tag_157\n        /* \"#utility.yul\":1130:1135   */\n      dup2\n        /* \"#utility.yul\":1112:1136   */\n      tag_100\n      jump\t// in\n    tag_157:\n        /* \"#utility.yul\":1107:1110   */\n      dup3\n        /* \"#utility.yul\":1100:1137   */\n      mstore\n        /* \"#utility.yul\":1025:1143   */\n      pop\n      pop\n      jump\t// out\n        /* \"#utility.yul\":1149:1248   */\n    tag_104:\n        /* \"#utility.yul\":1201:1207   */\n      0x00\n        /* \"#utility.yul\":1235:1240   */\n      dup2\n        /* \"#utility.yul\":1229:1241   */\n      mload\n        /* \"#utility.yul\":1219:1241   */\n      swap1\n      pop\n        /* \"#utility.yul\":1149:1248   */\n      swap2\n      swap1\n      pop\n      jump\t// out\n        /* \"#utility.yul\":1254:1423   */\n    tag_105:\n        /* \"#utility.yul\":1338:1349   */\n      0x00\n        /* \"#utility.yul\":1372:1378   */\n      dup3\n        /* \"#utility.yul\":1367:1370   */\n      dup3\n        /* \"#utility.yul\":1360:1379   */\n      mstore\n        /* \"#utility.yul\":1412:1416   */\n      0x20\n        /* \"#utility.yul\":1407:1410   */\n      dup3\n        /* \"#utility.yul\":1403:1417   */\n      add\n        /* \"#utility.yul\":1388:1417   */\n      swap1\n      pop\n        /* \"#utility.yul\":1254:1423   */\n      swap3\n      swap2\n      pop\n      pop\n      jump\t// out\n        /* \"#utility.yul\":1429:1568   */\n    tag_106:\n        /* \"#utility.yul\":1518:1524   */\n      dup3\n        /* \"#utility.yul\":1513:1516   */\n      dup2\n        /* \"#utility.yul\":1508:1511   */\n      dup4\n        /* \"#utility.yul\":1502:1525   */\n      mcopy\n        /* \"#utility.yul\":1559:1560   */\n      0x00\n        /* \"#utility.yul\":1550:1556   */\n      dup4\n        /* \"#utility.yul\":1545:1548   */\n      dup4\n        /* \"#utility.yul\":1541:1557   */\n      add\n        /* \"#utility.yul\":1534:1561   */\n      mstore\n        /* \"#utility.yul\":1429:1568   */\n      pop\n      pop\n      pop\n      jump\t// out\n        /* \"#utility.yul\":1574:1676   */\n    tag_107:\n        /* \"#utility.yul\":1615:1621   */\n      0x00\n        /* \"#utility.yul\":1666:1668   */\n      0x1f\n        /* \"#utility.yul\":1662:1669   */\n      not\n        /* \"#utility.yul\":1657:1659   */\n      0x1f\n        /* \"#utility.yul\":1650:1655   */\n      dup4\n        /* \"#utility.yul\":1646:1660   */\n      add\n        /* \"#utility.yul\":1642:1670   */\n      and\n        /* \"#utility.yul\":1632:1670   */\n      swap1\n      pop\n        /* \"#utility.yul\":1574:1676   */\n      swap2\n      swap1\n      pop\n      jump\t// out\n        /* \"#utility.yul\":1682:2059   */\n    tag_108:\n        /* \"#utility.yul\":1770:1773   */\n      0x00\n        /* \"#utility.yul\":1798:1837   */\n      tag_163\n        /* \"#utility.yul\":1831:1836   */\n      dup3\n        /* \"#utility.yul\":1798:1837   */\n      tag_104\n      jump\t// in\n    tag_163:\n        /* \"#utility.yul\":1853:1924   */\n      tag_164\n        /* \"#utility.yul\":1917:1923   */\n      dup2\n        /* \"#utility.yul\":1912:1915   */\n      dup6\n        /* \"#utility.yul\":1853:1924   */\n      tag_105\n      jump\t// in\n    tag_164:\n        /* \"#utility.yul\":1846:1924   */\n      swap4\n      pop\n        /* \"#utility.yul\":1933:1998   */\n      tag_165\n        /* \"#utility.yul\":1991:1997   */\n      dup2\n        /* \"#utility.yul\":1986:1989   */\n      dup6\n        /* \"#utility.yul\":1979:1983   */\n      0x20\n        /* \"#utility.yul\":1972:1977   */\n      dup7\n        /* \"#utility.yul\":1968:1984   */\n      add\n        /* \"#utility.yul\":1933:1998   */\n      tag_106\n      jump\t// in\n    tag_165:\n        /* \"#utility.yul\":2023:2052   */\n      tag_166\n        /* \"#utility.yul\":2045:2051   */\n      dup2\n        /* \"#utility.yul\":2023:2052   */\n      tag_107\n      jump\t// in\n    tag_166:\n        /* \"#utility.yul\":2018:2021   */\n      dup5\n        /* \"#utility.yul\":2014:2053   */\n      add\n        /* \"#utility.yul\":2007:2053   */\n      swap2\n      pop\n        /* \"#utility.yul\":1774:2059   */\n      pop\n        /* \"#utility.yul\":1682:2059   */\n      swap3\n      swap2\n      pop\n      pop\n      jump\t// out\n        /* \"#utility.yul\":2065:3133   */\n    tag_16:\n        /* \"#utility.yul\":2366:2370   */\n      0x00\n        /* \"#utility.yul\":2404:2407   */\n      0xe0\n        /* \"#utility.yul\":2393:2402   */\n      dup3\n        /* \"#utility.yul\":2389:2408   */\n      add\n        /* \"#utility.yul\":2381:2408   */\n      swap1\n      pop\n        /* \"#utility.yul\":2418:2489   */\n      tag_168\n        /* \"#utility.yul\":2486:2487   */\n      0x00\n        /* \"#utility.yul\":2475:2484   */\n      dup4\n        /* \"#utility.yul\":2471:2488   */\n      add\n        /* \"#utility.yul\":2462:2468   */\n      dup11\n        /* \"#utility.yul\":2418:2489   */\n      tag_103\n      jump\t// in\n    tag_168:\n        /* \"#utility.yul\":2536:2545   */\n      dup2\n        /* \"#utility.yul\":2530:2534   */\n      dup2\n        /* \"#utility.yul\":2526:2546   */\n      sub\n        /* \"#utility.yul\":2521:2523   */\n      0x20\n        /* \"#utility.yul\":2510:2519   */\n      dup4\n        /* \"#utility.yul\":2506:2524   */\n      add\n        /* \"#utility.yul\":2499:2547   */\n      mstore\n        /* \"#utility.yul\":2564:2642   */\n      tag_169\n        /* \"#utility.yul\":2637:2641   */\n      dup2\n        /* \"#utility.yul\":2628:2634   */\n      dup10\n        /* \"#utility.yul\":2564:2642   */\n      tag_108\n      jump\t// in\n    tag_169:\n        /* \"#utility.yul\":2556:2642   */\n      swap1\n      pop\n        /* \"#utility.yul\":2652:2724   */\n      tag_170\n        /* \"#utility.yul\":2720:2722   */\n      0x40\n        /* \"#utility.yul\":2709:2718   */\n      dup4\n        /* \"#utility.yul\":2705:2723   */\n      add\n        /* \"#utility.yul\":2696:2702   */\n      dup9\n        /* \"#utility.yul\":2652:2724   */\n      tag_103\n      jump\t// in\n    tag_170:\n        /* \"#utility.yul\":2771:2780   */\n      dup2\n        /* \"#utility.yul\":2765:2769   */\n      dup2\n        /* \"#utility.yul\":2761:2781   */\n      sub\n        /* \"#utility.yul\":2756:2758   */\n      0x60\n        /* \"#utility.yul\":2745:2754   */\n      dup4\n        /* \"#utility.yul\":2741:2759   */\n      add\n        /* \"#utility.yul\":2734:2782   */\n      mstore\n        /* \"#utility.yul\":2799:2877   */\n      tag_171\n        /* \"#utility.yul\":2872:2876   */\n      dup2\n        /* \"#utility.yul\":2863:2869   */\n      dup8\n        /* \"#utility.yul\":2799:2877   */\n      tag_108\n      jump\t// in\n    tag_171:\n        /* \"#utility.yul\":2791:2877   */\n      swap1\n      pop\n        /* \"#utility.yul\":2887:2960   */\n      tag_172\n        /* \"#utility.yul\":2955:2958   */\n      0x80\n        /* \"#utility.yul\":2944:2953   */\n      dup4\n        /* \"#utility.yul\":2940:2959   */\n      add\n        /* \"#utility.yul\":2931:2937   */\n      dup7\n        /* \"#utility.yul\":2887:2960   */\n      tag_103\n      jump\t// in\n    tag_172:\n        /* \"#utility.yul\":2970:3043   */\n      tag_173\n        /* \"#utility.yul\":3038:3041   */\n      0xa0\n        /* \"#utility.yul\":3027:3036   */\n      dup4\n        /* \"#utility.yul\":3023:3042   */\n      add\n        /* \"#utility.yul\":3014:3020   */\n      dup6\n        /* \"#utility.yul\":2970:3043   */\n      tag_103\n      jump\t// in\n    tag_173:\n        /* \"#utility.yul\":3053:3126   */\n      tag_174\n        /* \"#utility.yul\":3121:3124   */\n      0xc0\n        /* \"#utility.yul\":3110:3119   */\n      dup4\n        /* \"#utility.yul\":3106:3125   */\n      add\n        /* \"#utility.yul\":3097:3103   */\n      dup5\n        /* \"#utility.yul\":3053:3126   */\n      tag_103\n      jump\t// in\n    tag_174:\n        /* \"#utility.yul\":2065:3133   */\n      swap9\n      swap8\n      pop\n      pop\n      pop\n      pop\n      pop\n      pop\n      pop\n      pop\n      jump\t// out\n        /* \"#utility.yul\":3139:3256   */\n    tag_109:\n        /* \"#utility.yul\":3248:3249   */\n      0x00\n        /* \"#utility.yul\":3245:3246   */\n      dup1\n        /* \"#utility.yul\":3238:3250   */\n      revert\n        /* \"#utility.yul\":3262:3379   */\n    tag_110:\n        /* \"#utility.yul\":3371:3372   */\n      0x00\n        /* \"#utility.yul\":3368:3369   */\n      dup1\n        /* \"#utility.yul\":3361:3373   */\n      revert\n        /* \"#utility.yul\":3385:3565   */\n    tag_111:\n        /* \"#utility.yul\":3433:3510   */\n      0x4e487b7100000000000000000000000000000000000000000000000000000000\n        /* \"#utility.yul\":3430:3431   */\n      0x00\n        /* \"#utility.yul\":3423:3511   */\n      mstore\n        /* \"#utility.yul\":3530:3534   */\n      0x41\n        /* \"#utility.yul\":3527:3528   */\n      0x04\n        /* \"#utility.yul\":3520:3535   */\n      mstore\n        /* \"#utility.yul\":3554:3558   */\n      0x24\n        /* \"#utility.yul\":3551:3552   */\n      0x00\n        /* \"#utility.yul\":3544:3559   */\n      revert\n        /* \"#utility.yul\":3571:3852   */\n    tag_112:\n        /* \"#utility.yul\":3654:3681   */\n      tag_179\n        /* \"#utility.yul\":3676:3680   */\n      dup3\n        /* \"#utility.yul\":3654:3681   */\n      tag_107\n      jump\t// in\n    tag_179:\n        /* \"#utility.yul\":3646:3652   */\n      dup2\n        /* \"#utility.yul\":3642:3682   */\n      add\n        /* \"#utility.yul\":3784:3790   */\n      dup2\n        /* \"#utility.yul\":3772:3782   */\n      dup2\n        /* \"#utility.yul\":3769:3791   */\n      lt\n        /* \"#utility.yul\":3748:3766   */\n      0xffffffffffffffff\n        /* \"#utility.yul\":3736:3746   */\n      dup3\n        /* \"#utility.yul\":3733:3767   */\n      gt\n        /* \"#utility.yul\":3730:3792   */\n      or\n        /* \"#utility.yul\":3727:3815   */\n      iszero\n      tag_180\n      jumpi\n        /* \"#utility.yul\":3795:3813   */\n      tag_181\n      tag_111\n      jump\t// in\n    tag_181:\n        /* \"#utility.yul\":3727:3815   */\n    tag_180:\n        /* \"#utility.yul\":3835:3845   */\n      dup1\n        /* \"#utility.yul\":3831:3833   */\n      0x40\n        /* \"#utility.yul\":3824:3846   */\n      mstore\n        /* \"#utility.yul\":3614:3852   */\n      pop\n        /* \"#utility.yul\":3571:3852   */\n      pop\n      pop\n      jump\t// out\n        /* \"#utility.yul\":3858:3987   */\n    tag_113:\n        /* \"#utility.yul\":3892:3898   */\n      0x00\n        /* \"#utility.yul\":3919:3939   */\n      tag_183\n      tag_97\n      jump\t// in\n    tag_183:\n        /* \"#utility.yul\":3909:3939   */\n      swap1\n      pop\n        /* \"#utility.yul\":3948:3981   */\n      tag_184\n        /* \"#utility.yul\":3976:3980   */\n      dup3\n        /* \"#utility.yul\":3968:3974   */\n      dup3\n        /* \"#utility.yul\":3948:3981   */\n      tag_112\n      jump\t// in\n    tag_184:\n        /* \"#utility.yul\":3858:3987   */\n      swap2\n      swap1\n      pop\n      jump\t// out\n        /* \"#utility.yul\":3993:4301   */\n    tag_114:\n        /* \"#utility.yul\":4055:4059   */\n      0x00\n        /* \"#utility.yul\":4145:4163   */\n      0xffffffffffffffff\n        /* \"#utility.yul\":4137:4143   */\n      dup3\n        /* \"#utility.yul\":4134:4164   */\n      gt\n        /* \"#utility.yul\":4131:4187   */\n      iszero\n      tag_186\n      jumpi\n        /* \"#utility.yul\":4167:4185   */\n      tag_187\n      tag_111\n      jump\t// in\n    tag_187:\n        /* \"#utility.yul\":4131:4187   */\n    tag_186:\n        /* \"#utility.yul\":4205:4234   */\n      tag_188\n        /* \"#utility.yul\":4227:4233   */\n      dup3\n        /* \"#utility.yul\":4205:4234   */\n      tag_107\n      jump\t// in\n    tag_188:\n        /* \"#utility.yul\":4197:4234   */\n      swap1\n      pop\n        /* \"#utility.yul\":4289:4293   */\n      0x20\n        /* \"#utility.yul\":4283:4287   */\n      dup2\n        /* \"#utility.yul\":4279:4294   */\n      add\n        /* \"#utility.yul\":4271:4294   */\n      swap1\n      pop\n        /* \"#utility.yul\":3993:4301   */\n      swap2\n      swap1\n      pop\n      jump\t// out\n        /* \"#utility.yul\":4307:4455   */\n    tag_115:\n        /* \"#utility.yul\":4405:4411   */\n      dup3\n        /* \"#utility.yul\":4400:4403   */\n      dup2\n        /* \"#utility.yul\":4395:4398   */\n      dup4\n        /* \"#utility.yul\":4382:4412   */\n      calldatacopy\n        /* \"#utility.yul\":4446:4447   */\n      0x00\n        /* \"#utility.yul\":4437:4443   */\n      dup4\n        /* \"#utility.yul\":4432:4435   */\n      dup4\n        /* \"#utility.yul\":4428:4444   */\n      add\n        /* \"#utility.yul\":4421:4448   */\n      mstore\n        /* \"#utility.yul\":4307:4455   */\n      pop\n      pop\n      pop\n      jump\t// out\n        /* \"#utility.yul\":4461:4886   */\n    tag_116:\n        /* \"#utility.yul\":4539:4544   */\n      0x00\n        /* \"#utility.yul\":4564:4630   */\n      tag_191\n        /* \"#utility.yul\":4580:4629   */\n      tag_192\n        /* \"#utility.yul\":4622:4628   */\n      dup5\n        /* \"#utility.yul\":4580:4629   */\n      tag_114\n      jump\t// in\n    tag_192:\n        /* \"#utility.yul\":4564:4630   */\n      tag_113\n      jump\t// in\n    tag_191:\n        /* \"#utility.yul\":4555:4630   */\n      swap1\n      pop\n        /* \"#utility.yul\":4653:4659   */\n      dup3\n        /* \"#utility.yul\":4646:4651   */\n      dup2\n        /* \"#utility.yul\":4639:4660   */\n      mstore\n        /* \"#utility.yul\":4691:4695   */\n      0x20\n        /* \"#utility.yul\":4684:4689   */\n      dup2\n        /* \"#utility.yul\":4680:4696   */\n      add\n        /* \"#utility.yul\":4729:4732   */\n      dup5\n        /* \"#utility.yul\":4720:4726   */\n      dup5\n        /* \"#utility.yul\":4715:4718   */\n      dup5\n        /* \"#utility.yul\":4711:4727   */\n      add\n        /* \"#utility.yul\":4708:4733   */\n      gt\n        /* \"#utility.yul\":4705:4817   */\n      iszero\n      tag_193\n      jumpi\n        /* \"#utility.yul\":4736:4815   */\n      tag_194\n      tag_110\n      jump\t// in\n    tag_194:\n        /* \"#utility.yul\":4705:4817   */\n    tag_193:\n        /* \"#utility.yul\":4826:4880   */\n      tag_195\n        /* \"#utility.yul\":4873:4879   */\n      dup5\n        /* \"#utility.yul\":4868:4871   */\n      dup3\n        /* \"#utility.yul\":4863:4866   */\n      dup6\n        /* \"#utility.yul\":4826:4880   */\n      tag_115\n      jump\t// in\n    tag_195:\n        /* \"#utility.yul\":4545:4886   */\n      pop\n        /* \"#utility.yul\":4461:4886   */\n      swap4\n      swap3\n      pop\n      pop\n      pop\n      jump\t// out\n        /* \"#utility.yul\":4906:5246   */\n    tag_117:\n        /* \"#utility.yul\":4962:4967   */\n      0x00\n        /* \"#utility.yul\":5011:5014   */\n      dup3\n        /* \"#utility.yul\":5004:5008   */\n      0x1f\n        /* \"#utility.yul\":4996:5002   */\n      dup4\n        /* \"#utility.yul\":4992:5009   */\n      add\n        /* \"#utility.yul\":4988:5015   */\n      slt\n        /* \"#utility.yul\":4978:5100   */\n      tag_197\n      jumpi\n        /* \"#utility.yul\":5019:5098   */\n      tag_198\n      tag_109\n      jump\t// in\n    tag_198:\n        /* \"#utility.yul\":4978:5100   */\n    tag_197:\n        /* \"#utility.yul\":5136:5142   */\n      dup2\n        /* \"#utility.yul\":5123:5143   */\n      calldataload\n        /* \"#utility.yul\":5161:5240   */\n      tag_199\n        /* \"#utility.yul\":5236:5239   */\n      dup5\n        /* \"#utility.yul\":5228:5234   */\n      dup3\n        /* \"#utility.yul\":5221:5225   */\n      0x20\n        /* \"#utility.yul\":5213:5219   */\n      dup7\n        /* \"#utility.yul\":5209:5226   */\n      add\n        /* \"#utility.yul\":5161:5240   */\n      tag_116\n      jump\t// in\n    tag_199:\n        /* \"#utility.yul\":5152:5240   */\n      swap2\n      pop\n        /* \"#utility.yul\":4968:5246   */\n      pop\n        /* \"#utility.yul\":4906:5246   */\n      swap3\n      swap2\n      pop\n      pop\n      jump\t// out\n        /* \"#utility.yul\":5252:5906   */\n    tag_19:\n        /* \"#utility.yul\":5330:5336   */\n      0x00\n        /* \"#utility.yul\":5338:5344   */\n      dup1\n        /* \"#utility.yul\":5387:5389   */\n      0x40\n        /* \"#utility.yul\":5375:5384   */\n      dup4\n        /* \"#utility.yul\":5366:5373   */\n      dup6\n        /* \"#utility.yul\":5362:5385   */\n      sub\n        /* \"#utility.yul\":5358:5390   */\n      slt\n        /* \"#utility.yul\":5355:5474   */\n      iszero\n      tag_201\n      jumpi\n        /* \"#utility.yul\":5393:5472   */\n      tag_202\n      tag_98\n      jump\t// in\n    tag_202:\n        /* \"#utility.yul\":5355:5474   */\n    tag_201:\n        /* \"#utility.yul\":5541:5542   */\n      0x00\n        /* \"#utility.yul\":5530:5539   */\n      dup4\n        /* \"#utility.yul\":5526:5543   */\n      add\n        /* \"#utility.yul\":5513:5544   */\n      calldataload\n        /* \"#utility.yul\":5571:5589   */\n      0xffffffffffffffff\n        /* \"#utility.yul\":5563:5569   */\n      dup2\n        /* \"#utility.yul\":5560:5590   */\n      gt\n        /* \"#utility.yul\":5557:5674   */\n      iszero\n      tag_203\n      jumpi\n        /* \"#utility.yul\":5593:5672   */\n      tag_204\n      tag_99\n      jump\t// in\n    tag_204:\n        /* \"#utility.yul\":5557:5674   */\n    tag_203:\n        /* \"#utility.yul\":5698:5761   */\n      tag_205\n        /* \"#utility.yul\":5753:5760   */\n      dup6\n        /* \"#utility.yul\":5744:5750   */\n      dup3\n        /* \"#utility.yul\":5733:5742   */\n      dup7\n        /* \"#utility.yul\":5729:5751   */\n      add\n        /* \"#utility.yul\":5698:5761   */\n      tag_117\n      jump\t// in\n    tag_205:\n        /* \"#utility.yul\":5688:5761   */\n      swap3\n      pop\n        /* \"#utility.yul\":5484:5771   */\n      pop\n        /* \"#utility.yul\":5810:5812   */\n      0x20\n        /* \"#utility.yul\":5836:5889   */\n      tag_206\n        /* \"#utility.yul\":5881:5888   */\n      dup6\n        /* \"#utility.yul\":5872:5878   */\n      dup3\n        /* \"#utility.yul\":5861:5870   */\n      dup7\n        /* \"#utility.yul\":5857:5879   */\n      add\n        /* \"#utility.yul\":5836:5889   */\n      tag_102\n      jump\t// in\n    tag_206:\n        /* \"#utility.yul\":5826:5889   */\n      swap2\n      pop\n        /* \"#utility.yul\":5781:5899   */\n      pop\n        /* \"#utility.yul\":5252:5906   */\n      swap3\n      pop\n      swap3\n      swap1\n      pop\n      jump\t// out\n        /* \"#utility.yul\":5912:6038   */\n    tag_118:\n        /* \"#utility.yul\":5949:5956   */\n      0x00\n        /* \"#utility.yul\":5989:6031   */\n      0xffffffffffffffffffffffffffffffffffffffff\n        /* \"#utility.yul\":5982:5987   */\n      dup3\n        /* \"#utility.yul\":5978:6032   */\n      and\n        /* \"#utility.yul\":5967:6032   */\n      swap1\n      pop\n        /* \"#utility.yul\":5912:6038   */\n      swap2\n      swap1\n      pop\n      jump\t// out\n        /* \"#utility.yul\":6044:6140   */\n    tag_119:\n        /* \"#utility.yul\":6081:6088   */\n      0x00\n        /* \"#utility.yul\":6110:6134   */\n      tag_209\n        /* \"#utility.yul\":6128:6133   */\n      dup3\n        /* \"#utility.yul\":6110:6134   */\n      tag_118\n      jump\t// in\n    tag_209:\n        /* \"#utility.yul\":6099:6134   */\n      swap1\n      pop\n        /* \"#utility.yul\":6044:6140   */\n      swap2\n      swap1\n      pop\n      jump\t// out\n        /* \"#utility.yul\":6146:6264   */\n    tag_120:\n        /* \"#utility.yul\":6233:6257   */\n      tag_211\n        /* \"#utility.yul\":6251:6256   */\n      dup2\n        /* \"#utility.yul\":6233:6257   */\n      tag_119\n      jump\t// in\n    tag_211:\n        /* \"#utility.yul\":6228:6231   */\n      dup3\n        /* \"#utility.yul\":6221:6258   */\n      mstore\n        /* \"#utility.yul\":6146:6264   */\n      pop\n      pop\n      jump\t// out\n        /* \"#utility.yul\":6270:6492   */\n    tag_26:\n        /* \"#utility.yul\":6363:6367   */\n      0x00\n        /* \"#utility.yul\":6401:6403   */\n      0x20\n        /* \"#utility.yul\":6390:6399   */\n      dup3\n        /* \"#utility.yul\":6386:6404   */\n      add\n        /* \"#utility.yul\":6378:6404   */\n      swap1\n      pop\n        /* \"#utility.yul\":6414:6485   */\n      tag_213\n        /* \"#utility.yul\":6482:6483   */\n      0x00\n        /* \"#utility.yul\":6471:6480   */\n      dup4\n        /* \"#utility.yul\":6467:6484   */\n      add\n        /* \"#utility.yul\":6458:6464   */\n      dup5\n        /* \"#utility.yul\":6414:6485   */\n      tag_120\n      jump\t// in\n    tag_213:\n        /* \"#utility.yul\":6270:6492   */\n      swap3\n      swap2\n      pop\n      pop\n      jump\t// out\n        /* \"#utility.yul\":6498:6620   */\n    tag_121:\n        /* \"#utility.yul\":6571:6595   */\n      tag_215\n        /* \"#utility.yul\":6589:6594   */\n      dup2\n        /* \"#utility.yul\":6571:6595   */\n      tag_119\n      jump\t// in\n    tag_215:\n        /* \"#utility.yul\":6564:6569   */\n      dup2\n        /* \"#utility.yul\":6561:6596   */\n      eq\n        /* \"#utility.yul\":6551:6614   */\n      tag_216\n      jumpi\n        /* \"#utility.yul\":6610:6611   */\n      0x00\n        /* \"#utility.yul\":6607:6608   */\n      dup1\n        /* \"#utility.yul\":6600:6612   */\n      revert\n        /* \"#utility.yul\":6551:6614   */\n    tag_216:\n        /* \"#utility.yul\":6498:6620   */\n      pop\n      jump\t// out\n        /* \"#utility.yul\":6626:6765   */\n    tag_122:\n        /* \"#utility.yul\":6672:6677   */\n      0x00\n        /* \"#utility.yul\":6710:6716   */\n      dup2\n        /* \"#utility.yul\":6697:6717   */\n      calldataload\n        /* \"#utility.yul\":6688:6717   */\n      swap1\n      pop\n        /* \"#utility.yul\":6726:6759   */\n      tag_218\n        /* \"#utility.yul\":6753:6758   */\n      dup2\n        /* \"#utility.yul\":6726:6759   */\n      tag_121\n      jump\t// in\n    tag_218:\n        /* \"#utility.yul\":6626:6765   */\n      swap3\n      swap2\n      pop\n      pop\n      jump\t// out\n        /* \"#utility.yul\":6771:7245   */\n    tag_29:\n        /* \"#utility.yul\":6839:6845   */\n      0x00\n        /* \"#utility.yul\":6847:6853   */\n      dup1\n        /* \"#utility.yul\":6896:6898   */\n      0x40\n        /* \"#utility.yul\":6884:6893   */\n      dup4\n        /* \"#utility.yul\":6875:6882   */\n      dup6\n        /* \"#utility.yul\":6871:6894   */\n      sub\n        /* \"#utility.yul\":6867:6899   */\n      slt\n        /* \"#utility.yul\":6864:6983   */\n      iszero\n      tag_220\n      jumpi\n        /* \"#utility.yul\":6902:6981   */\n      tag_221\n      tag_98\n      jump\t// in\n    tag_221:\n        /* \"#utility.yul\":6864:6983   */\n    tag_220:\n        /* \"#utility.yul\":7022:7023   */\n      0x00\n        /* \"#utility.yul\":7047:7100   */\n      tag_222\n        /* \"#utility.yul\":7092:7099   */\n      dup6\n        /* \"#utility.yul\":7083:7089   */\n      dup3\n        /* \"#utility.yul\":7072:7081   */\n      dup7\n        /* \"#utility.yul\":7068:7090   */\n      add\n        /* \"#utility.yul\":7047:7100   */\n      tag_102\n      jump\t// in\n    tag_222:\n        /* \"#utility.yul\":7037:7100   */\n      swap3\n      pop\n        /* \"#utility.yul\":6993:7110   */\n      pop\n        /* \"#utility.yul\":7149:7151   */\n      0x20\n        /* \"#utility.yul\":7175:7228   */\n      tag_223\n        /* \"#utility.yul\":7220:7227   */\n      dup6\n        /* \"#utility.yul\":7211:7217   */\n      dup3\n        /* \"#utility.yul\":7200:7209   */\n      dup7\n        /* \"#utility.yul\":7196:7218   */\n      add\n        /* \"#utility.yul\":7175:7228   */\n      tag_122\n      jump\t// in\n    tag_223:\n        /* \"#utility.yul\":7165:7228   */\n      swap2\n      pop\n        /* \"#utility.yul\":7120:7238   */\n      pop\n        /* \"#utility.yul\":6771:7245   */\n      swap3\n      pop\n      swap3\n      swap1\n      pop\n      jump\t// out\n        /* \"#utility.yul\":7251:7341   */\n    tag_123:\n        /* \"#utility.yul\":7285:7292   */\n      0x00\n        /* \"#utility.yul\":7328:7333   */\n      dup2\n        /* \"#utility.yul\":7321:7334   */\n      iszero\n        /* \"#utility.yul\":7314:7335   */\n      iszero\n        /* \"#utility.yul\":7303:7335   */\n      swap1\n      pop\n        /* \"#utility.yul\":7251:7341   */\n      swap2\n      swap1\n      pop\n      jump\t// out\n        /* \"#utility.yul\":7347:7456   */\n    tag_124:\n        /* \"#utility.yul\":7428:7449   */\n      tag_226\n        /* \"#utility.yul\":7443:7448   */\n      dup2\n        /* \"#utility.yul\":7428:7449   */\n      tag_123\n      jump\t// in\n    tag_226:\n        /* \"#utility.yul\":7423:7426   */\n      dup3\n        /* \"#utility.yul\":7416:7450   */\n      mstore\n        /* \"#utility.yul\":7347:7456   */\n      pop\n      pop\n      jump\t// out\n        /* \"#utility.yul\":7462:7672   */\n    tag_32:\n        /* \"#utility.yul\":7549:7553   */\n      0x00\n        /* \"#utility.yul\":7587:7589   */\n      0x20\n        /* \"#utility.yul\":7576:7585   */\n      dup3\n        /* \"#utility.yul\":7572:7590   */\n      add\n        /* \"#utility.yul\":7564:7590   */\n      swap1\n      pop\n        /* \"#utility.yul\":7600:7665   */\n      tag_228\n        /* \"#utility.yul\":7662:7663   */\n      0x00\n        /* \"#utility.yul\":7651:7660   */\n      dup4\n        /* \"#utility.yul\":7647:7664   */\n      add\n        /* \"#utility.yul\":7638:7644   */\n      dup5\n        /* \"#utility.yul\":7600:7665   */\n      tag_124\n      jump\t// in\n    tag_228:\n        /* \"#utility.yul\":7462:7672   */\n      swap3\n      swap2\n      pop\n      pop\n      jump\t// out\n        /* \"#utility.yul\":7678:8332   */\n    tag_35:\n        /* \"#utility.yul\":7756:7762   */\n      0x00\n        /* \"#utility.yul\":7764:7770   */\n      dup1\n        /* \"#utility.yul\":7813:7815   */\n      0x40\n        /* \"#utility.yul\":7801:7810   */\n      dup4\n        /* \"#utility.yul\":7792:7799   */\n      dup6\n        /* \"#utility.yul\":7788:7811   */\n      sub\n        /* \"#utility.yul\":7784:7816   */\n      slt\n        /* \"#utility.yul\":7781:7900   */\n      iszero\n      tag_230\n      jumpi\n        /* \"#utility.yul\":7819:7898   */\n      tag_231\n      tag_98\n      jump\t// in\n    tag_231:\n        /* \"#utility.yul\":7781:7900   */\n    tag_230:\n        /* \"#utility.yul\":7939:7940   */\n      0x00\n        /* \"#utility.yul\":7964:8017   */\n      tag_232\n        /* \"#utility.yul\":8009:8016   */\n      dup6\n        /* \"#utility.yul\":8000:8006   */\n      dup3\n        /* \"#utility.yul\":7989:7998   */\n      dup7\n        /* \"#utility.yul\":7985:8007   */\n      add\n        /* \"#utility.yul\":7964:8017   */\n      tag_102\n      jump\t// in\n    tag_232:\n        /* \"#utility.yul\":7954:8017   */\n      swap3\n      pop\n        /* \"#utility.yul\":7910:8027   */\n      pop\n        /* \"#utility.yul\":8094:8096   */\n      0x20\n        /* \"#utility.yul\":8083:8092   */\n      dup4\n        /* \"#utility.yul\":8079:8097   */\n      add\n        /* \"#utility.yul\":8066:8098   */\n      calldataload\n        /* \"#utility.yul\":8125:8143   */\n      0xffffffffffffffff\n        /* \"#utility.yul\":8117:8123   */\n      dup2\n        /* \"#utility.yul\":8114:8144   */\n      gt\n        /* \"#utility.yul\":8111:8228   */\n      iszero\n      tag_233\n      jumpi\n        /* \"#utility.yul\":8147:8226   */\n      tag_234\n      tag_99\n      jump\t// in\n    tag_234:\n        /* \"#utility.yul\":8111:8228   */\n    tag_233:\n        /* \"#utility.yul\":8252:8315   */\n      tag_235\n        /* \"#utility.yul\":8307:8314   */\n      dup6\n        /* \"#utility.yul\":8298:8304   */\n      dup3\n        /* \"#utility.yul\":8287:8296   */\n      dup7\n        /* \"#utility.yul\":8283:8305   */\n      add\n        /* \"#utility.yul\":8252:8315   */\n      tag_117\n      jump\t// in\n    tag_235:\n        /* \"#utility.yul\":8242:8315   */\n      swap2\n      pop\n        /* \"#utility.yul\":8037:8325   */\n      pop\n        /* \"#utility.yul\":7678:8332   */\n      swap3\n      pop\n      swap3\n      swap1\n      pop\n      jump\t// out\n        /* \"#utility.yul\":8338:8667   */\n    tag_39:\n        /* \"#utility.yul\":8397:8403   */\n      0x00\n        /* \"#utility.yul\":8446:8448   */\n      0x20\n        /* \"#utility.yul\":8434:8443   */\n      dup3\n        /* \"#utility.yul\":8425:8432   */\n      dup5\n        /* \"#utility.yul\":8421:8444   */\n      sub\n        /* \"#utility.yul\":8417:8449   */\n      slt\n        /* \"#utility.yul\":8414:8533   */\n      iszero\n      tag_237\n      jumpi\n        /* \"#utility.yul\":8452:8531   */\n      tag_238\n      tag_98\n      jump\t// in\n    tag_238:\n        /* \"#utility.yul\":8414:8533   */\n    tag_237:\n        /* \"#utility.yul\":8572:8573   */\n      0x00\n        /* \"#utility.yul\":8597:8650   */\n      tag_239\n        /* \"#utility.yul\":8642:8649   */\n      dup5\n        /* \"#utility.yul\":8633:8639   */\n      dup3\n        /* \"#utility.yul\":8622:8631   */\n      dup6\n        /* \"#utility.yul\":8618:8640   */\n      add\n        /* \"#utility.yul\":8597:8650   */\n      tag_122\n      jump\t// in\n    tag_239:\n        /* \"#utility.yul\":8587:8650   */\n      swap2\n      pop\n        /* \"#utility.yul\":8543:8660   */\n      pop\n        /* \"#utility.yul\":8338:8667   */\n      swap3\n      swap2\n      pop\n      pop\n      jump\t// out\n        /* \"#utility.yul\":8673:8853   */\n    tag_125:\n        /* \"#utility.yul\":8721:8798   */\n      0x4e487b7100000000000000000000000000000000000000000000000000000000\n        /* \"#utility.yul\":8718:8719   */\n      0x00\n        /* \"#utility.yul\":8711:8799   */\n      mstore\n        /* \"#utility.yul\":8818:8822   */\n      0x22\n        /* \"#utility.yul\":8815:8816   */\n      0x04\n        /* \"#utility.yul\":8808:8823   */\n      mstore\n        /* \"#utility.yul\":8842:8846   */\n      0x24\n        /* \"#utility.yul\":8839:8840   */\n      0x00\n        /* \"#utility.yul\":8832:8847   */\n      revert\n        /* \"#utility.yul\":8859:9179   */\n    tag_44:\n        /* \"#utility.yul\":8903:8909   */\n      0x00\n        /* \"#utility.yul\":8940:8941   */\n      0x02\n        /* \"#utility.yul\":8934:8938   */\n      dup3\n        /* \"#utility.yul\":8930:8942   */\n      div\n        /* \"#utility.yul\":8920:8942   */\n      swap1\n      pop\n        /* \"#utility.yul\":8987:8988   */\n      0x01\n        /* \"#utility.yul\":8981:8985   */\n      dup3\n        /* \"#utility.yul\":8977:8989   */\n      and\n        /* \"#utility.yul\":9008:9026   */\n      dup1\n        /* \"#utility.yul\":8998:9079   */\n      tag_242\n      jumpi\n        /* \"#utility.yul\":9064:9068   */\n      0x7f\n        /* \"#utility.yul\":9056:9062   */\n      dup3\n        /* \"#utility.yul\":9052:9069   */\n      and\n        /* \"#utility.yul\":9042:9069   */\n      swap2\n      pop\n        /* \"#utility.yul\":8998:9079   */\n    tag_242:\n        /* \"#utility.yul\":9126:9128   */\n      0x20\n        /* \"#utility.yul\":9118:9124   */\n      dup3\n        /* \"#utility.yul\":9115:9129   */\n      lt\n        /* \"#utility.yul\":9095:9113   */\n      dup2\n        /* \"#utility.yul\":9092:9130   */\n      sub\n        /* \"#utility.yul\":9089:9173   */\n      tag_243\n      jumpi\n        /* \"#utility.yul\":9145:9163   */\n      tag_244\n      tag_125\n      jump\t// in\n    tag_244:\n        /* \"#utility.yul\":9089:9173   */\n    tag_243:\n        /* \"#utility.yul\":8910:9179   */\n      pop\n        /* \"#utility.yul\":8859:9179   */\n      swap2\n      swap1\n      pop\n      jump\t// out\n        /* \"#utility.yul\":9185:9326   */\n    tag_126:\n        /* \"#utility.yul\":9234:9238   */\n      0x00\n        /* \"#utility.yul\":9257:9260   */\n      dup2\n        /* \"#utility.yul\":9249:9260   */\n      swap1\n      pop\n        /* \"#utility.yul\":9280:9283   */\n      dup2\n        /* \"#utility.yul\":9277:9278   */\n      0x00\n        /* \"#utility.yul\":9270:9284   */\n      mstore\n        /* \"#utility.yul\":9314:9318   */\n      0x20\n        /* \"#utility.yul\":9311:9312   */\n      0x00\n        /* \"#utility.yul\":9301:9319   */\n      keccak256\n        /* \"#utility.yul\":9293:9319   */\n      swap1\n      pop\n        /* \"#utility.yul\":9185:9326   */\n      swap2\n      swap1\n      pop\n      jump\t// out\n        /* \"#utility.yul\":9332:9425   */\n    tag_127:\n        /* \"#utility.yul\":9369:9375   */\n      0x00\n        /* \"#utility.yul\":9416:9418   */\n      0x20\n        /* \"#utility.yul\":9411:9413   */\n      0x1f\n        /* \"#utility.yul\":9404:9409   */\n      dup4\n        /* \"#utility.yul\":9400:9414   */\n      add\n        /* \"#utility.yul\":9396:9419   */\n      div\n        /* \"#utility.yul\":9386:9419   */\n      swap1\n      pop\n        /* \"#utility.yul\":9332:9425   */\n      swap2\n      swap1\n      pop\n      jump\t// out\n        /* \"#utility.yul\":9431:9538   */\n    tag_128:\n        /* \"#utility.yul\":9475:9483   */\n      0x00\n        /* \"#utility.yul\":9525:9530   */\n      dup3\n        /* \"#utility.yul\":9519:9523   */\n      dup3\n        /* \"#utility.yul\":9515:9531   */\n      shl\n        /* \"#utility.yul\":9494:9531   */\n      swap1\n      pop\n        /* \"#utility.yul\":9431:9538   */\n      swap3\n      swap2\n      pop\n      pop\n      jump\t// out\n        /* \"#utility.yul\":9544:9937   */\n    tag_129:\n        /* \"#utility.yul\":9613:9619   */\n      0x00\n        /* \"#utility.yul\":9663:9664   */\n      0x08\n        /* \"#utility.yul\":9651:9661   */\n      dup4\n        /* \"#utility.yul\":9647:9665   */\n      mul\n        /* \"#utility.yul\":9686:9783   */\n      tag_249\n        /* \"#utility.yul\":9716:9782   */\n      0xffffffffffffffffffffffffffffffffffffffffffffffffffffffffffffffff\n        /* \"#utility.yul\":9705:9714   */\n      dup3\n        /* \"#utility.yul\":9686:9783   */\n      tag_128\n      jump\t// in\n    tag_249:\n        /* \"#utility.yul\":9804:9843   */\n      tag_250\n        /* \"#utility.yul\":9834:9842   */\n      dup7\n        /* \"#utility.yul\":9823:9832   */\n      dup4\n        /* \"#utility.yul\":9804:9843   */\n      tag_128\n      jump\t// in\n    tag_250:\n        /* \"#utility.yul\":9792:9843   */\n      swap6\n      pop\n        /* \"#utility.yul\":9876:9880   */\n      dup1\n        /* \"#utility.yul\":9872:9881   */\n      not\n        /* \"#utility.yul\":9865:9870   */\n      dup5\n        /* \"#utility.yul\":9861:9882   */\n      and\n        /* \"#utility.yul\":9852:9882   */\n      swap4\n      pop\n        /* \"#utility.yul\":9925:9929   */\n      dup1\n        /* \"#utility.yul\":9915:9923   */\n      dup7\n        /* \"#utility.yul\":9911:9930   */\n      and\n        /* \"#utility.yul\":9904:9909   */\n      dup5\n        /* \"#utility.yul\":9901:9931   */\n      or\n        /* \"#utility.yul\":9891:9931   */\n      swap3\n      pop\n        /* \"#utility.yul\":9620:9937   */\n      pop\n      pop\n        /* \"#utility.yul\":9544:9937   */\n      swap4\n      swap3\n      pop\n      pop\n      pop\n      jump\t// out\n        /* \"#utility.yul\":9943:10003   */\n    tag_130:\n        /* \"#utility.yul\":9971:9974   */\n      0x00\n        /* \"#utility.yul\":9992:9997   */\n      dup2\n        /* \"#utility.yul\":9985:9997   */\n      swap1\n      pop\n        /* \"#utility.yul\":9943:10003   */\n      swap2\n      swap1\n      pop\n      jump\t// out\n        /* \"#utility.yul\":10009:10151   */\n    tag_131:\n        /* \"#utility.yul\":10059:10068   */\n      0x00\n        /* \"#utility.yul\":10092:10145   */\n      tag_253\n        /* \"#utility.yul\":10110:10144   */\n      tag_254\n        /* \"#utility.yul\":10119:10143   */\n      tag_255\n        /* \"#utility.yul\":10137:10142   */\n      dup5\n        /* \"#utility.yul\":10119:10143   */\n      tag_100\n      jump\t// in\n    tag_255:\n        /* \"#utility.yul\":10110:10144   */\n      tag_130\n      jump\t// in\n    tag_254:\n        /* \"#utility.yul\":10092:10145   */\n      tag_100\n      jump\t// in\n    tag_253:\n        /* \"#utility.yul\":10079:10145   */\n      swap1\n      pop\n        /* \"#utility.yul\":10009:10151   */\n      swap2\n      swap1\n      pop\n      jump\t// out\n        /* \"#utility.yul\":10157:10232   */\n    tag_132:\n        /* \"#utility.yul\":10200:10203   */\n      0x00\n        /* \"#utility.yul\":10221:10226   */\n      dup2\n        /* \"#utility.yul\":10214:10226   */\n      swap1\n      pop\n        /* \"#utility.yul\":10157:10232   */\n      swap2\n      swap1\n      pop\n      jump\t// out\n        /* \"#utility.yul\":10238:10507   */\n    tag_133:\n        /* \"#utility.yul\":10348:10387   */\n      tag_258\n        /* \"#utility.yul\":10379:10386   */\n      dup4\n        /* \"#utility.yul\":10348:10387   */\n      tag_131\n      jump\t// in\n    tag_258:\n        /* \"#utility.yul\":10409:10500   */\n      tag_259\n        /* \"#utility.yul\":10458:10499   */\n      tag_260\n        /* \"#utility.yul\":10482:10498   */\n      dup3\n        /* \"#utility.yul\":10458:10499   */\n      tag_132\n      jump\t// in\n    tag_260:\n        /* \"#utility.yul\":10450:10456   */\n      dup5\n        /* \"#utility.yul\":10443:10447   */\n      dup5\n        /* \"#utility.yul\":10437:10448   */\n      sload\n        /* \"#utility.yul\":10409:10500   */\n      tag_129\n      jump\t// in\n    tag_259:\n        /* \"#utility.yul\":10403:10407   */\n      dup3\n        /* \"#utility.yul\":10396:10501   */\n      sstore\n        /* \"#utility.yul\":10314:10507   */\n      pop\n        /* \"#utility.yul\":10238:10507   */\n      pop\n      pop\n      pop\n      jump\t// out\n        /* \"#utility.yul\":10513:10586   */\n    tag_134:\n        /* \"#utility.yul\":10558:10561   */\n      0x00\n        /* \"#utility.yul\":10513:10586   */\n      swap1\n      jump\t// out\n        /* \"#utility.yul\":10592:10781   */\n    tag_135:\n        /* \"#utility.yul\":10669:10701   */\n      tag_263\n      tag_134\n      jump\t// in\n    tag_263:\n        /* \"#utility.yul\":10710:10775   */\n      tag_264\n        /* \"#utility.yul\":10768:10774   */\n      dup2\n        /* \"#utility.yul\":10760:10766   */\n      dup5\n        /* \"#utility.yul\":10754:10758   */\n      dup5\n        /* \"#utility.yul\":10710:10775   */\n      tag_133\n      jump\t// in\n    tag_264:\n        /* \"#utility.yul\":10645:10781   */\n      pop\n        /* \"#utility.yul\":10592:10781   */\n      pop\n      pop\n      jump\t// out\n        /* \"#utility.yul\":10787:10973   */\n    tag_136:\n        /* \"#utility.yul\":10847:10967   */\n    tag_266:\n        /* \"#utility.yul\":10864:10867   */\n      dup2\n        /* \"#utility.yul\":10857:10862   */\n      dup2\n        /* \"#utility.yul\":10854:10868   */\n      lt\n        /* \"#utility.yul\":10847:10967   */\n      iszero\n      tag_268\n      jumpi\n        /* \"#utility.yul\":10918:10957   */\n      tag_269\n        /* \"#utility.yul\":10955:10956   */\n      0x00\n        /* \"#utility.yul\":10948:10953   */\n      dup3\n        /* \"#utility.yul\":10918:10957   */\n      tag_135\n      jump\t// in\n    tag_269:\n        /* \"#utility.yul\":10891:10892   */\n      0x01\n        /* \"#utility.yul\":10884:10889   */\n      dup2\n        /* \"#utility.yul\":10880:10893   */\n      add\n        /* \"#utility.yul\":10871:10893   */\n      swap1\n      pop\n        /* \"#utility.yul\":10847:10967   */\n      jump(tag_266)\n    tag_268:\n        /* \"#utility.yul\":10787:10973   */\n      pop\n      pop\n      jump\t// out\n        /* \"#utility.yul\":10979:11522   */\n    tag_137:\n        /* \"#utility.yul\":11080:11082   */\n      0x1f\n        /* \"#utility.yul\":11075:11078   */\n      dup3\n        /* \"#utility.yul\":11072:11083   */\n      gt\n        /* \"#utility.yul\":11069:11515   */\n      iszero\n      tag_271\n      jumpi\n        /* \"#utility.yul\":11114:11152   */\n      tag_272\n        /* \"#utility.yul\":11146:11151   */\n      dup2\n        /* \"#utility.yul\":11114:11152   */\n      tag_126\n      jump\t// in\n    tag_272:\n        /* \"#utility.yul\":11198:11227   */\n      tag_273\n        /* \"#utility.yul\":11216:11226   */\n      dup5\n        /* \"#utility.yul\":11198:11227   */\n      tag_127\n      jump\t// in\n    tag_273:\n        /* \"#utility.yul\":11188:11196   */\n      dup2\n        /* \"#utility.yul\":11184:11228   */\n      add\n        /* \"#utility.yul\":11381:11383   */\n      0x20\n        /* \"#utility.yul\":11369:11379   */\n      dup6\n        /* \"#utility.yul\":11366:11384   */\n      lt\n        /* \"#utility.yul\":11363:11412   */\n      iszero\n      tag_274\n      jumpi\n        /* \"#utility.yul\":11402:11410   */\n      dup2\n        /* \"#utility.yul\":11387:11410   */\n      swap1\n      pop\n        /* \"#utility.yul\":11363:11412   */\n    tag_274:\n        /* \"#utility.yul\":11425:11505   */\n      tag_275\n        /* \"#utility.yul\":11481:11503   */\n      tag_276\n        /* \"#utility.yul\":11499:11502   */\n      dup6\n        /* \"#utility.yul\":11481:11503   */\n      tag_127\n      jump\t// in\n    tag_276:\n        /* \"#utility.yul\":11471:11479   */\n      dup4\n        /* \"#utility.yul\":11467:11504   */\n      add\n        /* \"#utility.yul\":11454:11465   */\n      dup3\n        /* \"#utility.yul\":11425:11505   */\n      tag_136\n      jump\t// in\n    tag_275:\n        /* \"#utility.yul\":11084:11515   */\n      pop\n      pop\n        /* \"#utility.yul\":11069:11515   */\n    tag_271:\n        /* \"#utility.yul\":10979:11522   */\n      pop\n      pop\n      pop\n      jump\t// out\n        /* \"#utility.yul\":11528:11645   */\n    tag_138:\n        /* \"#utility.yul\":11582:11590   */\n      0x00\n        /* \"#utility.yul\":11632:11637   */\n      dup3\n        /* \"#utility.yul\":11626:11630   */\n      dup3\n        /* \"#utility.yul\":11622:11638   */\n      shr\n        /* \"#utility.yul\":11601:11638   */\n      swap1\n      pop\n        /* \"#utility.yul\":11528:11645   */\n      swap3\n      swap2\n      pop\n      pop\n      jump\t// out\n        /* \"#utility.yul\":11651:11820   */\n    tag_139:\n        /* \"#utility.yul\":11695:11701   */\n      0x00\n        /* \"#utility.yul\":11728:11779   */\n      tag_279\n        /* \"#utility.yul\":11776:11777   */\n      0x00\n        /* \"#utility.yul\":11772:11778   */\n      not\n        /* \"#utility.yul\":11764:11769   */\n      dup5\n        /* \"#utility.yul\":11761:11762   */\n      0x08\n        /* \"#utility.yul\":11757:11770   */\n      mul\n        /* \"#utility.yul\":11728:11779   */\n      tag_138\n      jump\t// in\n    tag_279:\n        /* \"#utility.yul\":11724:11780   */\n      not\n        /* \"#utility.yul\":11809:11813   */\n      dup1\n        /* \"#utility.yul\":11803:11807   */\n      dup4\n        /* \"#utility.yul\":11799:11814   */\n      and\n        /* \"#utility.yul\":11789:11814   */\n      swap2\n      pop\n        /* \"#utility.yul\":11702:11820   */\n      pop\n        /* \"#utility.yul\":11651:11820   */\n      swap3\n      swap2\n      pop\n      pop\n      jump\t// out\n        /* \"#utility.yul\":11825:12120   */\n    tag_140:\n        /* \"#utility.yul\":11901:11905   */\n      0x00\n        /* \"#utility.yul\":12047:12076   */\n      tag_281\n        /* \"#utility.yul\":12072:12075   */\n      dup4\n        /* \"#utility.yul\":12066:12070   */\n      dup4\n        /* \"#utility.yul\":12047:12076   */\n      tag_139\n      jump\t// in\n    tag_281:\n        /* \"#utility.yul\":12039:12076   */\n      swap2\n      pop\n        /* \"#utility.yul\":12109:12112   */\n      dup3\n        /* \"#utility.yul\":12106:12107   */\n      0x02\n        /* \"#utility.yul\":12102:12113   */\n      mul\n        /* \"#utility.yul\":12096:12100   */\n      dup3\n        /* \"#utility.yul\":12093:12114   */\n      or\n        /* \"#utility.yul\":12085:12114   */\n      swap1\n      pop\n        /* \"#utility.yul\":11825:12120   */\n      swap3\n      swap2\n      pop\n      pop\n      jump\t// out\n        /* \"#utility.yul\":12125:13520   */\n    tag_60:\n        /* \"#utility.yul\":12242:12279   */\n      tag_283\n        /* \"#utility.yul\":12275:12278   */\n      dup3\n        /* \"#utility.yul\":12242:12279   */\n      tag_104\n      jump\t// in\n    tag_283:\n        /* \"#utility.yul\":12344:12362   */\n      0xffffffffffffffff\n        /* \"#utility.yul\":12336:12342   */\n      dup2\n        /* \"#utility.yul\":12333:12363   */\n      gt\n        /* \"#utility.yul\":12330:12386   */\n      iszero\n      tag_284\n      jumpi\n        /* \"#utility.yul\":12366:12384   */\n      tag_285\n      tag_111\n      jump\t// in\n    tag_285:\n        /* \"#utility.yul\":12330:12386   */\n    tag_284:\n        /* \"#utility.yul\":12410:12448   */\n      tag_286\n        /* \"#utility.yul\":12442:12446   */\n      dup3\n        /* \"#utility.yul\":12436:12447   */\n      sload\n        /* \"#utility.yul\":12410:12448   */\n      tag_44\n      jump\t// in\n    tag_286:\n        /* \"#utility.yul\":12495:12562   */\n      tag_287\n        /* \"#utility.yul\":12555:12561   */\n      dup3\n        /* \"#utility.yul\":12547:12553   */\n      dup3\n        /* \"#utility.yul\":12541:12545   */\n      dup6\n        /* \"#utility.yul\":12495:12562   */\n      tag_137\n      jump\t// in\n    tag_287:\n        /* \"#utility.yul\":12589:12590   */\n      0x00\n        /* \"#utility.yul\":12613:12617   */\n      0x20\n        /* \"#utility.yul\":12600:12617   */\n      swap1\n      pop\n        /* \"#utility.yul\":12645:12647   */\n      0x1f\n        /* \"#utility.yul\":12637:12643   */\n      dup4\n        /* \"#utility.yul\":12634:12648   */\n      gt\n        /* \"#utility.yul\":12662:12663   */\n      0x01\n        /* \"#utility.yul\":12657:13275   */\n      dup2\n      eq\n      tag_289\n      jumpi\n        /* \"#utility.yul\":13319:13320   */\n      0x00\n        /* \"#utility.yul\":13336:13342   */\n      dup5\n        /* \"#utility.yul\":13333:13410   */\n      iszero\n      tag_290\n      jumpi\n        /* \"#utility.yul\":13385:13394   */\n      dup3\n        /* \"#utility.yul\":13380:13383   */\n      dup8\n        /* \"#utility.yul\":13376:13395   */\n      add\n        /* \"#utility.yul\":13370:13396   */\n      mload\n        /* \"#utility.yul\":13361:13396   */\n      swap1\n      pop\n        /* \"#utility.yul\":13333:13410   */\n    tag_290:\n        /* \"#utility.yul\":13436:13503   */\n      tag_291\n        /* \"#utility.yul\":13496:13502   */\n      dup6\n        /* \"#utility.yul\":13489:13494   */\n      dup3\n        /* \"#utility.yul\":13436:13503   */\n      tag_140\n      jump\t// in\n    tag_291:\n        /* \"#utility.yul\":13430:13434   */\n      dup7\n        /* \"#utility.yul\":13423:13504   */\n      sstore\n        /* \"#utility.yul\":13292:13514   */\n      pop\n        /* \"#utility.yul\":12627:13514   */\n      jump(tag_288)\n        /* \"#utility.yul\":12657:13275   */\n    tag_289:\n        /* \"#utility.yul\":12709:12713   */\n      0x1f\n        /* \"#utility.yul\":12705:12714   */\n      not\n        /* \"#utility.yul\":12697:12703   */\n      dup5\n        /* \"#utility.yul\":12693:12715   */\n      and\n        /* \"#utility.yul\":12743:12780   */\n      tag_292\n        /* \"#utility.yul\":12775:12779   */\n      dup7\n        /* \"#utility.yul\":12743:12780   */\n      tag_126\n      jump\t// in\n    tag_292:\n        /* \"#utility.yul\":12802:12803   */\n      0x00\n        /* \"#utility.yul\":12816:13024   */\n    tag_293:\n        /* \"#utility.yul\":12830:12837   */\n      dup3\n        /* \"#utility.yul\":12827:12828   */\n      dup2\n        /* \"#utility.yul\":12824:12838   */\n      lt\n        /* \"#utility.yul\":12816:13024   */\n      iszero\n      tag_295\n      jumpi\n        /* \"#utility.yul\":12909:12918   */\n      dup5\n        /* \"#utility.yul\":12904:12907   */\n      dup10\n        /* \"#utility.yul\":12900:12919   */\n      add\n        /* \"#utility.yul\":12894:12920   */\n      mload\n        /* \"#utility.yul\":12886:12892   */\n      dup3\n        /* \"#utility.yul\":12879:12921   */\n      sstore\n        /* \"#utility.yul\":12960:12961   */\n      0x01\n        /* \"#utility.yul\":12952:12958   */\n      dup3\n        /* \"#utility.yul\":12948:12962   */\n      add\n        /* \"#utility.yul\":12938:12962   */\n      swap2\n      pop\n        /* \"#utility.yul\":13007:13009   */\n      0x20\n        /* \"#utility.yul\":12996:13005   */\n      dup6\n        /* \"#utility.yul\":12992:13010   */\n      add\n        /* \"#utility.yul\":12979:13010   */\n      swap5\n      pop\n        /* \"#utility.yul\":12853:12857   */\n      0x20\n        /* \"#utility.yul\":12850:12851   */\n      dup2\n        /* \"#utility.yul\":12846:12858   */\n      add\n        /* \"#utility.yul\":12841:12858   */\n      swap1\n      pop\n        /* \"#utility.yul\":12816:13024   */\n      jump(tag_293)\n    tag_295:\n        /* \"#utility.yul\":13052:13058   */\n      dup7\n        /* \"#utility.yul\":13043:13050   */\n      dup4\n        /* \"#utility.yul\":13040:13059   */\n      lt\n        /* \"#utility.yul\":13037:13216   */\n      iszero\n      tag_296\n      jumpi\n        /* \"#utility.yul\":13110:13119   */\n      dup5\n        /* \"#utility.yul\":13105:13108   */\n      dup10\n        /* \"#utility.yul\":13101:13120   */\n      add\n        /* \"#utility.yul\":13095:13121   */\n      mload\n        /* \"#utility.yul\":13153:13201   */\n      tag_297\n        /* \"#utility.yul\":13195:13199   */\n      0x1f\n        /* \"#utility.yul\":13187:13193   */\n      dup10\n        /* \"#utility.yul\":13183:13200   */\n      and\n        /* \"#utility.yul\":13172:13181   */\n      dup3\n        /* \"#utility.yul\":13153:13201   */\n      tag_139\n      jump\t// in\n    tag_297:\n        /* \"#utility.yul\":13145:13151   */\n      dup4\n        /* \"#utility.yul\":13138:13202   */\n      sstore\n        /* \"#utility.yul\":13060:13216   */\n      pop\n        /* \"#utility.yul\":13037:13216   */\n    tag_296:\n        /* \"#utility.yul\":13262:13263   */\n      0x01\n        /* \"#utility.yul\":13258:13259   */\n      0x02\n        /* \"#utility.yul\":13250:13256   */\n      dup9\n        /* \"#utility.yul\":13246:13260   */\n      mul\n        /* \"#utility.yul\":13242:13264   */\n      add\n        /* \"#utility.yul\":13236:13240   */\n      dup9\n        /* \"#utility.yul\":13229:13265   */\n      sstore\n        /* \"#utility.yul\":12664:13275   */\n      pop\n      pop\n      pop\n        /* \"#utility.yul\":12627:13514   */\n    tag_288:\n      pop\n        /* \"#utility.yul\":12217:13520   */\n      pop\n      pop\n      pop\n        /* \"#utility.yul\":12125:13520   */\n      pop\n      pop\n      jump\t// out\n        /* \"#utility.yul\":13526:13706   */\n    tag_141:\n        /* \"#utility.yul\":13574:13651   */\n      0x4e487b7100000000000000000000000000000000000000000000000000000000\n        /* \"#utility.yul\":13571:13572   */\n      0x00\n        /* \"#utility.yul\":13564:13652   */\n      mstore\n        /* \"#utility.yul\":13671:13675   */\n      0x11\n        /* \"#utility.yul\":13668:13669   */\n      0x04\n        /* \"#utility.yul\":13661:13676   */\n      mstore\n        /* \"#utility.yul\":13695:13699   */\n      0x24\n        /* \"#utility.yul\":13692:13693   */\n      0x00\n        /* \"#utility.yul\":13685:13700   */\n      revert\n        /* \"#utility.yul\":13712:13906   */\n    tag_63:\n        /* \"#utility.yul\":13752:13756   */\n      0x00\n        /* \"#utility.yul\":13772:13792   */\n      tag_300\n        /* \"#utility.yul\":13790:13791   */\n      dup3\n        /* \"#utility.yul\":13772:13792   */\n      tag_100\n      jump\t// in\n    tag_300:\n        /* \"#utility.yul\":13767:13792   */\n      swap2\n      pop\n        /* \"#utility.yul\":13806:13826   */\n      tag_301\n        /* \"#utility.yul\":13824:13825   */\n      dup4\n        /* \"#utility.yul\":13806:13826   */\n      tag_100\n      jump\t// in\n    tag_301:\n        /* \"#utility.yul\":13801:13826   */\n      swap3\n      pop\n        /* \"#utility.yul\":13850:13851   */\n      dup3\n        /* \"#utility.yul\":13847:13848   */\n      dup3\n        /* \"#utility.yul\":13843:13852   */\n      sub\n        /* \"#utility.yul\":13835:13852   */\n      swap1\n      pop\n        /* \"#utility.yul\":13874:13875   */\n      dup2\n        /* \"#utility.yul\":13868:13872   */\n      dup2\n        /* \"#utility.yul\":13865:13876   */\n      gt\n        /* \"#utility.yul\":13862:13899   */\n      iszero\n      tag_302\n      jumpi\n        /* \"#utility.yul\":13879:13897   */\n      tag_303\n      tag_141\n      jump\t// in\n    tag_303:\n        /* \"#utility.yul\":13862:13899   */\n    tag_302:\n        /* \"#utility.yul\":13712:13906   */\n      swap3\n      swap2\n      pop\n      pop\n      jump\t// out\n        /* \"#utility.yul\":13912:14445   */\n    tag_65:\n        /* \"#utility.yul\":14081:14085   */\n      0x00\n        /* \"#utility.yul\":14119:14121   */\n      0x60\n        /* \"#utility.yul\":14108:14117   */\n      dup3\n        /* \"#utility.yul\":14104:14122   */\n      add\n        /* \"#utility.yul\":14096:14122   */\n      swap1\n      pop\n        /* \"#utility.yul\":14132:14203   */\n      tag_305\n        /* \"#utility.yul\":14200:14201   */\n      0x00\n        /* \"#utility.yul\":14189:14198   */\n      dup4\n        /* \"#utility.yul\":14185:14202   */\n      add\n        /* \"#utility.yul\":14176:14182   */\n      dup7\n        /* \"#utility.yul\":14132:14203   */\n      tag_103\n      jump\t// in\n    tag_305:\n        /* \"#utility.yul\":14250:14259   */\n      dup2\n        /* \"#utility.yul\":14244:14248   */\n      dup2\n        /* \"#utility.yul\":14240:14260   */\n      sub\n        /* \"#utility.yul\":14235:14237   */\n      0x20\n        /* \"#utility.yul\":14224:14233   */\n      dup4\n        /* \"#utility.yul\":14220:14238   */\n      add\n        /* \"#utility.yul\":14213:14261   */\n      mstore\n        /* \"#utility.yul\":14278:14356   */\n      tag_306\n        /* \"#utility.yul\":14351:14355   */\n      dup2\n        /* \"#utility.yul\":14342:14348   */\n      dup6\n        /* \"#utility.yul\":14278:14356   */\n      tag_108\n      jump\t// in\n    tag_306:\n        /* \"#utility.yul\":14270:14356   */\n      swap1\n      pop\n        /* \"#utility.yul\":14366:14438   */\n      tag_307\n        /* \"#utility.yul\":14434:14436   */\n      0x40\n        /* \"#utility.yul\":14423:14432   */\n      dup4\n        /* \"#utility.yul\":14419:14437   */\n      add\n        /* \"#utility.yul\":14410:14416   */\n      dup5\n        /* \"#utility.yul\":14366:14438   */\n      tag_103\n      jump\t// in\n    tag_307:\n        /* \"#utility.yul\":13912:14445   */\n      swap5\n      swap4\n      pop\n      pop\n      pop\n      pop\n      jump\t// out\n        /* \"#utility.yul\":14451:14631   */\n    tag_77:\n        /* \"#utility.yul\":14499:14576   */\n      0x4e487b7100000000000000000000000000000000000000000000000000000000\n        /* \"#utility.yul\":14496:14497   */\n      0x00\n        /* \"#utility.yul\":14489:14577   */\n      mstore\n        /* \"#utility.yul\":14596:14600   */\n      0x32\n        /* \"#utility.yul\":14593:14594   */\n      0x04\n        /* \"#utility.yul\":14586:14601   */\n      mstore\n        /* \"#utility.yul\":14620:14624   */\n      0x24\n        /* \"#utility.yul\":14617:14618   */\n      0x00\n        /* \"#utility.yul\":14610:14625   */\n      revert\n        /* \"#utility.yul\":14637:15060   */\n    tag_81:\n        /* \"#utility.yul\":14778:14782   */\n      0x00\n        /* \"#utility.yul\":14816:14818   */\n      0x40\n        /* \"#utility.yul\":14805:14814   */\n      dup3\n        /* \"#utility.yul\":14801:14819   */\n      add\n        /* \"#utility.yul\":14793:14819   */\n      swap1\n      pop\n        /* \"#utility.yul\":14829:14900   */\n      tag_310\n        /* \"#utility.yul\":14897:14898   */\n      0x00\n        /* \"#utility.yul\":14886:14895   */\n      dup4\n        /* \"#utility.yul\":14882:14899   */\n      add\n        /* \"#utility.yul\":14873:14879   */\n      dup6\n        /* \"#utility.yul\":14829:14900   */\n      tag_103\n      jump\t// in\n    tag_310:\n        /* \"#utility.yul\":14947:14956   */\n      dup2\n        /* \"#utility.yul\":14941:14945   */\n      dup2\n        /* \"#utility.yul\":14937:14957   */\n      sub\n        /* \"#utility.yul\":14932:14934   */\n      0x20\n        /* \"#utility.yul\":14921:14930   */\n      dup4\n        /* \"#utility.yul\":14917:14935   */\n      add\n        /* \"#utility.yul\":14910:14958   */\n      mstore\n        /* \"#utility.yul\":14975:15053   */\n      tag_311\n        /* \"#utility.yul\":15048:15052   */\n      dup2\n        /* \"#utility.yul\":15039:15045   */\n      dup5\n        /* \"#utility.yul\":14975:15053   */\n      tag_108\n      jump\t// in\n    tag_311:\n        /* \"#utility.yul\":14967:15053   */\n      swap1\n      pop\n        /* \"#utility.yul\":14637:15060   */\n      swap4\n      swap3\n      pop\n      pop\n      pop\n      jump\t// out\n\n    auxdata: 0xa264697066735822122077c1f4905c5120d2e076fac55b808cc98dab9a5f275e2a720ce46c9decc2ebd964736f6c634300081a0033\n}\n",
				"bytecode": {
					"linkReferences": {},
					"object": "608060405234801561000f575f80fd5b50335f73ffffffffffffffffffffffffffffffffffffffff168173ffffffffffffffffffffffffffffffffffffffff1603610081575f6040517f1e4fbdf70000000000000000000000000000000000000000000000000000000081526004016100789190610196565b60405180910390fd5b6100908161009660201b60201c565b506101af565b5f805f9054906101000a900473ffffffffffffffffffffffffffffffffffffffff169050815f806101000a81548173ffffffffffffffffffffffffffffffffffffffff021916908373ffffffffffffffffffffffffffffffffffffffff1602179055508173ffffffffffffffffffffffffffffffffffffffff168173ffffffffffffffffffffffffffffffffffffffff167f8be0079c531659141344cd1fd0a4f28419497f9722a3daafe3b4186f6b6457e060405160405180910390a35050565b5f73ffffffffffffffffffffffffffffffffffffffff82169050919050565b5f61018082610157565b9050919050565b61019081610176565b82525050565b5f6020820190506101a95f830184610187565b92915050565b610f0e806101bc5f395ff3fe608060405234801561000f575f80fd5b506004361061007b575f3560e01c80638da5cb5b116100595780638da5cb5b146100db578063d23254b4146100f9578063d7c561fd14610129578063f2fde38b146101455761007b565b8063013cf08b1461007f57806335facf78146100b5578063715018a6146100d1575b5f80fd5b610099600480360381019061009491906106f5565b610161565b6040516100ac979695949392919061079f565b60405180910390f35b6100cf60048036038101906100ca9190610946565b6102ba565b005b6100d9610404565b005b6100e3610417565b6040516100f091906109df565b60405180910390f35b610113600480360381019061010e9190610a22565b61043e565b6040516101209190610a7a565b60405180910390f35b610143600480360381019061013e9190610a93565b610468565b005b61015f600480360381019061015a9190610aed565b6104de565b005b60018181548110610170575f80fd5b905f5260205f2090600702015f91509050805f01549080600101805461019590610b45565b80601f01602080910402602001604051908101604052809291908181526020018280546101c190610b45565b801561020c5780601f106101e35761010080835404028352916020019161020c565b820191905f5260205f20905b8154815290600101906020018083116101ef57829003601f168201915b50505050509080600201549080600301805461022790610b45565b80601f016020809104026020016040519081016040528092919081815260200182805461025390610b45565b801561029e5780601f106102755761010080835404028352916020019161029e565b820191905f5260205f20905b81548152906001019060200180831161028157829003601f168201915b5050505050908060040154908060050154908060060154905087565b6102c2610562565b60016040518060e0016040528060018054905081526020018481526020018381526020016040518060400160405280600781526020017f50656e64696e670000000000000000000000000000000000000000000000000081525081526020015f81526020015f81526020015f815250908060018154018082558091505060019003905f5260205f2090600702015f909190919091505f820151815f015560208201518160010190816103749190610d12565b506040820151816002015560608201518160030190816103949190610d12565b506080820151816004015560a0820151816005015560c0820151816006015550507ff5dc0da9afa6d080780a49fd8c680f03d2ddf3c067cd6d0c85360c096644d2d3600180805490506103e79190610e0e565b83836040516103f893929190610e41565b60405180910390a15050565b61040c610562565b6104155f6105e9565b565b5f805f9054906101000a900473ffffffffffffffffffffffffffffffffffffffff16905090565b6002602052815f5260405f20602052805f5260405f205f915091509054906101000a900460ff1681565b610470610562565b806001838154811061048557610484610e7d565b5b905f5260205f20906007020160030190816104a09190610d12565b507f15fba378ec5233262589a0683add7b6d321b4818dd4b14c313e98b163275290782826040516104d2929190610eaa565b60405180910390a15050565b6104e6610562565b5f73ffffffffffffffffffffffffffffffffffffffff168173ffffffffffffffffffffffffffffffffffffffff1603610556575f6040517f1e4fbdf700000000000000000000000000000000000000000000000000000000815260040161054d91906109df565b60405180910390fd5b61055f816105e9565b50565b61056a6106aa565b73ffffffffffffffffffffffffffffffffffffffff16610588610417565b73ffffffffffffffffffffffffffffffffffffffff16146105e7576105ab6106aa565b6040517f118cdaa70000000000000000000000000000000000000000000000000000000081526004016105de91906109df565b60405180910390fd5b565b5f805f9054906101000a900473ffffffffffffffffffffffffffffffffffffffff169050815f806101000a81548173ffffffffffffffffffffffffffffffffffffffff021916908373ffffffffffffffffffffffffffffffffffffffff1602179055508173ffffffffffffffffffffffffffffffffffffffff168173ffffffffffffffffffffffffffffffffffffffff167f8be0079c531659141344cd1fd0a4f28419497f9722a3daafe3b4186f6b6457e060405160405180910390a35050565b5f33905090565b5f604051905090565b5f80fd5b5f80fd5b5f819050919050565b6106d4816106c2565b81146106de575f80fd5b50565b5f813590506106ef816106cb565b92915050565b5f6020828403121561070a576107096106ba565b5b5f610717848285016106e1565b91505092915050565b610729816106c2565b82525050565b5f81519050919050565b5f82825260208201905092915050565b8281835e5f83830152505050565b5f601f19601f8301169050919050565b5f6107718261072f565b61077b8185610739565b935061078b818560208601610749565b61079481610757565b840191505092915050565b5f60e0820190506107b25f83018a610720565b81810360208301526107c48189610767565b90506107d36040830188610720565b81810360608301526107e58187610767565b90506107f46080830186610720565b61080160a0830185610720565b61080e60c0830184610720565b98975050505050505050565b5f80fd5b5f80fd5b7f4e487b71000000000000000000000000000000000000000000000000000000005f52604160045260245ffd5b61085882610757565b810181811067ffffffffffffffff8211171561087757610876610822565b5b80604052505050565b5f6108896106b1565b9050610895828261084f565b919050565b5f67ffffffffffffffff8211156108b4576108b3610822565b5b6108bd82610757565b9050602081019050919050565b828183375f83830152505050565b5f6108ea6108e58461089a565b610880565b9050828152602081018484840111156109065761090561081e565b5b6109118482856108ca565b509392505050565b5f82601f83011261092d5761092c61081a565b5b813561093d8482602086016108d8565b91505092915050565b5f806040838503121561095c5761095b6106ba565b5b5f83013567ffffffffffffffff811115610979576109786106be565b5b61098585828601610919565b9250506020610996858286016106e1565b9150509250929050565b5f73ffffffffffffffffffffffffffffffffffffffff82169050919050565b5f6109c9826109a0565b9050919050565b6109d9816109bf565b82525050565b5f6020820190506109f25f8301846109d0565b92915050565b610a01816109bf565b8114610a0b575f80fd5b50565b5f81359050610a1c816109f8565b92915050565b5f8060408385031215610a3857610a376106ba565b5b5f610a45858286016106e1565b9250506020610a5685828601610a0e565b9150509250929050565b5f8115159050919050565b610a7481610a60565b82525050565b5f602082019050610a8d5f830184610a6b565b92915050565b5f8060408385031215610aa957610aa86106ba565b5b5f610ab6858286016106e1565b925050602083013567ffffffffffffffff811115610ad757610ad66106be565b5b610ae385828601610919565b9150509250929050565b5f60208284031215610b0257610b016106ba565b5b5f610b0f84828501610a0e565b91505092915050565b7f4e487b71000000000000000000000000000000000000000000000000000000005f52602260045260245ffd5b5f6002820490506001821680610b5c57607f821691505b602082108103610b6f57610b6e610b18565b5b50919050565b5f819050815f5260205f209050919050565b5f6020601f8301049050919050565b5f82821b905092915050565b5f60088302610bd17fffffffffffffffffffffffffffffffffffffffffffffffffffffffffffffffff82610b96565b610bdb8683610b96565b95508019841693508086168417925050509392505050565b5f819050919050565b5f610c16610c11610c0c846106c2565b610bf3565b6106c2565b9050919050565b5f819050919050565b610c2f83610bfc565b610c43610c3b82610c1d565b848454610ba2565b825550505050565b5f90565b610c57610c4b565b610c62818484610c26565b505050565b5b81811015610c8557610c7a5f82610c4f565b600181019050610c68565b5050565b601f821115610cca57610c9b81610b75565b610ca484610b87565b81016020851015610cb3578190505b610cc7610cbf85610b87565b830182610c67565b50505b505050565b5f82821c905092915050565b5f610cea5f1984600802610ccf565b1980831691505092915050565b5f610d028383610cdb565b9150826002028217905092915050565b610d1b8261072f565b67ffffffffffffffff811115610d3457610d33610822565b5b610d3e8254610b45565b610d49828285610c89565b5f60209050601f831160018114610d7a575f8415610d68578287015190505b610d728582610cf7565b865550610dd9565b601f198416610d8886610b75565b5f5b82811015610daf57848901518255600182019150602085019450602081019050610d8a565b86831015610dcc5784890151610dc8601f891682610cdb565b8355505b6001600288020188555050505b505050505050565b7f4e487b71000000000000000000000000000000000000000000000000000000005f52601160045260245ffd5b5f610e18826106c2565b9150610e23836106c2565b9250828203905081811115610e3b57610e3a610de1565b5b92915050565b5f606082019050610e545f830186610720565b8181036020830152610e668185610767565b9050610e756040830184610720565b949350505050565b7f4e487b71000000000000000000000000000000000000000000000000000000005f52603260045260245ffd5b5f604082019050610ebd5f830185610720565b8181036020830152610ecf8184610767565b9050939250505056fea264697066735822122077c1f4905c5120d2e076fac55b808cc98dab9a5f275e2a720ce46c9decc2ebd964736f6c634300081a0033",
					"opcodes": "PUSH1 0x80 PUSH1 0x40 MSTORE CALLVALUE DUP1 ISZERO PUSH2 0xF JUMPI PUSH0 DUP1 REVERT JUMPDEST POP CALLER PUSH0 PUSH20 0xFFFFFFFFFFFFFFFFFFFFFFFFFFFFFFFFFFFFFFFF AND DUP2 PUSH20 0xFFFFFFFFFFFFFFFFFFFFFFFFFFFFFFFFFFFFFFFF AND SUB PUSH2 0x81 JUMPI PUSH0 PUSH1 0x40 MLOAD PUSH32 0x1E4FBDF700000000000000000000000000000000000000000000000000000000 DUP2 MSTORE PUSH1 0x4 ADD PUSH2 0x78 SWAP2 SWAP1 PUSH2 0x196 JUMP JUMPDEST PUSH1 0x40 MLOAD DUP1 SWAP2 SUB SWAP1 REVERT JUMPDEST PUSH2 0x90 DUP2 PUSH2 0x96 PUSH1 0x20 SHL PUSH1 0x20 SHR JUMP JUMPDEST POP PUSH2 0x1AF JUMP JUMPDEST PUSH0 DUP1 PUSH0 SWAP1 SLOAD SWAP1 PUSH2 0x100 EXP SWAP1 DIV PUSH20 0xFFFFFFFFFFFFFFFFFFFFFFFFFFFFFFFFFFFFFFFF AND SWAP1 POP DUP2 PUSH0 DUP1 PUSH2 0x100 EXP DUP2 SLOAD DUP2 PUSH20 0xFFFFFFFFFFFFFFFFFFFFFFFFFFFFFFFFFFFFFFFF MUL NOT AND SWAP1 DUP4 PUSH20 0xFFFFFFFFFFFFFFFFFFFFFFFFFFFFFFFFFFFFFFFF AND MUL OR SWAP1 SSTORE POP DUP2 PUSH20 0xFFFFFFFFFFFFFFFFFFFFFFFFFFFFFFFFFFFFFFFF AND DUP2 PUSH20 0xFFFFFFFFFFFFFFFFFFFFFFFFFFFFFFFFFFFFFFFF AND PUSH32 0x8BE0079C531659141344CD1FD0A4F28419497F9722A3DAAFE3B4186F6B6457E0 PUSH1 0x40 MLOAD PUSH1 0x40 MLOAD DUP1 SWAP2 SUB SWAP1 LOG3 POP POP JUMP JUMPDEST PUSH0 PUSH20 0xFFFFFFFFFFFFFFFFFFFFFFFFFFFFFFFFFFFFFFFF DUP3 AND SWAP1 POP SWAP2 SWAP1 POP JUMP JUMPDEST PUSH0 PUSH2 0x180 DUP3 PUSH2 0x157 JUMP JUMPDEST SWAP1 POP SWAP2 SWAP1 POP JUMP JUMPDEST PUSH2 0x190 DUP2 PUSH2 0x176 JUMP JUMPDEST DUP3 MSTORE POP POP JUMP JUMPDEST PUSH0 PUSH1 0x20 DUP3 ADD SWAP1 POP PUSH2 0x1A9 PUSH0 DUP4 ADD DUP5 PUSH2 0x187 JUMP JUMPDEST SWAP3 SWAP2 POP POP JUMP JUMPDEST PUSH2 0xF0E DUP1 PUSH2 0x1BC PUSH0 CODECOPY PUSH0 RETURN INVALID PUSH1 0x80 PUSH1 0x40 MSTORE CALLVALUE DUP1 ISZERO PUSH2 0xF JUMPI PUSH0 DUP1 REVERT JUMPDEST POP PUSH1 0x4 CALLDATASIZE LT PUSH2 0x7B JUMPI PUSH0 CALLDATALOAD PUSH1 0xE0 SHR DUP1 PUSH4 0x8DA5CB5B GT PUSH2 0x59 JUMPI DUP1 PUSH4 0x8DA5CB5B EQ PUSH2 0xDB JUMPI DUP1 PUSH4 0xD23254B4 EQ PUSH2 0xF9 JUMPI DUP1 PUSH4 0xD7C561FD EQ PUSH2 0x129 JUMPI DUP1 PUSH4 0xF2FDE38B EQ PUSH2 0x145 JUMPI PUSH2 0x7B JUMP JUMPDEST DUP1 PUSH4 0x13CF08B EQ PUSH2 0x7F JUMPI DUP1 PUSH4 0x35FACF78 EQ PUSH2 0xB5 JUMPI DUP1 PUSH4 0x715018A6 EQ PUSH2 0xD1 JUMPI JUMPDEST PUSH0 DUP1 REVERT JUMPDEST PUSH2 0x99 PUSH1 0x4 DUP1 CALLDATASIZE SUB DUP2 ADD SWAP1 PUSH2 0x94 SWAP2 SWAP1 PUSH2 0x6F5 JUMP JUMPDEST PUSH2 0x161 JUMP JUMPDEST PUSH1 0x40 MLOAD PUSH2 0xAC SWAP8 SWAP7 SWAP6 SWAP5 SWAP4 SWAP3 SWAP2 SWAP1 PUSH2 0x79F JUMP JUMPDEST PUSH1 0x40 MLOAD DUP1 SWAP2 SUB SWAP1 RETURN JUMPDEST PUSH2 0xCF PUSH1 0x4 DUP1 CALLDATASIZE SUB DUP2 ADD SWAP1 PUSH2 0xCA SWAP2 SWAP1 PUSH2 0x946 JUMP JUMPDEST PUSH2 0x2BA JUMP JUMPDEST STOP JUMPDEST PUSH2 0xD9 PUSH2 0x404 JUMP JUMPDEST STOP JUMPDEST PUSH2 0xE3 PUSH2 0x417 JUMP JUMPDEST PUSH1 0x40 MLOAD PUSH2 0xF0 SWAP2 SWAP1 PUSH2 0x9DF JUMP JUMPDEST PUSH1 0x40 MLOAD DUP1 SWAP2 SUB SWAP1 RETURN JUMPDEST PUSH2 0x113 PUSH1 0x4 DUP1 CALLDATASIZE SUB DUP2 ADD SWAP1 PUSH2 0x10E SWAP2 SWAP1 PUSH2 0xA22 JUMP JUMPDEST PUSH2 0x43E JUMP JUMPDEST PUSH1 0x40 MLOAD PUSH2 0x120 SWAP2 SWAP1 PUSH2 0xA7A JUMP JUMPDEST PUSH1 0x40 MLOAD DUP1 SWAP2 SUB SWAP1 RETURN JUMPDEST PUSH2 0x143 PUSH1 0x4 DUP1 CALLDATASIZE SUB DUP2 ADD SWAP1 PUSH2 0x13E SWAP2 SWAP1 PUSH2 0xA93 JUMP JUMPDEST PUSH2 0x468 JUMP JUMPDEST STOP JUMPDEST PUSH2 0x15F PUSH1 0x4 DUP1 CALLDATASIZE SUB DUP2 ADD SWAP1 PUSH2 0x15A SWAP2 SWAP1 PUSH2 0xAED JUMP JUMPDEST PUSH2 0x4DE JUMP JUMPDEST STOP JUMPDEST PUSH1 0x1 DUP2 DUP2 SLOAD DUP2 LT PUSH2 0x170 JUMPI PUSH0 DUP1 REVERT JUMPDEST SWAP1 PUSH0 MSTORE PUSH1 0x20 PUSH0 KECCAK256 SWAP1 PUSH1 0x7 MUL ADD PUSH0 SWAP2 POP SWAP1 POP DUP1 PUSH0 ADD SLOAD SWAP1 DUP1 PUSH1 0x1 ADD DUP1 SLOAD PUSH2 0x195 SWAP1 PUSH2 0xB45 JUMP JUMPDEST DUP1 PUSH1 0x1F ADD PUSH1 0x20 DUP1 SWAP2 DIV MUL PUSH1 0x20 ADD PUSH1 0x40 MLOAD SWAP1 DUP2 ADD PUSH1 0x40 MSTORE DUP1 SWAP3 SWAP2 SWAP1 DUP2 DUP2 MSTORE PUSH1 0x20 ADD DUP3 DUP1 SLOAD PUSH2 0x1C1 SWAP1 PUSH2 0xB45 JUMP JUMPDEST DUP1 ISZERO PUSH2 0x20C JUMPI DUP1 PUSH1 0x1F LT PUSH2 0x1E3 JUMPI PUSH2 0x100 DUP1 DUP4 SLOAD DIV MUL DUP4 MSTORE SWAP2 PUSH1 0x20 ADD SWAP2 PUSH2 0x20C JUMP JUMPDEST DUP3 ADD SWAP2 SWAP1 PUSH0 MSTORE PUSH1 0x20 PUSH0 KECCAK256 SWAP1 JUMPDEST DUP2 SLOAD DUP2 MSTORE SWAP1 PUSH1 0x1 ADD SWAP1 PUSH1 0x20 ADD DUP1 DUP4 GT PUSH2 0x1EF JUMPI DUP3 SWAP1 SUB PUSH1 0x1F AND DUP3 ADD SWAP2 JUMPDEST POP POP POP POP POP SWAP1 DUP1 PUSH1 0x2 ADD SLOAD SWAP1 DUP1 PUSH1 0x3 ADD DUP1 SLOAD PUSH2 0x227 SWAP1 PUSH2 0xB45 JUMP JUMPDEST DUP1 PUSH1 0x1F ADD PUSH1 0x20 DUP1 SWAP2 DIV MUL PUSH1 0x20 ADD PUSH1 0x40 MLOAD SWAP1 DUP2 ADD PUSH1 0x40 MSTORE DUP1 SWAP3 SWAP2 SWAP1 DUP2 DUP2 MSTORE PUSH1 0x20 ADD DUP3 DUP1 SLOAD PUSH2 0x253 SWAP1 PUSH2 0xB45 JUMP JUMPDEST DUP1 ISZERO PUSH2 0x29E JUMPI DUP1 PUSH1 0x1F LT PUSH2 0x275 JUMPI PUSH2 0x100 DUP1 DUP4 SLOAD DIV MUL DUP4 MSTORE SWAP2 PUSH1 0x20 ADD SWAP2 PUSH2 0x29E JUMP JUMPDEST DUP3 ADD SWAP2 SWAP1 PUSH0 MSTORE PUSH1 0x20 PUSH0 KECCAK256 SWAP1 JUMPDEST DUP2 SLOAD DUP2 MSTORE SWAP1 PUSH1 0x1 ADD SWAP1 PUSH1 0x20 ADD DUP1 DUP4 GT PUSH2 0x281 JUMPI DUP3 SWAP1 SUB PUSH1 0x1F AND DUP3 ADD SWAP2 JUMPDEST POP POP POP POP POP SWAP1 DUP1 PUSH1 0x4 ADD SLOAD SWAP1 DUP1 PUSH1 0x5 ADD SLOAD SWAP1 DUP1 PUSH1 0x6 ADD SLOAD SWAP1 POP DUP8 JUMP JUMPDEST PUSH2 0x2C2 PUSH2 0x562 JUMP JUMPDEST PUSH1 0x1 PUSH1 0x40 MLOAD DUP1 PUSH1 0xE0 ADD PUSH1 0x40 MSTORE DUP1 PUSH1 0x1 DUP1 SLOAD SWAP1 POP DUP2 MSTORE PUSH1 0x20 ADD DUP5 DUP2 MSTORE PUSH1 0x20 ADD DUP4 DUP2 MSTORE PUSH1 0x20 ADD PUSH1 0x40 MLOAD DUP1 PUSH1 0x40 ADD PUSH1 0x40 MSTORE DUP1 PUSH1 0x7 DUP2 MSTORE PUSH1 0x20 ADD PUSH32 0x50656E64696E6700000000000000000000000000000000000000000000000000 DUP2 MSTORE POP DUP2 MSTORE PUSH1 0x20 ADD PUSH0 DUP2 MSTORE PUSH1 0x20 ADD PUSH0 DUP2 MSTORE PUSH1 0x20 ADD PUSH0 DUP2 MSTORE POP SWAP1 DUP1 PUSH1 0x1 DUP2 SLOAD ADD DUP1 DUP3 SSTORE DUP1 SWAP2 POP POP PUSH1 0x1 SWAP1 SUB SWAP1 PUSH0 MSTORE PUSH1 0x20 PUSH0 KECCAK256 SWAP1 PUSH1 0x7 MUL ADD PUSH0 SWAP1 SWAP2 SWAP1 SWAP2 SWAP1 SWAP2 POP PUSH0 DUP3 ADD MLOAD DUP2 PUSH0 ADD SSTORE PUSH1 0x20 DUP3 ADD MLOAD DUP2 PUSH1 0x1 ADD SWAP1 DUP2 PUSH2 0x374 SWAP2 SWAP1 PUSH2 0xD12 JUMP JUMPDEST POP PUSH1 0x40 DUP3 ADD MLOAD DUP2 PUSH1 0x2 ADD SSTORE PUSH1 0x60 DUP3 ADD MLOAD DUP2 PUSH1 0x3 ADD SWAP1 DUP2 PUSH2 0x394 SWAP2 SWAP1 PUSH2 0xD12 JUMP JUMPDEST POP PUSH1 0x80 DUP3 ADD MLOAD DUP2 PUSH1 0x4 ADD SSTORE PUSH1 0xA0 DUP3 ADD MLOAD DUP2 PUSH1 0x5 ADD SSTORE PUSH1 0xC0 DUP3 ADD MLOAD DUP2 PUSH1 0x6 ADD SSTORE POP POP PUSH32 0xF5DC0DA9AFA6D080780A49FD8C680F03D2DDF3C067CD6D0C85360C096644D2D3 PUSH1 0x1 DUP1 DUP1 SLOAD SWAP1 POP PUSH2 0x3E7 SWAP2 SWAP1 PUSH2 0xE0E JUMP JUMPDEST DUP4 DUP4 PUSH1 0x40 MLOAD PUSH2 0x3F8 SWAP4 SWAP3 SWAP2 SWAP1 PUSH2 0xE41 JUMP JUMPDEST PUSH1 0x40 MLOAD DUP1 SWAP2 SUB SWAP1 LOG1 POP POP JUMP JUMPDEST PUSH2 0x40C PUSH2 0x562 JUMP JUMPDEST PUSH2 0x415 PUSH0 PUSH2 0x5E9 JUMP JUMPDEST JUMP JUMPDEST PUSH0 DUP1 PUSH0 SWAP1 SLOAD SWAP1 PUSH2 0x100 EXP SWAP1 DIV PUSH20 0xFFFFFFFFFFFFFFFFFFFFFFFFFFFFFFFFFFFFFFFF AND SWAP1 POP SWAP1 JUMP JUMPDEST PUSH1 0x2 PUSH1 0x20 MSTORE DUP2 PUSH0 MSTORE PUSH1 0x40 PUSH0 KECCAK256 PUSH1 0x20 MSTORE DUP1 PUSH0 MSTORE PUSH1 0x40 PUSH0 KECCAK256 PUSH0 SWAP2 POP SWAP2 POP SWAP1 SLOAD SWAP1 PUSH2 0x100 EXP SWAP1 DIV PUSH1 0xFF AND DUP2 JUMP JUMPDEST PUSH2 0x470 PUSH2 0x562 JUMP JUMPDEST DUP1 PUSH1 0x1 DUP4 DUP2 SLOAD DUP2 LT PUSH2 0x485 JUMPI PUSH2 0x484 PUSH2 0xE7D JUMP JUMPDEST JUMPDEST SWAP1 PUSH0 MSTORE PUSH1 0x20 PUSH0 KECCAK256 SWAP1 PUSH1 0x7 MUL ADD PUSH1 0x3 ADD SWAP1 DUP2 PUSH2 0x4A0 SWAP2 SWAP1 PUSH2 0xD12 JUMP JUMPDEST POP PUSH32 0x15FBA378EC5233262589A0683ADD7B6D321B4818DD4B14C313E98B1632752907 DUP3 DUP3 PUSH1 0x40 MLOAD PUSH2 0x4D2 SWAP3 SWAP2 SWAP1 PUSH2 0xEAA JUMP JUMPDEST PUSH1 0x40 MLOAD DUP1 SWAP2 SUB SWAP1 LOG1 POP POP JUMP JUMPDEST PUSH2 0x4E6 PUSH2 0x562 JUMP JUMPDEST PUSH0 PUSH20 0xFFFFFFFFFFFFFFFFFFFFFFFFFFFFFFFFFFFFFFFF AND DUP2 PUSH20 0xFFFFFFFFFFFFFFFFFFFFFFFFFFFFFFFFFFFFFFFF AND SUB PUSH2 0x556 JUMPI PUSH0 PUSH1 0x40 MLOAD PUSH32 0x1E4FBDF700000000000000000000000000000000000000000000000000000000 DUP2 MSTORE PUSH1 0x4 ADD PUSH2 0x54D SWAP2 SWAP1 PUSH2 0x9DF JUMP JUMPDEST PUSH1 0x40 MLOAD DUP1 SWAP2 SUB SWAP1 REVERT JUMPDEST PUSH2 0x55F DUP2 PUSH2 0x5E9 JUMP JUMPDEST POP JUMP JUMPDEST PUSH2 0x56A PUSH2 0x6AA JUMP JUMPDEST PUSH20 0xFFFFFFFFFFFFFFFFFFFFFFFFFFFFFFFFFFFFFFFF AND PUSH2 0x588 PUSH2 0x417 JUMP JUMPDEST PUSH20 0xFFFFFFFFFFFFFFFFFFFFFFFFFFFFFFFFFFFFFFFF AND EQ PUSH2 0x5E7 JUMPI PUSH2 0x5AB PUSH2 0x6AA JUMP JUMPDEST PUSH1 0x40 MLOAD PUSH32 0x118CDAA700000000000000000000000000000000000000000000000000000000 DUP2 MSTORE PUSH1 0x4 ADD PUSH2 0x5DE SWAP2 SWAP1 PUSH2 0x9DF JUMP JUMPDEST PUSH1 0x40 MLOAD DUP1 SWAP2 SUB SWAP1 REVERT JUMPDEST JUMP JUMPDEST PUSH0 DUP1 PUSH0 SWAP1 SLOAD SWAP1 PUSH2 0x100 EXP SWAP1 DIV PUSH20 0xFFFFFFFFFFFFFFFFFFFFFFFFFFFFFFFFFFFFFFFF AND SWAP1 POP DUP2 PUSH0 DUP1 PUSH2 0x100 EXP DUP2 SLOAD DUP2 PUSH20 0xFFFFFFFFFFFFFFFFFFFFFFFFFFFFFFFFFFFFFFFF MUL NOT AND SWAP1 DUP4 PUSH20 0xFFFFFFFFFFFFFFFFFFFFFFFFFFFFFFFFFFFFFFFF AND MUL OR SWAP1 SSTORE POP DUP2 PUSH20 0xFFFFFFFFFFFFFFFFFFFFFFFFFFFFFFFFFFFFFFFF AND DUP2 PUSH20 0xFFFFFFFFFFFFFFFFFFFFFFFFFFFFFFFFFFFFFFFF AND PUSH32 0x8BE0079C531659141344CD1FD0A4F28419497F9722A3DAAFE3B4186F6B6457E0 PUSH1 0x40 MLOAD PUSH1 0x40 MLOAD DUP1 SWAP2 SUB SWAP1 LOG3 POP POP JUMP JUMPDEST PUSH0 CALLER SWAP1 POP SWAP1 JUMP JUMPDEST PUSH0 PUSH1 0x40 MLOAD SWAP1 POP SWAP1 JUMP JUMPDEST PUSH0 DUP1 REVERT JUMPDEST PUSH0 DUP1 REVERT JUMPDEST PUSH0 DUP2 SWAP1 POP SWAP2 SWAP1 POP JUMP JUMPDEST PUSH2 0x6D4 DUP2 PUSH2 0x6C2 JUMP JUMPDEST DUP2 EQ PUSH2 0x6DE JUMPI PUSH0 DUP1 REVERT JUMPDEST POP JUMP JUMPDEST PUSH0 DUP2 CALLDATALOAD SWAP1 POP PUSH2 0x6EF DUP2 PUSH2 0x6CB JUMP JUMPDEST SWAP3 SWAP2 POP POP JUMP JUMPDEST PUSH0 PUSH1 0x20 DUP3 DUP5 SUB SLT ISZERO PUSH2 0x70A JUMPI PUSH2 0x709 PUSH2 0x6BA JUMP JUMPDEST JUMPDEST PUSH0 PUSH2 0x717 DUP5 DUP3 DUP6 ADD PUSH2 0x6E1 JUMP JUMPDEST SWAP2 POP POP SWAP3 SWAP2 POP POP JUMP JUMPDEST PUSH2 0x729 DUP2 PUSH2 0x6C2 JUMP JUMPDEST DUP3 MSTORE POP POP JUMP JUMPDEST PUSH0 DUP2 MLOAD SWAP1 POP SWAP2 SWAP1 POP JUMP JUMPDEST PUSH0 DUP3 DUP3 MSTORE PUSH1 0x20 DUP3 ADD SWAP1 POP SWAP3 SWAP2 POP POP JUMP JUMPDEST DUP3 DUP2 DUP4 MCOPY PUSH0 DUP4 DUP4 ADD MSTORE POP POP POP JUMP JUMPDEST PUSH0 PUSH1 0x1F NOT PUSH1 0x1F DUP4 ADD AND SWAP1 POP SWAP2 SWAP1 POP JUMP JUMPDEST PUSH0 PUSH2 0x771 DUP3 PUSH2 0x72F JUMP JUMPDEST PUSH2 0x77B DUP2 DUP6 PUSH2 0x739 JUMP JUMPDEST SWAP4 POP PUSH2 0x78B DUP2 DUP6 PUSH1 0x20 DUP7 ADD PUSH2 0x749 JUMP JUMPDEST PUSH2 0x794 DUP2 PUSH2 0x757 JUMP JUMPDEST DUP5 ADD SWAP2 POP POP SWAP3 SWAP2 POP POP JUMP JUMPDEST PUSH0 PUSH1 0xE0 DUP3 ADD SWAP1 POP PUSH2 0x7B2 PUSH0 DUP4 ADD DUP11 PUSH2 0x720 JUMP JUMPDEST DUP2 DUP2 SUB PUSH1 0x20 DUP4 ADD MSTORE PUSH2 0x7C4 DUP2 DUP10 PUSH2 0x767 JUMP JUMPDEST SWAP1 POP PUSH2 0x7D3 PUSH1 0x40 DUP4 ADD DUP9 PUSH2 0x720 JUMP JUMPDEST DUP2 DUP2 SUB PUSH1 0x60 DUP4 ADD MSTORE PUSH2 0x7E5 DUP2 DUP8 PUSH2 0x767 JUMP JUMPDEST SWAP1 POP PUSH2 0x7F4 PUSH1 0x80 DUP4 ADD DUP7 PUSH2 0x720 JUMP JUMPDEST PUSH2 0x801 PUSH1 0xA0 DUP4 ADD DUP6 PUSH2 0x720 JUMP JUMPDEST PUSH2 0x80E PUSH1 0xC0 DUP4 ADD DUP5 PUSH2 0x720 JUMP JUMPDEST SWAP9 SWAP8 POP POP POP POP POP POP POP POP JUMP JUMPDEST PUSH0 DUP1 REVERT JUMPDEST PUSH0 DUP1 REVERT JUMPDEST PUSH32 0x4E487B7100000000000000000000000000000000000000000000000000000000 PUSH0 MSTORE PUSH1 0x41 PUSH1 0x4 MSTORE PUSH1 0x24 PUSH0 REVERT JUMPDEST PUSH2 0x858 DUP3 PUSH2 0x757 JUMP JUMPDEST DUP2 ADD DUP2 DUP2 LT PUSH8 0xFFFFFFFFFFFFFFFF DUP3 GT OR ISZERO PUSH2 0x877 JUMPI PUSH2 0x876 PUSH2 0x822 JUMP JUMPDEST JUMPDEST DUP1 PUSH1 0x40 MSTORE POP POP POP JUMP JUMPDEST PUSH0 PUSH2 0x889 PUSH2 0x6B1 JUMP JUMPDEST SWAP1 POP PUSH2 0x895 DUP3 DUP3 PUSH2 0x84F JUMP JUMPDEST SWAP2 SWAP1 POP JUMP JUMPDEST PUSH0 PUSH8 0xFFFFFFFFFFFFFFFF DUP3 GT ISZERO PUSH2 0x8B4 JUMPI PUSH2 0x8B3 PUSH2 0x822 JUMP JUMPDEST JUMPDEST PUSH2 0x8BD DUP3 PUSH2 0x757 JUMP JUMPDEST SWAP1 POP PUSH1 0x20 DUP2 ADD SWAP1 POP SWAP2 SWAP1 POP JUMP JUMPDEST DUP3 DUP2 DUP4 CALLDATACOPY PUSH0 DUP4 DUP4 ADD MSTORE POP POP POP JUMP JUMPDEST PUSH0 PUSH2 0x8EA PUSH2 0x8E5 DUP5 PUSH2 0x89A JUMP JUMPDEST PUSH2 0x880 JUMP JUMPDEST SWAP1 POP DUP3 DUP2 MSTORE PUSH1 0x20 DUP2 ADD DUP5 DUP5 DUP5 ADD GT ISZERO PUSH2 0x906 JUMPI PUSH2 0x905 PUSH2 0x81E JUMP JUMPDEST JUMPDEST PUSH2 0x911 DUP5 DUP3 DUP6 PUSH2 0x8CA JUMP JUMPDEST POP SWAP4 SWAP3 POP POP POP JUMP JUMPDEST PUSH0 DUP3 PUSH1 0x1F DUP4 ADD SLT PUSH2 0x92D JUMPI PUSH2 0x92C PUSH2 0x81A JUMP JUMPDEST JUMPDEST DUP2 CALLDATALOAD PUSH2 0x93D DUP5 DUP3 PUSH1 0x20 DUP7 ADD PUSH2 0x8D8 JUMP JUMPDEST SWAP2 POP POP SWAP3 SWAP2 POP POP JUMP JUMPDEST PUSH0 DUP1 PUSH1 0x40 DUP4 DUP6 SUB SLT ISZERO PUSH2 0x95C JUMPI PUSH2 0x95B PUSH2 0x6BA JUMP JUMPDEST JUMPDEST PUSH0 DUP4 ADD CALLDATALOAD PUSH8 0xFFFFFFFFFFFFFFFF DUP2 GT ISZERO PUSH2 0x979 JUMPI PUSH2 0x978 PUSH2 0x6BE JUMP JUMPDEST JUMPDEST PUSH2 0x985 DUP6 DUP3 DUP7 ADD PUSH2 0x919 JUMP JUMPDEST SWAP3 POP POP PUSH1 0x20 PUSH2 0x996 DUP6 DUP3 DUP7 ADD PUSH2 0x6E1 JUMP JUMPDEST SWAP2 POP POP SWAP3 POP SWAP3 SWAP1 POP JUMP JUMPDEST PUSH0 PUSH20 0xFFFFFFFFFFFFFFFFFFFFFFFFFFFFFFFFFFFFFFFF DUP3 AND SWAP1 POP SWAP2 SWAP1 POP JUMP JUMPDEST PUSH0 PUSH2 0x9C9 DUP3 PUSH2 0x9A0 JUMP JUMPDEST SWAP1 POP SWAP2 SWAP1 POP JUMP JUMPDEST PUSH2 0x9D9 DUP2 PUSH2 0x9BF JUMP JUMPDEST DUP3 MSTORE POP POP JUMP JUMPDEST PUSH0 PUSH1 0x20 DUP3 ADD SWAP1 POP PUSH2 0x9F2 PUSH0 DUP4 ADD DUP5 PUSH2 0x9D0 JUMP JUMPDEST SWAP3 SWAP2 POP POP JUMP JUMPDEST PUSH2 0xA01 DUP2 PUSH2 0x9BF JUMP JUMPDEST DUP2 EQ PUSH2 0xA0B JUMPI PUSH0 DUP1 REVERT JUMPDEST POP JUMP JUMPDEST PUSH0 DUP2 CALLDATALOAD SWAP1 POP PUSH2 0xA1C DUP2 PUSH2 0x9F8 JUMP JUMPDEST SWAP3 SWAP2 POP POP JUMP JUMPDEST PUSH0 DUP1 PUSH1 0x40 DUP4 DUP6 SUB SLT ISZERO PUSH2 0xA38 JUMPI PUSH2 0xA37 PUSH2 0x6BA JUMP JUMPDEST JUMPDEST PUSH0 PUSH2 0xA45 DUP6 DUP3 DUP7 ADD PUSH2 0x6E1 JUMP JUMPDEST SWAP3 POP POP PUSH1 0x20 PUSH2 0xA56 DUP6 DUP3 DUP7 ADD PUSH2 0xA0E JUMP JUMPDEST SWAP2 POP POP SWAP3 POP SWAP3 SWAP1 POP JUMP JUMPDEST PUSH0 DUP2 ISZERO ISZERO SWAP1 POP SWAP2 SWAP1 POP JUMP JUMPDEST PUSH2 0xA74 DUP2 PUSH2 0xA60 JUMP JUMPDEST DUP3 MSTORE POP POP JUMP JUMPDEST PUSH0 PUSH1 0x20 DUP3 ADD SWAP1 POP PUSH2 0xA8D PUSH0 DUP4 ADD DUP5 PUSH2 0xA6B JUMP JUMPDEST SWAP3 SWAP2 POP POP JUMP JUMPDEST PUSH0 DUP1 PUSH1 0x40 DUP4 DUP6 SUB SLT ISZERO PUSH2 0xAA9 JUMPI PUSH2 0xAA8 PUSH2 0x6BA JUMP JUMPDEST JUMPDEST PUSH0 PUSH2 0xAB6 DUP6 DUP3 DUP7 ADD PUSH2 0x6E1 JUMP JUMPDEST SWAP3 POP POP PUSH1 0x20 DUP4 ADD CALLDATALOAD PUSH8 0xFFFFFFFFFFFFFFFF DUP2 GT ISZERO PUSH2 0xAD7 JUMPI PUSH2 0xAD6 PUSH2 0x6BE JUMP JUMPDEST JUMPDEST PUSH2 0xAE3 DUP6 DUP3 DUP7 ADD PUSH2 0x919 JUMP JUMPDEST SWAP2 POP POP SWAP3 POP SWAP3 SWAP1 POP JUMP JUMPDEST PUSH0 PUSH1 0x20 DUP3 DUP5 SUB SLT ISZERO PUSH2 0xB02 JUMPI PUSH2 0xB01 PUSH2 0x6BA JUMP JUMPDEST JUMPDEST PUSH0 PUSH2 0xB0F DUP5 DUP3 DUP6 ADD PUSH2 0xA0E JUMP JUMPDEST SWAP2 POP POP SWAP3 SWAP2 POP POP JUMP JUMPDEST PUSH32 0x4E487B7100000000000000000000000000000000000000000000000000000000 PUSH0 MSTORE PUSH1 0x22 PUSH1 0x4 MSTORE PUSH1 0x24 PUSH0 REVERT JUMPDEST PUSH0 PUSH1 0x2 DUP3 DIV SWAP1 POP PUSH1 0x1 DUP3 AND DUP1 PUSH2 0xB5C JUMPI PUSH1 0x7F DUP3 AND SWAP2 POP JUMPDEST PUSH1 0x20 DUP3 LT DUP2 SUB PUSH2 0xB6F JUMPI PUSH2 0xB6E PUSH2 0xB18 JUMP JUMPDEST JUMPDEST POP SWAP2 SWAP1 POP JUMP JUMPDEST PUSH0 DUP2 SWAP1 POP DUP2 PUSH0 MSTORE PUSH1 0x20 PUSH0 KECCAK256 SWAP1 POP SWAP2 SWAP1 POP JUMP JUMPDEST PUSH0 PUSH1 0x20 PUSH1 0x1F DUP4 ADD DIV SWAP1 POP SWAP2 SWAP1 POP JUMP JUMPDEST PUSH0 DUP3 DUP3 SHL SWAP1 POP SWAP3 SWAP2 POP POP JUMP JUMPDEST PUSH0 PUSH1 0x8 DUP4 MUL PUSH2 0xBD1 PUSH32 0xFFFFFFFFFFFFFFFFFFFFFFFFFFFFFFFFFFFFFFFFFFFFFFFFFFFFFFFFFFFFFFFF DUP3 PUSH2 0xB96 JUMP JUMPDEST PUSH2 0xBDB DUP7 DUP4 PUSH2 0xB96 JUMP JUMPDEST SWAP6 POP DUP1 NOT DUP5 AND SWAP4 POP DUP1 DUP7 AND DUP5 OR SWAP3 POP POP POP SWAP4 SWAP3 POP POP POP JUMP JUMPDEST PUSH0 DUP2 SWAP1 POP SWAP2 SWAP1 POP JUMP JUMPDEST PUSH0 PUSH2 0xC16 PUSH2 0xC11 PUSH2 0xC0C DUP5 PUSH2 0x6C2 JUMP JUMPDEST PUSH2 0xBF3 JUMP JUMPDEST PUSH2 0x6C2 JUMP JUMPDEST SWAP1 POP SWAP2 SWAP1 POP JUMP JUMPDEST PUSH0 DUP2 SWAP1 POP SWAP2 SWAP1 POP JUMP JUMPDEST PUSH2 0xC2F DUP4 PUSH2 0xBFC JUMP JUMPDEST PUSH2 0xC43 PUSH2 0xC3B DUP3 PUSH2 0xC1D JUMP JUMPDEST DUP5 DUP5 SLOAD PUSH2 0xBA2 JUMP JUMPDEST DUP3 SSTORE POP POP POP POP JUMP JUMPDEST PUSH0 SWAP1 JUMP JUMPDEST PUSH2 0xC57 PUSH2 0xC4B JUMP JUMPDEST PUSH2 0xC62 DUP2 DUP5 DUP5 PUSH2 0xC26 JUMP JUMPDEST POP POP POP JUMP JUMPDEST JUMPDEST DUP2 DUP2 LT ISZERO PUSH2 0xC85 JUMPI PUSH2 0xC7A PUSH0 DUP3 PUSH2 0xC4F JUMP JUMPDEST PUSH1 0x1 DUP2 ADD SWAP1 POP PUSH2 0xC68 JUMP JUMPDEST POP POP JUMP JUMPDEST PUSH1 0x1F DUP3 GT ISZERO PUSH2 0xCCA JUMPI PUSH2 0xC9B DUP2 PUSH2 0xB75 JUMP JUMPDEST PUSH2 0xCA4 DUP5 PUSH2 0xB87 JUMP JUMPDEST DUP2 ADD PUSH1 0x20 DUP6 LT ISZERO PUSH2 0xCB3 JUMPI DUP2 SWAP1 POP JUMPDEST PUSH2 0xCC7 PUSH2 0xCBF DUP6 PUSH2 0xB87 JUMP JUMPDEST DUP4 ADD DUP3 PUSH2 0xC67 JUMP JUMPDEST POP POP JUMPDEST POP POP POP JUMP JUMPDEST PUSH0 DUP3 DUP3 SHR SWAP1 POP SWAP3 SWAP2 POP POP JUMP JUMPDEST PUSH0 PUSH2 0xCEA PUSH0 NOT DUP5 PUSH1 0x8 MUL PUSH2 0xCCF JUMP JUMPDEST NOT DUP1 DUP4 AND SWAP2 POP POP SWAP3 SWAP2 POP POP JUMP JUMPDEST PUSH0 PUSH2 0xD02 DUP4 DUP4 PUSH2 0xCDB JUMP JUMPDEST SWAP2 POP DUP3 PUSH1 0x2 MUL DUP3 OR SWAP1 POP SWAP3 SWAP2 POP POP JUMP JUMPDEST PUSH2 0xD1B DUP3 PUSH2 0x72F JUMP JUMPDEST PUSH8 0xFFFFFFFFFFFFFFFF DUP2 GT ISZERO PUSH2 0xD34 JUMPI PUSH2 0xD33 PUSH2 0x822 JUMP JUMPDEST JUMPDEST PUSH2 0xD3E DUP3 SLOAD PUSH2 0xB45 JUMP JUMPDEST PUSH2 0xD49 DUP3 DUP3 DUP6 PUSH2 0xC89 JUMP JUMPDEST PUSH0 PUSH1 0x20 SWAP1 POP PUSH1 0x1F DUP4 GT PUSH1 0x1 DUP2 EQ PUSH2 0xD7A JUMPI PUSH0 DUP5 ISZERO PUSH2 0xD68 JUMPI DUP3 DUP8 ADD MLOAD SWAP1 POP JUMPDEST PUSH2 0xD72 DUP6 DUP3 PUSH2 0xCF7 JUMP JUMPDEST DUP7 SSTORE POP PUSH2 0xDD9 JUMP JUMPDEST PUSH1 0x1F NOT DUP5 AND PUSH2 0xD88 DUP7 PUSH2 0xB75 JUMP JUMPDEST PUSH0 JUMPDEST DUP3 DUP2 LT ISZERO PUSH2 0xDAF JUMPI DUP5 DUP10 ADD MLOAD DUP3 SSTORE PUSH1 0x1 DUP3 ADD SWAP2 POP PUSH1 0x20 DUP6 ADD SWAP5 POP PUSH1 0x20 DUP2 ADD SWAP1 POP PUSH2 0xD8A JUMP JUMPDEST DUP7 DUP4 LT ISZERO PUSH2 0xDCC JUMPI DUP5 DUP10 ADD MLOAD PUSH2 0xDC8 PUSH1 0x1F DUP10 AND DUP3 PUSH2 0xCDB JUMP JUMPDEST DUP4 SSTORE POP JUMPDEST PUSH1 0x1 PUSH1 0x2 DUP9 MUL ADD DUP9 SSTORE POP POP POP JUMPDEST POP POP POP POP POP POP JUMP JUMPDEST PUSH32 0x4E487B7100000000000000000000000000000000000000000000000000000000 PUSH0 MSTORE PUSH1 0x11 PUSH1 0x4 MSTORE PUSH1 0x24 PUSH0 REVERT JUMPDEST PUSH0 PUSH2 0xE18 DUP3 PUSH2 0x6C2 JUMP JUMPDEST SWAP2 POP PUSH2 0xE23 DUP4 PUSH2 0x6C2 JUMP JUMPDEST SWAP3 POP DUP3 DUP3 SUB SWAP1 POP DUP2 DUP2 GT ISZERO PUSH2 0xE3B JUMPI PUSH2 0xE3A PUSH2 0xDE1 JUMP JUMPDEST JUMPDEST SWAP3 SWAP2 POP POP JUMP JUMPDEST PUSH0 PUSH1 0x60 DUP3 ADD SWAP1 POP PUSH2 0xE54 PUSH0 DUP4 ADD DUP7 PUSH2 0x720 JUMP JUMPDEST DUP2 DUP2 SUB PUSH1 0x20 DUP4 ADD MSTORE PUSH2 0xE66 DUP2 DUP6 PUSH2 0x767 JUMP JUMPDEST SWAP1 POP PUSH2 0xE75 PUSH1 0x40 DUP4 ADD DUP5 PUSH2 0x720 JUMP JUMPDEST SWAP5 SWAP4 POP POP POP POP JUMP JUMPDEST PUSH32 0x4E487B7100000000000000000000000000000000000000000000000000000000 PUSH0 MSTORE PUSH1 0x32 PUSH1 0x4 MSTORE PUSH1 0x24 PUSH0 REVERT JUMPDEST PUSH0 PUSH1 0x40 DUP3 ADD SWAP1 POP PUSH2 0xEBD PUSH0 DUP4 ADD DUP6 PUSH2 0x720 JUMP JUMPDEST DUP2 DUP2 SUB PUSH1 0x20 DUP4 ADD MSTORE PUSH2 0xECF DUP2 DUP5 PUSH2 0x767 JUMP JUMPDEST SWAP1 POP SWAP4 SWAP3 POP POP POP JUMP INVALID LOG2 PUSH5 0x6970667358 0x22 SLT KECCAK256 PUSH24 0xC1F4905C5120D2E076FAC55B808CC98DAB9A5F275E2A720C 0xE4 PUSH13 0x9DECC2EBD964736F6C63430008 BYTE STOP CALLER "
				},
				"gasEstimates": {
					"creation": {
						"codeDepositCost": "770800",
						"executionCost": "infinite",
						"totalCost": "infinite"
					},
					"external": {
						"createProposal(string,uint256)": "infinite",
						"owner()": "2515",
						"proposals(uint256)": "infinite",
						"renounceOwnership()": "infinite",
						"transferOwnership(address)": "infinite",
						"updateProposalStatus(uint256,string)": "infinite",
						"votes(uint256,address)": "3093"
					}
				},
				"methodIdentifiers": {
					"createProposal(string,uint256)": "35facf78",
					"owner()": "8da5cb5b",
					"proposals(uint256)": "013cf08b",
					"renounceOwnership()": "715018a6",
					"transferOwnership(address)": "f2fde38b",
					"updateProposalStatus(uint256,string)": "d7c561fd",
					"votes(uint256,address)": "d23254b4"
				}
			},
			"storageLayout": {
				"storage": [
					{
						"astId": 8,
						"contract": "contracts/ProposalManager.sol:ProposalManager",
						"label": "_owner",
						"offset": 0,
						"slot": "0",
						"type": "t_address"
					},
					{
						"astId": 209,
						"contract": "contracts/ProposalManager.sol:ProposalManager",
						"label": "proposals",
						"offset": 0,
						"slot": "1",
						"type": "t_array(t_struct(Proposal)205_storage)dyn_storage"
					},
					{
						"astId": 215,
						"contract": "contracts/ProposalManager.sol:ProposalManager",
						"label": "votes",
						"offset": 0,
						"slot": "2",
						"type": "t_mapping(t_uint256,t_mapping(t_address,t_bool))"
					}
				],
				"types": {
					"t_address": {
						"encoding": "inplace",
						"label": "address",
						"numberOfBytes": "20"
					},
					"t_array(t_struct(Proposal)205_storage)dyn_storage": {
						"base": "t_struct(Proposal)205_storage",
						"encoding": "dynamic_array",
						"label": "struct ProposalManager.Proposal[]",
						"numberOfBytes": "32"
					},
					"t_bool": {
						"encoding": "inplace",
						"label": "bool",
						"numberOfBytes": "1"
					},
					"t_mapping(t_address,t_bool)": {
						"encoding": "mapping",
						"key": "t_address",
						"label": "mapping(address => bool)",
						"numberOfBytes": "32",
						"value": "t_bool"
					},
					"t_mapping(t_uint256,t_mapping(t_address,t_bool))": {
						"encoding": "mapping",
						"key": "t_uint256",
						"label": "mapping(uint256 => mapping(address => bool))",
						"numberOfBytes": "32",
						"value": "t_mapping(t_address,t_bool)"
					},
					"t_string_storage": {
						"encoding": "bytes",
						"label": "string",
						"numberOfBytes": "32"
					},
					"t_struct(Proposal)205_storage": {
						"encoding": "inplace",
						"label": "struct ProposalManager.Proposal",
						"members": [
							{
								"astId": 192,
								"contract": "contracts/ProposalManager.sol:ProposalManager",
								"label": "id",
								"offset": 0,
								"slot": "0",
								"type": "t_uint256"
							},
							{
								"astId": 194,
								"contract": "contracts/ProposalManager.sol:ProposalManager",
								"label": "title",
								"offset": 0,
								"slot": "1",
								"type": "t_string_storage"
							},
							{
								"astId": 196,
								"contract": "contracts/ProposalManager.sol:ProposalManager",
								"label": "fundsRequested",
								"offset": 0,
								"slot": "2",
								"type": "t_uint256"
							},
							{
								"astId": 198,
								"contract": "contracts/ProposalManager.sol:ProposalManager",
								"label": "status",
								"offset": 0,
								"slot": "3",
								"type": "t_string_storage"
							},
							{
								"astId": 200,
								"contract": "contracts/ProposalManager.sol:ProposalManager",
								"label": "votesFor",
								"offset": 0,
								"slot": "4",
								"type": "t_uint256"
							},
							{
								"astId": 202,
								"contract": "contracts/ProposalManager.sol:ProposalManager",
								"label": "votesAgainst",
								"offset": 0,
								"slot": "5",
								"type": "t_uint256"
							},
							{
								"astId": 204,
								"contract": "contracts/ProposalManager.sol:ProposalManager",
								"label": "allocatedAmount",
								"offset": 0,
								"slot": "6",
								"type": "t_uint256"
							}
						],
						"numberOfBytes": "224"
					},
					"t_uint256": {
						"encoding": "inplace",
						"label": "uint256",
						"numberOfBytes": "32"
					}
				}
			},
			"userdoc": {
				"kind": "user",
				"methods": {},
				"version": 1
			}
		}
	}
}