{
	"contracts/VotingSystem.sol": {
		"VotingSystem": {
			"abi": [
				{
					"inputs": [
						{
							"internalType": "address",
							"name": "owner",
							"type": "address"
						}
					],
					"name": "OwnableInvalidOwner",
					"type": "error"
				},
				{
					"inputs": [
						{
							"internalType": "address",
							"name": "account",
							"type": "address"
						}
					],
					"name": "OwnableUnauthorizedAccount",
					"type": "error"
				},
				{
					"anonymous": false,
					"inputs": [
						{
							"indexed": true,
							"internalType": "address",
							"name": "previousOwner",
							"type": "address"
						},
						{
							"indexed": true,
							"internalType": "address",
							"name": "newOwner",
							"type": "address"
						}
					],
					"name": "OwnershipTransferred",
					"type": "event"
				},
				{
					"anonymous": false,
					"inputs": [
						{
							"indexed": false,
							"internalType": "uint256",
							"name": "id",
							"type": "uint256"
						},
						{
							"indexed": false,
							"internalType": "string",
							"name": "title",
							"type": "string"
						},
						{
							"indexed": false,
							"internalType": "uint256",
							"name": "fundsRequested",
							"type": "uint256"
						}
					],
					"name": "ProposalCreated",
					"type": "event"
				},
				{
					"anonymous": false,
					"inputs": [
						{
							"indexed": false,
							"internalType": "uint256",
							"name": "id",
							"type": "uint256"
						},
						{
							"indexed": false,
							"internalType": "string",
							"name": "status",
							"type": "string"
						}
					],
					"name": "ProposalUpdated",
					"type": "event"
				},
				{
					"anonymous": false,
					"inputs": [
						{
							"indexed": false,
							"internalType": "address",
							"name": "voter",
							"type": "address"
						},
						{
							"indexed": false,
							"internalType": "uint256",
							"name": "proposalId",
							"type": "uint256"
						},
						{
							"indexed": false,
							"internalType": "bool",
							"name": "support",
							"type": "bool"
						}
					],
					"name": "VoteCast",
					"type": "event"
				},
				{
					"inputs": [
						{
							"internalType": "string",
							"name": "title",
							"type": "string"
						},
						{
							"internalType": "uint256",
							"name": "fundsRequested",
							"type": "uint256"
						}
					],
					"name": "createProposal",
					"outputs": [],
					"stateMutability": "nonpayable",
					"type": "function"
				},
				{
					"inputs": [
						{
							"internalType": "address",
							"name": "voter",
							"type": "address"
						},
						{
							"internalType": "uint256",
							"name": "proposalId",
							"type": "uint256"
						}
					],
					"name": "hasVoted",
					"outputs": [
						{
							"internalType": "bool",
							"name": "",
							"type": "bool"
						}
					],
					"stateMutability": "view",
					"type": "function"
				},
				{
					"inputs": [],
					"name": "owner",
					"outputs": [
						{
							"internalType": "address",
							"name": "",
							"type": "address"
						}
					],
					"stateMutability": "view",
					"type": "function"
				},
				{
					"inputs": [
						{
							"internalType": "uint256",
							"name": "",
							"type": "uint256"
						}
					],
					"name": "proposals",
					"outputs": [
						{
							"internalType": "uint256",
							"name": "id",
							"type": "uint256"
						},
						{
							"internalType": "string",
							"name": "title",
							"type": "string"
						},
						{
							"internalType": "uint256",
							"name": "fundsRequested",
							"type": "uint256"
						},
						{
							"internalType": "string",
							"name": "status",
							"type": "string"
						},
						{
							"internalType": "uint256",
							"name": "votesFor",
							"type": "uint256"
						},
						{
							"internalType": "uint256",
							"name": "votesAgainst",
							"type": "uint256"
						},
						{
							"internalType": "uint256",
							"name": "allocatedAmount",
							"type": "uint256"
						}
					],
					"stateMutability": "view",
					"type": "function"
				},
				{
					"inputs": [],
					"name": "renounceOwnership",
					"outputs": [],
					"stateMutability": "nonpayable",
					"type": "function"
				},
				{
					"inputs": [
						{
							"internalType": "address",
							"name": "newOwner",
							"type": "address"
						}
					],
					"name": "transferOwnership",
					"outputs": [],
					"stateMutability": "nonpayable",
					"type": "function"
				},
				{
					"inputs": [
						{
							"internalType": "uint256",
							"name": "proposalId",
							"type": "uint256"
						},
						{
							"internalType": "string",
							"name": "status",
							"type": "string"
						}
					],
					"name": "updateProposalStatus",
					"outputs": [],
					"stateMutability": "nonpayable",
					"type": "function"
				},
				{
					"inputs": [
						{
							"internalType": "uint256",
							"name": "proposalId",
							"type": "uint256"
						},
						{
							"internalType": "bool",
							"name": "support",
							"type": "bool"
						}
					],
					"name": "vote",
					"outputs": [],
					"stateMutability": "nonpayable",
					"type": "function"
				},
				{
					"inputs": [
						{
							"internalType": "uint256",
							"name": "",
							"type": "uint256"
						},
						{
							"internalType": "uint256",
							"name": "",
							"type": "uint256"
						}
					],
					"name": "voters",
					"outputs": [
						{
							"internalType": "address",
							"name": "",
							"type": "address"
						}
					],
					"stateMutability": "view",
					"type": "function"
				}
			],
			"devdoc": {
				"errors": {
					"OwnableInvalidOwner(address)": [
						{
							"details": "The owner is not a valid owner account. (eg. `address(0)`)"
						}
					],
					"OwnableUnauthorizedAccount(address)": [
						{
							"details": "The caller account is not authorized to perform an operation."
						}
					]
				},
				"kind": "dev",
				"methods": {
					"owner()": {
						"details": "Returns the address of the current owner."
					},
					"renounceOwnership()": {
						"details": "Leaves the contract without owner. It will not be possible to call `onlyOwner` functions. Can only be called by the current owner. NOTE: Renouncing ownership will leave the contract without an owner, thereby disabling any functionality that is only available to the owner."
					},
					"transferOwnership(address)": {
						"details": "Transfers ownership of the contract to a new account (`newOwner`). Can only be called by the current owner."
					}
				},
				"version": 1
			},
			"evm": {
				"assembly": "    /* \"contracts/VotingSystem.sol\":1599:2988  contract VotingSystem is ProposalManager {... */\n  mstore(0x40, 0x80)\n  callvalue\n  dup1\n  iszero\n  tag_1\n  jumpi\n  0x00\n  dup1\n  revert\ntag_1:\n  pop\n    /* \"contracts/VotingSystem.sol\":734:744  msg.sender */\n  caller\n    /* \"@openzeppelin/contracts/access/Ownable.sol\":1297:1298  0 */\n  0x00\n    /* \"@openzeppelin/contracts/access/Ownable.sol\":1273:1299  initialOwner == address(0) */\n  0xffffffffffffffffffffffffffffffffffffffff\n  and\n    /* \"@openzeppelin/contracts/access/Ownable.sol\":1273:1285  initialOwner */\n  dup2\n    /* \"@openzeppelin/contracts/access/Ownable.sol\":1273:1299  initialOwner == address(0) */\n  0xffffffffffffffffffffffffffffffffffffffff\n  and\n  sub\n    /* \"@openzeppelin/contracts/access/Ownable.sol\":1269:1364  if (initialOwner == address(0)) {... */\n  tag_5\n  jumpi\n    /* \"@openzeppelin/contracts/access/Ownable.sol\":1350:1351  0 */\n  0x00\n    /* \"@openzeppelin/contracts/access/Ownable.sol\":1322:1353  OwnableInvalidOwner(address(0)) */\n  mload(0x40)\n  0x1e4fbdf700000000000000000000000000000000000000000000000000000000\n  dup2\n  mstore\n  0x04\n  add\n  tag_6\n  swap2\n  swap1\n  tag_7\n  jump\t// in\ntag_6:\n  mload(0x40)\n  dup1\n  swap2\n  sub\n  swap1\n  revert\n    /* \"@openzeppelin/contracts/access/Ownable.sol\":1269:1364  if (initialOwner == address(0)) {... */\ntag_5:\n    /* \"@openzeppelin/contracts/access/Ownable.sol\":1373:1405  _transferOwnership(initialOwner) */\n  tag_8\n    /* \"@openzeppelin/contracts/access/Ownable.sol\":1392:1404  initialOwner */\n  dup2\n    /* \"@openzeppelin/contracts/access/Ownable.sol\":1373:1391  _transferOwnership */\n  shl(0x20, tag_9)\n    /* \"@openzeppelin/contracts/access/Ownable.sol\":1373:1405  _transferOwnership(initialOwner) */\n  0x20\n  shr\n  jump\t// in\ntag_8:\n    /* \"@openzeppelin/contracts/access/Ownable.sol\":1225:1412  constructor(address initialOwner) {... */\n  pop\n    /* \"contracts/VotingSystem.sol\":1599:2988  contract VotingSystem is ProposalManager {... */\n  jump(tag_11)\n    /* \"@openzeppelin/contracts/access/Ownable.sol\":2912:3099  function _transferOwnership(address newOwner) internal virtual {... */\ntag_9:\n    /* \"@openzeppelin/contracts/access/Ownable.sol\":2985:3001  address oldOwner */\n  0x00\n    /* \"@openzeppelin/contracts/access/Ownable.sol\":3004:3010  _owner */\n  dup1\n  0x00\n  swap1\n  sload\n  swap1\n  0x0100\n  exp\n  swap1\n  div\n  0xffffffffffffffffffffffffffffffffffffffff\n  and\n    /* \"@openzeppelin/contracts/access/Ownable.sol\":2985:3010  address oldOwner = _owner */\n  swap1\n  pop\n    /* \"@openzeppelin/contracts/access/Ownable.sol\":3029:3037  newOwner */\n  dup2\n    /* \"@openzeppelin/contracts/access/Ownable.sol\":3020:3026  _owner */\n  0x00\n  dup1\n    /* \"@openzeppelin/contracts/access/Ownable.sol\":3020:3037  _owner = newOwner */\n  0x0100\n  exp\n  dup2\n  sload\n  dup2\n  0xffffffffffffffffffffffffffffffffffffffff\n  mul\n  not\n  and\n  swap1\n  dup4\n  0xffffffffffffffffffffffffffffffffffffffff\n  and\n  mul\n  or\n  swap1\n  sstore\n  pop\n    /* \"@openzeppelin/contracts/access/Ownable.sol\":3083:3091  newOwner */\n  dup2\n    /* \"@openzeppelin/contracts/access/Ownable.sol\":3052:3092  OwnershipTransferred(oldOwner, newOwner) */\n  0xffffffffffffffffffffffffffffffffffffffff\n  and\n    /* \"@openzeppelin/contracts/access/Ownable.sol\":3073:3081  oldOwner */\n  dup2\n    /* \"@openzeppelin/contracts/access/Ownable.sol\":3052:3092  OwnershipTransferred(oldOwner, newOwner) */\n  0xffffffffffffffffffffffffffffffffffffffff\n  and\n  0x8be0079c531659141344cd1fd0a4f28419497f9722a3daafe3b4186f6b6457e0\n  mload(0x40)\n  mload(0x40)\n  dup1\n  swap2\n  sub\n  swap1\n  log3\n    /* \"@openzeppelin/contracts/access/Ownable.sol\":2975:3099  {... */\n  pop\n    /* \"@openzeppelin/contracts/access/Ownable.sol\":2912:3099  function _transferOwnership(address newOwner) internal virtual {... */\n  pop\n  jump\t// out\n    /* \"#utility.yul\":7:133   */\ntag_13:\n    /* \"#utility.yul\":44:51   */\n  0x00\n    /* \"#utility.yul\":84:126   */\n  0xffffffffffffffffffffffffffffffffffffffff\n    /* \"#utility.yul\":77:82   */\n  dup3\n    /* \"#utility.yul\":73:127   */\n  and\n    /* \"#utility.yul\":62:127   */\n  swap1\n  pop\n    /* \"#utility.yul\":7:133   */\n  swap2\n  swap1\n  pop\n  jump\t// out\n    /* \"#utility.yul\":139:235   */\ntag_14:\n    /* \"#utility.yul\":176:183   */\n  0x00\n    /* \"#utility.yul\":205:229   */\n  tag_19\n    /* \"#utility.yul\":223:228   */\n  dup3\n    /* \"#utility.yul\":205:229   */\n  tag_13\n  jump\t// in\ntag_19:\n    /* \"#utility.yul\":194:229   */\n  swap1\n  pop\n    /* \"#utility.yul\":139:235   */\n  swap2\n  swap1\n  pop\n  jump\t// out\n    /* \"#utility.yul\":241:359   */\ntag_15:\n    /* \"#utility.yul\":328:352   */\n  tag_21\n    /* \"#utility.yul\":346:351   */\n  dup2\n    /* \"#utility.yul\":328:352   */\n  tag_14\n  jump\t// in\ntag_21:\n    /* \"#utility.yul\":323:326   */\n  dup3\n    /* \"#utility.yul\":316:353   */\n  mstore\n    /* \"#utility.yul\":241:359   */\n  pop\n  pop\n  jump\t// out\n    /* \"#utility.yul\":365:587   */\ntag_7:\n    /* \"#utility.yul\":458:462   */\n  0x00\n    /* \"#utility.yul\":496:498   */\n  0x20\n    /* \"#utility.yul\":485:494   */\n  dup3\n    /* \"#utility.yul\":481:499   */\n  add\n    /* \"#utility.yul\":473:499   */\n  swap1\n  pop\n    /* \"#utility.yul\":509:580   */\n  tag_23\n    /* \"#utility.yul\":577:578   */\n  0x00\n    /* \"#utility.yul\":566:575   */\n  dup4\n    /* \"#utility.yul\":562:579   */\n  add\n    /* \"#utility.yul\":553:559   */\n  dup5\n    /* \"#utility.yul\":509:580   */\n  tag_15\n  jump\t// in\ntag_23:\n    /* \"#utility.yul\":365:587   */\n  swap3\n  swap2\n  pop\n  pop\n  jump\t// out\n    /* \"contracts/VotingSystem.sol\":1599:2988  contract VotingSystem is ProposalManager {... */\ntag_11:\n  dataSize(sub_0)\n  dup1\n  dataOffset(sub_0)\n  0x00\n  codecopy\n  0x00\n  return\nstop\n\nsub_0: assembly {\n        /* \"contracts/VotingSystem.sol\":1599:2988  contract VotingSystem is ProposalManager {... */\n      mstore(0x40, 0x80)\n      callvalue\n      dup1\n      iszero\n      tag_1\n      jumpi\n      0x00\n      dup1\n      revert\n    tag_1:\n      pop\n      jumpi(tag_2, lt(calldatasize, 0x04))\n      shr(0xe0, calldataload(0x00))\n      dup1\n      0x8da5cb5b\n      gt\n      tag_12\n      jumpi\n      dup1\n      0x8da5cb5b\n      eq\n      tag_7\n      jumpi\n      dup1\n      0xc9d27afe\n      eq\n      tag_8\n      jumpi\n      dup1\n      0xd7c561fd\n      eq\n      tag_9\n      jumpi\n      dup1\n      0xf2fde38b\n      eq\n      tag_10\n      jumpi\n      dup1\n      0xfba00cbd\n      eq\n      tag_11\n      jumpi\n      jump(tag_2)\n    tag_12:\n      dup1\n      0x013cf08b\n      eq\n      tag_3\n      jumpi\n      dup1\n      0x35facf78\n      eq\n      tag_4\n      jumpi\n      dup1\n      0x42545825\n      eq\n      tag_5\n      jumpi\n      dup1\n      0x715018a6\n      eq\n      tag_6\n      jumpi\n    tag_2:\n      0x00\n      dup1\n      revert\n        /* \"contracts/VotingSystem.sol\":489:516  Proposal[] public proposals */\n    tag_3:\n      tag_13\n      0x04\n      dup1\n      calldatasize\n      sub\n      dup2\n      add\n      swap1\n      tag_14\n      swap2\n      swap1\n      tag_15\n      jump\t// in\n    tag_14:\n      tag_16\n      jump\t// in\n    tag_13:\n      mload(0x40)\n      tag_17\n      swap8\n      swap7\n      swap6\n      swap5\n      swap4\n      swap3\n      swap2\n      swap1\n      tag_18\n      jump\t// in\n    tag_17:\n      mload(0x40)\n      dup1\n      swap2\n      sub\n      swap1\n      return\n        /* \"contracts/VotingSystem.sol\":811:1248  function createProposal(string memory title, uint256 fundsRequested) external onlyOwner {... */\n    tag_4:\n      tag_19\n      0x04\n      dup1\n      calldatasize\n      sub\n      dup2\n      add\n      swap1\n      tag_20\n      swap2\n      swap1\n      tag_21\n      jump\t// in\n    tag_20:\n      tag_22\n      jump\t// in\n    tag_19:\n      stop\n        /* \"contracts/VotingSystem.sol\":2641:2986  function hasVoted(address voter, uint256 proposalId) public view returns (bool) {... */\n    tag_5:\n      tag_23\n      0x04\n      dup1\n      calldatasize\n      sub\n      dup2\n      add\n      swap1\n      tag_24\n      swap2\n      swap1\n      tag_25\n      jump\t// in\n    tag_24:\n      tag_26\n      jump\t// in\n    tag_23:\n      mload(0x40)\n      tag_27\n      swap2\n      swap1\n      tag_28\n      jump\t// in\n    tag_27:\n      mload(0x40)\n      dup1\n      swap2\n      sub\n      swap1\n      return\n        /* \"@openzeppelin/contracts/access/Ownable.sol\":2293:2394  function renounceOwnership() public virtual onlyOwner {... */\n    tag_6:\n      tag_29\n      tag_30\n      jump\t// in\n    tag_29:\n      stop\n        /* \"@openzeppelin/contracts/access/Ownable.sol\":1638:1723  function owner() public view virtual returns (address) {... */\n    tag_7:\n      tag_31\n      tag_32\n      jump\t// in\n    tag_31:\n      mload(0x40)\n      tag_33\n      swap2\n      swap1\n      tag_34\n      jump\t// in\n    tag_33:\n      mload(0x40)\n      dup1\n      swap2\n      sub\n      swap1\n      return\n        /* \"contracts/VotingSystem.sol\":2148:2568  function vote(uint256 proposalId, bool support) external {... */\n    tag_8:\n      tag_35\n      0x04\n      dup1\n      calldatasize\n      sub\n      dup2\n      add\n      swap1\n      tag_36\n      swap2\n      swap1\n      tag_37\n      jump\t// in\n    tag_36:\n      tag_38\n      jump\t// in\n    tag_35:\n      stop\n        /* \"contracts/VotingSystem.sol\":1330:1595  function updateProposalStatus(uint256 proposalId, string memory status) external onlyOwner {... */\n    tag_9:\n      tag_39\n      0x04\n      dup1\n      calldatasize\n      sub\n      dup2\n      add\n      swap1\n      tag_40\n      swap2\n      swap1\n      tag_41\n      jump\t// in\n    tag_40:\n      tag_42\n      jump\t// in\n    tag_39:\n      stop\n        /* \"@openzeppelin/contracts/access/Ownable.sol\":2543:2758  function transferOwnership(address newOwner) public virtual onlyOwner {... */\n    tag_10:\n      tag_43\n      0x04\n      dup1\n      calldatasize\n      sub\n      dup2\n      add\n      swap1\n      tag_44\n      swap2\n      swap1\n      tag_45\n      jump\t// in\n    tag_44:\n      tag_46\n      jump\t// in\n    tag_43:\n      stop\n        /* \"contracts/VotingSystem.sol\":1805:1848  mapping(uint256 => address[]) public voters */\n    tag_11:\n      tag_47\n      0x04\n      dup1\n      calldatasize\n      sub\n      dup2\n      add\n      swap1\n      tag_48\n      swap2\n      swap1\n      tag_49\n      jump\t// in\n    tag_48:\n      tag_50\n      jump\t// in\n    tag_47:\n      mload(0x40)\n      tag_51\n      swap2\n      swap1\n      tag_34\n      jump\t// in\n    tag_51:\n      mload(0x40)\n      dup1\n      swap2\n      sub\n      swap1\n      return\n        /* \"contracts/VotingSystem.sol\":489:516  Proposal[] public proposals */\n    tag_16:\n      0x01\n      dup2\n      dup2\n      sload\n      dup2\n      lt\n      tag_52\n      jumpi\n      0x00\n      dup1\n      revert\n    tag_52:\n      swap1\n      0x00\n      mstore\n      keccak256(0x00, 0x20)\n      swap1\n      0x07\n      mul\n      add\n      0x00\n      swap2\n      pop\n      swap1\n      pop\n      dup1\n      0x00\n      add\n      sload\n      swap1\n      dup1\n      0x01\n      add\n      dup1\n      sload\n      tag_54\n      swap1\n      tag_55\n      jump\t// in\n    tag_54:\n      dup1\n      0x1f\n      add\n      0x20\n      dup1\n      swap2\n      div\n      mul\n      0x20\n      add\n      mload(0x40)\n      swap1\n      dup2\n      add\n      0x40\n      mstore\n      dup1\n      swap3\n      swap2\n      swap1\n      dup2\n      dup2\n      mstore\n      0x20\n      add\n      dup3\n      dup1\n      sload\n      tag_56\n      swap1\n      tag_55\n      jump\t// in\n    tag_56:\n      dup1\n      iszero\n      tag_57\n      jumpi\n      dup1\n      0x1f\n      lt\n      tag_58\n      jumpi\n      0x0100\n      dup1\n      dup4\n      sload\n      div\n      mul\n      dup4\n      mstore\n      swap2\n      0x20\n      add\n      swap2\n      jump(tag_57)\n    tag_58:\n      dup3\n      add\n      swap2\n      swap1\n      0x00\n      mstore\n      keccak256(0x00, 0x20)\n      swap1\n    tag_59:\n      dup2\n      sload\n      dup2\n      mstore\n      swap1\n      0x01\n      add\n      swap1\n      0x20\n      add\n      dup1\n      dup4\n      gt\n      tag_59\n      jumpi\n      dup3\n      swap1\n      sub\n      0x1f\n      and\n      dup3\n      add\n      swap2\n    tag_57:\n      pop\n      pop\n      pop\n      pop\n      pop\n      swap1\n      dup1\n      0x02\n      add\n      sload\n      swap1\n      dup1\n      0x03\n      add\n      dup1\n      sload\n      tag_60\n      swap1\n      tag_55\n      jump\t// in\n    tag_60:\n      dup1\n      0x1f\n      add\n      0x20\n      dup1\n      swap2\n      div\n      mul\n      0x20\n      add\n      mload(0x40)\n      swap1\n      dup2\n      add\n      0x40\n      mstore\n      dup1\n      swap3\n      swap2\n      swap1\n      dup2\n      dup2\n      mstore\n      0x20\n      add\n      dup3\n      dup1\n      sload\n      tag_61\n      swap1\n      tag_55\n      jump\t// in\n    tag_61:\n      dup1\n      iszero\n      tag_62\n      jumpi\n      dup1\n      0x1f\n      lt\n      tag_63\n      jumpi\n      0x0100\n      dup1\n      dup4\n      sload\n      div\n      mul\n      dup4\n      mstore\n      swap2\n      0x20\n      add\n      swap2\n      jump(tag_62)\n    tag_63:\n      dup3\n      add\n      swap2\n      swap1\n      0x00\n      mstore\n      keccak256(0x00, 0x20)\n      swap1\n    tag_64:\n      dup2\n      sload\n      dup2\n      mstore\n      swap1\n      0x01\n      add\n      swap1\n      0x20\n      add\n      dup1\n      dup4\n      gt\n      tag_64\n      jumpi\n      dup3\n      swap1\n      sub\n      0x1f\n      and\n      dup3\n      add\n      swap2\n    tag_62:\n      pop\n      pop\n      pop\n      pop\n      pop\n      swap1\n      dup1\n      0x04\n      add\n      sload\n      swap1\n      dup1\n      0x05\n      add\n      sload\n      swap1\n      dup1\n      0x06\n      add\n      sload\n      swap1\n      pop\n      dup8\n      jump\t// out\n        /* \"contracts/VotingSystem.sol\":811:1248  function createProposal(string memory title, uint256 fundsRequested) external onlyOwner {... */\n    tag_22:\n        /* \"@openzeppelin/contracts/access/Ownable.sol\":1531:1544  _checkOwner() */\n      tag_66\n        /* \"@openzeppelin/contracts/access/Ownable.sol\":1531:1542  _checkOwner */\n      tag_67\n        /* \"@openzeppelin/contracts/access/Ownable.sol\":1531:1544  _checkOwner() */\n      jump\t// in\n    tag_66:\n        /* \"contracts/VotingSystem.sol\":909:918  proposals */\n      0x01\n        /* \"contracts/VotingSystem.sol\":924:1165  Proposal({... */\n      mload(0x40)\n      dup1\n      0xe0\n      add\n      0x40\n      mstore\n      dup1\n        /* \"contracts/VotingSystem.sol\":951:960  proposals */\n      0x01\n        /* \"contracts/VotingSystem.sol\":951:967  proposals.length */\n      dup1\n      sload\n      swap1\n      pop\n        /* \"contracts/VotingSystem.sol\":924:1165  Proposal({... */\n      dup2\n      mstore\n      0x20\n      add\n        /* \"contracts/VotingSystem.sol\":988:993  title */\n      dup5\n        /* \"contracts/VotingSystem.sol\":924:1165  Proposal({... */\n      dup2\n      mstore\n      0x20\n      add\n        /* \"contracts/VotingSystem.sol\":1023:1037  fundsRequested */\n      dup4\n        /* \"contracts/VotingSystem.sol\":924:1165  Proposal({... */\n      dup2\n      mstore\n      0x20\n      add\n      mload(0x40)\n      dup1\n      0x40\n      add\n      0x40\n      mstore\n      dup1\n      0x07\n      dup2\n      mstore\n      0x20\n      add\n      0x50656e64696e6700000000000000000000000000000000000000000000000000\n      dup2\n      mstore\n      pop\n      dup2\n      mstore\n      0x20\n      add\n        /* \"contracts/VotingSystem.sol\":1092:1093  0 */\n      0x00\n        /* \"contracts/VotingSystem.sol\":924:1165  Proposal({... */\n      dup2\n      mstore\n      0x20\n      add\n        /* \"contracts/VotingSystem.sol\":1121:1122  0 */\n      0x00\n        /* \"contracts/VotingSystem.sol\":924:1165  Proposal({... */\n      dup2\n      mstore\n      0x20\n      add\n        /* \"contracts/VotingSystem.sol\":1153:1154  0 */\n      0x00\n        /* \"contracts/VotingSystem.sol\":924:1165  Proposal({... */\n      dup2\n      mstore\n      pop\n        /* \"contracts/VotingSystem.sol\":909:1166  proposals.push(Proposal({... */\n      swap1\n      dup1\n      0x01\n      dup2\n      sload\n      add\n      dup1\n      dup3\n      sstore\n      dup1\n      swap2\n      pop\n      pop\n      0x01\n      swap1\n      sub\n      swap1\n      0x00\n      mstore\n      keccak256(0x00, 0x20)\n      swap1\n      0x07\n      mul\n      add\n      0x00\n      swap1\n      swap2\n      swap1\n      swap2\n      swap1\n      swap2\n      pop\n      0x00\n      dup3\n      add\n      mload\n      dup2\n      0x00\n      add\n      sstore\n      0x20\n      dup3\n      add\n      mload\n      dup2\n      0x01\n      add\n      swap1\n      dup2\n      tag_70\n      swap2\n      swap1\n      tag_71\n      jump\t// in\n    tag_70:\n      pop\n      0x40\n      dup3\n      add\n      mload\n      dup2\n      0x02\n      add\n      sstore\n      0x60\n      dup3\n      add\n      mload\n      dup2\n      0x03\n      add\n      swap1\n      dup2\n      tag_72\n      swap2\n      swap1\n      tag_71\n      jump\t// in\n    tag_72:\n      pop\n      0x80\n      dup3\n      add\n      mload\n      dup2\n      0x04\n      add\n      sstore\n      0xa0\n      dup3\n      add\n      mload\n      dup2\n      0x05\n      add\n      sstore\n      0xc0\n      dup3\n      add\n      mload\n      dup2\n      0x06\n      add\n      sstore\n      pop\n      pop\n        /* \"contracts/VotingSystem.sol\":1181:1241  ProposalCreated(proposals.length - 1, title, fundsRequested) */\n      0xf5dc0da9afa6d080780a49fd8c680f03d2ddf3c067cd6d0c85360c096644d2d3\n        /* \"contracts/VotingSystem.sol\":1216:1217  1 */\n      0x01\n        /* \"contracts/VotingSystem.sol\":1197:1206  proposals */\n      dup1\n        /* \"contracts/VotingSystem.sol\":1197:1213  proposals.length */\n      dup1\n      sload\n      swap1\n      pop\n        /* \"contracts/VotingSystem.sol\":1197:1217  proposals.length - 1 */\n      tag_73\n      swap2\n      swap1\n      tag_74\n      jump\t// in\n    tag_73:\n        /* \"contracts/VotingSystem.sol\":1219:1224  title */\n      dup4\n        /* \"contracts/VotingSystem.sol\":1226:1240  fundsRequested */\n      dup4\n        /* \"contracts/VotingSystem.sol\":1181:1241  ProposalCreated(proposals.length - 1, title, fundsRequested) */\n      mload(0x40)\n      tag_75\n      swap4\n      swap3\n      swap2\n      swap1\n      tag_76\n      jump\t// in\n    tag_75:\n      mload(0x40)\n      dup1\n      swap2\n      sub\n      swap1\n      log1\n        /* \"contracts/VotingSystem.sol\":811:1248  function createProposal(string memory title, uint256 fundsRequested) external onlyOwner {... */\n      pop\n      pop\n      jump\t// out\n        /* \"contracts/VotingSystem.sol\":2641:2986  function hasVoted(address voter, uint256 proposalId) public view returns (bool) {... */\n    tag_26:\n        /* \"contracts/VotingSystem.sol\":2715:2719  bool */\n      0x00\n        /* \"contracts/VotingSystem.sol\":2752:2761  proposals */\n      0x01\n        /* \"contracts/VotingSystem.sol\":2752:2768  proposals.length */\n      dup1\n      sload\n      swap1\n      pop\n        /* \"contracts/VotingSystem.sol\":2739:2749  proposalId */\n      dup3\n        /* \"contracts/VotingSystem.sol\":2739:2768  proposalId < proposals.length */\n      lt\n        /* \"contracts/VotingSystem.sol\":2731:2791  require(proposalId < proposals.length, \"Invalid proposalId\") */\n      tag_78\n      jumpi\n      mload(0x40)\n      0x08c379a000000000000000000000000000000000000000000000000000000000\n      dup2\n      mstore\n      0x04\n      add\n      tag_79\n      swap1\n      tag_80\n      jump\t// in\n    tag_79:\n      mload(0x40)\n      dup1\n      swap2\n      sub\n      swap1\n      revert\n    tag_78:\n        /* \"contracts/VotingSystem.sol\":2806:2812  uint i */\n      0x00\n        /* \"contracts/VotingSystem.sol\":2801:2958  for (uint i = 0; i < voters[proposalId].length; i++) {... */\n    tag_81:\n        /* \"contracts/VotingSystem.sol\":2822:2828  voters */\n      0x02\n        /* \"contracts/VotingSystem.sol\":2822:2840  voters[proposalId] */\n      0x00\n        /* \"contracts/VotingSystem.sol\":2829:2839  proposalId */\n      dup5\n        /* \"contracts/VotingSystem.sol\":2822:2840  voters[proposalId] */\n      dup2\n      mstore\n      0x20\n      add\n      swap1\n      dup2\n      mstore\n      0x20\n      add\n      0x00\n      keccak256\n        /* \"contracts/VotingSystem.sol\":2822:2847  voters[proposalId].length */\n      dup1\n      sload\n      swap1\n      pop\n        /* \"contracts/VotingSystem.sol\":2818:2819  i */\n      dup2\n        /* \"contracts/VotingSystem.sol\":2818:2847  i < voters[proposalId].length */\n      lt\n        /* \"contracts/VotingSystem.sol\":2801:2958  for (uint i = 0; i < voters[proposalId].length; i++) {... */\n      iszero\n      tag_82\n      jumpi\n        /* \"contracts/VotingSystem.sol\":2897:2902  voter */\n      dup4\n        /* \"contracts/VotingSystem.sol\":2872:2902  voters[proposalId][i] == voter */\n      0xffffffffffffffffffffffffffffffffffffffff\n      and\n        /* \"contracts/VotingSystem.sol\":2872:2878  voters */\n      0x02\n        /* \"contracts/VotingSystem.sol\":2872:2890  voters[proposalId] */\n      0x00\n        /* \"contracts/VotingSystem.sol\":2879:2889  proposalId */\n      dup6\n        /* \"contracts/VotingSystem.sol\":2872:2890  voters[proposalId] */\n      dup2\n      mstore\n      0x20\n      add\n      swap1\n      dup2\n      mstore\n      0x20\n      add\n      0x00\n      keccak256\n        /* \"contracts/VotingSystem.sol\":2891:2892  i */\n      dup3\n        /* \"contracts/VotingSystem.sol\":2872:2893  voters[proposalId][i] */\n      dup2\n      sload\n      dup2\n      lt\n      tag_84\n      jumpi\n      tag_85\n      tag_86\n      jump\t// in\n    tag_85:\n    tag_84:\n      swap1\n      0x00\n      mstore\n      keccak256(0x00, 0x20)\n      add\n      0x00\n      swap1\n      sload\n      swap1\n      0x0100\n      exp\n      swap1\n      div\n      0xffffffffffffffffffffffffffffffffffffffff\n      and\n        /* \"contracts/VotingSystem.sol\":2872:2902  voters[proposalId][i] == voter */\n      0xffffffffffffffffffffffffffffffffffffffff\n      and\n      sub\n        /* \"contracts/VotingSystem.sol\":2868:2948  if (voters[proposalId][i] == voter) {... */\n      tag_88\n      jumpi\n        /* \"contracts/VotingSystem.sol\":2929:2933  true */\n      0x01\n        /* \"contracts/VotingSystem.sol\":2922:2933  return true */\n      swap2\n      pop\n      pop\n      jump(tag_77)\n        /* \"contracts/VotingSystem.sol\":2868:2948  if (voters[proposalId][i] == voter) {... */\n    tag_88:\n        /* \"contracts/VotingSystem.sol\":2849:2852  i++ */\n      dup1\n      dup1\n      0x01\n      add\n      swap2\n      pop\n      pop\n        /* \"contracts/VotingSystem.sol\":2801:2958  for (uint i = 0; i < voters[proposalId].length; i++) {... */\n      jump(tag_81)\n    tag_82:\n      pop\n        /* \"contracts/VotingSystem.sol\":2974:2979  false */\n      0x00\n        /* \"contracts/VotingSystem.sol\":2967:2979  return false */\n      swap1\n      pop\n        /* \"contracts/VotingSystem.sol\":2641:2986  function hasVoted(address voter, uint256 proposalId) public view returns (bool) {... */\n    tag_77:\n      swap3\n      swap2\n      pop\n      pop\n      jump\t// out\n        /* \"@openzeppelin/contracts/access/Ownable.sol\":2293:2394  function renounceOwnership() public virtual onlyOwner {... */\n    tag_30:\n        /* \"@openzeppelin/contracts/access/Ownable.sol\":1531:1544  _checkOwner() */\n      tag_90\n        /* \"@openzeppelin/contracts/access/Ownable.sol\":1531:1542  _checkOwner */\n      tag_67\n        /* \"@openzeppelin/contracts/access/Ownable.sol\":1531:1544  _checkOwner() */\n      jump\t// in\n    tag_90:\n        /* \"@openzeppelin/contracts/access/Ownable.sol\":2357:2387  _transferOwnership(address(0)) */\n      tag_92\n        /* \"@openzeppelin/contracts/access/Ownable.sol\":2384:2385  0 */\n      0x00\n        /* \"@openzeppelin/contracts/access/Ownable.sol\":2357:2375  _transferOwnership */\n      tag_93\n        /* \"@openzeppelin/contracts/access/Ownable.sol\":2357:2387  _transferOwnership(address(0)) */\n      jump\t// in\n    tag_92:\n        /* \"@openzeppelin/contracts/access/Ownable.sol\":2293:2394  function renounceOwnership() public virtual onlyOwner {... */\n      jump\t// out\n        /* \"@openzeppelin/contracts/access/Ownable.sol\":1638:1723  function owner() public view virtual returns (address) {... */\n    tag_32:\n        /* \"@openzeppelin/contracts/access/Ownable.sol\":1684:1691  address */\n      0x00\n        /* \"@openzeppelin/contracts/access/Ownable.sol\":1710:1716  _owner */\n      dup1\n      0x00\n      swap1\n      sload\n      swap1\n      0x0100\n      exp\n      swap1\n      div\n      0xffffffffffffffffffffffffffffffffffffffff\n      and\n        /* \"@openzeppelin/contracts/access/Ownable.sol\":1703:1716  return _owner */\n      swap1\n      pop\n        /* \"@openzeppelin/contracts/access/Ownable.sol\":1638:1723  function owner() public view virtual returns (address) {... */\n      swap1\n      jump\t// out\n        /* \"contracts/VotingSystem.sol\":2148:2568  function vote(uint256 proposalId, bool support) external {... */\n    tag_38:\n        /* \"contracts/VotingSystem.sol\":2236:2245  proposals */\n      0x01\n        /* \"contracts/VotingSystem.sol\":2236:2252  proposals.length */\n      dup1\n      sload\n      swap1\n      pop\n        /* \"contracts/VotingSystem.sol\":2223:2233  proposalId */\n      dup3\n        /* \"contracts/VotingSystem.sol\":2223:2252  proposalId < proposals.length */\n      lt\n        /* \"contracts/VotingSystem.sol\":2215:2275  require(proposalId < proposals.length, \"Invalid proposalId\") */\n      tag_96\n      jumpi\n      mload(0x40)\n      0x08c379a000000000000000000000000000000000000000000000000000000000\n      dup2\n      mstore\n      0x04\n      add\n      tag_97\n      swap1\n      tag_80\n      jump\t// in\n    tag_97:\n      mload(0x40)\n      dup1\n      swap2\n      sub\n      swap1\n      revert\n    tag_96:\n        /* \"contracts/VotingSystem.sol\":2285:2310  Proposal storage proposal */\n      0x00\n        /* \"contracts/VotingSystem.sol\":2313:2322  proposals */\n      0x01\n        /* \"contracts/VotingSystem.sol\":2323:2333  proposalId */\n      dup4\n        /* \"contracts/VotingSystem.sol\":2313:2334  proposals[proposalId] */\n      dup2\n      sload\n      dup2\n      lt\n      tag_98\n      jumpi\n      tag_99\n      tag_86\n      jump\t// in\n    tag_99:\n    tag_98:\n      swap1\n      0x00\n      mstore\n      keccak256(0x00, 0x20)\n      swap1\n      0x07\n      mul\n      add\n        /* \"contracts/VotingSystem.sol\":2285:2334  Proposal storage proposal = proposals[proposalId] */\n      swap1\n      pop\n        /* \"contracts/VotingSystem.sol\":2348:2355  support */\n      dup2\n        /* \"contracts/VotingSystem.sol\":2344:2461  if (support) {... */\n      iszero\n      tag_101\n      jumpi\n        /* \"contracts/VotingSystem.sol\":2392:2393  1 */\n      0x01\n        /* \"contracts/VotingSystem.sol\":2371:2379  proposal */\n      dup2\n        /* \"contracts/VotingSystem.sol\":2371:2388  proposal.votesFor */\n      0x04\n      add\n      0x00\n        /* \"contracts/VotingSystem.sol\":2371:2393  proposal.votesFor += 1 */\n      dup3\n      dup3\n      sload\n      tag_102\n      swap2\n      swap1\n      tag_103\n      jump\t// in\n    tag_102:\n      swap3\n      pop\n      pop\n      dup2\n      swap1\n      sstore\n      pop\n        /* \"contracts/VotingSystem.sol\":2344:2461  if (support) {... */\n      jump(tag_104)\n    tag_101:\n        /* \"contracts/VotingSystem.sol\":2449:2450  1 */\n      0x01\n        /* \"contracts/VotingSystem.sol\":2424:2432  proposal */\n      dup2\n        /* \"contracts/VotingSystem.sol\":2424:2445  proposal.votesAgainst */\n      0x05\n      add\n      0x00\n        /* \"contracts/VotingSystem.sol\":2424:2450  proposal.votesAgainst += 1 */\n      dup3\n      dup3\n      sload\n      tag_105\n      swap2\n      swap1\n      tag_103\n      jump\t// in\n    tag_105:\n      swap3\n      pop\n      pop\n      dup2\n      swap1\n      sstore\n      pop\n        /* \"contracts/VotingSystem.sol\":2344:2461  if (support) {... */\n    tag_104:\n        /* \"contracts/VotingSystem.sol\":2470:2476  voters */\n      0x02\n        /* \"contracts/VotingSystem.sol\":2470:2488  voters[proposalId] */\n      0x00\n        /* \"contracts/VotingSystem.sol\":2477:2487  proposalId */\n      dup5\n        /* \"contracts/VotingSystem.sol\":2470:2488  voters[proposalId] */\n      dup2\n      mstore\n      0x20\n      add\n      swap1\n      dup2\n      mstore\n      0x20\n      add\n      0x00\n      keccak256\n        /* \"contracts/VotingSystem.sol\":2494:2504  msg.sender */\n      caller\n        /* \"contracts/VotingSystem.sol\":2470:2505  voters[proposalId].push(msg.sender) */\n      swap1\n      dup1\n      0x01\n      dup2\n      sload\n      add\n      dup1\n      dup3\n      sstore\n      dup1\n      swap2\n      pop\n      pop\n      0x01\n      swap1\n      sub\n      swap1\n      0x00\n      mstore\n      keccak256(0x00, 0x20)\n      add\n      0x00\n      swap1\n      swap2\n      swap1\n      swap2\n      swap1\n      swap2\n      0x0100\n      exp\n      dup2\n      sload\n      dup2\n      0xffffffffffffffffffffffffffffffffffffffff\n      mul\n      not\n      and\n      swap1\n      dup4\n      0xffffffffffffffffffffffffffffffffffffffff\n      and\n      mul\n      or\n      swap1\n      sstore\n      pop\n        /* \"contracts/VotingSystem.sol\":2520:2561  VoteCast(msg.sender, proposalId, support) */\n      0xd356173ae8eeea8691aee4c1be712c314a975a3d43ebc48b08ca54d0dac91228\n        /* \"contracts/VotingSystem.sol\":2529:2539  msg.sender */\n      caller\n        /* \"contracts/VotingSystem.sol\":2541:2551  proposalId */\n      dup5\n        /* \"contracts/VotingSystem.sol\":2553:2560  support */\n      dup5\n        /* \"contracts/VotingSystem.sol\":2520:2561  VoteCast(msg.sender, proposalId, support) */\n      mload(0x40)\n      tag_107\n      swap4\n      swap3\n      swap2\n      swap1\n      tag_108\n      jump\t// in\n    tag_107:\n      mload(0x40)\n      dup1\n      swap2\n      sub\n      swap1\n      log1\n        /* \"contracts/VotingSystem.sol\":2205:2568  {... */\n      pop\n        /* \"contracts/VotingSystem.sol\":2148:2568  function vote(uint256 proposalId, bool support) external {... */\n      pop\n      pop\n      jump\t// out\n        /* \"contracts/VotingSystem.sol\":1330:1595  function updateProposalStatus(uint256 proposalId, string memory status) external onlyOwner {... */\n    tag_42:\n        /* \"@openzeppelin/contracts/access/Ownable.sol\":1531:1544  _checkOwner() */\n      tag_110\n        /* \"@openzeppelin/contracts/access/Ownable.sol\":1531:1542  _checkOwner */\n      tag_67\n        /* \"@openzeppelin/contracts/access/Ownable.sol\":1531:1544  _checkOwner() */\n      jump\t// in\n    tag_110:\n        /* \"contracts/VotingSystem.sol\":1452:1461  proposals */\n      0x01\n        /* \"contracts/VotingSystem.sol\":1452:1468  proposals.length */\n      dup1\n      sload\n      swap1\n      pop\n        /* \"contracts/VotingSystem.sol\":1439:1449  proposalId */\n      dup3\n        /* \"contracts/VotingSystem.sol\":1439:1468  proposalId < proposals.length */\n      lt\n        /* \"contracts/VotingSystem.sol\":1431:1491  require(proposalId < proposals.length, \"Invalid proposalId\") */\n      tag_112\n      jumpi\n      mload(0x40)\n      0x08c379a000000000000000000000000000000000000000000000000000000000\n      dup2\n      mstore\n      0x04\n      add\n      tag_113\n      swap1\n      tag_80\n      jump\t// in\n    tag_113:\n      mload(0x40)\n      dup1\n      swap2\n      sub\n      swap1\n      revert\n    tag_112:\n        /* \"contracts/VotingSystem.sol\":1532:1538  status */\n      dup1\n        /* \"contracts/VotingSystem.sol\":1501:1510  proposals */\n      0x01\n        /* \"contracts/VotingSystem.sol\":1511:1521  proposalId */\n      dup4\n        /* \"contracts/VotingSystem.sol\":1501:1522  proposals[proposalId] */\n      dup2\n      sload\n      dup2\n      lt\n      tag_114\n      jumpi\n      tag_115\n      tag_86\n      jump\t// in\n    tag_115:\n    tag_114:\n      swap1\n      0x00\n      mstore\n      keccak256(0x00, 0x20)\n      swap1\n      0x07\n      mul\n      add\n        /* \"contracts/VotingSystem.sol\":1501:1529  proposals[proposalId].status */\n      0x03\n      add\n        /* \"contracts/VotingSystem.sol\":1501:1538  proposals[proposalId].status = status */\n      swap1\n      dup2\n      tag_117\n      swap2\n      swap1\n      tag_71\n      jump\t// in\n    tag_117:\n      pop\n        /* \"contracts/VotingSystem.sol\":1553:1588  ProposalUpdated(proposalId, status) */\n      0x15fba378ec5233262589a0683add7b6d321b4818dd4b14c313e98b1632752907\n        /* \"contracts/VotingSystem.sol\":1569:1579  proposalId */\n      dup3\n        /* \"contracts/VotingSystem.sol\":1581:1587  status */\n      dup3\n        /* \"contracts/VotingSystem.sol\":1553:1588  ProposalUpdated(proposalId, status) */\n      mload(0x40)\n      tag_118\n      swap3\n      swap2\n      swap1\n      tag_119\n      jump\t// in\n    tag_118:\n      mload(0x40)\n      dup1\n      swap2\n      sub\n      swap1\n      log1\n        /* \"contracts/VotingSystem.sol\":1330:1595  function updateProposalStatus(uint256 proposalId, string memory status) external onlyOwner {... */\n      pop\n      pop\n      jump\t// out\n        /* \"@openzeppelin/contracts/access/Ownable.sol\":2543:2758  function transferOwnership(address newOwner) public virtual onlyOwner {... */\n    tag_46:\n        /* \"@openzeppelin/contracts/access/Ownable.sol\":1531:1544  _checkOwner() */\n      tag_121\n        /* \"@openzeppelin/contracts/access/Ownable.sol\":1531:1542  _checkOwner */\n      tag_67\n        /* \"@openzeppelin/contracts/access/Ownable.sol\":1531:1544  _checkOwner() */\n      jump\t// in\n    tag_121:\n        /* \"@openzeppelin/contracts/access/Ownable.sol\":2647:2648  0 */\n      0x00\n        /* \"@openzeppelin/contracts/access/Ownable.sol\":2627:2649  newOwner == address(0) */\n      0xffffffffffffffffffffffffffffffffffffffff\n      and\n        /* \"@openzeppelin/contracts/access/Ownable.sol\":2627:2635  newOwner */\n      dup2\n        /* \"@openzeppelin/contracts/access/Ownable.sol\":2627:2649  newOwner == address(0) */\n      0xffffffffffffffffffffffffffffffffffffffff\n      and\n      sub\n        /* \"@openzeppelin/contracts/access/Ownable.sol\":2623:2714  if (newOwner == address(0)) {... */\n      tag_123\n      jumpi\n        /* \"@openzeppelin/contracts/access/Ownable.sol\":2700:2701  0 */\n      0x00\n        /* \"@openzeppelin/contracts/access/Ownable.sol\":2672:2703  OwnableInvalidOwner(address(0)) */\n      mload(0x40)\n      0x1e4fbdf700000000000000000000000000000000000000000000000000000000\n      dup2\n      mstore\n      0x04\n      add\n      tag_124\n      swap2\n      swap1\n      tag_34\n      jump\t// in\n    tag_124:\n      mload(0x40)\n      dup1\n      swap2\n      sub\n      swap1\n      revert\n        /* \"@openzeppelin/contracts/access/Ownable.sol\":2623:2714  if (newOwner == address(0)) {... */\n    tag_123:\n        /* \"@openzeppelin/contracts/access/Ownable.sol\":2723:2751  _transferOwnership(newOwner) */\n      tag_125\n        /* \"@openzeppelin/contracts/access/Ownable.sol\":2742:2750  newOwner */\n      dup2\n        /* \"@openzeppelin/contracts/access/Ownable.sol\":2723:2741  _transferOwnership */\n      tag_93\n        /* \"@openzeppelin/contracts/access/Ownable.sol\":2723:2751  _transferOwnership(newOwner) */\n      jump\t// in\n    tag_125:\n        /* \"@openzeppelin/contracts/access/Ownable.sol\":2543:2758  function transferOwnership(address newOwner) public virtual onlyOwner {... */\n      pop\n      jump\t// out\n        /* \"contracts/VotingSystem.sol\":1805:1848  mapping(uint256 => address[]) public voters */\n    tag_50:\n      mstore(0x20, 0x02)\n      dup2\n      0x00\n      mstore\n      keccak256(0x00, 0x40)\n      dup2\n      dup2\n      sload\n      dup2\n      lt\n      tag_126\n      jumpi\n      0x00\n      dup1\n      revert\n    tag_126:\n      swap1\n      0x00\n      mstore\n      keccak256(0x00, 0x20)\n      add\n      0x00\n      swap2\n      pop\n      swap2\n      pop\n      swap1\n      sload\n      swap1\n      0x0100\n      exp\n      swap1\n      div\n      0xffffffffffffffffffffffffffffffffffffffff\n      and\n      dup2\n      jump\t// out\n        /* \"@openzeppelin/contracts/access/Ownable.sol\":1796:1958  function _checkOwner() internal view virtual {... */\n    tag_67:\n        /* \"@openzeppelin/contracts/access/Ownable.sol\":1866:1878  _msgSender() */\n      tag_129\n        /* \"@openzeppelin/contracts/access/Ownable.sol\":1866:1876  _msgSender */\n      tag_130\n        /* \"@openzeppelin/contracts/access/Ownable.sol\":1866:1878  _msgSender() */\n      jump\t// in\n    tag_129:\n        /* \"@openzeppelin/contracts/access/Ownable.sol\":1855:1878  owner() != _msgSender() */\n      0xffffffffffffffffffffffffffffffffffffffff\n      and\n        /* \"@openzeppelin/contracts/access/Ownable.sol\":1855:1862  owner() */\n      tag_131\n        /* \"@openzeppelin/contracts/access/Ownable.sol\":1855:1860  owner */\n      tag_32\n        /* \"@openzeppelin/contracts/access/Ownable.sol\":1855:1862  owner() */\n      jump\t// in\n    tag_131:\n        /* \"@openzeppelin/contracts/access/Ownable.sol\":1855:1878  owner() != _msgSender() */\n      0xffffffffffffffffffffffffffffffffffffffff\n      and\n      eq\n        /* \"@openzeppelin/contracts/access/Ownable.sol\":1851:1952  if (owner() != _msgSender()) {... */\n      tag_132\n      jumpi\n        /* \"@openzeppelin/contracts/access/Ownable.sol\":1928:1940  _msgSender() */\n      tag_133\n        /* \"@openzeppelin/contracts/access/Ownable.sol\":1928:1938  _msgSender */\n      tag_130\n        /* \"@openzeppelin/contracts/access/Ownable.sol\":1928:1940  _msgSender() */\n      jump\t// in\n    tag_133:\n        /* \"@openzeppelin/contracts/access/Ownable.sol\":1901:1941  OwnableUnauthorizedAccount(_msgSender()) */\n      mload(0x40)\n      0x118cdaa700000000000000000000000000000000000000000000000000000000\n      dup2\n      mstore\n      0x04\n      add\n      tag_134\n      swap2\n      swap1\n      tag_34\n      jump\t// in\n    tag_134:\n      mload(0x40)\n      dup1\n      swap2\n      sub\n      swap1\n      revert\n        /* \"@openzeppelin/contracts/access/Ownable.sol\":1851:1952  if (owner() != _msgSender()) {... */\n    tag_132:\n        /* \"@openzeppelin/contracts/access/Ownable.sol\":1796:1958  function _checkOwner() internal view virtual {... */\n      jump\t// out\n        /* \"@openzeppelin/contracts/access/Ownable.sol\":2912:3099  function _transferOwnership(address newOwner) internal virtual {... */\n    tag_93:\n        /* \"@openzeppelin/contracts/access/Ownable.sol\":2985:3001  address oldOwner */\n      0x00\n        /* \"@openzeppelin/contracts/access/Ownable.sol\":3004:3010  _owner */\n      dup1\n      0x00\n      swap1\n      sload\n      swap1\n      0x0100\n      exp\n      swap1\n      div\n      0xffffffffffffffffffffffffffffffffffffffff\n      and\n        /* \"@openzeppelin/contracts/access/Ownable.sol\":2985:3010  address oldOwner = _owner */\n      swap1\n      pop\n        /* \"@openzeppelin/contracts/access/Ownable.sol\":3029:3037  newOwner */\n      dup2\n        /* \"@openzeppelin/contracts/access/Ownable.sol\":3020:3026  _owner */\n      0x00\n      dup1\n        /* \"@openzeppelin/contracts/access/Ownable.sol\":3020:3037  _owner = newOwner */\n      0x0100\n      exp\n      dup2\n      sload\n      dup2\n      0xffffffffffffffffffffffffffffffffffffffff\n      mul\n      not\n      and\n      swap1\n      dup4\n      0xffffffffffffffffffffffffffffffffffffffff\n      and\n      mul\n      or\n      swap1\n      sstore\n      pop\n        /* \"@openzeppelin/contracts/access/Ownable.sol\":3083:3091  newOwner */\n      dup2\n        /* \"@openzeppelin/contracts/access/Ownable.sol\":3052:3092  OwnershipTransferred(oldOwner, newOwner) */\n      0xffffffffffffffffffffffffffffffffffffffff\n      and\n        /* \"@openzeppelin/contracts/access/Ownable.sol\":3073:3081  oldOwner */\n      dup2\n        /* \"@openzeppelin/contracts/access/Ownable.sol\":3052:3092  OwnershipTransferred(oldOwner, newOwner) */\n      0xffffffffffffffffffffffffffffffffffffffff\n      and\n      0x8be0079c531659141344cd1fd0a4f28419497f9722a3daafe3b4186f6b6457e0\n      mload(0x40)\n      mload(0x40)\n      dup1\n      swap2\n      sub\n      swap1\n      log3\n        /* \"@openzeppelin/contracts/access/Ownable.sol\":2975:3099  {... */\n      pop\n        /* \"@openzeppelin/contracts/access/Ownable.sol\":2912:3099  function _transferOwnership(address newOwner) internal virtual {... */\n      pop\n      jump\t// out\n        /* \"@openzeppelin/contracts/utils/Context.sol\":656:752  function _msgSender() internal view virtual returns (address) {... */\n    tag_130:\n        /* \"@openzeppelin/contracts/utils/Context.sol\":709:716  address */\n      0x00\n        /* \"@openzeppelin/contracts/utils/Context.sol\":735:745  msg.sender */\n      caller\n        /* \"@openzeppelin/contracts/utils/Context.sol\":728:745  return msg.sender */\n      swap1\n      pop\n        /* \"@openzeppelin/contracts/utils/Context.sol\":656:752  function _msgSender() internal view virtual returns (address) {... */\n      swap1\n      jump\t// out\n        /* \"#utility.yul\":7:82   */\n    tag_137:\n        /* \"#utility.yul\":40:46   */\n      0x00\n        /* \"#utility.yul\":73:75   */\n      0x40\n        /* \"#utility.yul\":67:76   */\n      mload\n        /* \"#utility.yul\":57:76   */\n      swap1\n      pop\n        /* \"#utility.yul\":7:82   */\n      swap1\n      jump\t// out\n        /* \"#utility.yul\":88:205   */\n    tag_138:\n        /* \"#utility.yul\":197:198   */\n      0x00\n        /* \"#utility.yul\":194:195   */\n      dup1\n        /* \"#utility.yul\":187:199   */\n      revert\n        /* \"#utility.yul\":211:328   */\n    tag_139:\n        /* \"#utility.yul\":320:321   */\n      0x00\n        /* \"#utility.yul\":317:318   */\n      dup1\n        /* \"#utility.yul\":310:322   */\n      revert\n        /* \"#utility.yul\":334:411   */\n    tag_140:\n        /* \"#utility.yul\":371:378   */\n      0x00\n        /* \"#utility.yul\":400:405   */\n      dup2\n        /* \"#utility.yul\":389:405   */\n      swap1\n      pop\n        /* \"#utility.yul\":334:411   */\n      swap2\n      swap1\n      pop\n      jump\t// out\n        /* \"#utility.yul\":417:539   */\n    tag_141:\n        /* \"#utility.yul\":490:514   */\n      tag_192\n        /* \"#utility.yul\":508:513   */\n      dup2\n        /* \"#utility.yul\":490:514   */\n      tag_140\n      jump\t// in\n    tag_192:\n        /* \"#utility.yul\":483:488   */\n      dup2\n        /* \"#utility.yul\":480:515   */\n      eq\n        /* \"#utility.yul\":470:533   */\n      tag_193\n      jumpi\n        /* \"#utility.yul\":529:530   */\n      0x00\n        /* \"#utility.yul\":526:527   */\n      dup1\n        /* \"#utility.yul\":519:531   */\n      revert\n        /* \"#utility.yul\":470:533   */\n    tag_193:\n        /* \"#utility.yul\":417:539   */\n      pop\n      jump\t// out\n        /* \"#utility.yul\":545:684   */\n    tag_142:\n        /* \"#utility.yul\":591:596   */\n      0x00\n        /* \"#utility.yul\":629:635   */\n      dup2\n        /* \"#utility.yul\":616:636   */\n      calldataload\n        /* \"#utility.yul\":607:636   */\n      swap1\n      pop\n        /* \"#utility.yul\":645:678   */\n      tag_195\n        /* \"#utility.yul\":672:677   */\n      dup2\n        /* \"#utility.yul\":645:678   */\n      tag_141\n      jump\t// in\n    tag_195:\n        /* \"#utility.yul\":545:684   */\n      swap3\n      swap2\n      pop\n      pop\n      jump\t// out\n        /* \"#utility.yul\":690:1019   */\n    tag_15:\n        /* \"#utility.yul\":749:755   */\n      0x00\n        /* \"#utility.yul\":798:800   */\n      0x20\n        /* \"#utility.yul\":786:795   */\n      dup3\n        /* \"#utility.yul\":777:784   */\n      dup5\n        /* \"#utility.yul\":773:796   */\n      sub\n        /* \"#utility.yul\":769:801   */\n      slt\n        /* \"#utility.yul\":766:885   */\n      iszero\n      tag_197\n      jumpi\n        /* \"#utility.yul\":804:883   */\n      tag_198\n      tag_138\n      jump\t// in\n    tag_198:\n        /* \"#utility.yul\":766:885   */\n    tag_197:\n        /* \"#utility.yul\":924:925   */\n      0x00\n        /* \"#utility.yul\":949:1002   */\n      tag_199\n        /* \"#utility.yul\":994:1001   */\n      dup5\n        /* \"#utility.yul\":985:991   */\n      dup3\n        /* \"#utility.yul\":974:983   */\n      dup6\n        /* \"#utility.yul\":970:992   */\n      add\n        /* \"#utility.yul\":949:1002   */\n      tag_142\n      jump\t// in\n    tag_199:\n        /* \"#utility.yul\":939:1002   */\n      swap2\n      pop\n        /* \"#utility.yul\":895:1012   */\n      pop\n        /* \"#utility.yul\":690:1019   */\n      swap3\n      swap2\n      pop\n      pop\n      jump\t// out\n        /* \"#utility.yul\":1025:1143   */\n    tag_143:\n        /* \"#utility.yul\":1112:1136   */\n      tag_201\n        /* \"#utility.yul\":1130:1135   */\n      dup2\n        /* \"#utility.yul\":1112:1136   */\n      tag_140\n      jump\t// in\n    tag_201:\n        /* \"#utility.yul\":1107:1110   */\n      dup3\n        /* \"#utility.yul\":1100:1137   */\n      mstore\n        /* \"#utility.yul\":1025:1143   */\n      pop\n      pop\n      jump\t// out\n        /* \"#utility.yul\":1149:1248   */\n    tag_144:\n        /* \"#utility.yul\":1201:1207   */\n      0x00\n        /* \"#utility.yul\":1235:1240   */\n      dup2\n        /* \"#utility.yul\":1229:1241   */\n      mload\n        /* \"#utility.yul\":1219:1241   */\n      swap1\n      pop\n        /* \"#utility.yul\":1149:1248   */\n      swap2\n      swap1\n      pop\n      jump\t// out\n        /* \"#utility.yul\":1254:1423   */\n    tag_145:\n        /* \"#utility.yul\":1338:1349   */\n      0x00\n        /* \"#utility.yul\":1372:1378   */\n      dup3\n        /* \"#utility.yul\":1367:1370   */\n      dup3\n        /* \"#utility.yul\":1360:1379   */\n      mstore\n        /* \"#utility.yul\":1412:1416   */\n      0x20\n        /* \"#utility.yul\":1407:1410   */\n      dup3\n        /* \"#utility.yul\":1403:1417   */\n      add\n        /* \"#utility.yul\":1388:1417   */\n      swap1\n      pop\n        /* \"#utility.yul\":1254:1423   */\n      swap3\n      swap2\n      pop\n      pop\n      jump\t// out\n        /* \"#utility.yul\":1429:1568   */\n    tag_146:\n        /* \"#utility.yul\":1518:1524   */\n      dup3\n        /* \"#utility.yul\":1513:1516   */\n      dup2\n        /* \"#utility.yul\":1508:1511   */\n      dup4\n        /* \"#utility.yul\":1502:1525   */\n      mcopy\n        /* \"#utility.yul\":1559:1560   */\n      0x00\n        /* \"#utility.yul\":1550:1556   */\n      dup4\n        /* \"#utility.yul\":1545:1548   */\n      dup4\n        /* \"#utility.yul\":1541:1557   */\n      add\n        /* \"#utility.yul\":1534:1561   */\n      mstore\n        /* \"#utility.yul\":1429:1568   */\n      pop\n      pop\n      pop\n      jump\t// out\n        /* \"#utility.yul\":1574:1676   */\n    tag_147:\n        /* \"#utility.yul\":1615:1621   */\n      0x00\n        /* \"#utility.yul\":1666:1668   */\n      0x1f\n        /* \"#utility.yul\":1662:1669   */\n      not\n        /* \"#utility.yul\":1657:1659   */\n      0x1f\n        /* \"#utility.yul\":1650:1655   */\n      dup4\n        /* \"#utility.yul\":1646:1660   */\n      add\n        /* \"#utility.yul\":1642:1670   */\n      and\n        /* \"#utility.yul\":1632:1670   */\n      swap1\n      pop\n        /* \"#utility.yul\":1574:1676   */\n      swap2\n      swap1\n      pop\n      jump\t// out\n        /* \"#utility.yul\":1682:2059   */\n    tag_148:\n        /* \"#utility.yul\":1770:1773   */\n      0x00\n        /* \"#utility.yul\":1798:1837   */\n      tag_207\n        /* \"#utility.yul\":1831:1836   */\n      dup3\n        /* \"#utility.yul\":1798:1837   */\n      tag_144\n      jump\t// in\n    tag_207:\n        /* \"#utility.yul\":1853:1924   */\n      tag_208\n        /* \"#utility.yul\":1917:1923   */\n      dup2\n        /* \"#utility.yul\":1912:1915   */\n      dup6\n        /* \"#utility.yul\":1853:1924   */\n      tag_145\n      jump\t// in\n    tag_208:\n        /* \"#utility.yul\":1846:1924   */\n      swap4\n      pop\n        /* \"#utility.yul\":1933:1998   */\n      tag_209\n        /* \"#utility.yul\":1991:1997   */\n      dup2\n        /* \"#utility.yul\":1986:1989   */\n      dup6\n        /* \"#utility.yul\":1979:1983   */\n      0x20\n        /* \"#utility.yul\":1972:1977   */\n      dup7\n        /* \"#utility.yul\":1968:1984   */\n      add\n        /* \"#utility.yul\":1933:1998   */\n      tag_146\n      jump\t// in\n    tag_209:\n        /* \"#utility.yul\":2023:2052   */\n      tag_210\n        /* \"#utility.yul\":2045:2051   */\n      dup2\n        /* \"#utility.yul\":2023:2052   */\n      tag_147\n      jump\t// in\n    tag_210:\n        /* \"#utility.yul\":2018:2021   */\n      dup5\n        /* \"#utility.yul\":2014:2053   */\n      add\n        /* \"#utility.yul\":2007:2053   */\n      swap2\n      pop\n        /* \"#utility.yul\":1774:2059   */\n      pop\n        /* \"#utility.yul\":1682:2059   */\n      swap3\n      swap2\n      pop\n      pop\n      jump\t// out\n        /* \"#utility.yul\":2065:3133   */\n    tag_18:\n        /* \"#utility.yul\":2366:2370   */\n      0x00\n        /* \"#utility.yul\":2404:2407   */\n      0xe0\n        /* \"#utility.yul\":2393:2402   */\n      dup3\n        /* \"#utility.yul\":2389:2408   */\n      add\n        /* \"#utility.yul\":2381:2408   */\n      swap1\n      pop\n        /* \"#utility.yul\":2418:2489   */\n      tag_212\n        /* \"#utility.yul\":2486:2487   */\n      0x00\n        /* \"#utility.yul\":2475:2484   */\n      dup4\n        /* \"#utility.yul\":2471:2488   */\n      add\n        /* \"#utility.yul\":2462:2468   */\n      dup11\n        /* \"#utility.yul\":2418:2489   */\n      tag_143\n      jump\t// in\n    tag_212:\n        /* \"#utility.yul\":2536:2545   */\n      dup2\n        /* \"#utility.yul\":2530:2534   */\n      dup2\n        /* \"#utility.yul\":2526:2546   */\n      sub\n        /* \"#utility.yul\":2521:2523   */\n      0x20\n        /* \"#utility.yul\":2510:2519   */\n      dup4\n        /* \"#utility.yul\":2506:2524   */\n      add\n        /* \"#utility.yul\":2499:2547   */\n      mstore\n        /* \"#utility.yul\":2564:2642   */\n      tag_213\n        /* \"#utility.yul\":2637:2641   */\n      dup2\n        /* \"#utility.yul\":2628:2634   */\n      dup10\n        /* \"#utility.yul\":2564:2642   */\n      tag_148\n      jump\t// in\n    tag_213:\n        /* \"#utility.yul\":2556:2642   */\n      swap1\n      pop\n        /* \"#utility.yul\":2652:2724   */\n      tag_214\n        /* \"#utility.yul\":2720:2722   */\n      0x40\n        /* \"#utility.yul\":2709:2718   */\n      dup4\n        /* \"#utility.yul\":2705:2723   */\n      add\n        /* \"#utility.yul\":2696:2702   */\n      dup9\n        /* \"#utility.yul\":2652:2724   */\n      tag_143\n      jump\t// in\n    tag_214:\n        /* \"#utility.yul\":2771:2780   */\n      dup2\n        /* \"#utility.yul\":2765:2769   */\n      dup2\n        /* \"#utility.yul\":2761:2781   */\n      sub\n        /* \"#utility.yul\":2756:2758   */\n      0x60\n        /* \"#utility.yul\":2745:2754   */\n      dup4\n        /* \"#utility.yul\":2741:2759   */\n      add\n        /* \"#utility.yul\":2734:2782   */\n      mstore\n        /* \"#utility.yul\":2799:2877   */\n      tag_215\n        /* \"#utility.yul\":2872:2876   */\n      dup2\n        /* \"#utility.yul\":2863:2869   */\n      dup8\n        /* \"#utility.yul\":2799:2877   */\n      tag_148\n      jump\t// in\n    tag_215:\n        /* \"#utility.yul\":2791:2877   */\n      swap1\n      pop\n        /* \"#utility.yul\":2887:2960   */\n      tag_216\n        /* \"#utility.yul\":2955:2958   */\n      0x80\n        /* \"#utility.yul\":2944:2953   */\n      dup4\n        /* \"#utility.yul\":2940:2959   */\n      add\n        /* \"#utility.yul\":2931:2937   */\n      dup7\n        /* \"#utility.yul\":2887:2960   */\n      tag_143\n      jump\t// in\n    tag_216:\n        /* \"#utility.yul\":2970:3043   */\n      tag_217\n        /* \"#utility.yul\":3038:3041   */\n      0xa0\n        /* \"#utility.yul\":3027:3036   */\n      dup4\n        /* \"#utility.yul\":3023:3042   */\n      add\n        /* \"#utility.yul\":3014:3020   */\n      dup6\n        /* \"#utility.yul\":2970:3043   */\n      tag_143\n      jump\t// in\n    tag_217:\n        /* \"#utility.yul\":3053:3126   */\n      tag_218\n        /* \"#utility.yul\":3121:3124   */\n      0xc0\n        /* \"#utility.yul\":3110:3119   */\n      dup4\n        /* \"#utility.yul\":3106:3125   */\n      add\n        /* \"#utility.yul\":3097:3103   */\n      dup5\n        /* \"#utility.yul\":3053:3126   */\n      tag_143\n      jump\t// in\n    tag_218:\n        /* \"#utility.yul\":2065:3133   */\n      swap9\n      swap8\n      pop\n      pop\n      pop\n      pop\n      pop\n      pop\n      pop\n      pop\n      jump\t// out\n        /* \"#utility.yul\":3139:3256   */\n    tag_149:\n        /* \"#utility.yul\":3248:3249   */\n      0x00\n        /* \"#utility.yul\":3245:3246   */\n      dup1\n        /* \"#utility.yul\":3238:3250   */\n      revert\n        /* \"#utility.yul\":3262:3379   */\n    tag_150:\n        /* \"#utility.yul\":3371:3372   */\n      0x00\n        /* \"#utility.yul\":3368:3369   */\n      dup1\n        /* \"#utility.yul\":3361:3373   */\n      revert\n        /* \"#utility.yul\":3385:3565   */\n    tag_151:\n        /* \"#utility.yul\":3433:3510   */\n      0x4e487b7100000000000000000000000000000000000000000000000000000000\n        /* \"#utility.yul\":3430:3431   */\n      0x00\n        /* \"#utility.yul\":3423:3511   */\n      mstore\n        /* \"#utility.yul\":3530:3534   */\n      0x41\n        /* \"#utility.yul\":3527:3528   */\n      0x04\n        /* \"#utility.yul\":3520:3535   */\n      mstore\n        /* \"#utility.yul\":3554:3558   */\n      0x24\n        /* \"#utility.yul\":3551:3552   */\n      0x00\n        /* \"#utility.yul\":3544:3559   */\n      revert\n        /* \"#utility.yul\":3571:3852   */\n    tag_152:\n        /* \"#utility.yul\":3654:3681   */\n      tag_223\n        /* \"#utility.yul\":3676:3680   */\n      dup3\n        /* \"#utility.yul\":3654:3681   */\n      tag_147\n      jump\t// in\n    tag_223:\n        /* \"#utility.yul\":3646:3652   */\n      dup2\n        /* \"#utility.yul\":3642:3682   */\n      add\n        /* \"#utility.yul\":3784:3790   */\n      dup2\n        /* \"#utility.yul\":3772:3782   */\n      dup2\n        /* \"#utility.yul\":3769:3791   */\n      lt\n        /* \"#utility.yul\":3748:3766   */\n      0xffffffffffffffff\n        /* \"#utility.yul\":3736:3746   */\n      dup3\n        /* \"#utility.yul\":3733:3767   */\n      gt\n        /* \"#utility.yul\":3730:3792   */\n      or\n        /* \"#utility.yul\":3727:3815   */\n      iszero\n      tag_224\n      jumpi\n        /* \"#utility.yul\":3795:3813   */\n      tag_225\n      tag_151\n      jump\t// in\n    tag_225:\n        /* \"#utility.yul\":3727:3815   */\n    tag_224:\n        /* \"#utility.yul\":3835:3845   */\n      dup1\n        /* \"#utility.yul\":3831:3833   */\n      0x40\n        /* \"#utility.yul\":3824:3846   */\n      mstore\n        /* \"#utility.yul\":3614:3852   */\n      pop\n        /* \"#utility.yul\":3571:3852   */\n      pop\n      pop\n      jump\t// out\n        /* \"#utility.yul\":3858:3987   */\n    tag_153:\n        /* \"#utility.yul\":3892:3898   */\n      0x00\n        /* \"#utility.yul\":3919:3939   */\n      tag_227\n      tag_137\n      jump\t// in\n    tag_227:\n        /* \"#utility.yul\":3909:3939   */\n      swap1\n      pop\n        /* \"#utility.yul\":3948:3981   */\n      tag_228\n        /* \"#utility.yul\":3976:3980   */\n      dup3\n        /* \"#utility.yul\":3968:3974   */\n      dup3\n        /* \"#utility.yul\":3948:3981   */\n      tag_152\n      jump\t// in\n    tag_228:\n        /* \"#utility.yul\":3858:3987   */\n      swap2\n      swap1\n      pop\n      jump\t// out\n        /* \"#utility.yul\":3993:4301   */\n    tag_154:\n        /* \"#utility.yul\":4055:4059   */\n      0x00\n        /* \"#utility.yul\":4145:4163   */\n      0xffffffffffffffff\n        /* \"#utility.yul\":4137:4143   */\n      dup3\n        /* \"#utility.yul\":4134:4164   */\n      gt\n        /* \"#utility.yul\":4131:4187   */\n      iszero\n      tag_230\n      jumpi\n        /* \"#utility.yul\":4167:4185   */\n      tag_231\n      tag_151\n      jump\t// in\n    tag_231:\n        /* \"#utility.yul\":4131:4187   */\n    tag_230:\n        /* \"#utility.yul\":4205:4234   */\n      tag_232\n        /* \"#utility.yul\":4227:4233   */\n      dup3\n        /* \"#utility.yul\":4205:4234   */\n      tag_147\n      jump\t// in\n    tag_232:\n        /* \"#utility.yul\":4197:4234   */\n      swap1\n      pop\n        /* \"#utility.yul\":4289:4293   */\n      0x20\n        /* \"#utility.yul\":4283:4287   */\n      dup2\n        /* \"#utility.yul\":4279:4294   */\n      add\n        /* \"#utility.yul\":4271:4294   */\n      swap1\n      pop\n        /* \"#utility.yul\":3993:4301   */\n      swap2\n      swap1\n      pop\n      jump\t// out\n        /* \"#utility.yul\":4307:4455   */\n    tag_155:\n        /* \"#utility.yul\":4405:4411   */\n      dup3\n        /* \"#utility.yul\":4400:4403   */\n      dup2\n        /* \"#utility.yul\":4395:4398   */\n      dup4\n        /* \"#utility.yul\":4382:4412   */\n      calldatacopy\n        /* \"#utility.yul\":4446:4447   */\n      0x00\n        /* \"#utility.yul\":4437:4443   */\n      dup4\n        /* \"#utility.yul\":4432:4435   */\n      dup4\n        /* \"#utility.yul\":4428:4444   */\n      add\n        /* \"#utility.yul\":4421:4448   */\n      mstore\n        /* \"#utility.yul\":4307:4455   */\n      pop\n      pop\n      pop\n      jump\t// out\n        /* \"#utility.yul\":4461:4886   */\n    tag_156:\n        /* \"#utility.yul\":4539:4544   */\n      0x00\n        /* \"#utility.yul\":4564:4630   */\n      tag_235\n        /* \"#utility.yul\":4580:4629   */\n      tag_236\n        /* \"#utility.yul\":4622:4628   */\n      dup5\n        /* \"#utility.yul\":4580:4629   */\n      tag_154\n      jump\t// in\n    tag_236:\n        /* \"#utility.yul\":4564:4630   */\n      tag_153\n      jump\t// in\n    tag_235:\n        /* \"#utility.yul\":4555:4630   */\n      swap1\n      pop\n        /* \"#utility.yul\":4653:4659   */\n      dup3\n        /* \"#utility.yul\":4646:4651   */\n      dup2\n        /* \"#utility.yul\":4639:4660   */\n      mstore\n        /* \"#utility.yul\":4691:4695   */\n      0x20\n        /* \"#utility.yul\":4684:4689   */\n      dup2\n        /* \"#utility.yul\":4680:4696   */\n      add\n        /* \"#utility.yul\":4729:4732   */\n      dup5\n        /* \"#utility.yul\":4720:4726   */\n      dup5\n        /* \"#utility.yul\":4715:4718   */\n      dup5\n        /* \"#utility.yul\":4711:4727   */\n      add\n        /* \"#utility.yul\":4708:4733   */\n      gt\n        /* \"#utility.yul\":4705:4817   */\n      iszero\n      tag_237\n      jumpi\n        /* \"#utility.yul\":4736:4815   */\n      tag_238\n      tag_150\n      jump\t// in\n    tag_238:\n        /* \"#utility.yul\":4705:4817   */\n    tag_237:\n        /* \"#utility.yul\":4826:4880   */\n      tag_239\n        /* \"#utility.yul\":4873:4879   */\n      dup5\n        /* \"#utility.yul\":4868:4871   */\n      dup3\n        /* \"#utility.yul\":4863:4866   */\n      dup6\n        /* \"#utility.yul\":4826:4880   */\n      tag_155\n      jump\t// in\n    tag_239:\n        /* \"#utility.yul\":4545:4886   */\n      pop\n        /* \"#utility.yul\":4461:4886   */\n      swap4\n      swap3\n      pop\n      pop\n      pop\n      jump\t// out\n        /* \"#utility.yul\":4906:5246   */\n    tag_157:\n        /* \"#utility.yul\":4962:4967   */\n      0x00\n        /* \"#utility.yul\":5011:5014   */\n      dup3\n        /* \"#utility.yul\":5004:5008   */\n      0x1f\n        /* \"#utility.yul\":4996:5002   */\n      dup4\n        /* \"#utility.yul\":4992:5009   */\n      add\n        /* \"#utility.yul\":4988:5015   */\n      slt\n        /* \"#utility.yul\":4978:5100   */\n      tag_241\n      jumpi\n        /* \"#utility.yul\":5019:5098   */\n      tag_242\n      tag_149\n      jump\t// in\n    tag_242:\n        /* \"#utility.yul\":4978:5100   */\n    tag_241:\n        /* \"#utility.yul\":5136:5142   */\n      dup2\n        /* \"#utility.yul\":5123:5143   */\n      calldataload\n        /* \"#utility.yul\":5161:5240   */\n      tag_243\n        /* \"#utility.yul\":5236:5239   */\n      dup5\n        /* \"#utility.yul\":5228:5234   */\n      dup3\n        /* \"#utility.yul\":5221:5225   */\n      0x20\n        /* \"#utility.yul\":5213:5219   */\n      dup7\n        /* \"#utility.yul\":5209:5226   */\n      add\n        /* \"#utility.yul\":5161:5240   */\n      tag_156\n      jump\t// in\n    tag_243:\n        /* \"#utility.yul\":5152:5240   */\n      swap2\n      pop\n        /* \"#utility.yul\":4968:5246   */\n      pop\n        /* \"#utility.yul\":4906:5246   */\n      swap3\n      swap2\n      pop\n      pop\n      jump\t// out\n        /* \"#utility.yul\":5252:5906   */\n    tag_21:\n        /* \"#utility.yul\":5330:5336   */\n      0x00\n        /* \"#utility.yul\":5338:5344   */\n      dup1\n        /* \"#utility.yul\":5387:5389   */\n      0x40\n        /* \"#utility.yul\":5375:5384   */\n      dup4\n        /* \"#utility.yul\":5366:5373   */\n      dup6\n        /* \"#utility.yul\":5362:5385   */\n      sub\n        /* \"#utility.yul\":5358:5390   */\n      slt\n        /* \"#utility.yul\":5355:5474   */\n      iszero\n      tag_245\n      jumpi\n        /* \"#utility.yul\":5393:5472   */\n      tag_246\n      tag_138\n      jump\t// in\n    tag_246:\n        /* \"#utility.yul\":5355:5474   */\n    tag_245:\n        /* \"#utility.yul\":5541:5542   */\n      0x00\n        /* \"#utility.yul\":5530:5539   */\n      dup4\n        /* \"#utility.yul\":5526:5543   */\n      add\n        /* \"#utility.yul\":5513:5544   */\n      calldataload\n        /* \"#utility.yul\":5571:5589   */\n      0xffffffffffffffff\n        /* \"#utility.yul\":5563:5569   */\n      dup2\n        /* \"#utility.yul\":5560:5590   */\n      gt\n        /* \"#utility.yul\":5557:5674   */\n      iszero\n      tag_247\n      jumpi\n        /* \"#utility.yul\":5593:5672   */\n      tag_248\n      tag_139\n      jump\t// in\n    tag_248:\n        /* \"#utility.yul\":5557:5674   */\n    tag_247:\n        /* \"#utility.yul\":5698:5761   */\n      tag_249\n        /* \"#utility.yul\":5753:5760   */\n      dup6\n        /* \"#utility.yul\":5744:5750   */\n      dup3\n        /* \"#utility.yul\":5733:5742   */\n      dup7\n        /* \"#utility.yul\":5729:5751   */\n      add\n        /* \"#utility.yul\":5698:5761   */\n      tag_157\n      jump\t// in\n    tag_249:\n        /* \"#utility.yul\":5688:5761   */\n      swap3\n      pop\n        /* \"#utility.yul\":5484:5771   */\n      pop\n        /* \"#utility.yul\":5810:5812   */\n      0x20\n        /* \"#utility.yul\":5836:5889   */\n      tag_250\n        /* \"#utility.yul\":5881:5888   */\n      dup6\n        /* \"#utility.yul\":5872:5878   */\n      dup3\n        /* \"#utility.yul\":5861:5870   */\n      dup7\n        /* \"#utility.yul\":5857:5879   */\n      add\n        /* \"#utility.yul\":5836:5889   */\n      tag_142\n      jump\t// in\n    tag_250:\n        /* \"#utility.yul\":5826:5889   */\n      swap2\n      pop\n        /* \"#utility.yul\":5781:5899   */\n      pop\n        /* \"#utility.yul\":5252:5906   */\n      swap3\n      pop\n      swap3\n      swap1\n      pop\n      jump\t// out\n        /* \"#utility.yul\":5912:6038   */\n    tag_158:\n        /* \"#utility.yul\":5949:5956   */\n      0x00\n        /* \"#utility.yul\":5989:6031   */\n      0xffffffffffffffffffffffffffffffffffffffff\n        /* \"#utility.yul\":5982:5987   */\n      dup3\n        /* \"#utility.yul\":5978:6032   */\n      and\n        /* \"#utility.yul\":5967:6032   */\n      swap1\n      pop\n        /* \"#utility.yul\":5912:6038   */\n      swap2\n      swap1\n      pop\n      jump\t// out\n        /* \"#utility.yul\":6044:6140   */\n    tag_159:\n        /* \"#utility.yul\":6081:6088   */\n      0x00\n        /* \"#utility.yul\":6110:6134   */\n      tag_253\n        /* \"#utility.yul\":6128:6133   */\n      dup3\n        /* \"#utility.yul\":6110:6134   */\n      tag_158\n      jump\t// in\n    tag_253:\n        /* \"#utility.yul\":6099:6134   */\n      swap1\n      pop\n        /* \"#utility.yul\":6044:6140   */\n      swap2\n      swap1\n      pop\n      jump\t// out\n        /* \"#utility.yul\":6146:6268   */\n    tag_160:\n        /* \"#utility.yul\":6219:6243   */\n      tag_255\n        /* \"#utility.yul\":6237:6242   */\n      dup2\n        /* \"#utility.yul\":6219:6243   */\n      tag_159\n      jump\t// in\n    tag_255:\n        /* \"#utility.yul\":6212:6217   */\n      dup2\n        /* \"#utility.yul\":6209:6244   */\n      eq\n        /* \"#utility.yul\":6199:6262   */\n      tag_256\n      jumpi\n        /* \"#utility.yul\":6258:6259   */\n      0x00\n        /* \"#utility.yul\":6255:6256   */\n      dup1\n        /* \"#utility.yul\":6248:6260   */\n      revert\n        /* \"#utility.yul\":6199:6262   */\n    tag_256:\n        /* \"#utility.yul\":6146:6268   */\n      pop\n      jump\t// out\n        /* \"#utility.yul\":6274:6413   */\n    tag_161:\n        /* \"#utility.yul\":6320:6325   */\n      0x00\n        /* \"#utility.yul\":6358:6364   */\n      dup2\n        /* \"#utility.yul\":6345:6365   */\n      calldataload\n        /* \"#utility.yul\":6336:6365   */\n      swap1\n      pop\n        /* \"#utility.yul\":6374:6407   */\n      tag_258\n        /* \"#utility.yul\":6401:6406   */\n      dup2\n        /* \"#utility.yul\":6374:6407   */\n      tag_160\n      jump\t// in\n    tag_258:\n        /* \"#utility.yul\":6274:6413   */\n      swap3\n      swap2\n      pop\n      pop\n      jump\t// out\n        /* \"#utility.yul\":6419:6893   */\n    tag_25:\n        /* \"#utility.yul\":6487:6493   */\n      0x00\n        /* \"#utility.yul\":6495:6501   */\n      dup1\n        /* \"#utility.yul\":6544:6546   */\n      0x40\n        /* \"#utility.yul\":6532:6541   */\n      dup4\n        /* \"#utility.yul\":6523:6530   */\n      dup6\n        /* \"#utility.yul\":6519:6542   */\n      sub\n        /* \"#utility.yul\":6515:6547   */\n      slt\n        /* \"#utility.yul\":6512:6631   */\n      iszero\n      tag_260\n      jumpi\n        /* \"#utility.yul\":6550:6629   */\n      tag_261\n      tag_138\n      jump\t// in\n    tag_261:\n        /* \"#utility.yul\":6512:6631   */\n    tag_260:\n        /* \"#utility.yul\":6670:6671   */\n      0x00\n        /* \"#utility.yul\":6695:6748   */\n      tag_262\n        /* \"#utility.yul\":6740:6747   */\n      dup6\n        /* \"#utility.yul\":6731:6737   */\n      dup3\n        /* \"#utility.yul\":6720:6729   */\n      dup7\n        /* \"#utility.yul\":6716:6738   */\n      add\n        /* \"#utility.yul\":6695:6748   */\n      tag_161\n      jump\t// in\n    tag_262:\n        /* \"#utility.yul\":6685:6748   */\n      swap3\n      pop\n        /* \"#utility.yul\":6641:6758   */\n      pop\n        /* \"#utility.yul\":6797:6799   */\n      0x20\n        /* \"#utility.yul\":6823:6876   */\n      tag_263\n        /* \"#utility.yul\":6868:6875   */\n      dup6\n        /* \"#utility.yul\":6859:6865   */\n      dup3\n        /* \"#utility.yul\":6848:6857   */\n      dup7\n        /* \"#utility.yul\":6844:6866   */\n      add\n        /* \"#utility.yul\":6823:6876   */\n      tag_142\n      jump\t// in\n    tag_263:\n        /* \"#utility.yul\":6813:6876   */\n      swap2\n      pop\n        /* \"#utility.yul\":6768:6886   */\n      pop\n        /* \"#utility.yul\":6419:6893   */\n      swap3\n      pop\n      swap3\n      swap1\n      pop\n      jump\t// out\n        /* \"#utility.yul\":6899:6989   */\n    tag_162:\n        /* \"#utility.yul\":6933:6940   */\n      0x00\n        /* \"#utility.yul\":6976:6981   */\n      dup2\n        /* \"#utility.yul\":6969:6982   */\n      iszero\n        /* \"#utility.yul\":6962:6983   */\n      iszero\n        /* \"#utility.yul\":6951:6983   */\n      swap1\n      pop\n        /* \"#utility.yul\":6899:6989   */\n      swap2\n      swap1\n      pop\n      jump\t// out\n        /* \"#utility.yul\":6995:7104   */\n    tag_163:\n        /* \"#utility.yul\":7076:7097   */\n      tag_266\n        /* \"#utility.yul\":7091:7096   */\n      dup2\n        /* \"#utility.yul\":7076:7097   */\n      tag_162\n      jump\t// in\n    tag_266:\n        /* \"#utility.yul\":7071:7074   */\n      dup3\n        /* \"#utility.yul\":7064:7098   */\n      mstore\n        /* \"#utility.yul\":6995:7104   */\n      pop\n      pop\n      jump\t// out\n        /* \"#utility.yul\":7110:7320   */\n    tag_28:\n        /* \"#utility.yul\":7197:7201   */\n      0x00\n        /* \"#utility.yul\":7235:7237   */\n      0x20\n        /* \"#utility.yul\":7224:7233   */\n      dup3\n        /* \"#utility.yul\":7220:7238   */\n      add\n        /* \"#utility.yul\":7212:7238   */\n      swap1\n      pop\n        /* \"#utility.yul\":7248:7313   */\n      tag_268\n        /* \"#utility.yul\":7310:7311   */\n      0x00\n        /* \"#utility.yul\":7299:7308   */\n      dup4\n        /* \"#utility.yul\":7295:7312   */\n      add\n        /* \"#utility.yul\":7286:7292   */\n      dup5\n        /* \"#utility.yul\":7248:7313   */\n      tag_163\n      jump\t// in\n    tag_268:\n        /* \"#utility.yul\":7110:7320   */\n      swap3\n      swap2\n      pop\n      pop\n      jump\t// out\n        /* \"#utility.yul\":7326:7444   */\n    tag_164:\n        /* \"#utility.yul\":7413:7437   */\n      tag_270\n        /* \"#utility.yul\":7431:7436   */\n      dup2\n        /* \"#utility.yul\":7413:7437   */\n      tag_159\n      jump\t// in\n    tag_270:\n        /* \"#utility.yul\":7408:7411   */\n      dup3\n        /* \"#utility.yul\":7401:7438   */\n      mstore\n        /* \"#utility.yul\":7326:7444   */\n      pop\n      pop\n      jump\t// out\n        /* \"#utility.yul\":7450:7672   */\n    tag_34:\n        /* \"#utility.yul\":7543:7547   */\n      0x00\n        /* \"#utility.yul\":7581:7583   */\n      0x20\n        /* \"#utility.yul\":7570:7579   */\n      dup3\n        /* \"#utility.yul\":7566:7584   */\n      add\n        /* \"#utility.yul\":7558:7584   */\n      swap1\n      pop\n        /* \"#utility.yul\":7594:7665   */\n      tag_272\n        /* \"#utility.yul\":7662:7663   */\n      0x00\n        /* \"#utility.yul\":7651:7660   */\n      dup4\n        /* \"#utility.yul\":7647:7664   */\n      add\n        /* \"#utility.yul\":7638:7644   */\n      dup5\n        /* \"#utility.yul\":7594:7665   */\n      tag_164\n      jump\t// in\n    tag_272:\n        /* \"#utility.yul\":7450:7672   */\n      swap3\n      swap2\n      pop\n      pop\n      jump\t// out\n        /* \"#utility.yul\":7678:7794   */\n    tag_165:\n        /* \"#utility.yul\":7748:7769   */\n      tag_274\n        /* \"#utility.yul\":7763:7768   */\n      dup2\n        /* \"#utility.yul\":7748:7769   */\n      tag_162\n      jump\t// in\n    tag_274:\n        /* \"#utility.yul\":7741:7746   */\n      dup2\n        /* \"#utility.yul\":7738:7770   */\n      eq\n        /* \"#utility.yul\":7728:7788   */\n      tag_275\n      jumpi\n        /* \"#utility.yul\":7784:7785   */\n      0x00\n        /* \"#utility.yul\":7781:7782   */\n      dup1\n        /* \"#utility.yul\":7774:7786   */\n      revert\n        /* \"#utility.yul\":7728:7788   */\n    tag_275:\n        /* \"#utility.yul\":7678:7794   */\n      pop\n      jump\t// out\n        /* \"#utility.yul\":7800:7933   */\n    tag_166:\n        /* \"#utility.yul\":7843:7848   */\n      0x00\n        /* \"#utility.yul\":7881:7887   */\n      dup2\n        /* \"#utility.yul\":7868:7888   */\n      calldataload\n        /* \"#utility.yul\":7859:7888   */\n      swap1\n      pop\n        /* \"#utility.yul\":7897:7927   */\n      tag_277\n        /* \"#utility.yul\":7921:7926   */\n      dup2\n        /* \"#utility.yul\":7897:7927   */\n      tag_165\n      jump\t// in\n    tag_277:\n        /* \"#utility.yul\":7800:7933   */\n      swap3\n      swap2\n      pop\n      pop\n      jump\t// out\n        /* \"#utility.yul\":7939:8407   */\n    tag_37:\n        /* \"#utility.yul\":8004:8010   */\n      0x00\n        /* \"#utility.yul\":8012:8018   */\n      dup1\n        /* \"#utility.yul\":8061:8063   */\n      0x40\n        /* \"#utility.yul\":8049:8058   */\n      dup4\n        /* \"#utility.yul\":8040:8047   */\n      dup6\n        /* \"#utility.yul\":8036:8059   */\n      sub\n        /* \"#utility.yul\":8032:8064   */\n      slt\n        /* \"#utility.yul\":8029:8148   */\n      iszero\n      tag_279\n      jumpi\n        /* \"#utility.yul\":8067:8146   */\n      tag_280\n      tag_138\n      jump\t// in\n    tag_280:\n        /* \"#utility.yul\":8029:8148   */\n    tag_279:\n        /* \"#utility.yul\":8187:8188   */\n      0x00\n        /* \"#utility.yul\":8212:8265   */\n      tag_281\n        /* \"#utility.yul\":8257:8264   */\n      dup6\n        /* \"#utility.yul\":8248:8254   */\n      dup3\n        /* \"#utility.yul\":8237:8246   */\n      dup7\n        /* \"#utility.yul\":8233:8255   */\n      add\n        /* \"#utility.yul\":8212:8265   */\n      tag_142\n      jump\t// in\n    tag_281:\n        /* \"#utility.yul\":8202:8265   */\n      swap3\n      pop\n        /* \"#utility.yul\":8158:8275   */\n      pop\n        /* \"#utility.yul\":8314:8316   */\n      0x20\n        /* \"#utility.yul\":8340:8390   */\n      tag_282\n        /* \"#utility.yul\":8382:8389   */\n      dup6\n        /* \"#utility.yul\":8373:8379   */\n      dup3\n        /* \"#utility.yul\":8362:8371   */\n      dup7\n        /* \"#utility.yul\":8358:8380   */\n      add\n        /* \"#utility.yul\":8340:8390   */\n      tag_166\n      jump\t// in\n    tag_282:\n        /* \"#utility.yul\":8330:8390   */\n      swap2\n      pop\n        /* \"#utility.yul\":8285:8400   */\n      pop\n        /* \"#utility.yul\":7939:8407   */\n      swap3\n      pop\n      swap3\n      swap1\n      pop\n      jump\t// out\n        /* \"#utility.yul\":8413:9067   */\n    tag_41:\n        /* \"#utility.yul\":8491:8497   */\n      0x00\n        /* \"#utility.yul\":8499:8505   */\n      dup1\n        /* \"#utility.yul\":8548:8550   */\n      0x40\n        /* \"#utility.yul\":8536:8545   */\n      dup4\n        /* \"#utility.yul\":8527:8534   */\n      dup6\n        /* \"#utility.yul\":8523:8546   */\n      sub\n        /* \"#utility.yul\":8519:8551   */\n      slt\n        /* \"#utility.yul\":8516:8635   */\n      iszero\n      tag_284\n      jumpi\n        /* \"#utility.yul\":8554:8633   */\n      tag_285\n      tag_138\n      jump\t// in\n    tag_285:\n        /* \"#utility.yul\":8516:8635   */\n    tag_284:\n        /* \"#utility.yul\":8674:8675   */\n      0x00\n        /* \"#utility.yul\":8699:8752   */\n      tag_286\n        /* \"#utility.yul\":8744:8751   */\n      dup6\n        /* \"#utility.yul\":8735:8741   */\n      dup3\n        /* \"#utility.yul\":8724:8733   */\n      dup7\n        /* \"#utility.yul\":8720:8742   */\n      add\n        /* \"#utility.yul\":8699:8752   */\n      tag_142\n      jump\t// in\n    tag_286:\n        /* \"#utility.yul\":8689:8752   */\n      swap3\n      pop\n        /* \"#utility.yul\":8645:8762   */\n      pop\n        /* \"#utility.yul\":8829:8831   */\n      0x20\n        /* \"#utility.yul\":8818:8827   */\n      dup4\n        /* \"#utility.yul\":8814:8832   */\n      add\n        /* \"#utility.yul\":8801:8833   */\n      calldataload\n        /* \"#utility.yul\":8860:8878   */\n      0xffffffffffffffff\n        /* \"#utility.yul\":8852:8858   */\n      dup2\n        /* \"#utility.yul\":8849:8879   */\n      gt\n        /* \"#utility.yul\":8846:8963   */\n      iszero\n      tag_287\n      jumpi\n        /* \"#utility.yul\":8882:8961   */\n      tag_288\n      tag_139\n      jump\t// in\n    tag_288:\n        /* \"#utility.yul\":8846:8963   */\n    tag_287:\n        /* \"#utility.yul\":8987:9050   */\n      tag_289\n        /* \"#utility.yul\":9042:9049   */\n      dup6\n        /* \"#utility.yul\":9033:9039   */\n      dup3\n        /* \"#utility.yul\":9022:9031   */\n      dup7\n        /* \"#utility.yul\":9018:9040   */\n      add\n        /* \"#utility.yul\":8987:9050   */\n      tag_157\n      jump\t// in\n    tag_289:\n        /* \"#utility.yul\":8977:9050   */\n      swap2\n      pop\n        /* \"#utility.yul\":8772:9060   */\n      pop\n        /* \"#utility.yul\":8413:9067   */\n      swap3\n      pop\n      swap3\n      swap1\n      pop\n      jump\t// out\n        /* \"#utility.yul\":9073:9402   */\n    tag_45:\n        /* \"#utility.yul\":9132:9138   */\n      0x00\n        /* \"#utility.yul\":9181:9183   */\n      0x20\n        /* \"#utility.yul\":9169:9178   */\n      dup3\n        /* \"#utility.yul\":9160:9167   */\n      dup5\n        /* \"#utility.yul\":9156:9179   */\n      sub\n        /* \"#utility.yul\":9152:9184   */\n      slt\n        /* \"#utility.yul\":9149:9268   */\n      iszero\n      tag_291\n      jumpi\n        /* \"#utility.yul\":9187:9266   */\n      tag_292\n      tag_138\n      jump\t// in\n    tag_292:\n        /* \"#utility.yul\":9149:9268   */\n    tag_291:\n        /* \"#utility.yul\":9307:9308   */\n      0x00\n        /* \"#utility.yul\":9332:9385   */\n      tag_293\n        /* \"#utility.yul\":9377:9384   */\n      dup5\n        /* \"#utility.yul\":9368:9374   */\n      dup3\n        /* \"#utility.yul\":9357:9366   */\n      dup6\n        /* \"#utility.yul\":9353:9375   */\n      add\n        /* \"#utility.yul\":9332:9385   */\n      tag_161\n      jump\t// in\n    tag_293:\n        /* \"#utility.yul\":9322:9385   */\n      swap2\n      pop\n        /* \"#utility.yul\":9278:9395   */\n      pop\n        /* \"#utility.yul\":9073:9402   */\n      swap3\n      swap2\n      pop\n      pop\n      jump\t// out\n        /* \"#utility.yul\":9408:9882   */\n    tag_49:\n        /* \"#utility.yul\":9476:9482   */\n      0x00\n        /* \"#utility.yul\":9484:9490   */\n      dup1\n        /* \"#utility.yul\":9533:9535   */\n      0x40\n        /* \"#utility.yul\":9521:9530   */\n      dup4\n        /* \"#utility.yul\":9512:9519   */\n      dup6\n        /* \"#utility.yul\":9508:9531   */\n      sub\n        /* \"#utility.yul\":9504:9536   */\n      slt\n        /* \"#utility.yul\":9501:9620   */\n      iszero\n      tag_295\n      jumpi\n        /* \"#utility.yul\":9539:9618   */\n      tag_296\n      tag_138\n      jump\t// in\n    tag_296:\n        /* \"#utility.yul\":9501:9620   */\n    tag_295:\n        /* \"#utility.yul\":9659:9660   */\n      0x00\n        /* \"#utility.yul\":9684:9737   */\n      tag_297\n        /* \"#utility.yul\":9729:9736   */\n      dup6\n        /* \"#utility.yul\":9720:9726   */\n      dup3\n        /* \"#utility.yul\":9709:9718   */\n      dup7\n        /* \"#utility.yul\":9705:9727   */\n      add\n        /* \"#utility.yul\":9684:9737   */\n      tag_142\n      jump\t// in\n    tag_297:\n        /* \"#utility.yul\":9674:9737   */\n      swap3\n      pop\n        /* \"#utility.yul\":9630:9747   */\n      pop\n        /* \"#utility.yul\":9786:9788   */\n      0x20\n        /* \"#utility.yul\":9812:9865   */\n      tag_298\n        /* \"#utility.yul\":9857:9864   */\n      dup6\n        /* \"#utility.yul\":9848:9854   */\n      dup3\n        /* \"#utility.yul\":9837:9846   */\n      dup7\n        /* \"#utility.yul\":9833:9855   */\n      add\n        /* \"#utility.yul\":9812:9865   */\n      tag_142\n      jump\t// in\n    tag_298:\n        /* \"#utility.yul\":9802:9865   */\n      swap2\n      pop\n        /* \"#utility.yul\":9757:9875   */\n      pop\n        /* \"#utility.yul\":9408:9882   */\n      swap3\n      pop\n      swap3\n      swap1\n      pop\n      jump\t// out\n        /* \"#utility.yul\":9888:10068   */\n    tag_167:\n        /* \"#utility.yul\":9936:10013   */\n      0x4e487b7100000000000000000000000000000000000000000000000000000000\n        /* \"#utility.yul\":9933:9934   */\n      0x00\n        /* \"#utility.yul\":9926:10014   */\n      mstore\n        /* \"#utility.yul\":10033:10037   */\n      0x22\n        /* \"#utility.yul\":10030:10031   */\n      0x04\n        /* \"#utility.yul\":10023:10038   */\n      mstore\n        /* \"#utility.yul\":10057:10061   */\n      0x24\n        /* \"#utility.yul\":10054:10055   */\n      0x00\n        /* \"#utility.yul\":10047:10062   */\n      revert\n        /* \"#utility.yul\":10074:10394   */\n    tag_55:\n        /* \"#utility.yul\":10118:10124   */\n      0x00\n        /* \"#utility.yul\":10155:10156   */\n      0x02\n        /* \"#utility.yul\":10149:10153   */\n      dup3\n        /* \"#utility.yul\":10145:10157   */\n      div\n        /* \"#utility.yul\":10135:10157   */\n      swap1\n      pop\n        /* \"#utility.yul\":10202:10203   */\n      0x01\n        /* \"#utility.yul\":10196:10200   */\n      dup3\n        /* \"#utility.yul\":10192:10204   */\n      and\n        /* \"#utility.yul\":10223:10241   */\n      dup1\n        /* \"#utility.yul\":10213:10294   */\n      tag_301\n      jumpi\n        /* \"#utility.yul\":10279:10283   */\n      0x7f\n        /* \"#utility.yul\":10271:10277   */\n      dup3\n        /* \"#utility.yul\":10267:10284   */\n      and\n        /* \"#utility.yul\":10257:10284   */\n      swap2\n      pop\n        /* \"#utility.yul\":10213:10294   */\n    tag_301:\n        /* \"#utility.yul\":10341:10343   */\n      0x20\n        /* \"#utility.yul\":10333:10339   */\n      dup3\n        /* \"#utility.yul\":10330:10344   */\n      lt\n        /* \"#utility.yul\":10310:10328   */\n      dup2\n        /* \"#utility.yul\":10307:10345   */\n      sub\n        /* \"#utility.yul\":10304:10388   */\n      tag_302\n      jumpi\n        /* \"#utility.yul\":10360:10378   */\n      tag_303\n      tag_167\n      jump\t// in\n    tag_303:\n        /* \"#utility.yul\":10304:10388   */\n    tag_302:\n        /* \"#utility.yul\":10125:10394   */\n      pop\n        /* \"#utility.yul\":10074:10394   */\n      swap2\n      swap1\n      pop\n      jump\t// out\n        /* \"#utility.yul\":10400:10541   */\n    tag_168:\n        /* \"#utility.yul\":10449:10453   */\n      0x00\n        /* \"#utility.yul\":10472:10475   */\n      dup2\n        /* \"#utility.yul\":10464:10475   */\n      swap1\n      pop\n        /* \"#utility.yul\":10495:10498   */\n      dup2\n        /* \"#utility.yul\":10492:10493   */\n      0x00\n        /* \"#utility.yul\":10485:10499   */\n      mstore\n        /* \"#utility.yul\":10529:10533   */\n      0x20\n        /* \"#utility.yul\":10526:10527   */\n      0x00\n        /* \"#utility.yul\":10516:10534   */\n      keccak256\n        /* \"#utility.yul\":10508:10534   */\n      swap1\n      pop\n        /* \"#utility.yul\":10400:10541   */\n      swap2\n      swap1\n      pop\n      jump\t// out\n        /* \"#utility.yul\":10547:10640   */\n    tag_169:\n        /* \"#utility.yul\":10584:10590   */\n      0x00\n        /* \"#utility.yul\":10631:10633   */\n      0x20\n        /* \"#utility.yul\":10626:10628   */\n      0x1f\n        /* \"#utility.yul\":10619:10624   */\n      dup4\n        /* \"#utility.yul\":10615:10629   */\n      add\n        /* \"#utility.yul\":10611:10634   */\n      div\n        /* \"#utility.yul\":10601:10634   */\n      swap1\n      pop\n        /* \"#utility.yul\":10547:10640   */\n      swap2\n      swap1\n      pop\n      jump\t// out\n        /* \"#utility.yul\":10646:10753   */\n    tag_170:\n        /* \"#utility.yul\":10690:10698   */\n      0x00\n        /* \"#utility.yul\":10740:10745   */\n      dup3\n        /* \"#utility.yul\":10734:10738   */\n      dup3\n        /* \"#utility.yul\":10730:10746   */\n      shl\n        /* \"#utility.yul\":10709:10746   */\n      swap1\n      pop\n        /* \"#utility.yul\":10646:10753   */\n      swap3\n      swap2\n      pop\n      pop\n      jump\t// out\n        /* \"#utility.yul\":10759:11152   */\n    tag_171:\n        /* \"#utility.yul\":10828:10834   */\n      0x00\n        /* \"#utility.yul\":10878:10879   */\n      0x08\n        /* \"#utility.yul\":10866:10876   */\n      dup4\n        /* \"#utility.yul\":10862:10880   */\n      mul\n        /* \"#utility.yul\":10901:10998   */\n      tag_308\n        /* \"#utility.yul\":10931:10997   */\n      0xffffffffffffffffffffffffffffffffffffffffffffffffffffffffffffffff\n        /* \"#utility.yul\":10920:10929   */\n      dup3\n        /* \"#utility.yul\":10901:10998   */\n      tag_170\n      jump\t// in\n    tag_308:\n        /* \"#utility.yul\":11019:11058   */\n      tag_309\n        /* \"#utility.yul\":11049:11057   */\n      dup7\n        /* \"#utility.yul\":11038:11047   */\n      dup4\n        /* \"#utility.yul\":11019:11058   */\n      tag_170\n      jump\t// in\n    tag_309:\n        /* \"#utility.yul\":11007:11058   */\n      swap6\n      pop\n        /* \"#utility.yul\":11091:11095   */\n      dup1\n        /* \"#utility.yul\":11087:11096   */\n      not\n        /* \"#utility.yul\":11080:11085   */\n      dup5\n        /* \"#utility.yul\":11076:11097   */\n      and\n        /* \"#utility.yul\":11067:11097   */\n      swap4\n      pop\n        /* \"#utility.yul\":11140:11144   */\n      dup1\n        /* \"#utility.yul\":11130:11138   */\n      dup7\n        /* \"#utility.yul\":11126:11145   */\n      and\n        /* \"#utility.yul\":11119:11124   */\n      dup5\n        /* \"#utility.yul\":11116:11146   */\n      or\n        /* \"#utility.yul\":11106:11146   */\n      swap3\n      pop\n        /* \"#utility.yul\":10835:11152   */\n      pop\n      pop\n        /* \"#utility.yul\":10759:11152   */\n      swap4\n      swap3\n      pop\n      pop\n      pop\n      jump\t// out\n        /* \"#utility.yul\":11158:11218   */\n    tag_172:\n        /* \"#utility.yul\":11186:11189   */\n      0x00\n        /* \"#utility.yul\":11207:11212   */\n      dup2\n        /* \"#utility.yul\":11200:11212   */\n      swap1\n      pop\n        /* \"#utility.yul\":11158:11218   */\n      swap2\n      swap1\n      pop\n      jump\t// out\n        /* \"#utility.yul\":11224:11366   */\n    tag_173:\n        /* \"#utility.yul\":11274:11283   */\n      0x00\n        /* \"#utility.yul\":11307:11360   */\n      tag_312\n        /* \"#utility.yul\":11325:11359   */\n      tag_313\n        /* \"#utility.yul\":11334:11358   */\n      tag_314\n        /* \"#utility.yul\":11352:11357   */\n      dup5\n        /* \"#utility.yul\":11334:11358   */\n      tag_140\n      jump\t// in\n    tag_314:\n        /* \"#utility.yul\":11325:11359   */\n      tag_172\n      jump\t// in\n    tag_313:\n        /* \"#utility.yul\":11307:11360   */\n      tag_140\n      jump\t// in\n    tag_312:\n        /* \"#utility.yul\":11294:11360   */\n      swap1\n      pop\n        /* \"#utility.yul\":11224:11366   */\n      swap2\n      swap1\n      pop\n      jump\t// out\n        /* \"#utility.yul\":11372:11447   */\n    tag_174:\n        /* \"#utility.yul\":11415:11418   */\n      0x00\n        /* \"#utility.yul\":11436:11441   */\n      dup2\n        /* \"#utility.yul\":11429:11441   */\n      swap1\n      pop\n        /* \"#utility.yul\":11372:11447   */\n      swap2\n      swap1\n      pop\n      jump\t// out\n        /* \"#utility.yul\":11453:11722   */\n    tag_175:\n        /* \"#utility.yul\":11563:11602   */\n      tag_317\n        /* \"#utility.yul\":11594:11601   */\n      dup4\n        /* \"#utility.yul\":11563:11602   */\n      tag_173\n      jump\t// in\n    tag_317:\n        /* \"#utility.yul\":11624:11715   */\n      tag_318\n        /* \"#utility.yul\":11673:11714   */\n      tag_319\n        /* \"#utility.yul\":11697:11713   */\n      dup3\n        /* \"#utility.yul\":11673:11714   */\n      tag_174\n      jump\t// in\n    tag_319:\n        /* \"#utility.yul\":11665:11671   */\n      dup5\n        /* \"#utility.yul\":11658:11662   */\n      dup5\n        /* \"#utility.yul\":11652:11663   */\n      sload\n        /* \"#utility.yul\":11624:11715   */\n      tag_171\n      jump\t// in\n    tag_318:\n        /* \"#utility.yul\":11618:11622   */\n      dup3\n        /* \"#utility.yul\":11611:11716   */\n      sstore\n        /* \"#utility.yul\":11529:11722   */\n      pop\n        /* \"#utility.yul\":11453:11722   */\n      pop\n      pop\n      pop\n      jump\t// out\n        /* \"#utility.yul\":11728:11801   */\n    tag_176:\n        /* \"#utility.yul\":11773:11776   */\n      0x00\n        /* \"#utility.yul\":11728:11801   */\n      swap1\n      jump\t// out\n        /* \"#utility.yul\":11807:11996   */\n    tag_177:\n        /* \"#utility.yul\":11884:11916   */\n      tag_322\n      tag_176\n      jump\t// in\n    tag_322:\n        /* \"#utility.yul\":11925:11990   */\n      tag_323\n        /* \"#utility.yul\":11983:11989   */\n      dup2\n        /* \"#utility.yul\":11975:11981   */\n      dup5\n        /* \"#utility.yul\":11969:11973   */\n      dup5\n        /* \"#utility.yul\":11925:11990   */\n      tag_175\n      jump\t// in\n    tag_323:\n        /* \"#utility.yul\":11860:11996   */\n      pop\n        /* \"#utility.yul\":11807:11996   */\n      pop\n      pop\n      jump\t// out\n        /* \"#utility.yul\":12002:12188   */\n    tag_178:\n        /* \"#utility.yul\":12062:12182   */\n    tag_325:\n        /* \"#utility.yul\":12079:12082   */\n      dup2\n        /* \"#utility.yul\":12072:12077   */\n      dup2\n        /* \"#utility.yul\":12069:12083   */\n      lt\n        /* \"#utility.yul\":12062:12182   */\n      iszero\n      tag_327\n      jumpi\n        /* \"#utility.yul\":12133:12172   */\n      tag_328\n        /* \"#utility.yul\":12170:12171   */\n      0x00\n        /* \"#utility.yul\":12163:12168   */\n      dup3\n        /* \"#utility.yul\":12133:12172   */\n      tag_177\n      jump\t// in\n    tag_328:\n        /* \"#utility.yul\":12106:12107   */\n      0x01\n        /* \"#utility.yul\":12099:12104   */\n      dup2\n        /* \"#utility.yul\":12095:12108   */\n      add\n        /* \"#utility.yul\":12086:12108   */\n      swap1\n      pop\n        /* \"#utility.yul\":12062:12182   */\n      jump(tag_325)\n    tag_327:\n        /* \"#utility.yul\":12002:12188   */\n      pop\n      pop\n      jump\t// out\n        /* \"#utility.yul\":12194:12737   */\n    tag_179:\n        /* \"#utility.yul\":12295:12297   */\n      0x1f\n        /* \"#utility.yul\":12290:12293   */\n      dup3\n        /* \"#utility.yul\":12287:12298   */\n      gt\n        /* \"#utility.yul\":12284:12730   */\n      iszero\n      tag_330\n      jumpi\n        /* \"#utility.yul\":12329:12367   */\n      tag_331\n        /* \"#utility.yul\":12361:12366   */\n      dup2\n        /* \"#utility.yul\":12329:12367   */\n      tag_168\n      jump\t// in\n    tag_331:\n        /* \"#utility.yul\":12413:12442   */\n      tag_332\n        /* \"#utility.yul\":12431:12441   */\n      dup5\n        /* \"#utility.yul\":12413:12442   */\n      tag_169\n      jump\t// in\n    tag_332:\n        /* \"#utility.yul\":12403:12411   */\n      dup2\n        /* \"#utility.yul\":12399:12443   */\n      add\n        /* \"#utility.yul\":12596:12598   */\n      0x20\n        /* \"#utility.yul\":12584:12594   */\n      dup6\n        /* \"#utility.yul\":12581:12599   */\n      lt\n        /* \"#utility.yul\":12578:12627   */\n      iszero\n      tag_333\n      jumpi\n        /* \"#utility.yul\":12617:12625   */\n      dup2\n        /* \"#utility.yul\":12602:12625   */\n      swap1\n      pop\n        /* \"#utility.yul\":12578:12627   */\n    tag_333:\n        /* \"#utility.yul\":12640:12720   */\n      tag_334\n        /* \"#utility.yul\":12696:12718   */\n      tag_335\n        /* \"#utility.yul\":12714:12717   */\n      dup6\n        /* \"#utility.yul\":12696:12718   */\n      tag_169\n      jump\t// in\n    tag_335:\n        /* \"#utility.yul\":12686:12694   */\n      dup4\n        /* \"#utility.yul\":12682:12719   */\n      add\n        /* \"#utility.yul\":12669:12680   */\n      dup3\n        /* \"#utility.yul\":12640:12720   */\n      tag_178\n      jump\t// in\n    tag_334:\n        /* \"#utility.yul\":12299:12730   */\n      pop\n      pop\n        /* \"#utility.yul\":12284:12730   */\n    tag_330:\n        /* \"#utility.yul\":12194:12737   */\n      pop\n      pop\n      pop\n      jump\t// out\n        /* \"#utility.yul\":12743:12860   */\n    tag_180:\n        /* \"#utility.yul\":12797:12805   */\n      0x00\n        /* \"#utility.yul\":12847:12852   */\n      dup3\n        /* \"#utility.yul\":12841:12845   */\n      dup3\n        /* \"#utility.yul\":12837:12853   */\n      shr\n        /* \"#utility.yul\":12816:12853   */\n      swap1\n      pop\n        /* \"#utility.yul\":12743:12860   */\n      swap3\n      swap2\n      pop\n      pop\n      jump\t// out\n        /* \"#utility.yul\":12866:13035   */\n    tag_181:\n        /* \"#utility.yul\":12910:12916   */\n      0x00\n        /* \"#utility.yul\":12943:12994   */\n      tag_338\n        /* \"#utility.yul\":12991:12992   */\n      0x00\n        /* \"#utility.yul\":12987:12993   */\n      not\n        /* \"#utility.yul\":12979:12984   */\n      dup5\n        /* \"#utility.yul\":12976:12977   */\n      0x08\n        /* \"#utility.yul\":12972:12985   */\n      mul\n        /* \"#utility.yul\":12943:12994   */\n      tag_180\n      jump\t// in\n    tag_338:\n        /* \"#utility.yul\":12939:12995   */\n      not\n        /* \"#utility.yul\":13024:13028   */\n      dup1\n        /* \"#utility.yul\":13018:13022   */\n      dup4\n        /* \"#utility.yul\":13014:13029   */\n      and\n        /* \"#utility.yul\":13004:13029   */\n      swap2\n      pop\n        /* \"#utility.yul\":12917:13035   */\n      pop\n        /* \"#utility.yul\":12866:13035   */\n      swap3\n      swap2\n      pop\n      pop\n      jump\t// out\n        /* \"#utility.yul\":13040:13335   */\n    tag_182:\n        /* \"#utility.yul\":13116:13120   */\n      0x00\n        /* \"#utility.yul\":13262:13291   */\n      tag_340\n        /* \"#utility.yul\":13287:13290   */\n      dup4\n        /* \"#utility.yul\":13281:13285   */\n      dup4\n        /* \"#utility.yul\":13262:13291   */\n      tag_181\n      jump\t// in\n    tag_340:\n        /* \"#utility.yul\":13254:13291   */\n      swap2\n      pop\n        /* \"#utility.yul\":13324:13327   */\n      dup3\n        /* \"#utility.yul\":13321:13322   */\n      0x02\n        /* \"#utility.yul\":13317:13328   */\n      mul\n        /* \"#utility.yul\":13311:13315   */\n      dup3\n        /* \"#utility.yul\":13308:13329   */\n      or\n        /* \"#utility.yul\":13300:13329   */\n      swap1\n      pop\n        /* \"#utility.yul\":13040:13335   */\n      swap3\n      swap2\n      pop\n      pop\n      jump\t// out\n        /* \"#utility.yul\":13340:14735   */\n    tag_71:\n        /* \"#utility.yul\":13457:13494   */\n      tag_342\n        /* \"#utility.yul\":13490:13493   */\n      dup3\n        /* \"#utility.yul\":13457:13494   */\n      tag_144\n      jump\t// in\n    tag_342:\n        /* \"#utility.yul\":13559:13577   */\n      0xffffffffffffffff\n        /* \"#utility.yul\":13551:13557   */\n      dup2\n        /* \"#utility.yul\":13548:13578   */\n      gt\n        /* \"#utility.yul\":13545:13601   */\n      iszero\n      tag_343\n      jumpi\n        /* \"#utility.yul\":13581:13599   */\n      tag_344\n      tag_151\n      jump\t// in\n    tag_344:\n        /* \"#utility.yul\":13545:13601   */\n    tag_343:\n        /* \"#utility.yul\":13625:13663   */\n      tag_345\n        /* \"#utility.yul\":13657:13661   */\n      dup3\n        /* \"#utility.yul\":13651:13662   */\n      sload\n        /* \"#utility.yul\":13625:13663   */\n      tag_55\n      jump\t// in\n    tag_345:\n        /* \"#utility.yul\":13710:13777   */\n      tag_346\n        /* \"#utility.yul\":13770:13776   */\n      dup3\n        /* \"#utility.yul\":13762:13768   */\n      dup3\n        /* \"#utility.yul\":13756:13760   */\n      dup6\n        /* \"#utility.yul\":13710:13777   */\n      tag_179\n      jump\t// in\n    tag_346:\n        /* \"#utility.yul\":13804:13805   */\n      0x00\n        /* \"#utility.yul\":13828:13832   */\n      0x20\n        /* \"#utility.yul\":13815:13832   */\n      swap1\n      pop\n        /* \"#utility.yul\":13860:13862   */\n      0x1f\n        /* \"#utility.yul\":13852:13858   */\n      dup4\n        /* \"#utility.yul\":13849:13863   */\n      gt\n        /* \"#utility.yul\":13877:13878   */\n      0x01\n        /* \"#utility.yul\":13872:14490   */\n      dup2\n      eq\n      tag_348\n      jumpi\n        /* \"#utility.yul\":14534:14535   */\n      0x00\n        /* \"#utility.yul\":14551:14557   */\n      dup5\n        /* \"#utility.yul\":14548:14625   */\n      iszero\n      tag_349\n      jumpi\n        /* \"#utility.yul\":14600:14609   */\n      dup3\n        /* \"#utility.yul\":14595:14598   */\n      dup8\n        /* \"#utility.yul\":14591:14610   */\n      add\n        /* \"#utility.yul\":14585:14611   */\n      mload\n        /* \"#utility.yul\":14576:14611   */\n      swap1\n      pop\n        /* \"#utility.yul\":14548:14625   */\n    tag_349:\n        /* \"#utility.yul\":14651:14718   */\n      tag_350\n        /* \"#utility.yul\":14711:14717   */\n      dup6\n        /* \"#utility.yul\":14704:14709   */\n      dup3\n        /* \"#utility.yul\":14651:14718   */\n      tag_182\n      jump\t// in\n    tag_350:\n        /* \"#utility.yul\":14645:14649   */\n      dup7\n        /* \"#utility.yul\":14638:14719   */\n      sstore\n        /* \"#utility.yul\":14507:14729   */\n      pop\n        /* \"#utility.yul\":13842:14729   */\n      jump(tag_347)\n        /* \"#utility.yul\":13872:14490   */\n    tag_348:\n        /* \"#utility.yul\":13924:13928   */\n      0x1f\n        /* \"#utility.yul\":13920:13929   */\n      not\n        /* \"#utility.yul\":13912:13918   */\n      dup5\n        /* \"#utility.yul\":13908:13930   */\n      and\n        /* \"#utility.yul\":13958:13995   */\n      tag_351\n        /* \"#utility.yul\":13990:13994   */\n      dup7\n        /* \"#utility.yul\":13958:13995   */\n      tag_168\n      jump\t// in\n    tag_351:\n        /* \"#utility.yul\":14017:14018   */\n      0x00\n        /* \"#utility.yul\":14031:14239   */\n    tag_352:\n        /* \"#utility.yul\":14045:14052   */\n      dup3\n        /* \"#utility.yul\":14042:14043   */\n      dup2\n        /* \"#utility.yul\":14039:14053   */\n      lt\n        /* \"#utility.yul\":14031:14239   */\n      iszero\n      tag_354\n      jumpi\n        /* \"#utility.yul\":14124:14133   */\n      dup5\n        /* \"#utility.yul\":14119:14122   */\n      dup10\n        /* \"#utility.yul\":14115:14134   */\n      add\n        /* \"#utility.yul\":14109:14135   */\n      mload\n        /* \"#utility.yul\":14101:14107   */\n      dup3\n        /* \"#utility.yul\":14094:14136   */\n      sstore\n        /* \"#utility.yul\":14175:14176   */\n      0x01\n        /* \"#utility.yul\":14167:14173   */\n      dup3\n        /* \"#utility.yul\":14163:14177   */\n      add\n        /* \"#utility.yul\":14153:14177   */\n      swap2\n      pop\n        /* \"#utility.yul\":14222:14224   */\n      0x20\n        /* \"#utility.yul\":14211:14220   */\n      dup6\n        /* \"#utility.yul\":14207:14225   */\n      add\n        /* \"#utility.yul\":14194:14225   */\n      swap5\n      pop\n        /* \"#utility.yul\":14068:14072   */\n      0x20\n        /* \"#utility.yul\":14065:14066   */\n      dup2\n        /* \"#utility.yul\":14061:14073   */\n      add\n        /* \"#utility.yul\":14056:14073   */\n      swap1\n      pop\n        /* \"#utility.yul\":14031:14239   */\n      jump(tag_352)\n    tag_354:\n        /* \"#utility.yul\":14267:14273   */\n      dup7\n        /* \"#utility.yul\":14258:14265   */\n      dup4\n        /* \"#utility.yul\":14255:14274   */\n      lt\n        /* \"#utility.yul\":14252:14431   */\n      iszero\n      tag_355\n      jumpi\n        /* \"#utility.yul\":14325:14334   */\n      dup5\n        /* \"#utility.yul\":14320:14323   */\n      dup10\n        /* \"#utility.yul\":14316:14335   */\n      add\n        /* \"#utility.yul\":14310:14336   */\n      mload\n        /* \"#utility.yul\":14368:14416   */\n      tag_356\n        /* \"#utility.yul\":14410:14414   */\n      0x1f\n        /* \"#utility.yul\":14402:14408   */\n      dup10\n        /* \"#utility.yul\":14398:14415   */\n      and\n        /* \"#utility.yul\":14387:14396   */\n      dup3\n        /* \"#utility.yul\":14368:14416   */\n      tag_181\n      jump\t// in\n    tag_356:\n        /* \"#utility.yul\":14360:14366   */\n      dup4\n        /* \"#utility.yul\":14353:14417   */\n      sstore\n        /* \"#utility.yul\":14275:14431   */\n      pop\n        /* \"#utility.yul\":14252:14431   */\n    tag_355:\n        /* \"#utility.yul\":14477:14478   */\n      0x01\n        /* \"#utility.yul\":14473:14474   */\n      0x02\n        /* \"#utility.yul\":14465:14471   */\n      dup9\n        /* \"#utility.yul\":14461:14475   */\n      mul\n        /* \"#utility.yul\":14457:14479   */\n      add\n        /* \"#utility.yul\":14451:14455   */\n      dup9\n        /* \"#utility.yul\":14444:14480   */\n      sstore\n        /* \"#utility.yul\":13879:14490   */\n      pop\n      pop\n      pop\n        /* \"#utility.yul\":13842:14729   */\n    tag_347:\n      pop\n        /* \"#utility.yul\":13432:14735   */\n      pop\n      pop\n      pop\n        /* \"#utility.yul\":13340:14735   */\n      pop\n      pop\n      jump\t// out\n        /* \"#utility.yul\":14741:14921   */\n    tag_183:\n        /* \"#utility.yul\":14789:14866   */\n      0x4e487b7100000000000000000000000000000000000000000000000000000000\n        /* \"#utility.yul\":14786:14787   */\n      0x00\n        /* \"#utility.yul\":14779:14867   */\n      mstore\n        /* \"#utility.yul\":14886:14890   */\n      0x11\n        /* \"#utility.yul\":14883:14884   */\n      0x04\n        /* \"#utility.yul\":14876:14891   */\n      mstore\n        /* \"#utility.yul\":14910:14914   */\n      0x24\n        /* \"#utility.yul\":14907:14908   */\n      0x00\n        /* \"#utility.yul\":14900:14915   */\n      revert\n        /* \"#utility.yul\":14927:15121   */\n    tag_74:\n        /* \"#utility.yul\":14967:14971   */\n      0x00\n        /* \"#utility.yul\":14987:15007   */\n      tag_359\n        /* \"#utility.yul\":15005:15006   */\n      dup3\n        /* \"#utility.yul\":14987:15007   */\n      tag_140\n      jump\t// in\n    tag_359:\n        /* \"#utility.yul\":14982:15007   */\n      swap2\n      pop\n        /* \"#utility.yul\":15021:15041   */\n      tag_360\n        /* \"#utility.yul\":15039:15040   */\n      dup4\n        /* \"#utility.yul\":15021:15041   */\n      tag_140\n      jump\t// in\n    tag_360:\n        /* \"#utility.yul\":15016:15041   */\n      swap3\n      pop\n        /* \"#utility.yul\":15065:15066   */\n      dup3\n        /* \"#utility.yul\":15062:15063   */\n      dup3\n        /* \"#utility.yul\":15058:15067   */\n      sub\n        /* \"#utility.yul\":15050:15067   */\n      swap1\n      pop\n        /* \"#utility.yul\":15089:15090   */\n      dup2\n        /* \"#utility.yul\":15083:15087   */\n      dup2\n        /* \"#utility.yul\":15080:15091   */\n      gt\n        /* \"#utility.yul\":15077:15114   */\n      iszero\n      tag_361\n      jumpi\n        /* \"#utility.yul\":15094:15112   */\n      tag_362\n      tag_183\n      jump\t// in\n    tag_362:\n        /* \"#utility.yul\":15077:15114   */\n    tag_361:\n        /* \"#utility.yul\":14927:15121   */\n      swap3\n      swap2\n      pop\n      pop\n      jump\t// out\n        /* \"#utility.yul\":15127:15660   */\n    tag_76:\n        /* \"#utility.yul\":15296:15300   */\n      0x00\n        /* \"#utility.yul\":15334:15336   */\n      0x60\n        /* \"#utility.yul\":15323:15332   */\n      dup3\n        /* \"#utility.yul\":15319:15337   */\n      add\n        /* \"#utility.yul\":15311:15337   */\n      swap1\n      pop\n        /* \"#utility.yul\":15347:15418   */\n      tag_364\n        /* \"#utility.yul\":15415:15416   */\n      0x00\n        /* \"#utility.yul\":15404:15413   */\n      dup4\n        /* \"#utility.yul\":15400:15417   */\n      add\n        /* \"#utility.yul\":15391:15397   */\n      dup7\n        /* \"#utility.yul\":15347:15418   */\n      tag_143\n      jump\t// in\n    tag_364:\n        /* \"#utility.yul\":15465:15474   */\n      dup2\n        /* \"#utility.yul\":15459:15463   */\n      dup2\n        /* \"#utility.yul\":15455:15475   */\n      sub\n        /* \"#utility.yul\":15450:15452   */\n      0x20\n        /* \"#utility.yul\":15439:15448   */\n      dup4\n        /* \"#utility.yul\":15435:15453   */\n      add\n        /* \"#utility.yul\":15428:15476   */\n      mstore\n        /* \"#utility.yul\":15493:15571   */\n      tag_365\n        /* \"#utility.yul\":15566:15570   */\n      dup2\n        /* \"#utility.yul\":15557:15563   */\n      dup6\n        /* \"#utility.yul\":15493:15571   */\n      tag_148\n      jump\t// in\n    tag_365:\n        /* \"#utility.yul\":15485:15571   */\n      swap1\n      pop\n        /* \"#utility.yul\":15581:15653   */\n      tag_366\n        /* \"#utility.yul\":15649:15651   */\n      0x40\n        /* \"#utility.yul\":15638:15647   */\n      dup4\n        /* \"#utility.yul\":15634:15652   */\n      add\n        /* \"#utility.yul\":15625:15631   */\n      dup5\n        /* \"#utility.yul\":15581:15653   */\n      tag_143\n      jump\t// in\n    tag_366:\n        /* \"#utility.yul\":15127:15660   */\n      swap5\n      swap4\n      pop\n      pop\n      pop\n      pop\n      jump\t// out\n        /* \"#utility.yul\":15666:15834   */\n    tag_184:\n        /* \"#utility.yul\":15806:15826   */\n      0x496e76616c69642070726f706f73616c49640000000000000000000000000000\n        /* \"#utility.yul\":15802:15803   */\n      0x00\n        /* \"#utility.yul\":15794:15800   */\n      dup3\n        /* \"#utility.yul\":15790:15804   */\n      add\n        /* \"#utility.yul\":15783:15827   */\n      mstore\n        /* \"#utility.yul\":15666:15834   */\n      pop\n      jump\t// out\n        /* \"#utility.yul\":15840:16206   */\n    tag_185:\n        /* \"#utility.yul\":15982:15985   */\n      0x00\n        /* \"#utility.yul\":16003:16070   */\n      tag_369\n        /* \"#utility.yul\":16067:16069   */\n      0x12\n        /* \"#utility.yul\":16062:16065   */\n      dup4\n        /* \"#utility.yul\":16003:16070   */\n      tag_145\n      jump\t// in\n    tag_369:\n        /* \"#utility.yul\":15996:16070   */\n      swap2\n      pop\n        /* \"#utility.yul\":16079:16172   */\n      tag_370\n        /* \"#utility.yul\":16168:16171   */\n      dup3\n        /* \"#utility.yul\":16079:16172   */\n      tag_184\n      jump\t// in\n    tag_370:\n        /* \"#utility.yul\":16197:16199   */\n      0x20\n        /* \"#utility.yul\":16192:16195   */\n      dup3\n        /* \"#utility.yul\":16188:16200   */\n      add\n        /* \"#utility.yul\":16181:16200   */\n      swap1\n      pop\n        /* \"#utility.yul\":15840:16206   */\n      swap2\n      swap1\n      pop\n      jump\t// out\n        /* \"#utility.yul\":16212:16631   */\n    tag_80:\n        /* \"#utility.yul\":16378:16382   */\n      0x00\n        /* \"#utility.yul\":16416:16418   */\n      0x20\n        /* \"#utility.yul\":16405:16414   */\n      dup3\n        /* \"#utility.yul\":16401:16419   */\n      add\n        /* \"#utility.yul\":16393:16419   */\n      swap1\n      pop\n        /* \"#utility.yul\":16465:16474   */\n      dup2\n        /* \"#utility.yul\":16459:16463   */\n      dup2\n        /* \"#utility.yul\":16455:16475   */\n      sub\n        /* \"#utility.yul\":16451:16452   */\n      0x00\n        /* \"#utility.yul\":16440:16449   */\n      dup4\n        /* \"#utility.yul\":16436:16453   */\n      add\n        /* \"#utility.yul\":16429:16476   */\n      mstore\n        /* \"#utility.yul\":16493:16624   */\n      tag_372\n        /* \"#utility.yul\":16619:16623   */\n      dup2\n        /* \"#utility.yul\":16493:16624   */\n      tag_185\n      jump\t// in\n    tag_372:\n        /* \"#utility.yul\":16485:16624   */\n      swap1\n      pop\n        /* \"#utility.yul\":16212:16631   */\n      swap2\n      swap1\n      pop\n      jump\t// out\n        /* \"#utility.yul\":16637:16817   */\n    tag_86:\n        /* \"#utility.yul\":16685:16762   */\n      0x4e487b7100000000000000000000000000000000000000000000000000000000\n        /* \"#utility.yul\":16682:16683   */\n      0x00\n        /* \"#utility.yul\":16675:16763   */\n      mstore\n        /* \"#utility.yul\":16782:16786   */\n      0x32\n        /* \"#utility.yul\":16779:16780   */\n      0x04\n        /* \"#utility.yul\":16772:16787   */\n      mstore\n        /* \"#utility.yul\":16806:16810   */\n      0x24\n        /* \"#utility.yul\":16803:16804   */\n      0x00\n        /* \"#utility.yul\":16796:16811   */\n      revert\n        /* \"#utility.yul\":16823:17014   */\n    tag_103:\n        /* \"#utility.yul\":16863:16866   */\n      0x00\n        /* \"#utility.yul\":16882:16902   */\n      tag_375\n        /* \"#utility.yul\":16900:16901   */\n      dup3\n        /* \"#utility.yul\":16882:16902   */\n      tag_140\n      jump\t// in\n    tag_375:\n        /* \"#utility.yul\":16877:16902   */\n      swap2\n      pop\n        /* \"#utility.yul\":16916:16936   */\n      tag_376\n        /* \"#utility.yul\":16934:16935   */\n      dup4\n        /* \"#utility.yul\":16916:16936   */\n      tag_140\n      jump\t// in\n    tag_376:\n        /* \"#utility.yul\":16911:16936   */\n      swap3\n      pop\n        /* \"#utility.yul\":16959:16960   */\n      dup3\n        /* \"#utility.yul\":16956:16957   */\n      dup3\n        /* \"#utility.yul\":16952:16961   */\n      add\n        /* \"#utility.yul\":16945:16961   */\n      swap1\n      pop\n        /* \"#utility.yul\":16980:16983   */\n      dup1\n        /* \"#utility.yul\":16977:16978   */\n      dup3\n        /* \"#utility.yul\":16974:16984   */\n      gt\n        /* \"#utility.yul\":16971:17007   */\n      iszero\n      tag_377\n      jumpi\n        /* \"#utility.yul\":16987:17005   */\n      tag_378\n      tag_183\n      jump\t// in\n    tag_378:\n        /* \"#utility.yul\":16971:17007   */\n    tag_377:\n        /* \"#utility.yul\":16823:17014   */\n      swap3\n      swap2\n      pop\n      pop\n      jump\t// out\n        /* \"#utility.yul\":17020:17450   */\n    tag_108:\n        /* \"#utility.yul\":17163:17167   */\n      0x00\n        /* \"#utility.yul\":17201:17203   */\n      0x60\n        /* \"#utility.yul\":17190:17199   */\n      dup3\n        /* \"#utility.yul\":17186:17204   */\n      add\n        /* \"#utility.yul\":17178:17204   */\n      swap1\n      pop\n        /* \"#utility.yul\":17214:17285   */\n      tag_380\n        /* \"#utility.yul\":17282:17283   */\n      0x00\n        /* \"#utility.yul\":17271:17280   */\n      dup4\n        /* \"#utility.yul\":17267:17284   */\n      add\n        /* \"#utility.yul\":17258:17264   */\n      dup7\n        /* \"#utility.yul\":17214:17285   */\n      tag_164\n      jump\t// in\n    tag_380:\n        /* \"#utility.yul\":17295:17367   */\n      tag_381\n        /* \"#utility.yul\":17363:17365   */\n      0x20\n        /* \"#utility.yul\":17352:17361   */\n      dup4\n        /* \"#utility.yul\":17348:17366   */\n      add\n        /* \"#utility.yul\":17339:17345   */\n      dup6\n        /* \"#utility.yul\":17295:17367   */\n      tag_143\n      jump\t// in\n    tag_381:\n        /* \"#utility.yul\":17377:17443   */\n      tag_382\n        /* \"#utility.yul\":17439:17441   */\n      0x40\n        /* \"#utility.yul\":17428:17437   */\n      dup4\n        /* \"#utility.yul\":17424:17442   */\n      add\n        /* \"#utility.yul\":17415:17421   */\n      dup5\n        /* \"#utility.yul\":17377:17443   */\n      tag_163\n      jump\t// in\n    tag_382:\n        /* \"#utility.yul\":17020:17450   */\n      swap5\n      swap4\n      pop\n      pop\n      pop\n      pop\n      jump\t// out\n        /* \"#utility.yul\":17456:17879   */\n    tag_119:\n        /* \"#utility.yul\":17597:17601   */\n      0x00\n        /* \"#utility.yul\":17635:17637   */\n      0x40\n        /* \"#utility.yul\":17624:17633   */\n      dup3\n        /* \"#utility.yul\":17620:17638   */\n      add\n        /* \"#utility.yul\":17612:17638   */\n      swap1\n      pop\n        /* \"#utility.yul\":17648:17719   */\n      tag_384\n        /* \"#utility.yul\":17716:17717   */\n      0x00\n        /* \"#utility.yul\":17705:17714   */\n      dup4\n        /* \"#utility.yul\":17701:17718   */\n      add\n        /* \"#utility.yul\":17692:17698   */\n      dup6\n        /* \"#utility.yul\":17648:17719   */\n      tag_143\n      jump\t// in\n    tag_384:\n        /* \"#utility.yul\":17766:17775   */\n      dup2\n        /* \"#utility.yul\":17760:17764   */\n      dup2\n        /* \"#utility.yul\":17756:17776   */\n      sub\n        /* \"#utility.yul\":17751:17753   */\n      0x20\n        /* \"#utility.yul\":17740:17749   */\n      dup4\n        /* \"#utility.yul\":17736:17754   */\n      add\n        /* \"#utility.yul\":17729:17777   */\n      mstore\n        /* \"#utility.yul\":17794:17872   */\n      tag_385\n        /* \"#utility.yul\":17867:17871   */\n      dup2\n        /* \"#utility.yul\":17858:17864   */\n      dup5\n        /* \"#utility.yul\":17794:17872   */\n      tag_148\n      jump\t// in\n    tag_385:\n        /* \"#utility.yul\":17786:17872   */\n      swap1\n      pop\n        /* \"#utility.yul\":17456:17879   */\n      swap4\n      swap3\n      pop\n      pop\n      pop\n      jump\t// out\n\n    auxdata: 0xa2646970667358221220ff86dd65aba6815daa6dc1c2e7981c08f1e1cfc0c35b2080ca7455d8352e162c64736f6c634300081a0033\n}\n",
				"bytecode": {
					"linkReferences": {},
					"object": "608060405234801561000f575f80fd5b50335f73ffffffffffffffffffffffffffffffffffffffff168173ffffffffffffffffffffffffffffffffffffffff1603610081575f6040517f1e4fbdf70000000000000000000000000000000000000000000000000000000081526004016100789190610196565b60405180910390fd5b6100908161009660201b60201c565b506101af565b5f805f9054906101000a900473ffffffffffffffffffffffffffffffffffffffff169050815f806101000a81548173ffffffffffffffffffffffffffffffffffffffff021916908373ffffffffffffffffffffffffffffffffffffffff1602179055508173ffffffffffffffffffffffffffffffffffffffff168173ffffffffffffffffffffffffffffffffffffffff167f8be0079c531659141344cd1fd0a4f28419497f9722a3daafe3b4186f6b6457e060405160405180910390a35050565b5f73ffffffffffffffffffffffffffffffffffffffff82169050919050565b5f61018082610157565b9050919050565b61019081610176565b82525050565b5f6020820190506101a95f830184610187565b92915050565b6113ab806101bc5f395ff3fe608060405234801561000f575f80fd5b5060043610610091575f3560e01c80638da5cb5b116100645780638da5cb5b14610121578063c9d27afe1461013f578063d7c561fd1461015b578063f2fde38b14610177578063fba00cbd1461019357610091565b8063013cf08b1461009557806335facf78146100cb57806342545825146100e7578063715018a614610117575b5f80fd5b6100af60048036038101906100aa9190610a1c565b6101c3565b6040516100c29796959493929190610ac6565b60405180910390f35b6100e560048036038101906100e09190610c6d565b61031c565b005b61010160048036038101906100fc9190610d21565b610466565b60405161010e9190610d79565b60405180910390f35b61011f61056b565b005b61012961057e565b6040516101369190610da1565b60405180910390f35b61015960048036038101906101549190610de4565b6105a5565b005b61017560048036038101906101709190610e22565b610700565b005b610191600480360381019061018c9190610e7c565b6107bd565b005b6101ad60048036038101906101a89190610ea7565b610841565b6040516101ba9190610da1565b60405180910390f35b600181815481106101d2575f80fd5b905f5260205f2090600702015f91509050805f0154908060010180546101f790610f12565b80601f016020809104026020016040519081016040528092919081815260200182805461022390610f12565b801561026e5780601f106102455761010080835404028352916020019161026e565b820191905f5260205f20905b81548152906001019060200180831161025157829003601f168201915b50505050509080600201549080600301805461028990610f12565b80601f01602080910402602001604051908101604052809291908181526020018280546102b590610f12565b80156103005780601f106102d757610100808354040283529160200191610300565b820191905f5260205f20905b8154815290600101906020018083116102e357829003601f168201915b5050505050908060040154908060050154908060060154905087565b610324610889565b60016040518060e0016040528060018054905081526020018481526020018381526020016040518060400160405280600781526020017f50656e64696e670000000000000000000000000000000000000000000000000081525081526020015f81526020015f81526020015f815250908060018154018082558091505060019003905f5260205f2090600702015f909190919091505f820151815f015560208201518160010190816103d691906110df565b506040820151816002015560608201518160030190816103f691906110df565b506080820151816004015560a0820151816005015560c0820151816006015550507ff5dc0da9afa6d080780a49fd8c680f03d2ddf3c067cd6d0c85360c096644d2d36001808054905061044991906111db565b838360405161045a9392919061120e565b60405180910390a15050565b5f60018054905082106104ae576040517f08c379a00000000000000000000000000000000000000000000000000000000081526004016104a590611294565b60405180910390fd5b5f5b60025f8481526020019081526020015f2080549050811015610560578373ffffffffffffffffffffffffffffffffffffffff1660025f8581526020019081526020015f208281548110610506576105056112b2565b5b905f5260205f20015f9054906101000a900473ffffffffffffffffffffffffffffffffffffffff1673ffffffffffffffffffffffffffffffffffffffff1603610553576001915050610565565b80806001019150506104b0565b505f90505b92915050565b610573610889565b61057c5f610910565b565b5f805f9054906101000a900473ffffffffffffffffffffffffffffffffffffffff16905090565b60018054905082106105ec576040517f08c379a00000000000000000000000000000000000000000000000000000000081526004016105e390611294565b60405180910390fd5b5f60018381548110610601576106006112b2565b5b905f5260205f20906007020190508115610635576001816004015f82825461062991906112df565b92505081905550610651565b6001816005015f82825461064991906112df565b925050819055505b60025f8481526020019081526020015f2033908060018154018082558091505060019003905f5260205f20015f9091909190916101000a81548173ffffffffffffffffffffffffffffffffffffffff021916908373ffffffffffffffffffffffffffffffffffffffff1602179055507fd356173ae8eeea8691aee4c1be712c314a975a3d43ebc48b08ca54d0dac912283384846040516106f393929190611312565b60405180910390a1505050565b610708610889565b600180549050821061074f576040517f08c379a000000000000000000000000000000000000000000000000000000000815260040161074690611294565b60405180910390fd5b8060018381548110610764576107636112b2565b5b905f5260205f209060070201600301908161077f91906110df565b507f15fba378ec5233262589a0683add7b6d321b4818dd4b14c313e98b163275290782826040516107b1929190611347565b60405180910390a15050565b6107c5610889565b5f73ffffffffffffffffffffffffffffffffffffffff168173ffffffffffffffffffffffffffffffffffffffff1603610835575f6040517f1e4fbdf700000000000000000000000000000000000000000000000000000000815260040161082c9190610da1565b60405180910390fd5b61083e81610910565b50565b6002602052815f5260405f20818154811061085a575f80fd5b905f5260205f20015f915091509054906101000a900473ffffffffffffffffffffffffffffffffffffffff1681565b6108916109d1565b73ffffffffffffffffffffffffffffffffffffffff166108af61057e565b73ffffffffffffffffffffffffffffffffffffffff161461090e576108d26109d1565b6040517f118cdaa70000000000000000000000000000000000000000000000000000000081526004016109059190610da1565b60405180910390fd5b565b5f805f9054906101000a900473ffffffffffffffffffffffffffffffffffffffff169050815f806101000a81548173ffffffffffffffffffffffffffffffffffffffff021916908373ffffffffffffffffffffffffffffffffffffffff1602179055508173ffffffffffffffffffffffffffffffffffffffff168173ffffffffffffffffffffffffffffffffffffffff167f8be0079c531659141344cd1fd0a4f28419497f9722a3daafe3b4186f6b6457e060405160405180910390a35050565b5f33905090565b5f604051905090565b5f80fd5b5f80fd5b5f819050919050565b6109fb816109e9565b8114610a05575f80fd5b50565b5f81359050610a16816109f2565b92915050565b5f60208284031215610a3157610a306109e1565b5b5f610a3e84828501610a08565b91505092915050565b610a50816109e9565b82525050565b5f81519050919050565b5f82825260208201905092915050565b8281835e5f83830152505050565b5f601f19601f8301169050919050565b5f610a9882610a56565b610aa28185610a60565b9350610ab2818560208601610a70565b610abb81610a7e565b840191505092915050565b5f60e082019050610ad95f83018a610a47565b8181036020830152610aeb8189610a8e565b9050610afa6040830188610a47565b8181036060830152610b0c8187610a8e565b9050610b1b6080830186610a47565b610b2860a0830185610a47565b610b3560c0830184610a47565b98975050505050505050565b5f80fd5b5f80fd5b7f4e487b71000000000000000000000000000000000000000000000000000000005f52604160045260245ffd5b610b7f82610a7e565b810181811067ffffffffffffffff82111715610b9e57610b9d610b49565b5b80604052505050565b5f610bb06109d8565b9050610bbc8282610b76565b919050565b5f67ffffffffffffffff821115610bdb57610bda610b49565b5b610be482610a7e565b9050602081019050919050565b828183375f83830152505050565b5f610c11610c0c84610bc1565b610ba7565b905082815260208101848484011115610c2d57610c2c610b45565b5b610c38848285610bf1565b509392505050565b5f82601f830112610c5457610c53610b41565b5b8135610c64848260208601610bff565b91505092915050565b5f8060408385031215610c8357610c826109e1565b5b5f83013567ffffffffffffffff811115610ca057610c9f6109e5565b5b610cac85828601610c40565b9250506020610cbd85828601610a08565b9150509250929050565b5f73ffffffffffffffffffffffffffffffffffffffff82169050919050565b5f610cf082610cc7565b9050919050565b610d0081610ce6565b8114610d0a575f80fd5b50565b5f81359050610d1b81610cf7565b92915050565b5f8060408385031215610d3757610d366109e1565b5b5f610d4485828601610d0d565b9250506020610d5585828601610a08565b9150509250929050565b5f8115159050919050565b610d7381610d5f565b82525050565b5f602082019050610d8c5f830184610d6a565b92915050565b610d9b81610ce6565b82525050565b5f602082019050610db45f830184610d92565b92915050565b610dc381610d5f565b8114610dcd575f80fd5b50565b5f81359050610dde81610dba565b92915050565b5f8060408385031215610dfa57610df96109e1565b5b5f610e0785828601610a08565b9250506020610e1885828601610dd0565b9150509250929050565b5f8060408385031215610e3857610e376109e1565b5b5f610e4585828601610a08565b925050602083013567ffffffffffffffff811115610e6657610e656109e5565b5b610e7285828601610c40565b9150509250929050565b5f60208284031215610e9157610e906109e1565b5b5f610e9e84828501610d0d565b91505092915050565b5f8060408385031215610ebd57610ebc6109e1565b5b5f610eca85828601610a08565b9250506020610edb85828601610a08565b9150509250929050565b7f4e487b71000000000000000000000000000000000000000000000000000000005f52602260045260245ffd5b5f6002820490506001821680610f2957607f821691505b602082108103610f3c57610f3b610ee5565b5b50919050565b5f819050815f5260205f209050919050565b5f6020601f8301049050919050565b5f82821b905092915050565b5f60088302610f9e7fffffffffffffffffffffffffffffffffffffffffffffffffffffffffffffffff82610f63565b610fa88683610f63565b95508019841693508086168417925050509392505050565b5f819050919050565b5f610fe3610fde610fd9846109e9565b610fc0565b6109e9565b9050919050565b5f819050919050565b610ffc83610fc9565b61101061100882610fea565b848454610f6f565b825550505050565b5f90565b611024611018565b61102f818484610ff3565b505050565b5b81811015611052576110475f8261101c565b600181019050611035565b5050565b601f8211156110975761106881610f42565b61107184610f54565b81016020851015611080578190505b61109461108c85610f54565b830182611034565b50505b505050565b5f82821c905092915050565b5f6110b75f198460080261109c565b1980831691505092915050565b5f6110cf83836110a8565b9150826002028217905092915050565b6110e882610a56565b67ffffffffffffffff81111561110157611100610b49565b5b61110b8254610f12565b611116828285611056565b5f60209050601f831160018114611147575f8415611135578287015190505b61113f85826110c4565b8655506111a6565b601f19841661115586610f42565b5f5b8281101561117c57848901518255600182019150602085019450602081019050611157565b868310156111995784890151611195601f8916826110a8565b8355505b6001600288020188555050505b505050505050565b7f4e487b71000000000000000000000000000000000000000000000000000000005f52601160045260245ffd5b5f6111e5826109e9565b91506111f0836109e9565b9250828203905081811115611208576112076111ae565b5b92915050565b5f6060820190506112215f830186610a47565b81810360208301526112338185610a8e565b90506112426040830184610a47565b949350505050565b7f496e76616c69642070726f706f73616c496400000000000000000000000000005f82015250565b5f61127e601283610a60565b91506112898261124a565b602082019050919050565b5f6020820190508181035f8301526112ab81611272565b9050919050565b7f4e487b71000000000000000000000000000000000000000000000000000000005f52603260045260245ffd5b5f6112e9826109e9565b91506112f4836109e9565b925082820190508082111561130c5761130b6111ae565b5b92915050565b5f6060820190506113255f830186610d92565b6113326020830185610a47565b61133f6040830184610d6a565b949350505050565b5f60408201905061135a5f830185610a47565b818103602083015261136c8184610a8e565b9050939250505056fea2646970667358221220ff86dd65aba6815daa6dc1c2e7981c08f1e1cfc0c35b2080ca7455d8352e162c64736f6c634300081a0033",
					"opcodes": "PUSH1 0x80 PUSH1 0x40 MSTORE CALLVALUE DUP1 ISZERO PUSH2 0xF JUMPI PUSH0 DUP1 REVERT JUMPDEST POP CALLER PUSH0 PUSH20 0xFFFFFFFFFFFFFFFFFFFFFFFFFFFFFFFFFFFFFFFF AND DUP2 PUSH20 0xFFFFFFFFFFFFFFFFFFFFFFFFFFFFFFFFFFFFFFFF AND SUB PUSH2 0x81 JUMPI PUSH0 PUSH1 0x40 MLOAD PUSH32 0x1E4FBDF700000000000000000000000000000000000000000000000000000000 DUP2 MSTORE PUSH1 0x4 ADD PUSH2 0x78 SWAP2 SWAP1 PUSH2 0x196 JUMP JUMPDEST PUSH1 0x40 MLOAD DUP1 SWAP2 SUB SWAP1 REVERT JUMPDEST PUSH2 0x90 DUP2 PUSH2 0x96 PUSH1 0x20 SHL PUSH1 0x20 SHR JUMP JUMPDEST POP PUSH2 0x1AF JUMP JUMPDEST PUSH0 DUP1 PUSH0 SWAP1 SLOAD SWAP1 PUSH2 0x100 EXP SWAP1 DIV PUSH20 0xFFFFFFFFFFFFFFFFFFFFFFFFFFFFFFFFFFFFFFFF AND SWAP1 POP DUP2 PUSH0 DUP1 PUSH2 0x100 EXP DUP2 SLOAD DUP2 PUSH20 0xFFFFFFFFFFFFFFFFFFFFFFFFFFFFFFFFFFFFFFFF MUL NOT AND SWAP1 DUP4 PUSH20 0xFFFFFFFFFFFFFFFFFFFFFFFFFFFFFFFFFFFFFFFF AND MUL OR SWAP1 SSTORE POP DUP2 PUSH20 0xFFFFFFFFFFFFFFFFFFFFFFFFFFFFFFFFFFFFFFFF AND DUP2 PUSH20 0xFFFFFFFFFFFFFFFFFFFFFFFFFFFFFFFFFFFFFFFF AND PUSH32 0x8BE0079C531659141344CD1FD0A4F28419497F9722A3DAAFE3B4186F6B6457E0 PUSH1 0x40 MLOAD PUSH1 0x40 MLOAD DUP1 SWAP2 SUB SWAP1 LOG3 POP POP JUMP JUMPDEST PUSH0 PUSH20 0xFFFFFFFFFFFFFFFFFFFFFFFFFFFFFFFFFFFFFFFF DUP3 AND SWAP1 POP SWAP2 SWAP1 POP JUMP JUMPDEST PUSH0 PUSH2 0x180 DUP3 PUSH2 0x157 JUMP JUMPDEST SWAP1 POP SWAP2 SWAP1 POP JUMP JUMPDEST PUSH2 0x190 DUP2 PUSH2 0x176 JUMP JUMPDEST DUP3 MSTORE POP POP JUMP JUMPDEST PUSH0 PUSH1 0x20 DUP3 ADD SWAP1 POP PUSH2 0x1A9 PUSH0 DUP4 ADD DUP5 PUSH2 0x187 JUMP JUMPDEST SWAP3 SWAP2 POP POP JUMP JUMPDEST PUSH2 0x13AB DUP1 PUSH2 0x1BC PUSH0 CODECOPY PUSH0 RETURN INVALID PUSH1 0x80 PUSH1 0x40 MSTORE CALLVALUE DUP1 ISZERO PUSH2 0xF JUMPI PUSH0 DUP1 REVERT JUMPDEST POP PUSH1 0x4 CALLDATASIZE LT PUSH2 0x91 JUMPI PUSH0 CALLDATALOAD PUSH1 0xE0 SHR DUP1 PUSH4 0x8DA5CB5B GT PUSH2 0x64 JUMPI DUP1 PUSH4 0x8DA5CB5B EQ PUSH2 0x121 JUMPI DUP1 PUSH4 0xC9D27AFE EQ PUSH2 0x13F JUMPI DUP1 PUSH4 0xD7C561FD EQ PUSH2 0x15B JUMPI DUP1 PUSH4 0xF2FDE38B EQ PUSH2 0x177 JUMPI DUP1 PUSH4 0xFBA00CBD EQ PUSH2 0x193 JUMPI PUSH2 0x91 JUMP JUMPDEST DUP1 PUSH4 0x13CF08B EQ PUSH2 0x95 JUMPI DUP1 PUSH4 0x35FACF78 EQ PUSH2 0xCB JUMPI DUP1 PUSH4 0x42545825 EQ PUSH2 0xE7 JUMPI DUP1 PUSH4 0x715018A6 EQ PUSH2 0x117 JUMPI JUMPDEST PUSH0 DUP1 REVERT JUMPDEST PUSH2 0xAF PUSH1 0x4 DUP1 CALLDATASIZE SUB DUP2 ADD SWAP1 PUSH2 0xAA SWAP2 SWAP1 PUSH2 0xA1C JUMP JUMPDEST PUSH2 0x1C3 JUMP JUMPDEST PUSH1 0x40 MLOAD PUSH2 0xC2 SWAP8 SWAP7 SWAP6 SWAP5 SWAP4 SWAP3 SWAP2 SWAP1 PUSH2 0xAC6 JUMP JUMPDEST PUSH1 0x40 MLOAD DUP1 SWAP2 SUB SWAP1 RETURN JUMPDEST PUSH2 0xE5 PUSH1 0x4 DUP1 CALLDATASIZE SUB DUP2 ADD SWAP1 PUSH2 0xE0 SWAP2 SWAP1 PUSH2 0xC6D JUMP JUMPDEST PUSH2 0x31C JUMP JUMPDEST STOP JUMPDEST PUSH2 0x101 PUSH1 0x4 DUP1 CALLDATASIZE SUB DUP2 ADD SWAP1 PUSH2 0xFC SWAP2 SWAP1 PUSH2 0xD21 JUMP JUMPDEST PUSH2 0x466 JUMP JUMPDEST PUSH1 0x40 MLOAD PUSH2 0x10E SWAP2 SWAP1 PUSH2 0xD79 JUMP JUMPDEST PUSH1 0x40 MLOAD DUP1 SWAP2 SUB SWAP1 RETURN JUMPDEST PUSH2 0x11F PUSH2 0x56B JUMP JUMPDEST STOP JUMPDEST PUSH2 0x129 PUSH2 0x57E JUMP JUMPDEST PUSH1 0x40 MLOAD PUSH2 0x136 SWAP2 SWAP1 PUSH2 0xDA1 JUMP JUMPDEST PUSH1 0x40 MLOAD DUP1 SWAP2 SUB SWAP1 RETURN JUMPDEST PUSH2 0x159 PUSH1 0x4 DUP1 CALLDATASIZE SUB DUP2 ADD SWAP1 PUSH2 0x154 SWAP2 SWAP1 PUSH2 0xDE4 JUMP JUMPDEST PUSH2 0x5A5 JUMP JUMPDEST STOP JUMPDEST PUSH2 0x175 PUSH1 0x4 DUP1 CALLDATASIZE SUB DUP2 ADD SWAP1 PUSH2 0x170 SWAP2 SWAP1 PUSH2 0xE22 JUMP JUMPDEST PUSH2 0x700 JUMP JUMPDEST STOP JUMPDEST PUSH2 0x191 PUSH1 0x4 DUP1 CALLDATASIZE SUB DUP2 ADD SWAP1 PUSH2 0x18C SWAP2 SWAP1 PUSH2 0xE7C JUMP JUMPDEST PUSH2 0x7BD JUMP JUMPDEST STOP JUMPDEST PUSH2 0x1AD PUSH1 0x4 DUP1 CALLDATASIZE SUB DUP2 ADD SWAP1 PUSH2 0x1A8 SWAP2 SWAP1 PUSH2 0xEA7 JUMP JUMPDEST PUSH2 0x841 JUMP JUMPDEST PUSH1 0x40 MLOAD PUSH2 0x1BA SWAP2 SWAP1 PUSH2 0xDA1 JUMP JUMPDEST PUSH1 0x40 MLOAD DUP1 SWAP2 SUB SWAP1 RETURN JUMPDEST PUSH1 0x1 DUP2 DUP2 SLOAD DUP2 LT PUSH2 0x1D2 JUMPI PUSH0 DUP1 REVERT JUMPDEST SWAP1 PUSH0 MSTORE PUSH1 0x20 PUSH0 KECCAK256 SWAP1 PUSH1 0x7 MUL ADD PUSH0 SWAP2 POP SWAP1 POP DUP1 PUSH0 ADD SLOAD SWAP1 DUP1 PUSH1 0x1 ADD DUP1 SLOAD PUSH2 0x1F7 SWAP1 PUSH2 0xF12 JUMP JUMPDEST DUP1 PUSH1 0x1F ADD PUSH1 0x20 DUP1 SWAP2 DIV MUL PUSH1 0x20 ADD PUSH1 0x40 MLOAD SWAP1 DUP2 ADD PUSH1 0x40 MSTORE DUP1 SWAP3 SWAP2 SWAP1 DUP2 DUP2 MSTORE PUSH1 0x20 ADD DUP3 DUP1 SLOAD PUSH2 0x223 SWAP1 PUSH2 0xF12 JUMP JUMPDEST DUP1 ISZERO PUSH2 0x26E JUMPI DUP1 PUSH1 0x1F LT PUSH2 0x245 JUMPI PUSH2 0x100 DUP1 DUP4 SLOAD DIV MUL DUP4 MSTORE SWAP2 PUSH1 0x20 ADD SWAP2 PUSH2 0x26E JUMP JUMPDEST DUP3 ADD SWAP2 SWAP1 PUSH0 MSTORE PUSH1 0x20 PUSH0 KECCAK256 SWAP1 JUMPDEST DUP2 SLOAD DUP2 MSTORE SWAP1 PUSH1 0x1 ADD SWAP1 PUSH1 0x20 ADD DUP1 DUP4 GT PUSH2 0x251 JUMPI DUP3 SWAP1 SUB PUSH1 0x1F AND DUP3 ADD SWAP2 JUMPDEST POP POP POP POP POP SWAP1 DUP1 PUSH1 0x2 ADD SLOAD SWAP1 DUP1 PUSH1 0x3 ADD DUP1 SLOAD PUSH2 0x289 SWAP1 PUSH2 0xF12 JUMP JUMPDEST DUP1 PUSH1 0x1F ADD PUSH1 0x20 DUP1 SWAP2 DIV MUL PUSH1 0x20 ADD PUSH1 0x40 MLOAD SWAP1 DUP2 ADD PUSH1 0x40 MSTORE DUP1 SWAP3 SWAP2 SWAP1 DUP2 DUP2 MSTORE PUSH1 0x20 ADD DUP3 DUP1 SLOAD PUSH2 0x2B5 SWAP1 PUSH2 0xF12 JUMP JUMPDEST DUP1 ISZERO PUSH2 0x300 JUMPI DUP1 PUSH1 0x1F LT PUSH2 0x2D7 JUMPI PUSH2 0x100 DUP1 DUP4 SLOAD DIV MUL DUP4 MSTORE SWAP2 PUSH1 0x20 ADD SWAP2 PUSH2 0x300 JUMP JUMPDEST DUP3 ADD SWAP2 SWAP1 PUSH0 MSTORE PUSH1 0x20 PUSH0 KECCAK256 SWAP1 JUMPDEST DUP2 SLOAD DUP2 MSTORE SWAP1 PUSH1 0x1 ADD SWAP1 PUSH1 0x20 ADD DUP1 DUP4 GT PUSH2 0x2E3 JUMPI DUP3 SWAP1 SUB PUSH1 0x1F AND DUP3 ADD SWAP2 JUMPDEST POP POP POP POP POP SWAP1 DUP1 PUSH1 0x4 ADD SLOAD SWAP1 DUP1 PUSH1 0x5 ADD SLOAD SWAP1 DUP1 PUSH1 0x6 ADD SLOAD SWAP1 POP DUP8 JUMP JUMPDEST PUSH2 0x324 PUSH2 0x889 JUMP JUMPDEST PUSH1 0x1 PUSH1 0x40 MLOAD DUP1 PUSH1 0xE0 ADD PUSH1 0x40 MSTORE DUP1 PUSH1 0x1 DUP1 SLOAD SWAP1 POP DUP2 MSTORE PUSH1 0x20 ADD DUP5 DUP2 MSTORE PUSH1 0x20 ADD DUP4 DUP2 MSTORE PUSH1 0x20 ADD PUSH1 0x40 MLOAD DUP1 PUSH1 0x40 ADD PUSH1 0x40 MSTORE DUP1 PUSH1 0x7 DUP2 MSTORE PUSH1 0x20 ADD PUSH32 0x50656E64696E6700000000000000000000000000000000000000000000000000 DUP2 MSTORE POP DUP2 MSTORE PUSH1 0x20 ADD PUSH0 DUP2 MSTORE PUSH1 0x20 ADD PUSH0 DUP2 MSTORE PUSH1 0x20 ADD PUSH0 DUP2 MSTORE POP SWAP1 DUP1 PUSH1 0x1 DUP2 SLOAD ADD DUP1 DUP3 SSTORE DUP1 SWAP2 POP POP PUSH1 0x1 SWAP1 SUB SWAP1 PUSH0 MSTORE PUSH1 0x20 PUSH0 KECCAK256 SWAP1 PUSH1 0x7 MUL ADD PUSH0 SWAP1 SWAP2 SWAP1 SWAP2 SWAP1 SWAP2 POP PUSH0 DUP3 ADD MLOAD DUP2 PUSH0 ADD SSTORE PUSH1 0x20 DUP3 ADD MLOAD DUP2 PUSH1 0x1 ADD SWAP1 DUP2 PUSH2 0x3D6 SWAP2 SWAP1 PUSH2 0x10DF JUMP JUMPDEST POP PUSH1 0x40 DUP3 ADD MLOAD DUP2 PUSH1 0x2 ADD SSTORE PUSH1 0x60 DUP3 ADD MLOAD DUP2 PUSH1 0x3 ADD SWAP1 DUP2 PUSH2 0x3F6 SWAP2 SWAP1 PUSH2 0x10DF JUMP JUMPDEST POP PUSH1 0x80 DUP3 ADD MLOAD DUP2 PUSH1 0x4 ADD SSTORE PUSH1 0xA0 DUP3 ADD MLOAD DUP2 PUSH1 0x5 ADD SSTORE PUSH1 0xC0 DUP3 ADD MLOAD DUP2 PUSH1 0x6 ADD SSTORE POP POP PUSH32 0xF5DC0DA9AFA6D080780A49FD8C680F03D2DDF3C067CD6D0C85360C096644D2D3 PUSH1 0x1 DUP1 DUP1 SLOAD SWAP1 POP PUSH2 0x449 SWAP2 SWAP1 PUSH2 0x11DB JUMP JUMPDEST DUP4 DUP4 PUSH1 0x40 MLOAD PUSH2 0x45A SWAP4 SWAP3 SWAP2 SWAP1 PUSH2 0x120E JUMP JUMPDEST PUSH1 0x40 MLOAD DUP1 SWAP2 SUB SWAP1 LOG1 POP POP JUMP JUMPDEST PUSH0 PUSH1 0x1 DUP1 SLOAD SWAP1 POP DUP3 LT PUSH2 0x4AE JUMPI PUSH1 0x40 MLOAD PUSH32 0x8C379A000000000000000000000000000000000000000000000000000000000 DUP2 MSTORE PUSH1 0x4 ADD PUSH2 0x4A5 SWAP1 PUSH2 0x1294 JUMP JUMPDEST PUSH1 0x40 MLOAD DUP1 SWAP2 SUB SWAP1 REVERT JUMPDEST PUSH0 JUMPDEST PUSH1 0x2 PUSH0 DUP5 DUP2 MSTORE PUSH1 0x20 ADD SWAP1 DUP2 MSTORE PUSH1 0x20 ADD PUSH0 KECCAK256 DUP1 SLOAD SWAP1 POP DUP2 LT ISZERO PUSH2 0x560 JUMPI DUP4 PUSH20 0xFFFFFFFFFFFFFFFFFFFFFFFFFFFFFFFFFFFFFFFF AND PUSH1 0x2 PUSH0 DUP6 DUP2 MSTORE PUSH1 0x20 ADD SWAP1 DUP2 MSTORE PUSH1 0x20 ADD PUSH0 KECCAK256 DUP3 DUP2 SLOAD DUP2 LT PUSH2 0x506 JUMPI PUSH2 0x505 PUSH2 0x12B2 JUMP JUMPDEST JUMPDEST SWAP1 PUSH0 MSTORE PUSH1 0x20 PUSH0 KECCAK256 ADD PUSH0 SWAP1 SLOAD SWAP1 PUSH2 0x100 EXP SWAP1 DIV PUSH20 0xFFFFFFFFFFFFFFFFFFFFFFFFFFFFFFFFFFFFFFFF AND PUSH20 0xFFFFFFFFFFFFFFFFFFFFFFFFFFFFFFFFFFFFFFFF AND SUB PUSH2 0x553 JUMPI PUSH1 0x1 SWAP2 POP POP PUSH2 0x565 JUMP JUMPDEST DUP1 DUP1 PUSH1 0x1 ADD SWAP2 POP POP PUSH2 0x4B0 JUMP JUMPDEST POP PUSH0 SWAP1 POP JUMPDEST SWAP3 SWAP2 POP POP JUMP JUMPDEST PUSH2 0x573 PUSH2 0x889 JUMP JUMPDEST PUSH2 0x57C PUSH0 PUSH2 0x910 JUMP JUMPDEST JUMP JUMPDEST PUSH0 DUP1 PUSH0 SWAP1 SLOAD SWAP1 PUSH2 0x100 EXP SWAP1 DIV PUSH20 0xFFFFFFFFFFFFFFFFFFFFFFFFFFFFFFFFFFFFFFFF AND SWAP1 POP SWAP1 JUMP JUMPDEST PUSH1 0x1 DUP1 SLOAD SWAP1 POP DUP3 LT PUSH2 0x5EC JUMPI PUSH1 0x40 MLOAD PUSH32 0x8C379A000000000000000000000000000000000000000000000000000000000 DUP2 MSTORE PUSH1 0x4 ADD PUSH2 0x5E3 SWAP1 PUSH2 0x1294 JUMP JUMPDEST PUSH1 0x40 MLOAD DUP1 SWAP2 SUB SWAP1 REVERT JUMPDEST PUSH0 PUSH1 0x1 DUP4 DUP2 SLOAD DUP2 LT PUSH2 0x601 JUMPI PUSH2 0x600 PUSH2 0x12B2 JUMP JUMPDEST JUMPDEST SWAP1 PUSH0 MSTORE PUSH1 0x20 PUSH0 KECCAK256 SWAP1 PUSH1 0x7 MUL ADD SWAP1 POP DUP2 ISZERO PUSH2 0x635 JUMPI PUSH1 0x1 DUP2 PUSH1 0x4 ADD PUSH0 DUP3 DUP3 SLOAD PUSH2 0x629 SWAP2 SWAP1 PUSH2 0x12DF JUMP JUMPDEST SWAP3 POP POP DUP2 SWAP1 SSTORE POP PUSH2 0x651 JUMP JUMPDEST PUSH1 0x1 DUP2 PUSH1 0x5 ADD PUSH0 DUP3 DUP3 SLOAD PUSH2 0x649 SWAP2 SWAP1 PUSH2 0x12DF JUMP JUMPDEST SWAP3 POP POP DUP2 SWAP1 SSTORE POP JUMPDEST PUSH1 0x2 PUSH0 DUP5 DUP2 MSTORE PUSH1 0x20 ADD SWAP1 DUP2 MSTORE PUSH1 0x20 ADD PUSH0 KECCAK256 CALLER SWAP1 DUP1 PUSH1 0x1 DUP2 SLOAD ADD DUP1 DUP3 SSTORE DUP1 SWAP2 POP POP PUSH1 0x1 SWAP1 SUB SWAP1 PUSH0 MSTORE PUSH1 0x20 PUSH0 KECCAK256 ADD PUSH0 SWAP1 SWAP2 SWAP1 SWAP2 SWAP1 SWAP2 PUSH2 0x100 EXP DUP2 SLOAD DUP2 PUSH20 0xFFFFFFFFFFFFFFFFFFFFFFFFFFFFFFFFFFFFFFFF MUL NOT AND SWAP1 DUP4 PUSH20 0xFFFFFFFFFFFFFFFFFFFFFFFFFFFFFFFFFFFFFFFF AND MUL OR SWAP1 SSTORE POP PUSH32 0xD356173AE8EEEA8691AEE4C1BE712C314A975A3D43EBC48B08CA54D0DAC91228 CALLER DUP5 DUP5 PUSH1 0x40 MLOAD PUSH2 0x6F3 SWAP4 SWAP3 SWAP2 SWAP1 PUSH2 0x1312 JUMP JUMPDEST PUSH1 0x40 MLOAD DUP1 SWAP2 SUB SWAP1 LOG1 POP POP POP JUMP JUMPDEST PUSH2 0x708 PUSH2 0x889 JUMP JUMPDEST PUSH1 0x1 DUP1 SLOAD SWAP1 POP DUP3 LT PUSH2 0x74F JUMPI PUSH1 0x40 MLOAD PUSH32 0x8C379A000000000000000000000000000000000000000000000000000000000 DUP2 MSTORE PUSH1 0x4 ADD PUSH2 0x746 SWAP1 PUSH2 0x1294 JUMP JUMPDEST PUSH1 0x40 MLOAD DUP1 SWAP2 SUB SWAP1 REVERT JUMPDEST DUP1 PUSH1 0x1 DUP4 DUP2 SLOAD DUP2 LT PUSH2 0x764 JUMPI PUSH2 0x763 PUSH2 0x12B2 JUMP JUMPDEST JUMPDEST SWAP1 PUSH0 MSTORE PUSH1 0x20 PUSH0 KECCAK256 SWAP1 PUSH1 0x7 MUL ADD PUSH1 0x3 ADD SWAP1 DUP2 PUSH2 0x77F SWAP2 SWAP1 PUSH2 0x10DF JUMP JUMPDEST POP PUSH32 0x15FBA378EC5233262589A0683ADD7B6D321B4818DD4B14C313E98B1632752907 DUP3 DUP3 PUSH1 0x40 MLOAD PUSH2 0x7B1 SWAP3 SWAP2 SWAP1 PUSH2 0x1347 JUMP JUMPDEST PUSH1 0x40 MLOAD DUP1 SWAP2 SUB SWAP1 LOG1 POP POP JUMP JUMPDEST PUSH2 0x7C5 PUSH2 0x889 JUMP JUMPDEST PUSH0 PUSH20 0xFFFFFFFFFFFFFFFFFFFFFFFFFFFFFFFFFFFFFFFF AND DUP2 PUSH20 0xFFFFFFFFFFFFFFFFFFFFFFFFFFFFFFFFFFFFFFFF AND SUB PUSH2 0x835 JUMPI PUSH0 PUSH1 0x40 MLOAD PUSH32 0x1E4FBDF700000000000000000000000000000000000000000000000000000000 DUP2 MSTORE PUSH1 0x4 ADD PUSH2 0x82C SWAP2 SWAP1 PUSH2 0xDA1 JUMP JUMPDEST PUSH1 0x40 MLOAD DUP1 SWAP2 SUB SWAP1 REVERT JUMPDEST PUSH2 0x83E DUP2 PUSH2 0x910 JUMP JUMPDEST POP JUMP JUMPDEST PUSH1 0x2 PUSH1 0x20 MSTORE DUP2 PUSH0 MSTORE PUSH1 0x40 PUSH0 KECCAK256 DUP2 DUP2 SLOAD DUP2 LT PUSH2 0x85A JUMPI PUSH0 DUP1 REVERT JUMPDEST SWAP1 PUSH0 MSTORE PUSH1 0x20 PUSH0 KECCAK256 ADD PUSH0 SWAP2 POP SWAP2 POP SWAP1 SLOAD SWAP1 PUSH2 0x100 EXP SWAP1 DIV PUSH20 0xFFFFFFFFFFFFFFFFFFFFFFFFFFFFFFFFFFFFFFFF AND DUP2 JUMP JUMPDEST PUSH2 0x891 PUSH2 0x9D1 JUMP JUMPDEST PUSH20 0xFFFFFFFFFFFFFFFFFFFFFFFFFFFFFFFFFFFFFFFF AND PUSH2 0x8AF PUSH2 0x57E JUMP JUMPDEST PUSH20 0xFFFFFFFFFFFFFFFFFFFFFFFFFFFFFFFFFFFFFFFF AND EQ PUSH2 0x90E JUMPI PUSH2 0x8D2 PUSH2 0x9D1 JUMP JUMPDEST PUSH1 0x40 MLOAD PUSH32 0x118CDAA700000000000000000000000000000000000000000000000000000000 DUP2 MSTORE PUSH1 0x4 ADD PUSH2 0x905 SWAP2 SWAP1 PUSH2 0xDA1 JUMP JUMPDEST PUSH1 0x40 MLOAD DUP1 SWAP2 SUB SWAP1 REVERT JUMPDEST JUMP JUMPDEST PUSH0 DUP1 PUSH0 SWAP1 SLOAD SWAP1 PUSH2 0x100 EXP SWAP1 DIV PUSH20 0xFFFFFFFFFFFFFFFFFFFFFFFFFFFFFFFFFFFFFFFF AND SWAP1 POP DUP2 PUSH0 DUP1 PUSH2 0x100 EXP DUP2 SLOAD DUP2 PUSH20 0xFFFFFFFFFFFFFFFFFFFFFFFFFFFFFFFFFFFFFFFF MUL NOT AND SWAP1 DUP4 PUSH20 0xFFFFFFFFFFFFFFFFFFFFFFFFFFFFFFFFFFFFFFFF AND MUL OR SWAP1 SSTORE POP DUP2 PUSH20 0xFFFFFFFFFFFFFFFFFFFFFFFFFFFFFFFFFFFFFFFF AND DUP2 PUSH20 0xFFFFFFFFFFFFFFFFFFFFFFFFFFFFFFFFFFFFFFFF AND PUSH32 0x8BE0079C531659141344CD1FD0A4F28419497F9722A3DAAFE3B4186F6B6457E0 PUSH1 0x40 MLOAD PUSH1 0x40 MLOAD DUP1 SWAP2 SUB SWAP1 LOG3 POP POP JUMP JUMPDEST PUSH0 CALLER SWAP1 POP SWAP1 JUMP JUMPDEST PUSH0 PUSH1 0x40 MLOAD SWAP1 POP SWAP1 JUMP JUMPDEST PUSH0 DUP1 REVERT JUMPDEST PUSH0 DUP1 REVERT JUMPDEST PUSH0 DUP2 SWAP1 POP SWAP2 SWAP1 POP JUMP JUMPDEST PUSH2 0x9FB DUP2 PUSH2 0x9E9 JUMP JUMPDEST DUP2 EQ PUSH2 0xA05 JUMPI PUSH0 DUP1 REVERT JUMPDEST POP JUMP JUMPDEST PUSH0 DUP2 CALLDATALOAD SWAP1 POP PUSH2 0xA16 DUP2 PUSH2 0x9F2 JUMP JUMPDEST SWAP3 SWAP2 POP POP JUMP JUMPDEST PUSH0 PUSH1 0x20 DUP3 DUP5 SUB SLT ISZERO PUSH2 0xA31 JUMPI PUSH2 0xA30 PUSH2 0x9E1 JUMP JUMPDEST JUMPDEST PUSH0 PUSH2 0xA3E DUP5 DUP3 DUP6 ADD PUSH2 0xA08 JUMP JUMPDEST SWAP2 POP POP SWAP3 SWAP2 POP POP JUMP JUMPDEST PUSH2 0xA50 DUP2 PUSH2 0x9E9 JUMP JUMPDEST DUP3 MSTORE POP POP JUMP JUMPDEST PUSH0 DUP2 MLOAD SWAP1 POP SWAP2 SWAP1 POP JUMP JUMPDEST PUSH0 DUP3 DUP3 MSTORE PUSH1 0x20 DUP3 ADD SWAP1 POP SWAP3 SWAP2 POP POP JUMP JUMPDEST DUP3 DUP2 DUP4 MCOPY PUSH0 DUP4 DUP4 ADD MSTORE POP POP POP JUMP JUMPDEST PUSH0 PUSH1 0x1F NOT PUSH1 0x1F DUP4 ADD AND SWAP1 POP SWAP2 SWAP1 POP JUMP JUMPDEST PUSH0 PUSH2 0xA98 DUP3 PUSH2 0xA56 JUMP JUMPDEST PUSH2 0xAA2 DUP2 DUP6 PUSH2 0xA60 JUMP JUMPDEST SWAP4 POP PUSH2 0xAB2 DUP2 DUP6 PUSH1 0x20 DUP7 ADD PUSH2 0xA70 JUMP JUMPDEST PUSH2 0xABB DUP2 PUSH2 0xA7E JUMP JUMPDEST DUP5 ADD SWAP2 POP POP SWAP3 SWAP2 POP POP JUMP JUMPDEST PUSH0 PUSH1 0xE0 DUP3 ADD SWAP1 POP PUSH2 0xAD9 PUSH0 DUP4 ADD DUP11 PUSH2 0xA47 JUMP JUMPDEST DUP2 DUP2 SUB PUSH1 0x20 DUP4 ADD MSTORE PUSH2 0xAEB DUP2 DUP10 PUSH2 0xA8E JUMP JUMPDEST SWAP1 POP PUSH2 0xAFA PUSH1 0x40 DUP4 ADD DUP9 PUSH2 0xA47 JUMP JUMPDEST DUP2 DUP2 SUB PUSH1 0x60 DUP4 ADD MSTORE PUSH2 0xB0C DUP2 DUP8 PUSH2 0xA8E JUMP JUMPDEST SWAP1 POP PUSH2 0xB1B PUSH1 0x80 DUP4 ADD DUP7 PUSH2 0xA47 JUMP JUMPDEST PUSH2 0xB28 PUSH1 0xA0 DUP4 ADD DUP6 PUSH2 0xA47 JUMP JUMPDEST PUSH2 0xB35 PUSH1 0xC0 DUP4 ADD DUP5 PUSH2 0xA47 JUMP JUMPDEST SWAP9 SWAP8 POP POP POP POP POP POP POP POP JUMP JUMPDEST PUSH0 DUP1 REVERT JUMPDEST PUSH0 DUP1 REVERT JUMPDEST PUSH32 0x4E487B7100000000000000000000000000000000000000000000000000000000 PUSH0 MSTORE PUSH1 0x41 PUSH1 0x4 MSTORE PUSH1 0x24 PUSH0 REVERT JUMPDEST PUSH2 0xB7F DUP3 PUSH2 0xA7E JUMP JUMPDEST DUP2 ADD DUP2 DUP2 LT PUSH8 0xFFFFFFFFFFFFFFFF DUP3 GT OR ISZERO PUSH2 0xB9E JUMPI PUSH2 0xB9D PUSH2 0xB49 JUMP JUMPDEST JUMPDEST DUP1 PUSH1 0x40 MSTORE POP POP POP JUMP JUMPDEST PUSH0 PUSH2 0xBB0 PUSH2 0x9D8 JUMP JUMPDEST SWAP1 POP PUSH2 0xBBC DUP3 DUP3 PUSH2 0xB76 JUMP JUMPDEST SWAP2 SWAP1 POP JUMP JUMPDEST PUSH0 PUSH8 0xFFFFFFFFFFFFFFFF DUP3 GT ISZERO PUSH2 0xBDB JUMPI PUSH2 0xBDA PUSH2 0xB49 JUMP JUMPDEST JUMPDEST PUSH2 0xBE4 DUP3 PUSH2 0xA7E JUMP JUMPDEST SWAP1 POP PUSH1 0x20 DUP2 ADD SWAP1 POP SWAP2 SWAP1 POP JUMP JUMPDEST DUP3 DUP2 DUP4 CALLDATACOPY PUSH0 DUP4 DUP4 ADD MSTORE POP POP POP JUMP JUMPDEST PUSH0 PUSH2 0xC11 PUSH2 0xC0C DUP5 PUSH2 0xBC1 JUMP JUMPDEST PUSH2 0xBA7 JUMP JUMPDEST SWAP1 POP DUP3 DUP2 MSTORE PUSH1 0x20 DUP2 ADD DUP5 DUP5 DUP5 ADD GT ISZERO PUSH2 0xC2D JUMPI PUSH2 0xC2C PUSH2 0xB45 JUMP JUMPDEST JUMPDEST PUSH2 0xC38 DUP5 DUP3 DUP6 PUSH2 0xBF1 JUMP JUMPDEST POP SWAP4 SWAP3 POP POP POP JUMP JUMPDEST PUSH0 DUP3 PUSH1 0x1F DUP4 ADD SLT PUSH2 0xC54 JUMPI PUSH2 0xC53 PUSH2 0xB41 JUMP JUMPDEST JUMPDEST DUP2 CALLDATALOAD PUSH2 0xC64 DUP5 DUP3 PUSH1 0x20 DUP7 ADD PUSH2 0xBFF JUMP JUMPDEST SWAP2 POP POP SWAP3 SWAP2 POP POP JUMP JUMPDEST PUSH0 DUP1 PUSH1 0x40 DUP4 DUP6 SUB SLT ISZERO PUSH2 0xC83 JUMPI PUSH2 0xC82 PUSH2 0x9E1 JUMP JUMPDEST JUMPDEST PUSH0 DUP4 ADD CALLDATALOAD PUSH8 0xFFFFFFFFFFFFFFFF DUP2 GT ISZERO PUSH2 0xCA0 JUMPI PUSH2 0xC9F PUSH2 0x9E5 JUMP JUMPDEST JUMPDEST PUSH2 0xCAC DUP6 DUP3 DUP7 ADD PUSH2 0xC40 JUMP JUMPDEST SWAP3 POP POP PUSH1 0x20 PUSH2 0xCBD DUP6 DUP3 DUP7 ADD PUSH2 0xA08 JUMP JUMPDEST SWAP2 POP POP SWAP3 POP SWAP3 SWAP1 POP JUMP JUMPDEST PUSH0 PUSH20 0xFFFFFFFFFFFFFFFFFFFFFFFFFFFFFFFFFFFFFFFF DUP3 AND SWAP1 POP SWAP2 SWAP1 POP JUMP JUMPDEST PUSH0 PUSH2 0xCF0 DUP3 PUSH2 0xCC7 JUMP JUMPDEST SWAP1 POP SWAP2 SWAP1 POP JUMP JUMPDEST PUSH2 0xD00 DUP2 PUSH2 0xCE6 JUMP JUMPDEST DUP2 EQ PUSH2 0xD0A JUMPI PUSH0 DUP1 REVERT JUMPDEST POP JUMP JUMPDEST PUSH0 DUP2 CALLDATALOAD SWAP1 POP PUSH2 0xD1B DUP2 PUSH2 0xCF7 JUMP JUMPDEST SWAP3 SWAP2 POP POP JUMP JUMPDEST PUSH0 DUP1 PUSH1 0x40 DUP4 DUP6 SUB SLT ISZERO PUSH2 0xD37 JUMPI PUSH2 0xD36 PUSH2 0x9E1 JUMP JUMPDEST JUMPDEST PUSH0 PUSH2 0xD44 DUP6 DUP3 DUP7 ADD PUSH2 0xD0D JUMP JUMPDEST SWAP3 POP POP PUSH1 0x20 PUSH2 0xD55 DUP6 DUP3 DUP7 ADD PUSH2 0xA08 JUMP JUMPDEST SWAP2 POP POP SWAP3 POP SWAP3 SWAP1 POP JUMP JUMPDEST PUSH0 DUP2 ISZERO ISZERO SWAP1 POP SWAP2 SWAP1 POP JUMP JUMPDEST PUSH2 0xD73 DUP2 PUSH2 0xD5F JUMP JUMPDEST DUP3 MSTORE POP POP JUMP JUMPDEST PUSH0 PUSH1 0x20 DUP3 ADD SWAP1 POP PUSH2 0xD8C PUSH0 DUP4 ADD DUP5 PUSH2 0xD6A JUMP JUMPDEST SWAP3 SWAP2 POP POP JUMP JUMPDEST PUSH2 0xD9B DUP2 PUSH2 0xCE6 JUMP JUMPDEST DUP3 MSTORE POP POP JUMP JUMPDEST PUSH0 PUSH1 0x20 DUP3 ADD SWAP1 POP PUSH2 0xDB4 PUSH0 DUP4 ADD DUP5 PUSH2 0xD92 JUMP JUMPDEST SWAP3 SWAP2 POP POP JUMP JUMPDEST PUSH2 0xDC3 DUP2 PUSH2 0xD5F JUMP JUMPDEST DUP2 EQ PUSH2 0xDCD JUMPI PUSH0 DUP1 REVERT JUMPDEST POP JUMP JUMPDEST PUSH0 DUP2 CALLDATALOAD SWAP1 POP PUSH2 0xDDE DUP2 PUSH2 0xDBA JUMP JUMPDEST SWAP3 SWAP2 POP POP JUMP JUMPDEST PUSH0 DUP1 PUSH1 0x40 DUP4 DUP6 SUB SLT ISZERO PUSH2 0xDFA JUMPI PUSH2 0xDF9 PUSH2 0x9E1 JUMP JUMPDEST JUMPDEST PUSH0 PUSH2 0xE07 DUP6 DUP3 DUP7 ADD PUSH2 0xA08 JUMP JUMPDEST SWAP3 POP POP PUSH1 0x20 PUSH2 0xE18 DUP6 DUP3 DUP7 ADD PUSH2 0xDD0 JUMP JUMPDEST SWAP2 POP POP SWAP3 POP SWAP3 SWAP1 POP JUMP JUMPDEST PUSH0 DUP1 PUSH1 0x40 DUP4 DUP6 SUB SLT ISZERO PUSH2 0xE38 JUMPI PUSH2 0xE37 PUSH2 0x9E1 JUMP JUMPDEST JUMPDEST PUSH0 PUSH2 0xE45 DUP6 DUP3 DUP7 ADD PUSH2 0xA08 JUMP JUMPDEST SWAP3 POP POP PUSH1 0x20 DUP4 ADD CALLDATALOAD PUSH8 0xFFFFFFFFFFFFFFFF DUP2 GT ISZERO PUSH2 0xE66 JUMPI PUSH2 0xE65 PUSH2 0x9E5 JUMP JUMPDEST JUMPDEST PUSH2 0xE72 DUP6 DUP3 DUP7 ADD PUSH2 0xC40 JUMP JUMPDEST SWAP2 POP POP SWAP3 POP SWAP3 SWAP1 POP JUMP JUMPDEST PUSH0 PUSH1 0x20 DUP3 DUP5 SUB SLT ISZERO PUSH2 0xE91 JUMPI PUSH2 0xE90 PUSH2 0x9E1 JUMP JUMPDEST JUMPDEST PUSH0 PUSH2 0xE9E DUP5 DUP3 DUP6 ADD PUSH2 0xD0D JUMP JUMPDEST SWAP2 POP POP SWAP3 SWAP2 POP POP JUMP JUMPDEST PUSH0 DUP1 PUSH1 0x40 DUP4 DUP6 SUB SLT ISZERO PUSH2 0xEBD JUMPI PUSH2 0xEBC PUSH2 0x9E1 JUMP JUMPDEST JUMPDEST PUSH0 PUSH2 0xECA DUP6 DUP3 DUP7 ADD PUSH2 0xA08 JUMP JUMPDEST SWAP3 POP POP PUSH1 0x20 PUSH2 0xEDB DUP6 DUP3 DUP7 ADD PUSH2 0xA08 JUMP JUMPDEST SWAP2 POP POP SWAP3 POP SWAP3 SWAP1 POP JUMP JUMPDEST PUSH32 0x4E487B7100000000000000000000000000000000000000000000000000000000 PUSH0 MSTORE PUSH1 0x22 PUSH1 0x4 MSTORE PUSH1 0x24 PUSH0 REVERT JUMPDEST PUSH0 PUSH1 0x2 DUP3 DIV SWAP1 POP PUSH1 0x1 DUP3 AND DUP1 PUSH2 0xF29 JUMPI PUSH1 0x7F DUP3 AND SWAP2 POP JUMPDEST PUSH1 0x20 DUP3 LT DUP2 SUB PUSH2 0xF3C JUMPI PUSH2 0xF3B PUSH2 0xEE5 JUMP JUMPDEST JUMPDEST POP SWAP2 SWAP1 POP JUMP JUMPDEST PUSH0 DUP2 SWAP1 POP DUP2 PUSH0 MSTORE PUSH1 0x20 PUSH0 KECCAK256 SWAP1 POP SWAP2 SWAP1 POP JUMP JUMPDEST PUSH0 PUSH1 0x20 PUSH1 0x1F DUP4 ADD DIV SWAP1 POP SWAP2 SWAP1 POP JUMP JUMPDEST PUSH0 DUP3 DUP3 SHL SWAP1 POP SWAP3 SWAP2 POP POP JUMP JUMPDEST PUSH0 PUSH1 0x8 DUP4 MUL PUSH2 0xF9E PUSH32 0xFFFFFFFFFFFFFFFFFFFFFFFFFFFFFFFFFFFFFFFFFFFFFFFFFFFFFFFFFFFFFFFF DUP3 PUSH2 0xF63 JUMP JUMPDEST PUSH2 0xFA8 DUP7 DUP4 PUSH2 0xF63 JUMP JUMPDEST SWAP6 POP DUP1 NOT DUP5 AND SWAP4 POP DUP1 DUP7 AND DUP5 OR SWAP3 POP POP POP SWAP4 SWAP3 POP POP POP JUMP JUMPDEST PUSH0 DUP2 SWAP1 POP SWAP2 SWAP1 POP JUMP JUMPDEST PUSH0 PUSH2 0xFE3 PUSH2 0xFDE PUSH2 0xFD9 DUP5 PUSH2 0x9E9 JUMP JUMPDEST PUSH2 0xFC0 JUMP JUMPDEST PUSH2 0x9E9 JUMP JUMPDEST SWAP1 POP SWAP2 SWAP1 POP JUMP JUMPDEST PUSH0 DUP2 SWAP1 POP SWAP2 SWAP1 POP JUMP JUMPDEST PUSH2 0xFFC DUP4 PUSH2 0xFC9 JUMP JUMPDEST PUSH2 0x1010 PUSH2 0x1008 DUP3 PUSH2 0xFEA JUMP JUMPDEST DUP5 DUP5 SLOAD PUSH2 0xF6F JUMP JUMPDEST DUP3 SSTORE POP POP POP POP JUMP JUMPDEST PUSH0 SWAP1 JUMP JUMPDEST PUSH2 0x1024 PUSH2 0x1018 JUMP JUMPDEST PUSH2 0x102F DUP2 DUP5 DUP5 PUSH2 0xFF3 JUMP JUMPDEST POP POP POP JUMP JUMPDEST JUMPDEST DUP2 DUP2 LT ISZERO PUSH2 0x1052 JUMPI PUSH2 0x1047 PUSH0 DUP3 PUSH2 0x101C JUMP JUMPDEST PUSH1 0x1 DUP2 ADD SWAP1 POP PUSH2 0x1035 JUMP JUMPDEST POP POP JUMP JUMPDEST PUSH1 0x1F DUP3 GT ISZERO PUSH2 0x1097 JUMPI PUSH2 0x1068 DUP2 PUSH2 0xF42 JUMP JUMPDEST PUSH2 0x1071 DUP5 PUSH2 0xF54 JUMP JUMPDEST DUP2 ADD PUSH1 0x20 DUP6 LT ISZERO PUSH2 0x1080 JUMPI DUP2 SWAP1 POP JUMPDEST PUSH2 0x1094 PUSH2 0x108C DUP6 PUSH2 0xF54 JUMP JUMPDEST DUP4 ADD DUP3 PUSH2 0x1034 JUMP JUMPDEST POP POP JUMPDEST POP POP POP JUMP JUMPDEST PUSH0 DUP3 DUP3 SHR SWAP1 POP SWAP3 SWAP2 POP POP JUMP JUMPDEST PUSH0 PUSH2 0x10B7 PUSH0 NOT DUP5 PUSH1 0x8 MUL PUSH2 0x109C JUMP JUMPDEST NOT DUP1 DUP4 AND SWAP2 POP POP SWAP3 SWAP2 POP POP JUMP JUMPDEST PUSH0 PUSH2 0x10CF DUP4 DUP4 PUSH2 0x10A8 JUMP JUMPDEST SWAP2 POP DUP3 PUSH1 0x2 MUL DUP3 OR SWAP1 POP SWAP3 SWAP2 POP POP JUMP JUMPDEST PUSH2 0x10E8 DUP3 PUSH2 0xA56 JUMP JUMPDEST PUSH8 0xFFFFFFFFFFFFFFFF DUP2 GT ISZERO PUSH2 0x1101 JUMPI PUSH2 0x1100 PUSH2 0xB49 JUMP JUMPDEST JUMPDEST PUSH2 0x110B DUP3 SLOAD PUSH2 0xF12 JUMP JUMPDEST PUSH2 0x1116 DUP3 DUP3 DUP6 PUSH2 0x1056 JUMP JUMPDEST PUSH0 PUSH1 0x20 SWAP1 POP PUSH1 0x1F DUP4 GT PUSH1 0x1 DUP2 EQ PUSH2 0x1147 JUMPI PUSH0 DUP5 ISZERO PUSH2 0x1135 JUMPI DUP3 DUP8 ADD MLOAD SWAP1 POP JUMPDEST PUSH2 0x113F DUP6 DUP3 PUSH2 0x10C4 JUMP JUMPDEST DUP7 SSTORE POP PUSH2 0x11A6 JUMP JUMPDEST PUSH1 0x1F NOT DUP5 AND PUSH2 0x1155 DUP7 PUSH2 0xF42 JUMP JUMPDEST PUSH0 JUMPDEST DUP3 DUP2 LT ISZERO PUSH2 0x117C JUMPI DUP5 DUP10 ADD MLOAD DUP3 SSTORE PUSH1 0x1 DUP3 ADD SWAP2 POP PUSH1 0x20 DUP6 ADD SWAP5 POP PUSH1 0x20 DUP2 ADD SWAP1 POP PUSH2 0x1157 JUMP JUMPDEST DUP7 DUP4 LT ISZERO PUSH2 0x1199 JUMPI DUP5 DUP10 ADD MLOAD PUSH2 0x1195 PUSH1 0x1F DUP10 AND DUP3 PUSH2 0x10A8 JUMP JUMPDEST DUP4 SSTORE POP JUMPDEST PUSH1 0x1 PUSH1 0x2 DUP9 MUL ADD DUP9 SSTORE POP POP POP JUMPDEST POP POP POP POP POP POP JUMP JUMPDEST PUSH32 0x4E487B7100000000000000000000000000000000000000000000000000000000 PUSH0 MSTORE PUSH1 0x11 PUSH1 0x4 MSTORE PUSH1 0x24 PUSH0 REVERT JUMPDEST PUSH0 PUSH2 0x11E5 DUP3 PUSH2 0x9E9 JUMP JUMPDEST SWAP2 POP PUSH2 0x11F0 DUP4 PUSH2 0x9E9 JUMP JUMPDEST SWAP3 POP DUP3 DUP3 SUB SWAP1 POP DUP2 DUP2 GT ISZERO PUSH2 0x1208 JUMPI PUSH2 0x1207 PUSH2 0x11AE JUMP JUMPDEST JUMPDEST SWAP3 SWAP2 POP POP JUMP JUMPDEST PUSH0 PUSH1 0x60 DUP3 ADD SWAP1 POP PUSH2 0x1221 PUSH0 DUP4 ADD DUP7 PUSH2 0xA47 JUMP JUMPDEST DUP2 DUP2 SUB PUSH1 0x20 DUP4 ADD MSTORE PUSH2 0x1233 DUP2 DUP6 PUSH2 0xA8E JUMP JUMPDEST SWAP1 POP PUSH2 0x1242 PUSH1 0x40 DUP4 ADD DUP5 PUSH2 0xA47 JUMP JUMPDEST SWAP5 SWAP4 POP POP POP POP JUMP JUMPDEST PUSH32 0x496E76616C69642070726F706F73616C49640000000000000000000000000000 PUSH0 DUP3 ADD MSTORE POP JUMP JUMPDEST PUSH0 PUSH2 0x127E PUSH1 0x12 DUP4 PUSH2 0xA60 JUMP JUMPDEST SWAP2 POP PUSH2 0x1289 DUP3 PUSH2 0x124A JUMP JUMPDEST PUSH1 0x20 DUP3 ADD SWAP1 POP SWAP2 SWAP1 POP JUMP JUMPDEST PUSH0 PUSH1 0x20 DUP3 ADD SWAP1 POP DUP2 DUP2 SUB PUSH0 DUP4 ADD MSTORE PUSH2 0x12AB DUP2 PUSH2 0x1272 JUMP JUMPDEST SWAP1 POP SWAP2 SWAP1 POP JUMP JUMPDEST PUSH32 0x4E487B7100000000000000000000000000000000000000000000000000000000 PUSH0 MSTORE PUSH1 0x32 PUSH1 0x4 MSTORE PUSH1 0x24 PUSH0 REVERT JUMPDEST PUSH0 PUSH2 0x12E9 DUP3 PUSH2 0x9E9 JUMP JUMPDEST SWAP2 POP PUSH2 0x12F4 DUP4 PUSH2 0x9E9 JUMP JUMPDEST SWAP3 POP DUP3 DUP3 ADD SWAP1 POP DUP1 DUP3 GT ISZERO PUSH2 0x130C JUMPI PUSH2 0x130B PUSH2 0x11AE JUMP JUMPDEST JUMPDEST SWAP3 SWAP2 POP POP JUMP JUMPDEST PUSH0 PUSH1 0x60 DUP3 ADD SWAP1 POP PUSH2 0x1325 PUSH0 DUP4 ADD DUP7 PUSH2 0xD92 JUMP JUMPDEST PUSH2 0x1332 PUSH1 0x20 DUP4 ADD DUP6 PUSH2 0xA47 JUMP JUMPDEST PUSH2 0x133F PUSH1 0x40 DUP4 ADD DUP5 PUSH2 0xD6A JUMP JUMPDEST SWAP5 SWAP4 POP POP POP POP JUMP JUMPDEST PUSH0 PUSH1 0x40 DUP3 ADD SWAP1 POP PUSH2 0x135A PUSH0 DUP4 ADD DUP6 PUSH2 0xA47 JUMP JUMPDEST DUP2 DUP2 SUB PUSH1 0x20 DUP4 ADD MSTORE PUSH2 0x136C DUP2 DUP5 PUSH2 0xA8E JUMP JUMPDEST SWAP1 POP SWAP4 SWAP3 POP POP POP JUMP INVALID LOG2 PUSH5 0x6970667358 0x22 SLT KECCAK256 SELFDESTRUCT DUP7 0xDD PUSH6 0xABA6815DAA6D 0xC1 0xC2 0xE7 SWAP9 SHR ADDMOD CALL 0xE1 0xCF 0xC0 0xC3 JUMPDEST KECCAK256 DUP1 0xCA PUSH21 0x55D8352E162C64736F6C634300081A003300000000 "
				},
				"gasEstimates": {
					"creation": {
						"codeDepositCost": "1007000",
						"executionCost": "infinite",
						"totalCost": "infinite"
					},
					"external": {
						"createProposal(string,uint256)": "infinite",
						"hasVoted(address,uint256)": "infinite",
						"owner()": "2515",
						"proposals(uint256)": "infinite",
						"renounceOwnership()": "infinite",
						"transferOwnership(address)": "infinite",
						"updateProposalStatus(uint256,string)": "infinite",
						"vote(uint256,bool)": "infinite",
						"voters(uint256,uint256)": "infinite"
					}
				},
				"methodIdentifiers": {
					"createProposal(string,uint256)": "35facf78",
					"hasVoted(address,uint256)": "42545825",
					"owner()": "8da5cb5b",
					"proposals(uint256)": "013cf08b",
					"renounceOwnership()": "715018a6",
					"transferOwnership(address)": "f2fde38b",
					"updateProposalStatus(uint256,string)": "d7c561fd",
					"vote(uint256,bool)": "c9d27afe",
					"voters(uint256,uint256)": "fba00cbd"
				}
			},
			"storageLayout": {
				"storage": [
					{
						"astId": 8,
						"contract": "contracts/VotingSystem.sol:VotingSystem",
						"label": "_owner",
						"offset": 0,
						"slot": "0",
						"type": "t_address"
					},
					{
						"astId": 201,
						"contract": "contracts/VotingSystem.sol:VotingSystem",
						"label": "proposals",
						"offset": 0,
						"slot": "1",
						"type": "t_array(t_struct(Proposal)197_storage)dyn_storage"
					},
					{
						"astId": 295,
						"contract": "contracts/VotingSystem.sol:VotingSystem",
						"label": "voters",
						"offset": 0,
						"slot": "2",
						"type": "t_mapping(t_uint256,t_array(t_address)dyn_storage)"
					}
				],
				"types": {
					"t_address": {
						"encoding": "inplace",
						"label": "address",
						"numberOfBytes": "20"
					},
					"t_array(t_address)dyn_storage": {
						"base": "t_address",
						"encoding": "dynamic_array",
						"label": "address[]",
						"numberOfBytes": "32"
					},
					"t_array(t_struct(Proposal)197_storage)dyn_storage": {
						"base": "t_struct(Proposal)197_storage",
						"encoding": "dynamic_array",
						"label": "struct ProposalManager.Proposal[]",
						"numberOfBytes": "32"
					},
					"t_mapping(t_uint256,t_array(t_address)dyn_storage)": {
						"encoding": "mapping",
						"key": "t_uint256",
						"label": "mapping(uint256 => address[])",
						"numberOfBytes": "32",
						"value": "t_array(t_address)dyn_storage"
					},
					"t_string_storage": {
						"encoding": "bytes",
						"label": "string",
						"numberOfBytes": "32"
					},
					"t_struct(Proposal)197_storage": {
						"encoding": "inplace",
						"label": "struct ProposalManager.Proposal",
						"members": [
							{
								"astId": 184,
								"contract": "contracts/VotingSystem.sol:VotingSystem",
								"label": "id",
								"offset": 0,
								"slot": "0",
								"type": "t_uint256"
							},
							{
								"astId": 186,
								"contract": "contracts/VotingSystem.sol:VotingSystem",
								"label": "title",
								"offset": 0,
								"slot": "1",
								"type": "t_string_storage"
							},
							{
								"astId": 188,
								"contract": "contracts/VotingSystem.sol:VotingSystem",
								"label": "fundsRequested",
								"offset": 0,
								"slot": "2",
								"type": "t_uint256"
							},
							{
								"astId": 190,
								"contract": "contracts/VotingSystem.sol:VotingSystem",
								"label": "status",
								"offset": 0,
								"slot": "3",
								"type": "t_string_storage"
							},
							{
								"astId": 192,
								"contract": "contracts/VotingSystem.sol:VotingSystem",
								"label": "votesFor",
								"offset": 0,
								"slot": "4",
								"type": "t_uint256"
							},
							{
								"astId": 194,
								"contract": "contracts/VotingSystem.sol:VotingSystem",
								"label": "votesAgainst",
								"offset": 0,
								"slot": "5",
								"type": "t_uint256"
							},
							{
								"astId": 196,
								"contract": "contracts/VotingSystem.sol:VotingSystem",
								"label": "allocatedAmount",
								"offset": 0,
								"slot": "6",
								"type": "t_uint256"
							}
						],
						"numberOfBytes": "224"
					},
					"t_uint256": {
						"encoding": "inplace",
						"label": "uint256",
						"numberOfBytes": "32"
					}
				}
			},
			"userdoc": {
				"kind": "user",
				"methods": {},
				"version": 1
			}
		}
	}
}